:020000040800F2
:1000000000500020BD1C00086D180008751800087D
:100010007D180008851800088D18000800000000F1
:10002000000000000000000000000000951800081B
:10003000A118000800000000AD180008B918000859
:10004000051D0008051D0008051D0008051D000808
:10005000051D0008051D0008051D0008051D0008F8
:10006000051D0008051D0008051D0008C51800082D
:10007000051D0008051D0008051D0008051D0008D8
:10008000051D0008051D0008D9180008051D0008F9
:10009000051D0008051D0008051D0008051D0008B8
:1000A000051D0008051D0008051D0008051D0008A8
:1000B000051D0008051D0008051D0008051D000898
:1000C000051D0008051D0008051D0008051D000888
:1000D000051D0008051D0008051D0008051D000878
:1000E000051D0008051D0008051D00080000000092
:1000F0000000000000000000000000000000000000
:0C01000000000000000000005FF808F1A3
:1001100010B5054C237833B9044B13B10448AFF341
:1001200000800123237010BDF001002000000000BA
:100130007CAA000808B5034B1BB103490348AFF381
:10014000008008BD00000000F40100207CAA000827
:10015000034613F8012B002AFBD1181A0138704707
:1001600081F0004102E000BF83F0004330B54FEA68
:1001700041044FEA430594EA050F08BF90EA020FD5
:100180001FBF54EA000C55EA020C7FEA645C7FEA68
:10019000655C00F0E2804FEA5454D4EB5555B8BF8B
:1001A0006D420CDD2C4480EA020281EA030382EAFC
:1001B000000083EA010180EA020281EA0303362D8E
:1001C00088BF30BD11F0004F4FEA01314FF4801C61
:1001D0004CEA113102D0404261EB410113F0004F73
:1001E0004FEA03334CEA133302D0524263EB43032A
:1001F00094EA050F00F0A780A4F10104D5F1200EC8
:100200000DDB02FA0EFC22FA05F2801841F1000122
:1002100003FA0EF2801843FA05F359410EE0A5F1F6
:1002200020050EF1200E012A03FA0EFC28BF4CF027
:10023000020C43FA05F3C01851EBE37101F00045DD
:1002400007D54FF0000EDCF1000C7EEB00006EEBEA
:100250000101B1F5801F1BD3B1F5001F0CD3490874
:100260005FEA30004FEA3C0C04F101044FEA4452CB
:1002700012F5800F80F09A80BCF1004F08BF5FEA52
:10028000500C50F1000041EB045141EA050130BD32
:100290005FEA4C0C404141EB0101013C28BFB1F544
:1002A000801FE9D291F0000F04BF01460020B1FA8F
:1002B00081F308BF2033A3F10B03B3F120020CDA62
:1002C0000C3208DD02F1140CC2F10C0201FA0CF040
:1002D00021FA02F10CE002F11402D8BFC2F1200CA5
:1002E00001FA02F120FA0CFCDCBF41EA0C0190405B
:1002F000E41AA2BF01EB0451294330BD6FEA0404A4
:100300001F3C1CDA0C340EDC04F11404C4F120028E
:1003100020FA04F001FA02F340EA030021FA04F3A0
:1003200045EA030130BDC4F10C04C4F1200220FAF7
:1003300002F001FA04F340EA0300294630BD21FA35
:1003400004F0294630BD94F0000F83F4801306BFFB
:1003500081F480110134013D4EE77FEA645C18BFEF
:100360007FEA655C29D094EA050F08BF90EA020F86
:1003700005D054EA000C04BF1946104630BD91EA7E
:10038000030F1EBF0021002030BD5FEA545C05D181
:100390004000494128BF41F0004130BD14F58004C0
:1003A0003CBF01F5801130BD01F0004545F0FE4134
:1003B00041F470014FF0000030BD7FEA645C1ABF69
:1003C000194610467FEA655C1CBF0B46024650EAA0
:1003D000013406BF52EA033591EA030F41F40021CC
:1003E00030BD00BF90F0000F04BF0021704730B552
:1003F0004FF4806404F132044FF000054FF0000127
:1004000050E700BF90F0000F04BF0021704730B5E7
:100410004FF4806404F1320410F0004548BF4042BC
:100420004FF000013EE700BF42004FEAE2014FEA11
:1004300031014FEA02701FBF12F07F4393F07F4FEC
:1004400081F06051704732F07F4208BF704793F0EF
:100450007F4F04BF41F40021704730B54FF4607402
:1004600001F0004521F000411CE700BF50EA010205
:1004700008BF704730B54FF000050AE050EA0102AE
:1004800008BF704730B511F0004502D5404261EB1E
:1004900041014FF4806404F132045FEA915C3FF45F
:1004A000D8AE4FF003025FEADC0C18BF03325FEAFC
:1004B000DC0C18BF033202EBDC02C2F1200300FAAD
:1004C00003FC20FA02F001FA03FE40EA0E0021FAD2
:1004D00002F11444BDE600BF70B54FF0FF0C4CF4C0
:1004E000E06C1CEA11541DBF1CEA135594EA0C0F72
:1004F00095EA0C0F00F0DEF82C4481EA030621EAAD
:100500004C5123EA4C5350EA013518BF52EA0335E7
:1005100041F4801143F4801338D0A0FB02CE4FF099
:100520000005E1FB02E506F00042E0FB03E54FF0C9
:100530000006E1FB03569CF0000F18BF4EF0010EC1
:10054000A4F1FF04B6F5007F64F5407404D25FEABD
:100550004E0E6D4146EB060642EAC62141EA555170
:100560004FEAC52040EA5E504FEACE2EB4F1FD0CB2
:1005700088BFBCF5E06F1ED8BEF1004F08BF5FEA30
:10058000500E50F1000041EB045170BD06F00046E2
:1005900046EA010140EA020081EA0301B4EB5C048F
:1005A000C2BFD4EB0C0541EA045170BD41F4801187
:1005B0004FF0000E013C00F3AB8014F1360FDEBFAC
:1005C000002001F0004170BDC4F10004203C35DA88
:1005D0000C341BDC04F11404C4F1200500FA05F30B
:1005E00020FA04F001FA05F240EA020001F00042AC
:1005F00021F0004110EBD37021FA04F642EB060122
:100600005EEA430E08BF20EAD37070BDC4F10C044B
:10061000C4F1200500FA04F320FA05F001FA04F20F
:1006200040EA020001F0004110EBD37041F10001FB
:100630005EEA430E08BF20EAD37070BDC4F1200506
:1006400000FA05F24EEA020E20FA04F301FA05F26E
:1006500043EA020321FA04F001F0004121FA04F216
:1006600020EA020000EBD3705EEA430E08BF20EAE6
:10067000D37070BD94F0000F0FD101F00046400020
:1006800041EB010111F4801F08BF013CF7D041EAA2
:10069000060195F0000F18BF704703F000465200A6
:1006A00043EB030313F4801F08BF013DF7D043EA77
:1006B0000603704794EA0C0F0CEA135518BF95EA2D
:1006C0000C0F0CD050EA410618BF52EA4306D1D1B4
:1006D00081EA030101F000414FF0000070BD50EAD3
:1006E000410606BF1046194652EA430619D094EA5D
:1006F0000C0F02D150EA013613D195EA0C0F05D147
:1007000052EA03361CBF104619460AD181EA03019A
:1007100001F0004141F0FE4141F470014FF0000052
:1007200070BD41F0FE4141F4780170BD70B54FF0ED
:10073000FF0C4CF4E06C1CEA11541DBF1CEA13556D
:1007400094EA0C0F95EA0C0F00F0A7F8A4EB05044F
:1007500081EA030E52EA03354FEA013100F0888046
:100760004FEA03334FF0805545EA131343EA12630F
:100770004FEA022245EA111545EA10654FEA0026C4
:100780000EF000419D4208BF964244F1FD0404F57D
:10079000407402D25B084FEA3202B61A65EB0305D9
:1007A0005B084FEA32024FF480104FF4002CB6EB96
:1007B000020E75EB030E22BFB61A754640EA0C0016
:1007C0005B084FEA3202B6EB020E75EB030E22BF56
:1007D000B61A754640EA5C005B084FEA3202B6EB97
:1007E000020E75EB030E22BFB61A754640EA9C0056
:1007F0005B084FEA3202B6EB020E75EB030E22BF26
:10080000B61A754640EADC0055EA060E18D04FEAE3
:10081000051545EA16754FEA06164FEAC30343EA83
:1008200052734FEAC2025FEA1C1CC0D111F4801F50
:100830000BD141EA00014FF000004FF0004CB6E749
:1008400011F4801F04BF01430020B4F1FD0C88BFE8
:10085000BCF5E06F3FF6AFAEB5EB030C04BFB6EBF3
:10086000020C5FEA500C50F1000041EB045170BDE6
:100870000EF0004E4EEA113114EB5C04C2BFD4EB13
:100880000C0541EA045170BD41F480114FF0000E97
:10089000013C90E645EA060E8DE60CEA135594EA13
:1008A0000C0F08BF95EA0C0F3FF43BAF94EA0C0F16
:1008B0000AD150EA01347FF434AF95EA0C0F7FF48B
:1008C00025AF104619462CE795EA0C0F06D152EADF
:1008D00003353FF4FDAE1046194622E750EA4106C3
:1008E00018BF52EA43067FF4C5AE50EA41047FF4D4
:1008F0000DAF52EA43057FF4EBAE12E74FF0FF3C39
:1009000006E000BF4FF0010C02E000BF4FF0010C09
:100910004DF804CD4FEA410C7FEA6C5C4FEA430C82
:1009200018BF7FEA6C5C1BD001B050EA410C0CBFD1
:1009300052EA430C91EA030F02BF90EA020F002033
:10094000704710F1000F91EA030F58BF994208BF9A
:1009500090422CBFD8176FEAE37040F00100704757
:100960004FEA410C7FEA6C5C02D150EA013C07D1AE
:100970004FEA430C7FEA6C5CD6D152EA033CD3D0F9
:100980005DF8040B704700BF8446104662468C46F3
:100990001946634600E000BF01B5FFF7B7FF002826
:1009A00048BF10F1000F01BD4DF808EDFFF7F4FF4F
:1009B0000CBF012000205DF808FB00BF4DF808EDDA
:1009C000FFF7EAFF34BF012000205DF808FB00BFFD
:1009D0004DF808EDFFF7E0FF94BF012000205DF81F
:1009E00008FB00BF4DF808EDFFF7CEFF94BF0120D4
:1009F00000205DF808FB00BF4DF808EDFFF7C4FFCD
:100A000034BF012000205DF808FB00BF4FEA410C15
:100A10007FEA6C5C02D150EA013C0AD14FEA430CF8
:100A20007FEA6C5C02D152EA033C02D14FF0000035
:100A300070474FF0010070474FEA410212F5001273
:100A400015D211D56FF47873B3EB625212D94FEA15
:100A5000C12343F0004343EA505311F0004F23FAFF
:100A600002F018BF404270474FF00000704750EA54
:100A7000013005D111F0004008BF6FF00040704711
:100A80004FF00000704700BF4A0011D212F500126B
:100A900011D20DD56FF47873B3EB62520ED44FEAD6
:100AA000C12343F0004343EA505323FA02F0704756
:100AB0004FF00000704750EA013002D14FF0FF3094
:100AC00070474FF0000070474FEA4102B2F1E04337
:100AD00024BFB3F5001CDCF1FE5C0DD901F0004C25
:100AE0004FEAC0024CEA5070B2F1004F40EB830075
:100AF00008BF20F00100704711F0804F21D113F1A1
:100B00003872BCBF01F00040704741F480114FEAD9
:100B10005252C2F11802C2F1200C10FA0CF320FA62
:100B200002F018BF40F001004FEAC1234FEAD3237F
:100B300003FA0CFC40EA0C0023FA02F34FEA4303E9
:100B4000CCE77FEA625307D150EA01331EBF4FF072
:100B5000FE4040F44000704701F0004040F0FE408D
:100B600040F40000704700BF38B50022002304465F
:100B70000D46FFF723FF28B920462946BDE8384037
:100B800000F00AB8204605F1004100F005F84042A7
:100B900061EB410138BD00BFD0B500220B4B0646CA
:100BA0000F46FFF799FCFFF76FFF0446FFF71AFCAB
:100BB0000022074BFFF790FC02460B4630463946B1
:100BC000FFF7D2FAFFF760FF2146D0BD0000F03DED
:100BD0000000F04180B584B000AF3B1D00221A60D8
:100BE0005A609A60204B214A1A601F4B4FF4807262
:100BF0009A601D4B01221A731B4B00221A751A4B67
:100C00004FF46022DA61184B00225A60164B022220
:100C10001A61154801F0FEF80346002B01D000F0E0
:100C2000C9FD00237B600123BB600723FB603B1DE4
:100C300019460D4801F07EFB0346002B01D000F061
:100C4000B9FD01237B600223BB603B1D19460648AA
:100C500001F070FB0346002B01D000F0ABFD00BF9C
:100C60001037BD4680BD00BF0C02002000240140AB
:100C700080B588B000AF786007F1100300221A60D9
:100C80005A609A60DA607B681B682C4A934251D1A3
:100C90002B4B9B692A4A43F400739361284B9B6951
:100CA00003F40073FB60FB68254B9B69244A43F007
:100CB00004039361224B9B6903F00403BB60BB6890
:100CC00003233B6103237B6107F1100319461D4891
:100CD00002F02EF81C4B1D4A1A601B4B00225A6072
:100CE000194B00229A60184B8022DA60164B4FF4A1
:100CF00080721A61144B4FF480625A61124B2022A9
:100D00009A61114B0022DA610F4801F023FE03467D
:100D1000002B01D000F04EFD7B680B4A1A620A4A94
:100D20007B68536200220121122001F0DCFD1220B9
:100D300001F0F5FD00BF2037BD4680BD0024014015
:100D400000100240000801403C0200200800024060
:100D500080B586B002AF03463960FB71FB793B7307
:100D600007F10C024FF0FF330093012340210C48A0
:100D700002F0D8FA0346FB73FB7B002B01D0FB7B10
:100D800009E04FF0FF33009301233A684021044803
:100D900002F0C6FB034618461037BD4680BD00BFB3
:100DA0008002002080B586B002AF03460A46FB7180
:100DB0001346BB71FB793B73BB797B7307F10C0264
:100DC0004FF0FF33009302234021044802F0AAFAB7
:100DD000034618461037BD4680BD00BF8002002084
:100DE00080B500AF07210120FFF7DCFF04210220BE
:100DF000FFF7D8FF05210320FFF7D4FF01210420CE
:100E0000FFF7D0FF1F210520FFF7CCFF0F210620A1
:100E1000FFF7C8FF0F210720FFF7C4FF0F210820AD
:100E2000FFF7C0FF00BF184680BD000080B582B04C
:100E300000AF0C4B5B690B4A43F001035361094B54
:100E40005B6903F001037B607B68002201210B20BA
:100E500001F049FD0B2001F062FD00BF0837BD46DF
:100E600080BD00BF0010024080B588B000AF07F120
:100E7000100300221A605A609A60DA60244B9B6962
:100E8000234A43F010039361214B9B6903F0100345
:100E9000FB60FB681E4B9B691D4A43F02003936176
:100EA0001B4B9B6903F02003BB60BB68184B9B691D
:100EB000174A43F004039361154B9B6903F0040345
:100EC0007B607B68124B9B69114A43F00803936176
:100ED0000F4B9B6903F008033B603B6800224FF413
:100EE00000510C4802F0A8F84FF400533B61012375
:100EF0007B610023BB610223FB6107F110031946EC
:100F0000044801F015FF00BF2037BD4680BD00BF7B
:100F1000001002400010014080B500AF124B134A90
:100F20001A60114B124A5A600F4B00229A600E4B06
:100F30000022DA600C4B4FF480421A610A4B002207
:100F40005A61094B00229A61074B0022DA61064B75
:100F500000221A62044802F0A1F80346002B01D0D7
:100F600000F028FC00BF80BD80020020005400403B
:100F7000A086010080B500AF124B134A1A60114BD6
:100F8000124A5A600F4B00229A600E4B0022DA6020
:100F90000C4B4FF480421A610A4B00225A61094BF4
:100FA00000229A61074B0022DA61064B00221A6286
:100FB000044802F073F80346002B01D000F0FAFB5E
:100FC00000BF80BDD402002000580040A086010070
:100FD00080B58AB000AF786007F1180300221A606C
:100FE0005A609A60DA607B681B682B4A934224D16E
:100FF0002A4B9B69294A43F008039361274B9B695D
:1010000003F008037B617B69C023BB611223FB6192
:1010100003237B6207F118031946214801F088FE7B
:101020001E4BDB691D4A43F40013D3611B4BDB6984
:1010300003F400133B613B6929E07B681B68194A94
:10104000934224D1154B9B69144A43F008039361E2
:10105000124B9B6903F00803FB60FB684FF440638D
:10106000BB611223FB6103237B6207F1180319465E
:101070000B4801F05DFE094BDB69084A43F480032D
:10108000D361064BDB6903F48003BB60BB6800BF20
:101090002837BD4680BD00BF00540040001002400C
:1010A000000C01400058004080B588B004AF786063
:1010B0000B46FB707B681868FB789AB24FF47A7322
:1010C00002930223019307F10C0300930123802173
:1010D00002F08CFD3B7B1B021AB27B7B1BB21343DD
:1010E0001BB29BB218461037BD4680BD80B588B094
:1010F00004AF78600B46FB7013463B803B881B0AAD
:101100009BB2DBB23B733B88DBB27B737B681868B6
:10111000FB789AB24FF47A7302930223019307F19A
:101120000C0300930123802102F066FC00BF1037FE
:10113000BD4680BD80B584B000AF7860022178687C
:10114000FFF7B2FF0346FB81FB89DB089BB29B00E4
:101150009BB218461037BD4680BD80B584B000AF45
:10116000786004217868FFF79FFF0346FB81B7F999
:101170000E3018461037BD4680BD0000000000004C
:1011800080B584B000AF786001217868FFF78CFFEC
:101190000346FB81FB891846FFF734F908A3D3E91E
:1011A0000023FFF799F902460B4610461946FFF750
:1011B0006BFC03469BB218461037BD4680BD00BF8E
:1011C0007B14AE47E17A843F80B582B000AF78608F
:1011D0004FF4004200217868FFF788FF012000F0FB
:1011E000F5FD00BF0837BD4680BD80B582B000AFB9
:1011F00078600B467B807B881A4605217868FFF76C
:1012000075FF00BF0837BD4680BD80B582B000AF16
:1012100078600B467B807B881A4600217868FFF750
:1012200065FF00BF0837BD4680BD000080B584B0B3
:1012300000AF786043F69F13FB810C4B4FF42052B4
:101240001A800B4B19221A800A4B00221A80074B76
:101250001B8819467868FFF7C8FFFB89194678682C
:10126000FFF7D3FF00BF1037BD4680BD2803002025
:101270002A0300202C03002080B586B000AFF86060
:10128000B9601346FB71FB68BA681A60FB68FA79AB
:101290001A71104B00221A800F4B00221A80FB7922
:1012A0009BB25B0099B202230322B86802F012FFDE
:1012B0000346FB75FB7D002B07D1F868FFF784FF21
:1012C000F868FFF7B3FF012300E000231846183742
:1012D000BD4680BD2A0300202C03002080B483B0CB
:1012E00000AF7860034B01221A7000BF0C37BD4677
:1012F00080BC70474603002080B592B000AF00F07C
:1013000003FD00F0F3F8FFF7AFFDFFF78FFD00F0EE
:101310005FFCFFF75FFC00F0B1FBFFF7FDFDFFF79F
:1013200029FE0C21644804F01DFA634BDA68624B15
:101330001B6852081A6402226049614800F042FEAC
:10134000402260496048FFF797FF5F48FFF76EFF54
:10135000002387F847305D495D4800F023F95B4B77
:101360001B881846FFF74EF84DA3D3E90023FFF77B
:10137000B3F802460B46104619464BA3D3E90023A7
:10138000FFF7D4F902460B461046194648A3D3E9A5
:101390000023FFF7A1F802460B4610461946FFF757
:1013A00073FB03469AB2494B1A80494B1B88184677
:1013B000FFF728F83AA3D3E90023FFF78DF8024698
:1013C0000B461046194638A3D3E90023FFF7AEF9C0
:1013D00002460B461046194635A3D3E90023FFF712
:1013E0007BF802460B4610461946FFF74DFB0346B5
:1013F0009AB2374B1A80FFF7F3FC354B1B88381D28
:10140000344A402105F01AFE3B1D1846FEF7A0FEA7
:1014100003469AB2391D4FF0FF332F4804F0CEFD3A
:101420002E4B1B88381D2B4A402105F007FE3B1D23
:101430001846FEF78DFE03469AB2391D4FF0FF3372
:10144000254804F0BBFD00F0F7F8034687F8473065
:1014500097F84730184600F05DF900F065F91A4832
:10146000FFF768FE03461A461D4B1A801648FFF721
:1014700087FE03461A461B4B1A801348FFF76DFE82
:1014800003469AB2154B1A804FF40051164801F0EA
:10149000EBFD4FF4FA6000F099FC00BF5BE700BF82
:1014A0006666666666660A40FCA9F1D24D62104027
:1014B0009A9999999999F13F4C03002030030020A3
:1014C0000C020020D4020020380300203603002044
:1014D0003403002098AA000894030020440300204D
:1014E00040030020420300200010014080B594B06A
:1014F00000AF07F1280328220021184606F042FD1C
:1015000007F1140300221A605A609A60DA601A61C7
:101510003B1D00221A605A609A60DA600123BB62A8
:101520004FF48033FB6200233B630123BB63022340
:101530007B644FF48033BB640023FB6407F1280312
:10154000184603F0F9FB0346002B01D000F032F9F6
:101550000F237B610223BB610023FB614FF4806397
:101560003B624FF4E0637B6207F1140300211846ED
:1015700003F064FE0346002B01D000F01BF90223A8
:101580007B604FF44043FB603B1D184603F0E4FFD3
:101590000346002B01D000F00DF900BF5037BD46C7
:1015A00080BD000080B487B000AF78603960002350
:1015B0007B6100233B610023FB731EE000BF1B4BDC
:1015C0001B78002BFBD01A4B1A887B681A80184BAB
:1015D0005A883B681A807B681B881A467B691344CB
:1015E0007B613B681B881A463B6913443B610F4B88
:1015F00000221A70FB7B0133FB73FB7BC72BDDD909
:101600007B690C4AA2FB03239B099AB27B681A8070
:101610003B69084AA2FB03239B099AB23B681A80E4
:1016200000BF1C37BD4680BC704700BF460300208A
:10163000300300201F85EB5180B582B000AF00233E
:10164000FB712B490020FFF783FB03461A46FB7909
:101650001343FB7127490120FFF77AFB03461A4623
:10166000FB791343FB7124490220FFF771FB03460A
:101670001A46FB791343FB7120490320FFF768FBEF
:1016800003461A46FB791343FB711D490420FFF7FB
:101690005FFB03461A46FB791343FB71194905208A
:1016A000FFF756FB03461A46FB791343FB711649B5
:1016B0000620FFF74DFB03461A46FB791343FB71E7
:1016C00012490720FFF744FB03461A46FB791343F0
:1016D000FB710F490820FFF73BFB03461A46FB79D5
:1016E0001343FB71FB7918460837BD4680BD00BF28
:1016F0001000002011000020120000201300002024
:101700001400002015000020160000201700002003
:101710001800002080B483B000AF0346FB7100BF07
:101720000C37BD4680BC704780B500AF1E4B1B7C9C
:10173000002B0AD006210120FFF734FB0A2000F01D
:1017400045FB07210120FFF72DFB184B1B881A468C
:10175000174B1B88D31AB3F5A67F0CDC124B5B7CAE
:1017600023F00203DAB2104B5A740F4B5B7C19461C
:101770000120FFF717FB0D4B1B881A460C4B1B88EB
:10178000D31AB3F5E97F0CDD074B5B7C23F0040330
:10179000DAB2054B5A74044B5B7C19460120FFF703
:1017A00001FB00BF80BD00BF00000020340300200B
:1017B0003603002080B400AF72B600BF00BFFDE763
:1017C00080B584B000AF274B9B69264A43F00103E4
:1017D0009361244B9B6903F00103BB60BB68214B01
:1017E000DB69204A43F08053D3611E4BDB6903F071
:1017F00080537B607B68002202216FF00B0001F0B8
:1018000072F8002202216FF00A0001F06CF8002249
:1018100002216FF0090001F066F8002202216FF04A
:10182000040001F060F8002202216FF0030001F0D3
:101830005AF8002202216FF0010001F054F80A4B1F
:101840005B68FB60FB6823F0E063FB60FB6843F0D0
:101850000073FB60044AFB68536000BF1037BD464D
:1018600080BD00BF001002400000014080B400AF06
:1018700000BFFDE780B400AF00BFFDE780B400AF5C
:1018800000BFFDE780B400AF00BFFDE780B400AF4C
:1018900000BFFDE780B400AF00BFBD4680BC70470D
:1018A00080B400AF00BFBD4680BC704780B400AFBD
:1018B00000BFBD4680BC704780B500AF00F06AFA3B
:1018C00000BF80BD80B500AF024801F0FDF800BF49
:1018D00080BD00BF3C02002080B500AF024800F090
:1018E0004FFC00BF80BD00BF0C02002080B400AFE1
:1018F00001231846BD4680BC704780B582B000AF5A
:101900007860396006F04AFB034616221A604FF0F1
:10191000FF3318460837BD4680BD80B582B000AFA2
:1019200078604FF0FF317868FFF7E7FF00BFFDE711
:1019300080B586B000AFF860B9607A6000237B6143
:101940000AE0AFF300800146BB685A1CBA60CAB215
:101950001A707B6901337B617A697B689A42F0DB9C
:101960007B6818461837BD4680BD80B586B000AF8D
:10197000F860B9607A6000237B6109E0BB685A1C9B
:10198000BA601B781846AFF300807B6901337B6136
:101990007A697B689A42F1DB7B6818461837BD4646
:1019A00080BD80B483B000AF78604FF0FF3318463D
:1019B0000C37BD4680BC704780B483B000AF786000
:1019C00039603B684FF400525A60002318460C37C8
:1019D000BD4680BC704780B483B000AF78600123FF
:1019E00018460C37BD4680BC704780B485B000AF48
:1019F000F860B9607A60002318461437BD4680BC91
:101A00007047000080B586B000AF7860144A154B6F
:101A1000D31A7B617B693B61134B1B68002B02D19E
:101A2000114B124A1A60104B1A687B6813443A69CA
:101A30009A4207D206F0B2FA03460C221A604FF01F
:101A4000FF3309E0084B1B68FB60074B1A687B6893
:101A50001344054A1360FB6818461837BD4680BD1D
:101A60000050002000040000480300203005002042
:101A700080B400AF00BFBD4680BC704780B58AB05F
:101A800000AF07F1200300221A605A603B1D0022BC
:101A90001A605A609A60DA601A615A619A61224B40
:101AA000224A1A60204B00225A601F4B00229A6083
:101AB0001D4B4FF4F572DA601B4B00221A611A4B72
:101AC00000229A61184803F0FDFD0346002B01D067
:101AD000FFF770FE00233B6200237B6207F12003C7
:101AE0001946114804F0BCF90346002B01D0FFF75A
:101AF00061FE60237B600023BB600023FB6000234A
:101B00007B613B1D0C221946074803F0CDFE0346BE
:101B1000002B01D0FFF74EFE034800F027F800BF6E
:101B20002837BD4680BD00BF4C03002000040040A4
:101B300080B485B000AF78607B681B68094A934227
:101B40000BD1094BDB69084A43F00203D361064B12
:101B5000DB6903F00203FB60FB6800BF1437BD467E
:101B600080BC7047000400400010024080B588B07F
:101B700000AF786007F1100300221A605A609A6083
:101B8000DA607B681B680F4A934217D10E4B9B6942
:101B90000D4A43F0080393610B4B9B6903F0080364
:101BA000FB60FB6802233B6102237B610223FB6134
:101BB00007F110031946054801F0BAF800BF2037B5
:101BC000BD4680BD0004004000100240000C0140F2
:101BD00080B500AF114B124A1A60104B4FF41652E9
:101BE0005A600E4B00229A600C4B0022DA600B4BBD
:101BF00000221A61094B0C225A61084B00229A619B
:101C0000064B0022DA61054804F088F90346002BF0
:101C100001D0FFF7CFFD00BF80BD00BF94030020BF
:101C20000038014080B588B000AF786007F110033C
:101C300000221A605A609A60DA607B681B681C4A4E
:101C4000934231D11B4B9B691A4A43F48043936101
:101C5000184B9B6903F48043FB60FB68154B9B6941
:101C6000144A43F004039361124B9B6903F004038D
:101C7000BB60BB684FF400733B6102237B610323AD
:101C8000FB6107F1100319460B4801F051F84FF4BE
:101C900080633B6100237B610023BB6107F110037C
:101CA0001946054801F044F800BF2037BD4680BD05
:101CB000003801400010024000080140FFF7D8FE44
:101CC0000B480C490C4A002302E0D458C45004339A
:101CD000C4188C42F9D3094A094C002301E013606F
:101CE0000432A242FBD306F05FF9FFF705FB704711
:101CF00000000020F001002004AF0008F0010020E7
:101D00002C050020FEE7000080B500AF084B1B68E3
:101D1000074A43F010031360032000F0D9FD0F20A1
:101D200000F008F8FFF74CFD0023184680BD00BF07
:101D30000020024080B582B000AF7860124B1A6874
:101D4000124B1B7819464FF47A73B3FBF1F3B2FBD5
:101D5000F3F3184600F0F1FD0346002B01D00123F8
:101D60000EE07B680F2B0AD8002279684FF0FF3015
:101D700000F0B9FD064A7B681360002300E00123F0
:101D800018460837BD4680BD1C00002024000020F6
:101D90002000002080B400AF054B1B781A46054B8D
:101DA0001B681344034A136000BFBD4680BC7047E4
:101DB00024000020DC03002080B400AF024B1B682D
:101DC0001846BD4680BC7047DC03002080B584B057
:101DD00000AF7860FFF7F0FFB8607B68FB60FB68DE
:101DE000B3F1FF3F05D00A4B1B781A46FB6813443A
:101DF000FB6000BFFFF7E0FF0246BB68D31AFA683A
:101E00009A42F7D800BF00BF1037BD4680BD00BF63
:101E10002400002080B586B000AF78600023FB75F9
:101E200000233B610023BB600023FB607B68002B29
:101E300001D10123BEE07B689B68002B7B689B6A15
:101E4000002B09D17B680022DA627B68002283F8CC
:101E500024207868FEF70CFF786800F0BDFB03468D
:101E6000FB757B689B6A03F01003002B40F09980A0
:101E7000FB7D002B40F095807B689B6A23F48853A0
:101E800023F0020343F002027B689A627B685A687F
:101E90007B68DB691A437B681B7B5B001343BA6872
:101EA0001343BB607B689B68B3F5807F03D07B687E
:101EB0009B68012B02D14FF4807300E000233A6944
:101EC00013433B617B681B7D012B19D17B681B7B16
:101ED000002B09D17B689B69013B5A033B69134383
:101EE00043F400633B610BE07B689B6A43F0200294
:101EF0007B689A627B68DB6A43F001027B68DA6286
:101F00007B681B685B6823F469417B681B683A69DE
:101F10000A435A607B681B689A68284B13407A68AA
:101F20001268B9680B4393607B689B68B3F5807F48
:101F300003D07B689B68012B04D17B681B69013B44
:101F40001B05FB607B681B68DB6A23F470017B6800
:101F50001B68FA680A43DA627B681B689A68184B48
:101F60001340BA689A420BD17B680022DA627B6820
:101F70009B6A23F0030343F001027B689A6218E036
:101F80007B689B6A23F0120343F010027B689A621D
:101F90007B68DB6A43F001027B68DA620123FB7530
:101FA00007E07B689B6A43F010027B689A6201231A
:101FB000FB75FB7D18461837BD4680BDFDF7E1FF78
:101FC000FE0E1FFF80B586B000AFF860B9607A6082
:101FD0000023FB75FB681B68644A934204D0FB68CE
:101FE0001B68634A934206D1604B5B6803F470231D
:101FF000002B40F0B380FB6893F82430012B01D113
:102000000223AEE0FB68012283F82420F86800F088
:1020100089FA0346FB75FB7D002B40F09A80FB6834
:102020009B6A23F4706323F0010343F48072FB681E
:102030009A62FB681B684E4A934205D14B4B5B6822
:1020400003F47023002B15D1FB689B6A23F48012E4
:10205000FB689A62FB681B685B6803F48063002B73
:1020600026D0FB689B6A23F4405343F48052FB68FC
:102070009A621DE0FB689B6A43F48012FB689A62D7
:10208000FB681B68394A934204D0FB681B68384AD6
:1020900093420DD1354B5B6803F48063002B07D06E
:1020A000FB689B6A23F4405343F48052FB689A62B6
:1020B000FB689B6A03F48053002B06D0FB68DB6A45
:1020C00023F00602FB68DA6202E0FB680022DA62B3
:1020D000FB68002283F82420FB681B6A254A9A6269
:1020E000FB681B6A244ADA62FB681B6A234A1A638C
:1020F000FB681B686FF002021A60FB681B689A6835
:10210000FB681B6842F480729A60FB68186AFB687F
:102110001B684C331946BA687B6800F075FCFB6895
:102120001B689B6803F46023B3F5602F08D1FB683C
:102130001B689A68FB681B6842F4A0029A600FE073
:10214000FB681B689A68FB681B6842F480129A60FF
:1021500006E0FB68002283F8242001E00123FB75E0
:10216000FB7D18461837BD4680BD00BF00240140E6
:10217000002801405B260008D7260008F326000847
:1021800080B584B000AF78607B681B681B68FB601B
:102190007B681B685B68BB60BB6803F02003002B97
:1021A0003ED0FB6803F00203002B39D07B689B6AAA
:1021B00003F01003002B05D17B689B6A43F4007287
:1021C0007B689A627B681B689B6803F46023B3F5A5
:1021D000602F1DD17B681B7B002B19D17B681B688E
:1021E0005A687B681B6822F020025A607B689B6AF1
:1021F00023F480727B689A627B689B6A03F4805345
:10220000002B05D17B689B6A43F001027B689A62D0
:102210007868FFF763F87B681B686FF012021A603A
:10222000BB6803F08003002B4DD0FB6803F0040370
:10223000002B48D07B689B6A03F01003002B05D16C
:102240007B689B6A43F400527B689A627B681B68D8
:102250009B6803F4E043B3F5E04F12D07B681B6842
:102260005B6803F48063002B25D17B681B689B6847
:1022700003F46023B3F5602F1DD17B681B7B002B1B
:1022800019D17B681B685A687B681B6822F0800242
:102290005A607B689B6A23F480527B689A627B68F1
:1022A0009B6A03F48073002B05D17B689B6A43F023
:1022B00001027B689A62786800F035FA7B681B68D7
:1022C0006FF00C021A60BB6803F04003002B12D0C1
:1022D000FB6803F00103002B0DD07B689B6A43F47D
:1022E00080327B689A62786800F012F87B681B681D
:1022F0006FF001021A6000BF1037BD4680BD80B488
:1023000083B000AF786000BF0C37BD4680BC70471B
:1023100080B483B000AF786000BF0C37BD4680BC8E
:10232000704780B483B000AF786000BF0C37BD4603
:1023300080BC704780B485B000AF786039600023FE
:10234000FB730023BB607B6893F82430012B01D121
:102350000223DCE07B68012283F824203B685B6871
:10236000062B1CD87B681B68596B3B685A68134660
:102370009B001344053B1F2202FA03F3DB43194081
:102380003B6818683B685A6813469B001344053B3A
:1023900000FA03F27B681B680A435A633CE03B681F
:1023A0005B680C2B1CD87B681B68196B3B685A68F0
:1023B00013469B001344233B1F2202FA03F3DB4323
:1023C00019403B6818683B685A6813469B001344E1
:1023D000233B00FA03F27B681B680A431A631BE085
:1023E0007B681B68D96A3B685A6813469B00134494
:1023F000413B1F2202FA03F3DB4319403B68186894
:102400003B685A6813469B001344413B00FA03F2B1
:102410007B681B680A43DA623B681B68092B1CD97E
:102420007B681B68D9683B681A6813465B001344D5
:102430001E3B072202FA03F3DB4319403B6898680E
:102440003B681A6813465B0013441E3B00FA03F214
:102450007B681B680A43DA6019E07B681B681969AE
:102460003B681A6813465B001344072202FA03F321
:10247000DB4319403B6898683B681A6813465B0069
:10248000134400FA03F27B681B680A431A613B6835
:102490001B68102B03D03B681B68112B32D17B6863
:1024A0001B681D4A934225D17B681B689B6803F417
:1024B0000003002B26D17B681B689A687B681B6829
:1024C00042F400029A603B681B68102B1AD1134B30
:1024D0001B68134AA2FB03239A0C13469B00134468
:1024E0005B00BB6002E0BB68013BBB60BB68002BCC
:1024F000F9D107E07B689B6A43F020027B689A620F
:102500000123FB737B68002283F82420FB7B1846A1
:102510001437BD4680BC7047002401401C000020D9
:1025200083DE1B4380B584B000AF78600023FB607E
:102530000023BB607B681B689B6803F00103012BD1
:1025400040D07B681B689A687B681B6842F0010278
:102550009A601F4B1B681F4AA2FB03239B0CBB60A6
:1025600002E0BB68013BBB60BB68002BF9D1FFF701
:1025700023FCF8601FE0FFF71FFC0246FB68D31A3C
:10258000022B18D97B681B689B6803F00103012BA1
:1025900011D07B689B6A43F010027B689A627B686B
:1025A000DB6A43F001027B68DA627B68002283F811
:1025B0002420012307E07B681B689B6803F001036C
:1025C000012BD8D1002318461037BD4680BD00BF6F
:1025D0001C00002083DE1B4380B584B000AF786010
:1025E0000023FB607B681B689B6803F00103012BE1
:1025F0002ED17B681B689A687B681B6822F00102F9
:102600009A60FFF7D9FBF8601BE0FFF7D5FB0246A5
:10261000FB68D31A022B14D97B681B689B6803F0F4
:102620000103012B0DD17B689B6A43F010027B688C
:102630009A627B68DB6A43F001027B68DA620123FD
:1026400007E07B681B689B6803F00103012BDCD06B
:10265000002318461037BD4680BD80B584B000AF5A
:1026600078607B685B6AFB60FB689B6A03F05003E1
:10267000002B27D1FB689B6A43F40072FB689A62C7
:10268000FB681B689B6803F46023B3F5602F15D1CA
:10269000FB681B7B002B11D1FB689B6A23F48072C3
:1026A000FB689A62FB689B6A03F48053002B05D198
:1026B000FB689B6A43F00102FB689A62F868FEF7C8
:1026C0000DFE04E0FB681B6A1B6B7868984700BF2F
:1026D0001037BD4680BD80B584B000AF78607B68A0
:1026E0005B6AFB60F868FFF70AFE00BF1037BD4663
:1026F00080BD80B584B000AF78607B685B6AFB60AA
:10270000FB689B6A43F04002FB689A62FB68DB6AE5
:1027100043F00402FB68DA62F868FFF702FE00BFCC
:102720001037BD4680BD80B483B000AF786000BF75
:102730000C37BD4680BC704780B485B000AF786070
:102740007B6803F00703FB600C4BDB68BB60BA6877
:102750004FF6FF031340BB60FB681A02BB681343CC
:1027600043F0BF6343F40033BB60044ABB68D360EB
:1027700000BF1437BD4680BC704700BF00ED00E0CD
:1027800080B400AF044BDB681B0A03F00703184654
:10279000BD4680BC704700BF00ED00E080B483B050
:1027A00000AF0346FB7197F90730002B0BDBFB7979
:1027B00003F01F02064997F907305B09012000FA70
:1027C00002F241F8232000BF0C37BD4680BC7047A1
:1027D00000E100E080B483B000AF03463960FB71D4
:1027E00097F90730002B0ADB3B68DAB20C4997F9FE
:1027F00007301201D2B20B4483F800230AE03B6891
:10280000DAB20849FB7903F00F03043B1201D2B29C
:102810000B441A7600BF0C37BD4680BC704700BF22
:1028200000E100E000ED00E080B489B000AFF860A6
:10283000B9607A60FB6803F00703FB61FB69C3F1D1
:102840000703042B28BF0423BB61FB690433062B59
:1028500002D9FB69033B00E000237B614FF0FF32AC
:10286000BB6902FA03F3DA43BB681A407B699A40FA
:102870004FF0FF317B6901FA03F3D9437B680B40CA
:10288000134318462437BD4680BC704780B582B0DC
:1028900000AF78607B68013BB3F1807F01D30123F7
:1028A0000FE00A4A7B68013B53600F214FF0FF3075
:1028B000FFF790FF054B00229A60044B07221A6035
:1028C000002318460837BD4680BD00BF10E000E079
:1028D00080B582B000AF78607868FFF72DFF00BF49
:1028E0000837BD4680BD80B586B000AF0346B960ED
:1028F0007A60FB7300237B61FFF742FF78617A689F
:10290000B9687869FFF790FF024697F90F301146D2
:102910001846FFF75FFF00BF1837BD4680BD80B582
:1029200082B000AF0346FB7197F907301846FFF7F6
:1029300035FF00BF0837BD4680BD80B582B000AF0F
:1029400078607868FFF7A2FF034618460837BD464F
:1029500080BD000080B485B000AF78600023FB60CC
:102960007B68002B01D1012343E07B681B681A467A
:10297000224B1344224AA2FB03231B099A007B68C3
:102980001A647B681F4ADA637B68022283F821207D
:102990007B681B681B68FB60FB6823F47F5323F094
:1029A0003003FB607B685A687B689B681A437B68CE
:1029B000DB681A437B681B691A437B685B691A43AF
:1029C0007B689B691A437B68DB691343FA6813438E
:1029D000FB607B681B68FA681A607B6800229A6358
:1029E0007B68012283F821207B68002283F8202065
:1029F000002318461437BD4680BC7047F8FFFDBF62
:102A0000CDCCCCCC0000024080B586B000AFF860E1
:102A1000B9607A603B600023FB75FB6893F8203057
:102A2000012B01D102234BE0FB68012283F8202017
:102A3000FB6893F82130DBB2012B3AD1FB6802220C
:102A400083F82120FB6800229A63FB681B681A68E0
:102A5000FB681B6822F001021A603B687A68B9685B
:102A6000F86800F037F9FB68DB6A002B08D0FB68D8
:102A70001B681A68FB681B6842F00E021A600FE0C0
:102A8000FB681B681A68FB681B6822F004021A6066
:102A9000FB681B681A68FB681B6842F00A021A6030
:102AA000FB681B681A68FB681B6842F001021A6029
:102AB00005E0FB68002283F820200223FB75FB7DE4
:102AC00018461837BD4680BD80B584B000AF786029
:102AD0007B68DB6B1B68FB607B681B681B68BB60EB
:102AE0007B681B6C04229A40FB681340002B4FD07C
:102AF000BB6803F00403002B4AD07B681B681B688B
:102B000003F02003002B07D17B681B681A687B68E1
:102B10001B6822F004021A607B681B68664A9342B5
:102B200029D07B681B68654A934222D07B681B686A
:102B3000634A93421AD07B681B68624A934212D060
:102B40007B681B68604A93420AD07B681B685F4AB7
:102B5000934202D14FF480030EE04FF080630BE00C
:102B60004FF4802308E04FF4804305E04FF4806386
:102B700002E0402300E00423554A53607B68DB6A8F
:102B8000002B00F094807B68DB6A786898478EE0C1
:102B90007B681B6C02229A40FB681340002B56D0C6
:102BA000BB6803F00203002B51D07B681B681B68D5
:102BB00003F02003002B0BD17B681B681A687B682D
:102BC0001B6822F00A021A607B68012283F8212028
:102BD0007B681B68384A934229D07B681B68374A58
:102BE000934222D07B681B68354A93421AD07B6897
:102BF0001B68344A934212D07B681B68324A934266
:102C00000AD07B681B68314A934202D14FF400130B
:102C10000EE04FF000730BE04FF4003308E04FF488
:102C2000005305E04FF4007302E0202300E002238C
:102C3000274A53607B68002283F820207B689B6AC8
:102C4000002B34D07B689B6A786898472FE07B68BC
:102C50001B6C08229A40FB681340002B28D0BB68ED
:102C600003F00803002B23D07B681B681A687B687D
:102C70001B6822F00E021A607B681A6C7B68DB6BA3
:102C8000012101FA02F25A607B6801229A637B6893
:102C9000012283F821207B68002283F820207B68B2
:102CA0001B6B002B04D07B681B6B7868984700BFB8
:102CB00000BF1037BD4680BD080002401C00024026
:102CC0003000024044000240580002406C000240C4
:102CD0000000024080B485B000AFF860B9607A604F
:102CE0003B60FB681A6CFB68DB6B012101FA02F2A6
:102CF0005A60FB681B683A685A60FB685B68102B77
:102D000008D1FB681B687A689A60FB681B68BA6820
:102D1000DA6007E0FB681B68BA689A60FB681B68AA
:102D20007A68DA6000BF1437BD4680BC7047000087
:102D300080B48BB000AF7860396000237B620023E1
:102D40003B6269E101227B6A02FA03F3FB613B68A3
:102D50001B68FA691340BB61BA69FB699A4240F08B
:102D600058813B685B689A4A93425ED0984A934286
:102D700075D8984A934258D0964A93426FD8964A4B
:102D8000934252D0944A934269D8944A93424CD089
:102D9000924A934263D8924A934246D0904A9342D1
:102DA0005DD8122B2AD8122B59D801A252F823F041
:102DB0002B2E0008052E0008172E0008592E00089B
:102DC0005F2E00085F2E00085F2E00085F2E0008AF
:102DD0005F2E00085F2E00085F2E00085F2E00089F
:102DE0005F2E00085F2E00085F2E00085F2E00088F
:102DF0005F2E00080D2E0008212E0008794A93420C
:102E000013D02CE03B68DB683B6229E03B68DB6861
:102E100004333B6224E03B68DB6808333B621FE01D
:102E20003B68DB680C333B621AE03B689B68002B15
:102E300002D104233B6213E03B689B68012B05D160
:102E400008233B627B68FA691A6109E008233B6248
:102E50007B68FA695A6103E000233B6200E000BF2F
:102E6000BB69FF2B01D87B6801E07B6804337B6181
:102E7000BB69FF2B02D87B6A9B0002E07B6A083BA0
:102E80009B003B617B691A680F213B6901FA03F3E0
:102E9000DB431A40396A3B6901FA03F31A437B6941
:102EA0001A603B685B6803F08053002B00F0B18030
:102EB0004D4B9B694C4A43F0010393614A4B9B691C
:102EC00003F00103BB60BB68484A7B6A9B0802337E
:102ED00052F82330FB607B6A03F003039B000F2250
:102EE00002FA03F3DB43FA681340FB607B68404A55
:102EF000934213D07B683F4A93420DD07B683E4A91
:102F0000934207D07B683D4A934201D1032306E0F8
:102F1000042304E0022302E0012300E000237A6A94
:102F200002F0030292009340FA681343FB602F49BA
:102F30007B6A9B080233FA6841F823203B685B6890
:102F400003F48013002B06D02D4B9A682C49BB69E3
:102F500013438B6006E02A4B9A68BB69DB43284920
:102F600013408B603B685B6803F40013002B06D0B2
:102F7000234BDA682249BB691343CB6006E0204B40
:102F8000DA68BB69DB431E491340CB603B685B6872
:102F900003F40033002B06D0194B5A681849BB695B
:102FA00013434B6006E0164B5A68BB69DB43144978
:102FB00013404B603B685B6803F48033002B21D0E7
:102FC0000F4B1A680E49BB6913430B6021E000BF29
:102FD000000032100000311000002210000021100B
:102FE000000012100000111000100240000001400B
:102FF00000080140000C0140001001400014014095
:10300000000401400B4B1A68BB69DB4309491340BC
:103010000B607B6A01337B623B681A687B6A22FA29
:1030200003F3002B7FF48EAE00BF00BF2C37BD46EC
:1030300080BC70470004014080B483B000AF78606A
:103040000B467B8013467B707B78002B03D07A88FD
:103050007B681A6103E07B881A047B681A6100BFF1
:103060000C37BD4680BC704780B485B000AF786037
:103070000B467B807B68DB68FB607A88FB681340CB
:103080001A04FB68D9437B880B401A437B681A619A
:1030900000BF1437BD4680BC7047000080B584B0C7
:1030A00000AF78607B68002B01D101232BE17B68A6
:1030B00093F83D30DBB2002B06D17B68002283F809
:1030C0003C207868FDF784FF7B68242283F83D204C
:1030D0007B681B681A687B681B6822F001021A6013
:1030E0007B681B681A687B681B6842F400421A60A0
:1030F0007B681B681A687B681B6822F400421A60B0
:1031000002F0E4F9F8607B685B68814A934207D873
:10311000FB68804A934294BF01230023DBB206E0A0
:10312000FB687D4A934294BF01230023DBB2002B4E
:1031300001D00123E7E0FB68784AA2FB03239B0C44
:10314000BB607B681B685B6823F03F017B681B6882
:10315000BA680A435A607B681B681B6A23F03F0108
:103160007B685B686A4A934202D8BB68013309E016
:10317000BB684FF4967202FB03F3694AA2FB032378
:103180009B0901337A6812680B4313627B681B68E2
:10319000DB6923F44F4222F0FF027B685B685C49E5
:1031A0008B4219D8FB68591E7B685B685B00B1FBDA
:1031B000F3F3591C40F6FC730B40002B0AD0FB685C
:1031C000591E7B685B685B00B1FBF3F30133C3F30B
:1031D0000B0351E004234FE07B689B68002B11D167
:1031E000FB68581E7B6859680B465B000B44B0FBBC
:1031F000F3F30133C3F30B03002B0CBF01230023B4
:10320000DBB212E0FB68581E7B6859680B469B00D6
:103210000B4499000B44B0FBF3F30133C3F30B03EE
:10322000002B0CBF01230023DBB2002B01D00123B4
:1032300022E07B689B68002B0ED1FB68581E7B68E0
:1032400059680B465B000B44B0FBF3F30133C3F347
:103250000B0343F400430FE0FB68581E7B6859687A
:103260000B469B000B4499000B44B0FBF3F3013376
:10327000C3F30B0343F44043796809681343CB61FC
:103280007B681B681B6823F0C0017B68DA697B6878
:103290001B6A1A437B681B680A431A607B681B68B9
:1032A0009B6823F4034323F0FF037A6811697A686B
:1032B000D26811437A6812680B4393607B681B687D
:1032C000DB6823F0FF017B685A697B689B691A43BE
:1032D0007B681B680A43DA607B681B681A687B6836
:1032E0001B6842F001021A607B6800221A647B6846
:1032F000202283F83D207B6800221A637B6800222D
:1033000083F83E20002318461037BD4680BD00BF1D
:10331000A08601007F841E00FF083D0083DE1B4362
:10332000D34D621080B588B002AFF8607A601A465B
:103330000B467B8113463B81FEF73EFD7861FB68BF
:1033400093F83D30DBB2202B40F0E0807B690093A6
:10335000192301227049F86801F0B8FA0346002BDE
:1033600001D00223D3E0FB6893F83C30012B01D15C
:103370000223CCE0FB68012283F83C20FB681B6839
:103380001B6803F00103012B07D0FB681B681A6858
:10339000FB681B6842F001021A60FB681B681A6830
:1033A000FB681B6822F400621A60FB68212283F824
:1033B0003D20FB68102283F83E20FB6800221A643F
:1033C000FB687A685A62FB683A895A85FB685B8DAC
:1033D0009AB2FB681A85FB68504ADA6279897B6980
:1033E0003A6AF86800F0A4FF0346002B01D00123DD
:1033F0008DE000233B61FB681B685B693B61FB68F8
:103400001B689B693B613B6966E07A69396AF868C9
:1034100001F076FB0346002B0DD0FB681B6C042BE0
:1034200007D1FB681B681A68FB681B6842F40072CE
:103430001A6001236BE0FB685B6A1A78FB681B6803
:103440001A61FB685B6A5A1CFB685A62FB685B8DF9
:103450009BB2013B9AB2FB685A85FB681B8D013B0E
:103460009AB2FB681A85FB681B685B6903F004036A
:10347000042B1BD1FB681B8D002B17D0FB685B6AEC
:103480001A78FB681B681A61FB685B6A5A1CFB6848
:103490005A62FB685B8D9BB2013B9AB2FB685A850E
:1034A000FB681B8D013B9AB2FB681A857A69396A01
:1034B000F86801F06DFB0346002B0DD0FB681B6C18
:1034C000042B07D1FB681B681A68FB681B6842F471
:1034D00000721A6001231AE0FB681B8D002B94D147
:1034E000FB681B681A68FB681B6842F400721A606C
:1034F000FB68202283F83D20FB68002283F83E20F1
:10350000FB68002283F83C20002300E002231846D9
:103510001837BD4680BD00BF020010000000FFFF4D
:1035200080B58CB002AFF8607A601A460B467B819A
:1035300013463B8100233B62FEF73EFC7862FB684A
:1035400093F83D30DBB2202B40F04B827B6A009336
:10355000192301227F49F86801F0B8F90346002BCE
:1035600001D002233EE2FB6893F83C30012B01D1ED
:10357000022337E2FB68012283F83C20FB681B68CA
:103580001B6803F00103012B07D0FB681B681A6856
:10359000FB681B6842F001021A60FB681B681A682E
:1035A000FB681B6822F400621A60FB68222283F821
:1035B0003D20FB68102283F83E20FB6800221A643D
:1035C000FB687A685A62FB683A895A85FB685B8DAA
:1035D0009AB2FB681A85FB685F4ADA6279897B6A6E
:1035E0003A6BF86800F026FF0346002B01D0012358
:1035F000F8E1FB681B8D002B13D10023FB61FB68F6
:103600001B685B69FB61FB681B689B69FB61FB696D
:10361000FB681B681A68FB681B6842F400721A603A
:10362000CCE1FB681B8D012B1ED1FB681B681A685F
:10363000FB681B6822F480621A6072B600BF002328
:10364000BB61FB681B685B69BB61FB681B689B69AE
:10365000BB61BB69FB681B681A68FB681B6842F4A6
:1036600000721A6062B635E0FB681B8D022B1ED11A
:10367000FB681B681A68FB681B6842F400621A60EA
:1036800072B600BF00237B61FB681B685B697B61CE
:10369000FB681B689B697B617B69FB681B681A6818
:1036A000FB681B6822F480621A6062B612E0FB6855
:1036B0001B681A68FB681B6842F480621A6000236A
:1036C0003B61FB681B685B693B61FB681B689B692E
:1036D0003B613B6972E1FB681B8D032B00F21F818C
:1036E000FB681B8D012B23D17A6A396BF86801F0D6
:1036F00097FA0346002B01D0012373E1FB681B6896
:103700001A69FB685B6AD2B21A70FB685B6A5A1C62
:10371000FB685A62FB681B8D013B9AB2FB681A85F5
:10372000FB685B8D9BB2013B9AB2FB685A8545E111
:10373000FB681B8D022B52D17B6A00933B6B0022EE
:103740000649F86801F0C2F80346002B08D00123AF
:1037500048E100BF020010000000FFFF040001006C
:1037600072B600BFFB681B681A68FB681B6842F4EE
:1037700000721A60FB681B681A69FB685B6AD2B248
:103780001A70FB685B6A5A1CFB685A62FB681B8DE7
:10379000013B9AB2FB681A85FB685B8D9BB2013BCB
:1037A0009AB2FB685A8562B600BFFB681B681A694B
:1037B000FB685B6AD2B21A70FB685B6A5A1CFB68D2
:1037C0005A62FB681B8D013B9AB2FB681A85FB6845
:1037D0005B8D9BB2013B9AB2FB685A85EEE07B6A37
:1037E00000933B6B00228149F86801F06FF80346B3
:1037F000002B01D00123F5E0FB681B681A68FB6809
:103800001B6822F480621A6072B600BFFB681B68F6
:103810001A69FB685B6AD2B21A70FB685B6A5A1C51
:10382000FB685A62FB681B8D013B9AB2FB681A85E4
:10383000FB685B8D9BB2013B9AB2FB685A856C4B6F
:103840001B68DB086B4AA2FB03231A0A13469B0082
:103850001344DA00D31A3B623B6A013B3B623B6A8A
:10386000002B18D1FB6800221A63FB68202283F822
:103870003D20FB68002283F83E20FB681B6C43F070
:103880002002FB681A6462B600BFFB68002283F85E
:103890003C200123A6E0FB681B685B6903F004037E
:1038A000042BD9D1FB681B681A68FB681B6842F4BB
:1038B00000721A60FB681B681A69FB685B6AD2B207
:1038C0001A70FB685B6A5A1CFB685A62FB681B8DA6
:1038D000013B9AB2FB681A85FB685B8D9BB2013B8A
:1038E0009AB2FB685A8562B600BFFB681B681A690A
:1038F000FB685B6AD2B21A70FB685B6A5A1CFB6891
:103900005A62FB681B8D013B9AB2FB681A85FB6803
:103910005B8D9BB2013B9AB2FB685A854EE07A6A96
:10392000396BF86801F07CF90346002B01D00123C4
:1039300058E0FB681B681A69FB685B6AD2B21A70B0
:10394000FB685B6A5A1CFB685A62FB681B8D013B73
:103950009AB2FB681A85FB685B8D9BB2013B9AB2F9
:10396000FB685A85FB681B685B6903F00403042B42
:1039700024D1FB681B8D032B07D1FB681B681A68D9
:10398000FB681B6822F480621A60FB681B681A6976
:10399000FB685B6AD2B21A70FB685B6A5A1CFB68F0
:1039A0005A62FB681B8D013B9AB2FB681A85FB6863
:1039B0005B8D9BB2013B9AB2FB685A85FB681B8DFD
:1039C000002B7FF488AEFB68202283F83D20FB6843
:1039D000002283F83E20FB68002283F83C2000236D
:1039E00000E0022318462837BD4680BD04000100D0
:1039F0001C00002089B5F81480B588B002AFF860CB
:103A0000084611461A4603467B810B463B81134606
:103A1000FB80FEF7D1F97861FB6893F83D30DBB2AB
:103A2000202B40F0D9807B690093192301226D4936
:103A3000F86800F04BFF0346002B01D00223CCE0D6
:103A4000FB6893F83C30012B01D10223C5E0FB68F1
:103A5000012283F83C20FB681B681B6803F001030C
:103A6000012B07D0FB681B681A68FB681B6842F0D3
:103A700001021A60FB681B681A68FB681B6822F465
:103A800000621A60FB68212283F83D20FB68402217
:103A900083F83E20FB6800221A64FB683A6A5A6287
:103AA000FB68BA8C5A85FB685B8D9AB2FB681A85F5
:103AB000FB684D4ADA62F8883A8979897B69019313
:103AC000BB6A00930346F86800F082FD0346002BB2
:103AD00052D0012381E07A69B96AF86801F010F8E0
:103AE0000346002B0DD0FB681B6C042B07D1FB6831
:103AF0001B681A68FB681B6842F400721A60012395
:103B00006BE0FB685B6A1A78FB681B681A61FB68EC
:103B10005B6A5A1CFB685A62FB681B8D013B9AB2B8
:103B2000FB681A85FB685B8D9BB2013B9AB2FB6810
:103B30005A85FB681B685B6903F00403042B1BD1E7
:103B4000FB681B8D002B17D0FB685B6A1A78FB683B
:103B50001B681A61FB685B6A5A1CFB685A62FB6847
:103B60001B8D013B9AB2FB681A85FB685B8D9BB28B
:103B7000013B9AB2FB685A85FB681B8D002BAAD1CA
:103B80007A69B96AF86801F003F80346002B0DD092
:103B9000FB681B6C042B07D1FB681B681A68FB6869
:103BA0001B6842F400721A60012316E0FB681B6870
:103BB0001A68FB681B6842F400721A60FB682022D6
:103BC00083F83D20FB68002283F83E20FB6800223A
:103BD00083F83C20002300E0022318461837BD4636
:103BE00080BD00BF020010000000FFFF80B58CB058
:103BF00002AFF860084611461A4603467B810B4621
:103C00003B811346FB8000233B62FEF7D5F87862C8
:103C1000FB6893F83D30DBB2202B40F050827B6A8A
:103C20000093192301228249F86800F04FFE0346F1
:103C3000002B01D0022343E2FB6893F83C30012BB8
:103C400001D102233CE2FB68012283F83C20FB689F
:103C50001B681B6803F00103012B07D0FB681B687E
:103C60001A68FB681B6842F001021A60FB681B6857
:103C70001A68FB681B6822F400621A60FB68222243
:103C800083F83D20FB68402283F83E20FB68002239
:103C90001A64FB683A6B5A62FB68BA8E5A85FB68F5
:103CA0005B8D9AB2FB681A85FB68624ADA62F88813
:103CB0003A8979897B6A0193BB6B00930346F86864
:103CC00000F01CFD0346002B01D00123F8E1FB6846
:103CD0001B8D002B13D10023FB61FB681B685B6904
:103CE000FB61FB681B689B69FB61FB69FB681B68E8
:103CF0001A68FB681B6842F400721A60CCE1FB682A
:103D00001B8D012B1ED1FB681B681A68FB681B68A2
:103D100022F480621A6072B600BF0023BB61FB68A8
:103D20001B685B69BB61FB681B689B69BB61BB6906
:103D3000FB681B681A68FB681B6842F400721A6013
:103D400062B635E0FB681B8D022B1ED1FB681B6839
:103D50001A68FB681B6842F400621A6072B600BF02
:103D600000237B61FB681B685B697B61FB681B68E8
:103D70009B697B617B69FB681B681A68FB681B6831
:103D800022F480621A6062B612E0FB681B681A684F
:103D9000FB681B6842F480621A6000233B61FB6889
:103DA0001B685B693B61FB681B689B693B613B6906
:103DB00072E1FB681B8D032B00F21F81FB681B8DDA
:103DC000012B23D17A6AB96BF86800F029FF03460A
:103DD000002B01D0012373E1FB681B681A69FB68A3
:103DE0005B6AD2B21A70FB685B6A5A1CFB685A6243
:103DF000FB681B8D013B9AB2FB681A85FB685B8DE3
:103E00009BB2013B9AB2FB685A8545E1FB681B8D6A
:103E1000022B52D17B6A0093BB6B00220649F868E3
:103E200000F054FD0346002B08D0012348E100BFF9
:103E3000020010000000FFFF0400010072B600BF86
:103E4000FB681B681A68FB681B6842F400721A6002
:103E5000FB681B681A69FB685B6AD2B21A70FB6860
:103E60005B6A5A1CFB685A62FB681B8D013B9AB265
:103E7000FB681A85FB685B8D9BB2013B9AB2FB68BD
:103E80005A8562B600BFFB681B681A69FB685B6AEB
:103E9000D2B21A70FB685B6A5A1CFB685A62FB68F4
:103EA0001B8D013B9AB2FB681A85FB685B8D9BB248
:103EB000013B9AB2FB685A85EEE07B6A0093BB6BCC
:103EC00000228149F86800F001FD0346002B01D073
:103ED0000123F5E0FB681B681A68FB681B6822F485
:103EE00080621A6072B600BFFB681B681A69FB68C3
:103EF0005B6AD2B21A70FB685B6A5A1CFB685A6232
:103F0000FB681B8D013B9AB2FB681A85FB685B8DD1
:103F10009BB2013B9AB2FB685A856C4B1B68DB086D
:103F20006B4AA2FB03231A0A13469B001344DA00D0
:103F3000D31A3B623B6A013B3B623B6A002B18D1C0
:103F4000FB6800221A63FB68202283F83D20FB688F
:103F5000002283F83E20FB681B6C43F02002FB68C4
:103F60001A6462B600BFFB68002283F83C2001237C
:103F7000A6E0FB681B685B6903F00403042BD9D13E
:103F8000FB681B681A68FB681B6842F400721A60C1
:103F9000FB681B681A69FB685B6AD2B21A70FB681F
:103FA0005B6A5A1CFB685A62FB681B8D013B9AB224
:103FB000FB681A85FB685B8D9BB2013B9AB2FB687C
:103FC0005A8562B600BFFB681B681A69FB685B6AAA
:103FD000D2B21A70FB685B6A5A1CFB685A62FB68B3
:103FE0001B8D013B9AB2FB681A85FB685B8D9BB207
:103FF000013B9AB2FB685A854EE07A6AB96BF86861
:1040000000F00EFE0346002B01D0012358E0FB68B0
:104010001B681A69FB685B6AD2B21A70FB685B6A3C
:104020005A1CFB685A62FB681B8D013B9AB2FB6805
:104030001A85FB685B8D9BB2013B9AB2FB685A857F
:10404000FB681B685B6903F00403042B24D1FB6845
:104050001B8D032B07D1FB681B681A68FB681B6864
:1040600022F480621A60FB681B681A69FB685B6A4D
:10407000D2B21A70FB685B6A5A1CFB685A62FB6812
:104080001B8D013B9AB2FB681A85FB685B8D9BB266
:10409000013B9AB2FB685A85FB681B8D002B7FF4AD
:1040A00088AEFB68202283F83D20FB68002283F85D
:1040B0003E20FB68002283F83C20002300E002231E
:1040C00018462837BD4680BD040001001C000020B2
:1040D00089B5F81480B58AB002AFF8607A603B60A9
:1040E0000B467B81FDF768FEF8610023BB61FB682E
:1040F00093F83D30DBB2202B40F01181FB69009337
:10410000192301228849F86800F0E0FB0346002BE0
:1041100001D0022304E1FB6893F83C30012B01D16C
:104120000223FDE0FB68012283F83C20FB681B684A
:104130001B6803F00103012B07D0FB681B681A689A
:10414000FB681B6842F001021A60FB681B681A6872
:10415000FB681B6822F400621A60FB68242283F863
:104160003D20FB6800221A64FB68704ADA62FB6833
:104170001B681A68FB681B6842F480721A60FB694E
:1041800000933B6800224FF00111F86800F09EFB9D
:104190000346002B0DD0FB681B681B6803F480737B
:1041A000B3F5807F03D1FB684FF400721A640323D8
:1041B000B6E07B89DBB21A46FB681B6802F0FE02A0
:1041C0001A61FDF7F9FDF861FB681B685B6903F094
:1041D0000203022B0CBF01230023DBB2FB75FB683B
:1041E0001B685B6903F48063B3F5806F0CBF012328
:1041F0000023DBB2BB7525E0FDF7DEFD0246FB695F
:10420000D31A3A689A4202D33B68002B03D1FB6869
:10421000A02283F83D20FB681B685B6903F0020362
:10422000022B0CBF01230023DBB2FB75FB681B686C
:104230005B6903F48063B3F5806F0CBF0123002337
:10424000DBB2BB75FB6893F83D30DBB2A02B05D029
:10425000FB7D002B02D1BB7D002BCDD0FB68202243
:1042600083F83D20FB681B685B6903F00203022BA7
:1042700029D1FB681B681A68FB681B6842F400724E
:104280001A6000233B61FB681B685B693B61FB684C
:104290001B689B693B613B69FB6900931923012201
:1042A0002149F86800F012FB0346002B01D00123DE
:1042B00036E0FB68202283F83D20FB68002283F86B
:1042C0003C2000232CE0FB681B681A68FB681B6815
:1042D00042F400721A60FB681B686FF480625A61D6
:1042E000FB690093192301220F49F86800F0EEFAE8
:1042F0000346002B01D0012312E0BB690133BB61EF
:10430000BA697B689A42FFF432AFFB68202283F8D7
:104310003D20FB68002283F83C20012300E00223BB
:1043200018462037BD4680BD020010000000FFFF88
:1043300080B588B002AFF8607A603B600B467B8145
:10434000FB68DB6A7B617B69082B06D07B69012BEC
:1043500003D07B6913F5803F08D1FB681B681A689E
:10436000FB681B6842F480721A600BE0FB681B6BF1
:10437000122B07D1FB681B681A68FB681B6842F4A4
:1043800080721A603B6800937B6800224FF0011135
:10439000F86800F09BFA0346002B0DD0FB681B6801
:1043A0001B6803F48073B3F5807F03D1FB684FF47F
:1043B00000721A64032335E0FB681B69B3F5804F74
:1043C00008D17B89DBB21A46FB681B6802F0FE024B
:1043D0001A611BE07B89DB11DBB203F00603DBB261
:1043E00063F00F03DAB2FB681B681A613B687A68F6
:1043F0000E49F86800F0E4FA0346002B01D00123CF
:1044000010E07B89DAB2FB681B681A613B687A6846
:104410000749F86800F0D4FA0346002B01D00123C5
:1044200000E0002318461837BD4680BD0800010093
:104430000200010080B588B002AFF8607A603B608E
:104440000B467B81FB68DB6A7B61FB681B681A6833
:10445000FB681B6842F480621A607B69082B06D0F7
:104460007B69012B03D07B6913F5803F08D1FB6882
:104470001B681A68FB681B6842F480721A600BE0C4
:10448000FB681B6B112B07D1FB681B681A68FB6864
:104490001B6842F480721A603B6800937B680022BC
:1044A0004FF00111F86800F011FA0346002B0DD00F
:1044B000FB681B681B6803F48073B3F5807F03D12E
:1044C000FB684FF400721A64032379E0FB681B69F0
:1044D000B3F5804F08D17B89DBB243F00103DAB238
:1044E000FB681B681A615FE07B89DB11DBB203F0BC
:1044F0000603DBB263F00F03DAB2FB681B681A61D4
:104500003B687A683049F86800F05AFA0346002B95
:1045100001D0012354E07B89DAB2FB681B681A6181
:104520003B687A682949F86800F04AFA0346002B8C
:1045300001D0012344E000233B61FB681B685B69F9
:104540003B61FB681B689B693B613B69FB681B68BF
:104550001A68FB681B6842F480721A603B6800931B
:104560007B6800224FF00111F86800F0AFF90346B4
:10457000002B0DD0FB681B681B6803F48073B3F538
:10458000807F03D1FB684FF400721A64032317E0A5
:104590007B89DB11DBB203F00603DBB263F00E03B1
:1045A000DAB2FB681B681A613B687A680749F868E9
:1045B00000F006FA0346002B01D0012300E000239F
:1045C00018461837BD4680BD0800010002000100F2
:1045D00080B588B002AFF860084611461A46034617
:1045E0007B810B463B811346FB80FB681B681A6886
:1045F000FB681B6842F480721A607B6A00933B6A16
:1046000000224FF00111F86800F060F90346002B1A
:104610000DD0FB681B681B6803F48073B3F5807FC3
:1046200003D1FB684FF400721A6403235FE07B89B7
:10463000DBB21A46FB681B6802F0FE021A617B6A55
:104640003A6A2D49F86800F0BBF90346002B01D007
:1046500001234CE000237B61FB681B685B697B6185
:10466000FB681B689B697B617B697A6A396AF868B9
:1046700000F046FA0346002B0DD0FB681B6C042BA0
:1046800007D1FB681B681A68FB681B6842F400725C
:104690001A6001232BE0FB88012B05D13B89DAB29C
:1046A000FB681B681A6121E03B891B0A9BB2DAB2E6
:1046B000FB681B681A617A6A396AF86800F020FAA8
:1046C0000346002B0DD0FB681B6C042B07D1FB6845
:1046D0001B681A68FB681B6842F400721A600123A9
:1046E00005E03B89DAB2FB681B681A6100231846B3
:1046F0001837BD4680BD00BF0200010080B588B0FC
:1047000002AFF860084611461A4603467B810B4605
:104710003B811346FB80FB681B681A68FB681B68BB
:1047200042F480621A60FB681B681A68FB681B68A9
:1047300042F480721A607B6A00933B6A00224FF059
:104740000111F86800F0C2F80346002B0DD0FB6899
:104750001B681B6803F48073B3F5807F03D1FB688B
:104760004FF400721A640323AAE07B89DBB21A4675
:10477000FB681B6802F0FE021A617B6A3A6A5249C2
:10478000F86800F01DF90346002B01D0012397E0E3
:1047900000237B61FB681B685B697B61FB681B68AE
:1047A0009B697B617B697A6A396AF86800F0A8F9CD
:1047B0000346002B0DD0FB681B6C042B07D1FB6854
:1047C0001B681A68FB681B6842F400721A600123B8
:1047D00076E0FB88012B05D13B89DAB2FB681B68C8
:1047E0001A6121E03B891B0A9BB2DAB2FB681B68A5
:1047F0001A617A6A396AF86800F082F90346002B78
:104800000DD0FB681B6C042B07D1FB681B681A6872
:10481000FB681B6842F400721A60012350E03B8978
:10482000DAB2FB681B681A617A6A396AF86800F0C4
:1048300067F90346002B0DD0FB681B6C042B07D1D6
:10484000FB681B681A68FB681B6842F400721A60F8
:10485000012335E0FB681B681A68FB681B6842F49B
:1048600080721A607B6A00933B6A00224FF001114C
:10487000F86800F02BF80346002B0DD0FB681B688E
:104880001B6803F48073B3F5807F03D1FB684FF49A
:1048900000721A64032313E07B89DBB243F0010347
:1048A000DAB2FB681B681A617B6A3A6A0649F868E3
:1048B00000F086F80346002B01D0012300E000231E
:1048C00018461837BD4680BD0200010080B584B08F
:1048D00000AFF860B9603B601346FB7148E03B688D
:1048E000B3F1FF3F44D0FDF767FA0246BB69D31A24
:1048F0003A689A4202D33B68002B39D1BB681B0C43
:10490000DBB2012B0DD1FB681B685B69DA43BB6826
:1049100013409BB2002B0CBF01230023DBB21A46CD
:104920000CE0FB681B689B69DA43BB6813409BB2D1
:10493000002B0CBF01230023DBB21A46FB799A42FD
:1049400016D1FB6800221A63FB68202283F83D2001
:10495000FB68002283F83E20FB681B6C43F02002BA
:10496000FB681A64FB68002283F83C20012323E0E3
:10497000BB681B0CDBB2012B0DD1FB681B685B69AC
:10498000DA43BB6813409BB2002B0CBF012300230A
:10499000DBB21A460CE0FB681B689B69DA43BB6814
:1049A00013409BB2002B0CBF01230023DBB21A463D
:1049B000FB799A4293D0002318461037BD4680BD3C
:1049C00080B584B000AFF860B9607A603B6071E098
:1049D000FB681B685B6903F48063B3F5806F23D1C8
:1049E000FB681B681A68FB681B6842F400721A6057
:1049F000FB681B686FF480625A61FB6800221A63CF
:104A0000FB68202283F83D20FB68002283F83E20CB
:104A1000FB681B6C43F00402FB681A64FB6800220D
:104A200083F83C20012367E07B68B3F1FF3F41D06E
:104A3000FDF7C2F902463B68D31A7A689A4202D35C
:104A40007B68002B36D1BB681B0CDBB2012B0CD171
:104A5000FB681B685B69DA43BB6813409BB2002BA1
:104A600014BF01230023DBB20BE0FB681B689B69CA
:104A7000DA43BB6813409BB2002B14BF0123002311
:104A8000DBB2002B16D0FB6800221A63FB682022E1
:104A900083F83D20FB68002283F83E20FB681B6CF6
:104AA00043F02002FB681A64FB68002283F83C2074
:104AB000012321E0BB681B0CDBB2012B0CD1FB688E
:104AC0001B685B69DA43BB6813409BB2002B14BFC1
:104AD00001230023DBB20BE0FB681B689B69DA4310
:104AE000BB6813409BB2002B14BF01230023DBB231
:104AF000002B7FF46DAF002318461037BD4680BDF4
:104B000080B584B000AFF860B9607A6034E0F868CE
:104B100000F0E3F80346002B01D0012334E0BB682A
:104B2000B3F1FF3F28D0FDF747F902467B68D31A5F
:104B3000BA689A4202D3BB68002B1DD1FB681B6880
:104B40005B6903F08003802B16D0FB6800221A6398
:104B5000FB68202283F83D20FB68002283F83E207A
:104B6000FB681B6C43F02002FB681A64FB680022A0
:104B700083F83C20012307E0FB681B685B6903F0B6
:104B80008003802BC3D1002318461037BD4680BD5B
:104B900080B584B000AFF860B9607A6034E0F8683E
:104BA00000F09BF80346002B01D0012334E0BB68E2
:104BB000B3F1FF3F28D0FDF7FFF802467B68D31A18
:104BC000BA689A4202D3BB68002B1DD1FB681B68F0
:104BD0005B6903F00403042B16D0FB6800221A6300
:104BE000FB68202283F83D20FB68002283F83E20EA
:104BF000FB681B6C43F02002FB681A64FB68002210
:104C000083F83C20012307E0FB681B685B6903F025
:104C10000403042BC3D1002318461037BD4680BDC2
:104C200080B584B000AFF860B9607A6049E0FB6895
:104C30001B685B6903F01003102B19D1FB681B681C
:104C40006FF010025A61FB6800221A63FB68202291
:104C500083F83D20FB68002283F83E20FB681A6C35
:104C6000FB681A64FB68002283F83C20012330E0D3
:104C7000FDF7A2F802467B68D31ABA689A4202D3BB
:104C8000BB68002B1DD1FB681B685B6903F0400308
:104C9000402B16D0FB6800221A63FB68202283F8A1
:104CA0003D20FB68002283F83E20FB681B6C43F02C
:104CB0002002FB681A64FB68002283F83C20012371
:104CC00007E0FB681B685B6903F04003402BAED133
:104CD000002318461037BD4680BD80B483B000AFB6
:104CE00078607B681B685B6903F48063B3F5806F51
:104CF0001BD17B681B686FF480625A617B6800225D
:104D00001A637B68202283F83D207B68002283F8A9
:104D10003E207B681B6C43F004027B681A647B684E
:104D2000002283F83C20012300E0002318460C37C2
:104D3000BD4680BC7047000080B586B000AF78608B
:104D40007B68002B01D1012372E27B681B6803F0B2
:104D50000103002B00F08780924B5B6803F00C038B
:104D6000042B0CD08F4B5B6803F00C03082B12D183
:104D70008C4B5B6803F48033B3F5803F0BD1894BD8
:104D80001B6803F40033002B6CD07B685B68002B3E
:104D900068D101234CE27B685B68B3F5803F06D1A4
:104DA000804B1B687F4A43F4803313602EE07B689E
:104DB0005B68002B0CD17B4B1B687A4A23F4803351
:104DC0001360784B1B68774A23F4802313601DE03F
:104DD0007B685B68B3F5A02F0CD1724B1B68714ADE
:104DE00043F4802313606F4B1B686E4A43F4803397
:104DF00013600BE06B4B1B686A4A23F4803313602B
:104E0000684B1B68674A23F4802313607B685B68E8
:104E1000002B13D0FCF7D0FF386108E0FCF7CCFF83
:104E200002463B69D31A642B01D9032300E25D4B90
:104E30001B6803F40033002BF0D014E0FCF7BCFF38
:104E4000386108E0FCF7B8FF02463B69D31A642BCF
:104E500001D90323ECE1534B1B6803F40033002B0F
:104E6000F0D100E000BF7B681B6803F00203002B59
:104E700063D04C4B5B6803F00C03002B0BD0494B09
:104E80005B6803F00C03082B1CD1464B5B6803F4F2
:104E90008033002B16D1434B1B6803F00203002B19
:104EA00005D07B681B69012B01D00123C0E13D4B7C
:104EB0001B6823F0F8027B685B69DB003949134308
:104EC0000B603AE07B681B69002B20D0364B012237
:104ED0001A60FCF771FF386108E0FCF76DFF0246CD
:104EE0003B69D31A022B01D90323A1E12D4B1B6887
:104EF00003F00203002BF0D02A4B1B6823F0F802CA
:104F00007B685B69DB00274913430B6015E0264B88
:104F100000221A60FCF750FF386108E0FCF74CFFF4
:104F200002463B69D31A022B01D9032380E11D4BB2
:104F30001B6803F00203002BF0D17B681B6803F0B1
:104F40000803002B3AD07B689B69002B19D0174BC4
:104F500001221A60FCF730FF386108E0FCF72CFFF3
:104F600002463B69D31A022B01D9032360E10D4BA2
:104F70005B6A03F00203002BF0D0012000F0CEFAB0
:104F80001CE00A4B00221A60FCF716FF38610FE0A4
:104F9000FCF712FF02463B69D31A022B08D9032300
:104FA00046E100BF0010024000004242800442423D
:104FB000924B5B6A03F00203002BE9D17B681B680C
:104FC00003F00403002B00F0A6800023FB758B4B3D
:104FD000DB6903F08053002B0DD1884BDB69874AD6
:104FE00043F08053D361854BDB6903F08053BB6092
:104FF000BB680123FB75824B1B6803F48073002B95
:1050000018D17F4B1B687E4A43F480731360FCF712
:10501000D3FE386108E0FCF7CFFE02463B69D31AA5
:10502000642B01D9032303E1754B1B6803F48073E0
:10503000002BF0D07B68DB68012B06D16F4B1B6A1D
:105040006E4A43F0010313622DE07B68DB68002B9E
:105050000CD16A4B1B6A694A23F001031362674B48
:105060001B6A664A23F0040313621CE07B68DB685A
:10507000052B0CD1614B1B6A604A43F00403136299
:105080005E4B1B6A5D4A43F0010313620BE05B4B0E
:105090001B6A5A4A23F001031362584B1B6A574A92
:1050A00023F0040313627B68DB68002B15D0FCF748
:1050B00083FE38610AE0FCF77FFE02463B69D31AA3
:1050C00041F28832934201D90323B1E04B4B1B6A72
:1050D00003F00203002BEED014E0FCF76DFE386104
:1050E0000AE0FCF769FE02463B69D31A41F28832B6
:1050F000934201D903239BE0404B1B6A03F0020358
:10510000002BEED1FB7D012B05D13C4BDB693B4AEB
:1051100023F08053D3617B68DB69002B00F087802C
:10512000364B5B6803F00C03082B61D07B68DB69AE
:10513000022B46D1334B00221A60FCF73DFE38614A
:1051400008E0FCF739FE02463B69D31A022B01D96D
:1051500003236DE0294B1B6803F00073002BF0D193
:105160007B681B6AB3F5803F08D1244B5B6823F44E
:1051700000327B689B68214913434B601F4B5B687F
:1051800023F474127B68196A7B685B6A0B431B49C2
:1051900013434B601B4B01221A60FCF70DFE386174
:1051A00008E0FCF709FE02463B69D31A022B01D93D
:1051B00003233DE0114B1B6803F00073002BF0D07C
:1051C00035E0104B00221A60FCF7F6FD386108E06C
:1051D000FCF7F2FD02463B69D31A022B01D90323E7
:1051E00026E0064B1B6803F00073002BF0D11EE095
:1051F0007B68DB69012B07D1012319E00010024015
:1052000000700040600042420B4B5B68FB60FB6833
:1052100003F480327B681B6A9A4206D1FB6803F470
:1052200070127B685B6A9A4201D0012300E0002380
:1052300018461837BD4680BD0010024080B584B0C6
:1052400000AF786039607B68002B01D10123D0E08A
:105250006A4B1B6803F007033A689A4210D9674B00
:105260001B6823F0070265493B6813430B60634BDF
:105270001B6803F007033A689A4201D00123B8E0A3
:105280007B681B6803F00203002B20D07B681B683F
:1052900003F00403002B05D0594B5B68584A43F4D4
:1052A000E06353607B681B6803F00803002B05D0A4
:1052B000534B5B68524A43F460535360504B5B68F6
:1052C00023F0F0027B689B684D4913434B607B6879
:1052D0001B6803F00103002B40D07B685B68012B47
:1052E00007D1474B1B6803F40033002B15D1012372
:1052F0007FE07B685B68022B07D1414B1B6803F0A2
:105300000073002B09D1012373E03D4B1B6803F0B0
:105310000203002B01D101236BE0394B5B6823F0C2
:1053200003027B685B68364913434B60FCF744FD1E
:10533000F8600AE0FCF740FD0246FB68D31A41F230
:105340008832934201D9032353E02D4B5B6803F06D
:105350000C027B685B689B009A42EBD1274B1B6871
:1053600003F007033A689A4210D2244B1B6823F0DB
:10537000070222493B6813430B60204B1B6803F074
:1053800007033A689A4201D0012332E07B681B6828
:1053900003F00403002B08D0194B5B6823F4E06290
:1053A0007B68DB68164913434B607B681B6803F01E
:1053B0000803002B09D0124B5B6823F460527B6812
:1053C0001B69DB000E4913434B6000F021F80246D5
:1053D0000B4B5B681B0903F00F030A49CB5C22FAF5
:1053E00003F3094A1360094B1B681846FCF7A2FC3B
:1053F000002318461037BD4680BD00BF0020024084
:1054000000100240A0AA00081C000020200000207C
:1054100080B487B000AF0023FB600023BB60002393
:105420007B6100237B6000233B611E4B5B68FB605C
:10543000FB6803F00C03042B02D0082B03D027E0F9
:10544000194B3B6127E0FB689B0C03F00F03174AE5
:10545000D35C7B60FB6803F48033002B10D0114BCE
:105460005B685B0C03F00103114AD35CBB607B6893
:105470000D4A03FB02F2BB68B2FBF3F37B6104E06D
:105480007B680C4A02FB03F37B617B693B6102E0B2
:10549000054B3B6100BF3B6918461C37BD4680BCCD
:1054A000704700BF0010024000127A00B8AA00083E
:1054B000C8AA000800093D0080B400AF024B1B6879
:1054C0001846BD4680BC70471C00002080B500AF68
:1054D000FFF7F2FF0246054B5B681B0A03F0070368
:1054E0000349CB5C22FA03F3184680BD001002404A
:1054F000B0AA000880B500AFFFF7DEFF0246054BFB
:105500005B68DB0A03F007030349CB5C22FA03F371
:10551000184680BD00100240B0AA000880B485B0D3
:1055200000AF78600A4B1B680A4AA2FB03235B0AA0
:105530007A6802FB03F3FB6000BFFB685A1EFA6047
:10554000002BF9D100BF00BF1437BD4680BC7047A7
:105550001C000020D34D621080B586B000AF78608B
:1055600000233B610023FB607B681B6803F00103A1
:10557000002B7DD00023FB754F4BDB6903F080537C
:10558000002B0DD14C4BDB694B4A43F08053D36168
:10559000494BDB6903F08053BB60BB680123FB759B
:1055A000464B1B6803F48073002B18D1434B1B68D8
:1055B000424A43F480731360FCF7FEFB386108E055
:1055C000FCF7FAFB02463B69D31A642B01D903238B
:1055D0006DE03A4B1B6803F48073002BF0D0364B20
:1055E0001B6A03F44073FB60FB68002B2ED07B68C2
:1055F0005B6803F44073FA689A4227D02E4B1B6A0B
:1056000023F44073FB602E4B01221A602C4B0022C6
:105610001A60294AFB681362FB6803F00103002B40
:1056200014D0FCF7C9FB38610AE0FCF7C5FB024661
:105630003B69D31A41F28832934201D9032336E001
:105640001D4B1B6A03F00203002BEED01A4B1B6AA2
:1056500023F440727B685B68174913430B62FB7D40
:10566000012B05D1144BDB69134A23F08053D3611E
:105670007B681B6803F00203002B08D00E4B5B68AD
:1056800023F440427B689B680B4913434B607B6863
:105690001B6803F01003002B08D0074B5B6823F452
:1056A00080027B68DB68044913434B600023184683
:1056B0001837BD4680BD00BF00100240007000409A
:1056C0004004424280B582B000AF78607B68002B16
:1056D00001D1012341E07B6893F83D30DBB2002B20
:1056E00006D17B68002283F83C207868FCF720FA1A
:1056F0007B68022283F83D207B681A687B6804334C
:105700001946104600F092F97B68012283F8462082
:105710007B68012283F83E207B68012283F83F20CA
:105720007B68012283F840207B68012283F84120B6
:105730007B68012283F842207B68012283F84320A2
:105740007B68012283F844207B68012283F845208E
:105750007B68012283F83D20002318460837BD46A8
:1057600080BD000080B584B000AF786039603B68D0
:10577000002B09D17B6893F83E30DBB2012B14BFBC
:1057800001230023DBB222E03B68042B09D17B68B4
:1057900093F83F30DBB2012B14BF01230023DBB2AF
:1057A00015E03B68082B09D17B6893F84030DBB2E9
:1057B000012B14BF01230023DBB208E07B6893F8C0
:1057C0004130DBB2012B14BF01230023DBB2002BDD
:1057D00001D001235EE03B68002B04D17B680222EC
:1057E00083F83E2013E03B68042B04D17B6802223F
:1057F00083F83F200BE03B68082B04D17B68022232
:1058000083F8402003E07B68022283F841207B6814
:105810001B6801223968184600F0FEFA7B681B6895
:105820001E4A934207D17B681B685A6C7B681B68D1
:1058300042F400425A647B681B68184A93420ED0B7
:105840007B681B68B3F1804F09D07B681B68144AE2
:10585000934204D07B681B68124A934211D17B6843
:105860001B689B6803F00703FB60FB68062B10D0E6
:105870007B681B681A687B681B6842F001021A602B
:1058800007E07B681B681A687B681B6842F00102AE
:105890001A60002318461037BD4680BD002C014019
:1058A000000400400008004080B586B000AFF860FA
:1058B000B9607A600023FB75FB6893F83C30012BDC
:1058C00001D10223AEE0FB68012283F83C207B6813
:1058D0000C2B00F29F8001A252F823F0115900080E
:1058E000155A0008155A0008155A000851590008A1
:1058F000155A0008155A0008155A0008935900084F
:10590000155A0008155A0008155A0008D3590008FE
:10591000FB681B68B968184600F0F6F8FB681B685E
:105920009A69FB681B6842F008029A61FB681B6871
:105930009A69FB681B6822F004029A61FB681B6885
:105940009969BB681A69FB681B680A439A6164E03D
:10595000FB681B68B968184600F03CF9FB681B68D7
:105960009A69FB681B6842F400629A61FB681B68D5
:105970009A69FB681B6822F480629A61FB681B6865
:105980009969BB681B691A02FB681B680A439A6124
:1059900043E0FB681B68B968184600F085F9FB68AE
:1059A0001B68DA69FB681B6842F00802DA61FB6871
:1059B0001B68DA69FB681B6822F00402DA61FB6885
:1059C0001B68D969BB681A69FB681B680A43DA61FE
:1059D00023E0FB681B68B968184600F0CFF9FB6844
:1059E0001B68DA69FB681B6842F40062DA61FB68D5
:1059F0001B68DA69FB681B6822F48062DA61FB6865
:105A00001B68D969BB681B691A02FB681B680A43DB
:105A1000DA6102E00123FB7500BFFB68002283F816
:105A20003C20FB7D18461837BD4680BD80B485B04C
:105A300000AF786039607B681B68FB607B682F4A29
:105A400093420BD07B68B3F1804F07D07B682C4A20
:105A5000934203D07B682B4A934208D1FB6823F022
:105A60007003FB603B685B68FA681343FB607B680C
:105A7000224A93420BD07B68B3F1804F07D07B68FA
:105A80001F4A934203D07B681E4A934208D1FB68A9
:105A900023F44073FB603B68DB68FA681343FB60E8
:105AA000FB6823F080023B685B691343FB607B6803
:105AB000FA681A603B689A687B68DA623B681A6821
:105AC0007B689A627B680D4A934203D13B681A69EE
:105AD0007B681A637B6801225A617B681B6903F04B
