:020000040800F2
:1000000000500020E1150008351000083D100008E0
:10001000451000084D1000085510000800000000B1
:100020000000000000000000000000005D1000085B
:100030006910000800000000751000088110000819
:100040002916000829160008291600082916000894
:100050002916000829160008291600082916000884
:100060002916000829160008291600082916000874
:100070002916000829160008291600082916000864
:100080002916000829160008291600082916000854
:100090008D100008291600082916000829160008E6
:1000A0002916000829160008291600082916000834
:1000B0002916000829160008291600082916000824
:1000C0002916000829160008291600082916000814
:1000D0002916000829160008291600082916000804
:1000E000291600082916000829160008000000003B
:1000F0000000000000000000000000000000000000
:0C01000000000000000000005FF808F1A3
:1001100010B5054C237833B9044B13B10448AFF341
:1001200000800123237010BD500300200000000058
:1001300014DC000808B5034B1BB103490348AFF3B7
:10014000008008BD000000005403002014DC0008FB
:10015000034613F8012B002AFBD1181A0138704707
:1001600081F0004102E000BF83F0004330B54FEA68
:1001700041044FEA430594EA050F08BF90EA020FD5
:100180001FBF54EA000C55EA020C7FEA645C7FEA68
:10019000655C00F0E2804FEA5454D4EB5555B8BF8B
:1001A0006D420CDD2C4480EA020281EA030382EAFC
:1001B000000083EA010180EA020281EA0303362D8E
:1001C00088BF30BD11F0004F4FEA01314FF4801C61
:1001D0004CEA113102D0404261EB410113F0004F73
:1001E0004FEA03334CEA133302D0524263EB43032A
:1001F00094EA050F00F0A780A4F10104D5F1200EC8
:100200000DDB02FA0EFC22FA05F2801841F1000122
:1002100003FA0EF2801843FA05F359410EE0A5F1F6
:1002200020050EF1200E012A03FA0EFC28BF4CF027
:10023000020C43FA05F3C01851EBE37101F00045DD
:1002400007D54FF0000EDCF1000C7EEB00006EEBEA
:100250000101B1F5801F1BD3B1F5001F0CD3490874
:100260005FEA30004FEA3C0C04F101044FEA4452CB
:1002700012F5800F80F09A80BCF1004F08BF5FEA52
:10028000500C50F1000041EB045141EA050130BD32
:100290005FEA4C0C404141EB0101013C28BFB1F544
:1002A000801FE9D291F0000F04BF01460020B1FA8F
:1002B00081F308BF2033A3F10B03B3F120020CDA62
:1002C0000C3208DD02F1140CC2F10C0201FA0CF040
:1002D00021FA02F10CE002F11402D8BFC2F1200CA5
:1002E00001FA02F120FA0CFCDCBF41EA0C0190405B
:1002F000E41AA2BF01EB0451294330BD6FEA0404A4
:100300001F3C1CDA0C340EDC04F11404C4F120028E
:1003100020FA04F001FA02F340EA030021FA04F3A0
:1003200045EA030130BDC4F10C04C4F1200220FAF7
:1003300002F001FA04F340EA0300294630BD21FA35
:1003400004F0294630BD94F0000F83F4801306BFFB
:1003500081F480110134013D4EE77FEA645C18BFEF
:100360007FEA655C29D094EA050F08BF90EA020F86
:1003700005D054EA000C04BF1946104630BD91EA7E
:10038000030F1EBF0021002030BD5FEA545C05D181
:100390004000494128BF41F0004130BD14F58004C0
:1003A0003CBF01F5801130BD01F0004545F0FE4134
:1003B00041F470014FF0000030BD7FEA645C1ABF69
:1003C000194610467FEA655C1CBF0B46024650EAA0
:1003D000013406BF52EA033591EA030F41F40021CC
:1003E00030BD00BF90F0000F04BF0021704730B552
:1003F0004FF4806404F132044FF000054FF0000127
:1004000050E700BF90F0000F04BF0021704730B5E7
:100410004FF4806404F1320410F0004548BF4042BC
:100420004FF000013EE700BF42004FEAE2014FEA11
:1004300031014FEA02701FBF12F07F4393F07F4FEC
:1004400081F06051704732F07F4208BF704793F0EF
:100450007F4F04BF41F40021704730B54FF4607402
:1004600001F0004521F000411CE700BF50EA010205
:1004700008BF704730B54FF000050AE050EA0102AE
:1004800008BF704730B511F0004502D5404261EB1E
:1004900041014FF4806404F132045FEA915C3FF45F
:1004A000D8AE4FF003025FEADC0C18BF03325FEAFC
:1004B000DC0C18BF033202EBDC02C2F1200300FAAD
:1004C00003FC20FA02F001FA03FE40EA0E0021FAD2
:1004D00002F11444BDE600BF70B54FF0FF0C4CF4C0
:1004E000E06C1CEA11541DBF1CEA135594EA0C0F72
:1004F00095EA0C0F00F0DEF82C4481EA030621EAAD
:100500004C5123EA4C5350EA013518BF52EA0335E7
:1005100041F4801143F4801338D0A0FB02CE4FF099
:100520000005E1FB02E506F00042E0FB03E54FF0C9
:100530000006E1FB03569CF0000F18BF4EF0010EC1
:10054000A4F1FF04B6F5007F64F5407404D25FEABD
:100550004E0E6D4146EB060642EAC62141EA555170
:100560004FEAC52040EA5E504FEACE2EB4F1FD0CB2
:1005700088BFBCF5E06F1ED8BEF1004F08BF5FEA30
:10058000500E50F1000041EB045170BD06F00046E2
:1005900046EA010140EA020081EA0301B4EB5C048F
:1005A000C2BFD4EB0C0541EA045170BD41F4801187
:1005B0004FF0000E013C00F3AB8014F1360FDEBFAC
:1005C000002001F0004170BDC4F10004203C35DA88
:1005D0000C341BDC04F11404C4F1200500FA05F30B
:1005E00020FA04F001FA05F240EA020001F00042AC
:1005F00021F0004110EBD37021FA04F642EB060122
:100600005EEA430E08BF20EAD37070BDC4F10C044B
:10061000C4F1200500FA04F320FA05F001FA04F20F
:1006200040EA020001F0004110EBD37041F10001FB
:100630005EEA430E08BF20EAD37070BDC4F1200506
:1006400000FA05F24EEA020E20FA04F301FA05F26E
:1006500043EA020321FA04F001F0004121FA04F216
:1006600020EA020000EBD3705EEA430E08BF20EAE6
:10067000D37070BD94F0000F0FD101F00046400020
:1006800041EB010111F4801F08BF013CF7D041EAA2
:10069000060195F0000F18BF704703F000465200A6
:1006A00043EB030313F4801F08BF013DF7D043EA77
:1006B0000603704794EA0C0F0CEA135518BF95EA2D
:1006C0000C0F0CD050EA410618BF52EA4306D1D1B4
:1006D00081EA030101F000414FF0000070BD50EAD3
:1006E000410606BF1046194652EA430619D094EA5D
:1006F0000C0F02D150EA013613D195EA0C0F05D147
:1007000052EA03361CBF104619460AD181EA03019A
:1007100001F0004141F0FE4141F470014FF0000052
:1007200070BD41F0FE4141F4780170BD70B54FF0ED
:10073000FF0C4CF4E06C1CEA11541DBF1CEA13556D
:1007400094EA0C0F95EA0C0F00F0A7F8A4EB05044F
:1007500081EA030E52EA03354FEA013100F0888046
:100760004FEA03334FF0805545EA131343EA12630F
:100770004FEA022245EA111545EA10654FEA0026C4
:100780000EF000419D4208BF964244F1FD0404F57D
:10079000407402D25B084FEA3202B61A65EB0305D9
:1007A0005B084FEA32024FF480104FF4002CB6EB96
:1007B000020E75EB030E22BFB61A754640EA0C0016
:1007C0005B084FEA3202B6EB020E75EB030E22BF56
:1007D000B61A754640EA5C005B084FEA3202B6EB97
:1007E000020E75EB030E22BFB61A754640EA9C0056
:1007F0005B084FEA3202B6EB020E75EB030E22BF26
:10080000B61A754640EADC0055EA060E18D04FEAE3
:10081000051545EA16754FEA06164FEAC30343EA83
:1008200052734FEAC2025FEA1C1CC0D111F4801F50
:100830000BD141EA00014FF000004FF0004CB6E749
:1008400011F4801F04BF01430020B4F1FD0C88BFE8
:10085000BCF5E06F3FF6AFAEB5EB030C04BFB6EBF3
:10086000020C5FEA500C50F1000041EB045170BDE6
:100870000EF0004E4EEA113114EB5C04C2BFD4EB13
:100880000C0541EA045170BD41F480114FF0000E97
:10089000013C90E645EA060E8DE60CEA135594EA13
:1008A0000C0F08BF95EA0C0F3FF43BAF94EA0C0F16
:1008B0000AD150EA01347FF434AF95EA0C0F7FF48B
:1008C00025AF104619462CE795EA0C0F06D152EADF
:1008D00003353FF4FDAE1046194622E750EA4106C3
:1008E00018BF52EA43067FF4C5AE50EA41047FF4D4
:1008F0000DAF52EA43057FF4EBAE12E74FF0FF3C39
:1009000006E000BF4FF0010C02E000BF4FF0010C09
:100910004DF804CD4FEA410C7FEA6C5C4FEA430C82
:1009200018BF7FEA6C5C1BD001B050EA410C0CBFD1
:1009300052EA430C91EA030F02BF90EA020F002033
:10094000704710F1000F91EA030F58BF994208BF9A
:1009500090422CBFD8176FEAE37040F00100704757
:100960004FEA410C7FEA6C5C02D150EA013C07D1AE
:100970004FEA430C7FEA6C5CD6D152EA033CD3D0F9
:100980005DF8040B704700BF8446104662468C46F3
:100990001946634600E000BF01B5FFF7B7FF002826
:1009A00048BF10F1000F01BD4DF808EDFFF7F4FF4F
:1009B0000CBF012000205DF808FB00BF4DF808EDDA
:1009C000FFF7EAFF34BF012000205DF808FB00BFFD
:1009D0004DF808EDFFF7E0FF94BF012000205DF81F
:1009E00008FB00BF4DF808EDFFF7CEFF94BF0120D4
:1009F00000205DF808FB00BF4DF808EDFFF7C4FFCD
:100A000034BF012000205DF808FB00BF4FEA410C15
:100A10007FEA6C5C02D150EA013C0AD14FEA430CF8
:100A20007FEA6C5C02D152EA033C02D14FF0000035
:100A300070474FF0010070474FEA410212F5001273
:100A400015D211D56FF47873B3EB625212D94FEA15
:100A5000C12343F0004343EA505311F0004F23FAFF
:100A600002F018BF404270474FF00000704750EA54
:100A7000013005D111F0004008BF6FF00040704711
:100A80004FF00000704700BF4A0011D212F500126B
:100A900011D20DD56FF47873B3EB62520ED44FEAD6
:100AA000C12343F0004343EA505323FA02F0704756
:100AB0004FF00000704750EA013002D14FF0FF3094
:100AC00070474FF0000070474FEA4102B2F1E04337
:100AD00024BFB3F5001CDCF1FE5C0DD901F0004C25
:100AE0004FEAC0024CEA5070B2F1004F40EB830075
:100AF00008BF20F00100704711F0804F21D113F1A1
:100B00003872BCBF01F00040704741F480114FEAD9
:100B10005252C2F11802C2F1200C10FA0CF320FA62
:100B200002F018BF40F001004FEAC1234FEAD3237F
:100B300003FA0CFC40EA0C0023FA02F34FEA4303E9
:100B4000CCE77FEA625307D150EA01331EBF4FF072
:100B5000FE4040F44000704701F0004040F0FE408D
:100B600040F40000704700BF38B50022002304465F
:100B70000D46FFF723FF28B920462946BDE8384037
:100B800000F00AB8204605F1004100F005F84042A7
:100B900061EB410138BD00BFD0B500220B4B0646CA
:100BA0000F46FFF799FCFFF76FFF0446FFF71AFCAB
:100BB0000022074BFFF790FC02460B4630463946B1
:100BC000FFF7D2FAFFF760FF2146D0BD0000F03DED
:100BD0000000F04180B584B000AF3B1D00221A60D8
:100BE0005A609A60184B194A1A60174B00229A6093
:100BF000154B00221A73144B00221A75124B4FF436
:100C00006022DA61104B00225A600F4B01221A61F8
:100C10000D4800F091FD0346002B01D000F0D2F901
:100C200001237B600123BB600023FB603B1D194651
:100C3000054800F059FE0346002B01D000F0C2F930
:100C400000BF1037BD4680BD6C030020002401406A
:100C500080B588B000AF786007F1100300221A60F9
:100C60005A609A60DA607B681B68144A934221D10B
:100C7000134B9B69124A43F400739361104B9B69B9
:100C800003F40073FB60FB680D4B9B690C4A43F057
:100C9000040393610A4B9B6903F00403BB60BB68C8
:100CA00062233B6103237B6107F11003194605486A
:100CB00001F062F800BF2037BD4680BD002401402E
:100CC000001002400008014080B588B000AF07F175
:100CD000100300221A605A609A60DA60294B9B69FF
:100CE000284A43F010039361264B9B6903F01003DD
:100CF000FB60FB68234B9B69224A43F0200393610E
:100D0000204B9B6903F02003BB60BB681D4B9B69B4
:100D10001C4A43F0040393611A4B9B6903F00403DC
:100D20007B607B68174B9B69164A43F0080393610D
:100D3000144B9B6903F008033B603B6800224FF4AF
:100D40000051114801F09CF94FF400533B6101231D
:100D50007B610023BB610223FB6107F1100319468D
:100D6000094801F009F84FF480533B6103237B618C
:100D700007F110031946054800F0FEFF00BF2037B9
:100D8000BD4680BD0010024000100140000C014033
:100D900080B500AF00F04AFC00F0B6F8FFF794FF12
:100DA00000F0A8FBFFF716FF00F042FA00F0C2FACD
:100DB00007F03AFF484A4949494809F03DFA48488E
:100DC000FFF7C6F903469BB21946454807F0EAFF0C
:100DD000642000F08DFC434B1B681A464249404892
:100DE00009F02AFA3E48FFF7B3F903469BB21946C9
:100DF0003B4807F0D7FF642000F07AFC3B4B1B68B0
:100E00001846FFF711FB02460B463949344809F0F2
:100E100013FA3348FFF79CF903469BB21946304852
:100E200007F0C0FF642000F063FC324B1B781A46C9
:100E300031492B4809F000FA2948FFF789F90346A0
:100E40009BB21946264807F0ADFF642000F050FC25
:100E50002A4B1B781A462449214809F0EDF920480D
:100E6000FFF776F903469BB219461D4807F09AFF33
:100E7000642000F03DFC224B07225A71204B5B7925
:100E80001A461949164809F0D7F91548FFF760F9CD
:100E900003469BB21946124807F084FF642000F015
:100EA00027FC104B1B6801330E4A136001224FF4DC
:100EB0000051144801F0E4F84FF4FA7000F018FC07
:100EC00000224FF400510F4801F0DAF84FF4FA70A5
:100ED00000F00EFC00BF6DE730DC000840DC0008CD
:100EE000B00300200000002044DC000804000020C3
:100EF00048DC0008080000204CDC00080900002045
:100F00009C0300200010014080B594B000AF07F1B1
:100F100028032822002118460AF000F907F11403DB
:100F200000221A605A609A60DA601A613B1D002242
:100F30001A605A609A60DA600123BB624FF4803312
:100F4000FB6200233B630123BB6302237B644FF4FA
:100F50008033BB644FF48013FB6407F12803184609
:100F600002F006FE0346002B01D000F02BF80F2301
:100F70007B610223BB610023FB614FF480633B6212
:100F800000237B6207F114030121184603F072F875
:100F90000346002B01D000F015F812237B604FF4BC
:100FA0008043FB604FF480033B613B1D184603F018
:100FB000EFF90346002B01D000F004F800BF5037D2
:100FC000BD4680BD80B400AF72B600BF00BFFDE774
:100FD00080B485B000AF154B9B69144A43F0010300
:100FE0009361124B9B6903F00103BB60BB680F4B1D
:100FF000DB690E4A43F08053D3610C4BDB6903F08D
:1010000080537B607B680A4B5B68FB60FB6823F066
:10101000E063FB60FB6843F00073FB60044AFB681D
:10102000536000BF1437BD4680BC704700100240BB
:101030000000014080B400AF00BFFDE780B400AF06
:1010400000BFFDE780B400AF00BFFDE780B400AF94
:1010500000BFFDE780B400AF00BFFDE780B400AF84
:1010600000BFBD4680BC704780B400AF00BFBD4626
:1010700080BC704780B400AF00BFBD4680BC7047E5
:1010800080B500AF00F018FB00BF80BD80B500AF99
:10109000024801F029F900BF80BD00BF681100209F
:1010A00080B400AF01231846BD4680BC704780B5B0
:1010B00082B000AF786039600AF03CF8034616222F
:1010C0001A604FF0FF3318460837BD4680BD80B523
:1010D00082B000AF78604FF0FF317868FFF7E7FF2C
:1010E00000BFFDE780B586B000AFF860B9607A60F8
:1010F00000237B610AE0AFF300800146BB685A1C05
:10110000BA60CAB21A707B6901337B617A697B6805
:101110009A42F0DB7B6818461837BD4680BD80B523
:1011200086B000AFF860B9607A6000237B6109E0A7
:10113000BB685A1CBA601B781846AFF300807B6905
:1011400001337B617A697B689A42F1DB7B681846E0
:101150001837BD4680BD80B483B000AF78604FF0D3
:10116000FF3318460C37BD4680BC704780B483B04F
:1011700000AF786039603B684FF400525A6000233A
:1011800018460C37BD4680BC704780B483B000AFB2
:101190007860012318460C37BD4680BC704780B488
:1011A00085B000AFF860B9607A6000231846143744
:1011B000BD4680BC7047000080B586B000AF786047
:1011C000144A154BD31A7B617B693B61134B1B6837
:1011D000002B02D1114B124A1A60104B1A687B681F
:1011E00013443A699A4207D209F0A4FF03460C223D
:1011F0001A604FF0FF3309E0084B1B68FB60074B98
:101200001A687B681344054A1360FB681846183750
:10121000BD4680BD0050002000040000C003002037
:10122000B017002080B400AF00BFBD4680BC70473F
:1012300080B592B000AF07F1400300221A605A60F7
:1012400007F1240300221A605A609A60DA601A617A
:101250005A619A613B1D20220021184609F05EFF69
:10126000324B334A1A60314B04225A602F4B002212
:101270009A602E4BFF22DA602C4B00221A612B4B16
:1012800000225A61294B00229A61284803F036F95E
:101290000346002B01D0FFF795FE00233B6400239B
:1012A0007B6407F140031946204803F02FFC0346F6
:1012B000002B01D0FFF786FE60237B620023BB6218
:1012C0000023FB6200233B6300237B630023BB639B
:1012D0000023FB6307F1240300221946134803F09F
:1012E0005DF90346002B01D0FFF76CFE00237B6005
:1012F0000023BB600023FB6000233B6100237B6174
:101300004FF40053BB6100233B623B1D1946074865
:1013100003F05AFC0346002B01D0FFF753FE0348AD
:1013200000F092F800BF4837BD4680BDC4030020DE
:10133000002C014080B58AB000AF07F120030022E5
:101340001A605A603B1D00221A605A609A60DA6087
:101350001A615A619A61214B214A1A601F4B04227B
:101360005A601E4B00229A601C4BFF22DA601B4B16
:1013700000221A61194B00229A61184803F0BEF846
:101380000346002B01D0FFF71DFE00233B62002324
:101390007B6207F120031946104803F0B7FB0346B0
:1013A000002B01D0FFF70EFE60237B600023BB60A3
:1013B0000023FB6000237B613B1D0C22194607487C
:1013C00003F0ECF80346002B01D0FFF7FBFD0348C8
:1013D00000F03AF800BF2837BD4680BD0C0400205D
:1013E0000004004080B485B000AF78607B681B6863
:1013F000124A93420CD1124B9B69114A43F4006389
:1014000093610F4B9B6903F40063FB60FB6810E082
:101410007B681B680B4A93420BD1094BDB69084A76
:1014200043F00203D361064BDB6903F00203BB60A8
:10143000BB6800BF1437BD4680BC7047002C01401C
:10144000001002400004004080B588B000AF786012
:1014500007F1100300221A605A609A60DA607B6814
:101460001B681F4A934219D11E4B9B691D4A43F0CA
:10147000040393611B4B9B6903F00403FB60FB684F
:101480004FF480733B6102237B610223FB6107F110
:1014900010031946144800F06FFC1CE07B681B68C1
:1014A000124A934217D10F4B9B690E4A43F008032F
:1014B00093610C4B9B6903F00803BB60BB6802237C
:1014C0003B6102237B610223FB6107F11003194694
:1014D000074800F051FC00BF2037BD4680BD00BF6B
:1014E000002C0140001002400008014000040040B0
:1014F000000C014080B500AF114B124A1A60104B2E
:101500004FF416525A600E4B00229A600C4B002288
:10151000DA600B4B00221A61094B0C225A61084B0E
:1015200000229A61064B0022DA61054803F09DFB18
:101530000346002B01D0FFF745FD00BF80BD00BF73
:10154000540400200038014080B588B000AF7860B6
:1015500007F1100300221A605A609A60DA607B6813
:101560001B681C4A934231D11B4B9B691A4A43F4B6
:1015700080439361184B9B6903F48043FB60FB68D5
:10158000154B9B69144A43F004039361124B9B690A
:1015900003F00403BB60BB684FF400733B6102239C
:1015A0007B610323FB6107F1100319460B4800F030
:1015B000E3FB4FF480633B6100237B610023BB614D
:1015C00007F110031946054800F0D6FB00BF20378D
:1015D000BD4680BD003801400010024000080140B7
:1015E000FFF720FE0B480C490C4A002302E0D458B8
:1015F000C4500433C4188C42F9D3094A094C00235F
:1016000001E013600432A242FBD309F099FDFFF719
:10161000BFFB70470000002050030020FCE00008E2
:1016200050030020AC170020FEE7000080B500AF9B
:10163000084B1B68074A43F010031360032000F0B7
:1016400059FB0F2000F008F8FFF7C2FC00231846F2
:1016500080BD00BF0020024080B582B000AF78603E
:10166000124B1A68124B1B7819464FF47A73B3FB6E
:10167000F1F3B2FBF3F3184600F071FB0346002BC5
:1016800001D001230EE07B680F2B0AD80022796875
:101690004FF0FF3000F039FB064A7B6813600023EF
:1016A00000E0012318460837BD4680BD0C0000202D
:1016B000140000201000002080B400AF054B1B7800
:1016C0001A46054B1B681344034A136000BFBD460E
:1016D00080BC7047140000209C04002080B400AF40
:1016E000024B1B681846BD4680BC70479C04002016
:1016F00080B584B000AF7860FFF7F0FFB8607B681A
:10170000FB60FB68B3F1FF3F05D00A4B1B781A461C
:10171000FB681344FB6000BFFFF7E0FF0246BB68B5
:10172000D31AFA689A42F7D800BF00BF1037BD46F7
:1017300080BD00BF1400002080B586B000AF786087
:101740000023FB7500233B610023BB600023FB608B
:101750007B68002B01D10123BEE07B689B68002BD6
:101760007B689B6A002B09D17B680022DA627B6868
:10177000002283F824207868FFF76AFA786800F07E
:10178000ABF90346FB757B689B6A03F01003002BE3
:1017900040F09980FB7D002B40F095807B689B6A30
:1017A00023F4885323F0020343F002027B689A6219
:1017B0007B685A687B68DB691A437B681B7B5B002C
:1017C0001343BA681343BB607B689B68B3F5807FA3
:1017D00003D07B689B68012B02D14FF4807300E03B
:1017E00000233A6913433B617B681B7D012B19D1B0
:1017F0007B681B7B002B09D17B689B69013B5A03EB
:101800003B69134343F400633B610BE07B689B6AD5
:1018100043F020027B689A627B68DB6A43F0010236
:101820007B68DA627B681B685B6823F469417B68CC
:101830001B683A690A435A607B681B689A68284BA0
:1018400013407A681268B9680B4393607B689B68A1
:10185000B3F5807F03D07B689B68012B04D17B6844
:101860001B69013B1B05FB607B681B68DB6A23F47B
:1018700070017B681B68FA680A43DA627B681B6840
:101880009A68184B1340BA689A420BD17B680022C1
:10189000DA627B689B6A23F0030343F001027B68F2
:1018A0009A6218E07B689B6A23F0120343F01002EF
:1018B0007B689A627B68DB6A43F001027B68DA62CC
:1018C0000123FB7507E07B689B6A43F010027B688D
:1018D0009A620123FB75FB7D18461837BD4680BD13
:1018E000FDF7E1FFFE0E1FFF80B485B000AF78600A
:1018F00039600023FB730023BB607B6893F82430BE
:10190000012B01D10223DCE07B68012283F8242033
:101910003B685B68062B1CD87B681B68596B3B686F
:101920005A6813469B001344053B1F2202FA03F337
:10193000DB4319403B6818683B685A6813469B00B4
:101940001344053B00FA03F27B681B680A435A63A1
:101950003CE03B685B680C2B1CD87B681B68196BF0
:101960003B685A6813469B001344233B1F2202FA2C
:1019700003F3DB4319403B6818683B685A68134619
:101980009B001344233B00FA03F27B681B680A4365
:101990001A631BE07B681B68D96A3B685A68134668
:1019A0009B001344413B1F2202FA03F3DB4319401F
:1019B0003B6818683B685A6813469B001344413BD8
:1019C00000FA03F27B681B680A43DA623B681B6813
:1019D000092B1CD97B681B68D9683B681A681346B9
:1019E0005B0013441E3B072202FA03F3DB4319405A
:1019F0003B6898683B681A6813465B0013441E3BBB
:101A000000FA03F27B681B680A43DA6019E07B681E
:101A10001B6819693B681A6813465B001344072268
:101A200002FA03F3DB4319403B6898683B681A6885
:101A300013465B00134400FA03F27B681B680A43F9
:101A40001A613B681B68102B03D03B681B68112B85
:101A500032D17B681B681D4A934225D17B681B6885
:101A60009B6803F40003002B26D17B681B689A68EF
:101A70007B681B6842F400029A603B681B68102B6D
:101A80001AD1134B1B68134AA2FB03239A0C13466B
:101A90009B0013445B00BB6002E0BB68013BBB6082
:101AA000BB68002BF9D107E07B689B6A43F02002FA
:101AB0007B689A620123FB737B68002283F82420F1
:101AC000FB7B18461437BD4680BC7047002401409C
:101AD0000C00002083DE1B4380B584B000AF78602B
:101AE0000023FB607B681B689B6803F00103012BEC
:101AF0002ED17B681B689A687B681B6822F0010204
:101B00009A60FFF7EBFDF8601BE0FFF7E7FD024688
:101B1000FB68D31A022B14D97B681B689B6803F0FF
:101B20000103012B0DD17B689B6A43F010027B6897
:101B30009A627B68DB6A43F001027B68DA62012308
:101B400007E07B681B689B6803F00103012BDCD076
:101B5000002318461037BD4680BD000080B485B014
:101B600000AF78607B6803F00703FB600C4BDB6819
:101B7000BB60BA684FF6FF031340BB60FB681A02F4
:101B8000BB68134343F0BF6343F40033BB60044AB4
:101B9000BB68D36000BF1437BD4680BC704700BF30
:101BA00000ED00E080B400AF044BDB681B0A03F0DB
:101BB00007031846BD4680BC704700BF00ED00E03B
:101BC00080B483B000AF0346FB7197F90730002B58
:101BD0000BDBFB7903F01F02064997F907305B091D
:101BE000012000FA02F241F8232000BF0C37BD4665
:101BF00080BC704700E100E080B483B000AF0346D2
:101C00003960FB7197F90730002B0ADB3B68DAB2C9
:101C10000C4997F907301201D2B20B4483F8002324
:101C20000AE03B68DAB20849FB7903F00F03043B92
:101C30001201D2B20B441A7600BF0C37BD4680BCED
:101C4000704700BF00E100E000ED00E080B489B023
:101C500000AFF860B9607A60FB6803F00703FB61CE
:101C6000FB69C3F10703042B28BF0423BB61FB6995
:101C70000433062B02D9FB69033B00E000237B61A0
:101C80004FF0FF32BB6902FA03F3DA43BB681A4034
:101C90007B699A404FF0FF317B6901FA03F3D94326
:101CA0007B680B40134318462437BD4680BC704701
:101CB00080B582B000AF78607B68013BB3F1807F74
:101CC00001D301230FE00A4A7B68013B53600F21D7
:101CD0004FF0FF30FFF790FF054B00229A60044B56
:101CE00007221A60002318460837BD4680BD00BF92
:101CF00010E000E080B582B000AF78607868FFF750
:101D00002DFF00BF0837BD4680BD80B586B000AF4F
:101D10000346B9607A60FB7300237B61FFF742FFE3
:101D200078617A68B9687869FFF790FF024697F999
:101D30000F3011461846FFF75FFF00BF1837BD464A
:101D400080BD80B582B000AF0346FB7197F90730C4
:101D50001846FFF735FF00BF0837BD4680BD80B588
:101D600082B000AF78607868FFF7A2FF034618469C
:101D70000837BD4680BD000080B48BB000AF7860EE
:101D8000396000237B6200233B6269E101227B6AA8
:101D900002FA03F3FB613B681B68FA691340BB61FD
:101DA000BA69FB699A4240F058813B685B689A4A7D
:101DB00093425ED0984A934275D8984A934258D03D
:101DC000964A93426FD8964A934252D0944A93428D
:101DD00069D8944A93424CD0924A934263D8924A2B
:101DE000934246D0904A93425DD8122B2AD8122BA8
:101DF00059D801A252F823F0731E00084D1E0008A6
:101E00005F1E0008A11E0008A71E0008A71E0008EC
:101E1000A71E0008A71E0008A71E0008A71E00088E
:101E2000A71E0008A71E0008A71E0008A71E00087E
:101E3000A71E0008A71E0008A71E0008551E0008C0
:101E4000691E0008794A934213D02CE03B68DB6896
:101E50003B6229E03B68DB6804333B6224E03B687B
:101E6000DB6808333B621FE03B68DB680C333B6296
:101E70001AE03B689B68002B02D104233B6213E00D
:101E80003B689B68012B05D108233B627B68FA699C
:101E90001A6109E008233B627B68FA695A6103E032
:101EA00000233B6200E000BFBB69FF2B01D87B68C9
:101EB00001E07B6804337B61BB69FF2B02D87B6A3E
:101EC0009B0002E07B6A083B9B003B617B691A68D0
:101ED0000F213B6901FA03F3DB431A40396A3B697E
:101EE00001FA03F31A437B691A603B685B6803F0ED
:101EF0008053002B00F0B1804D4B9B694C4A43F05E
:101F0000010393614A4B9B6903F00103BB60BB680B
:101F1000484A7B6A9B08023352F82330FB607B6A95
:101F200003F003039B000F2202FA03F3DB43FA687A
:101F30001340FB607B68404A934213D07B683F4A62
:101F400093420DD07B683E4A934207D07B683D4A5E
:101F5000934201D1032306E0042304E0022302E0BC
:101F6000012300E000237A6A02F00302920093400A
:101F7000FA681343FB602F497B6A9B080233FA68B7
:101F800041F823203B685B6803F48013002B06D0E4
:101F90002D4B9A682C49BB6913438B6006E02A4B92
:101FA0009A68BB69DB43284913408B603B685B68D8
:101FB00003F40013002B06D0234BDA682249BB69D7
:101FC0001343CB6006E0204BDA68BB69DB431E4954
:101FD0001340CB603B685B6803F40033002B06D0F2
:101FE000194B5A681849BB6913434B6006E0164BFE
:101FF0005A68BB69DB43144913404B603B685B681C
:1020000003F48033002B21D00F4B1A680E49BB69B3
:1020100013430B6021E000BF0000321000003110BC
:10202000000022100000211000001210000011100A
:10203000001002400000014000080140000C014077
:102040000010014000140140000401400B4B1A68CD
:10205000BB69DB43094913400B607B6A01337B6238
:102060003B681A687B6A22FA03F3002B7FF48EAE7A
:1020700000BF00BF2C37BD4680BC70470004014044
:1020800080B483B000AF78600B467B8013467B70D2
:102090007B78002B03D07A887B681A6103E07B8809
:1020A0001A047B681A6100BF0C37BD4680BC7047BC
:1020B00080B584B000AF78607B68002B01D101232C
:1020C000E8E07B6893F89132DBB2002B06D17B68A5
:1020D000002283F89022786806F098FF7B6803223C
:1020E00083F891227B6800225A717B681B6818462E
:1020F00002F0BDFE7B6818687B6804330ECB02F0EB
:1021000093FE0346002B05D07B68022283F89122C0
:102110000123BFE07B681B680021184602F0C1FE66
:102120000346002B05D07B68022283F8912201230D
:10213000B0E00023FB733EE0FA7B796813469B0016
:102140001344DB000B44113301221A70FA7B7968C7
:1021500013469B001344DB000B441033FA7B1A70C8
:10216000FA7B796813469B001344DB000B4413335E
:1021700000221A70FA7B796813469B001344DB0037
:102180000B44203300221A60FA7B796813469B00C7
:102190001344DB000B44243300221A60FB7B796874
:1021A0005A1C13469B001344DB000B4400221A60A8
:1021B000FB7B0133FB737B681B79FA7B9A42BBD3B1
:1021C0000023FB7344E0FA7B796813469B001344B9
:1021D000DB000B4403F2511300221A70FA7B79687A
:1021E00013469B001344DB000B4403F5A873FA7BF2
:1021F0001A70FA7B796813469B001344DB000B448A
:1022000003F2531300221A70FA7B796813469B007D
:102210001344DB000B4403F5B07300221A60FA7B11
:10222000796813469B001344DB000B4403F5B2733B
:1022300000221A60FA7B796813469B001344DB0086
:102240000B4403F5B47300221A60FB7B0133FB736C
:102250007B681B79FA7B9A42B5D37B6818687B68E8
:1022600004330ECB02F029FE0346002B05D07B6819
:10227000022283F8912201230CE07B6800225A732A
:102280007B68012283F891227B681B68184605F061
:10229000A8F8002318461037BD4680BD80B582B02F
:1022A00000AF78607B6893F89032012B01D1022354
:1022B00016E07B68012283F890227B681B68184631
:1022C00002F0BFFD0121786807F013F97B681B68F5
:1022D000184605F07CF87B68002283F890220023E2
:1022E00018460837BD4680BD80B588B000AF78601D
:1022F0007B681B68184605F07EF8B861BB6903F47B
:102300000043002B03D0786800F01AFB19E1BB6989
:1023100003F48063002B13D07B681B68B3F8443050
:102320009AB27B681B6822F4806292B2A3F84420C0
:10233000786806F0E6FE0021786800F005F900E113
:10234000BB6903F48043002B0CD07B681B68B3F897
:1023500044309AB27B681B6822F4804292B2A3F8A0
:102360004420EEE0BB6903F40053002B0CD07B68E3
:102370001B68B3F844309AB27B681B6822F40052A1
:1023800092B2A3F84420DCE0BB6903F48053002B35
:1023900027D07B681B68B3F840309AB27B681B6813
:1023A00022F0040292B2A3F840207B681B68B3F8C5
:1023B00040309AB27B681B6822F0080292B2A3F800
:1023C0004020786806F0D6FE7B681B68B3F844307E
:1023D0009AB27B681B6822F4805292B2A3F8442020
:1023E000AFE0BB6903F40063002B00F0838000239F
:1023F000FB7710E07B681B681A46FB7F9B001A4442
:10240000FB7F128892B25B0020333B4423F8182CE8
:10241000FB7F0133FB77FB7F072BEBD97B681B68C6
:10242000B3F840309AB27B681B6842F0010292B266
:10243000A3F840207B681B68B3F840309AB27B68F1
:102440001B6822F0010292B2A3F8402000BF7B6813
:102450001B68B3F844309BB203F48063002BF6D0C2
:102460007B681B68B3F844309AB27B681B6822F41F
:10247000806292B2A3F844200023FB770FE0FB7F39
:102480007A6812681146FA7F92000A445B00203392
:102490003B4433F8183C1380FB7F0133FB77FB7F11
:1024A000072BECD97B681B68B3F840309AB27B6885
:1024B0001B6842F0080292B2A3F840207B681B68B8
:1024C000B3F844309AB27B681B6822F4006292B27F
:1024D000A3F844207B681B68B3F840309AB27B684D
:1024E0001B6842F0040292B2A3F84020786806F01C
:1024F00027FE26E0BB6903F40073002B0FD07B6836
:102500001B68B3F844309AB27B681B6822F40072EF
:1025100092B2A3F84420786806F0E5FD11E0BB69AB
:1025200003F48073002B0CD07B681B68B3F8443035
:102530009AB27B681B6822F4807292B2A3F844209E
:1025400000BF2037BD4680BD80B582B000AF786047
:102550000B46FB707B6893F89032012B01D102236C
:1025600012E07B68012283F890227B68FA785A7324
:102570007B681B68FA781146184604F015FF7B68E3
:10258000002283F89022002318460837BD4680BDFC
:1025900080B584B000AF7860084611461A460346FD
:1025A000FB700B463B801346BB700023FB7297F910
:1025B0000330002B0EDAFB7803F0070213469B0072
:1025C0001344DB0010337A681344FB60FB6801227C
:1025D0005A700EE0FB7803F0070213469B00134489
:1025E000DB0003F5A8737A681344FB60FB680022E4
:1025F0005A70FB7803F00703DAB2FB681A703A8866
:10260000FB681A61FB68BA78DA70BB78022B02D1DA
:10261000FB6800221A717B6893F89032012B01D17C
:1026200002230EE07B68012283F890227B681B68FE
:10263000F968184602F05EFC7B68002283F890225D
:10264000FB7A18461037BD4680BD80B584B000AF18
:1026500078600B46FB7097F90330002B0EDAFB789D
:1026600003F0070213469B001344DB0010337A6823
:102670001344FB60FB6801225A700EE0FB7803F004
:10268000070213469B001344DB0003F5A8737A6826
:102690001344FB60FB6800225A70FB7803F00703C9
:1026A000DAB2FB681A707B6893F89032012B01D183
:1026B00002230EE07B68012283F890227B681B686E
:1026C000F968184602F0D6FF7B68002283F8902252
:1026D000002318461037BD4680BD80B586B000AFD8
:1026E000F8607A603B600B46FB72FB7A03F00702EE
:1026F00013469B001344DB0003F5A873FA681344E8
:102700007B617B697A685A617B693A689A617B6907
:102710000022DA617B6900225A70FB7A03F007031A
:10272000DAB27B691A70FB681B687969184603F096
:102730008DF9002318461837BD4680BD80B483B09C
:1027400000AF78600B46FB70FB7803F007027968F6
:1027500013469B001344DB000B4403F5B6731B6860
:1027600018460C37BD4680BC704780B586B000AFB8
:10277000F8607A603B600B46FB72FB7A03F007025D
:1027800013469B001344DB001033FA6813447B614B
:102790007B697A685A617B693A689A617B69012230
:1027A00083F824207B693A681A627B690022DA6127
:1027B0007B6901225A70FB7A03F00703DAB27B6966
:1027C0001A70FB681B687969184603F03FF900230B
:1027D00018461837BD4680BD80B584B000AF78601C
:1027E0000B46FB70FB7803F007037A68127993427B
:1027F00001D901234CE097F90330002B0EDAFB7866
:1028000003F0070213469B001344DB0010337A6881
:102810001344FB60FB6801225A700CE0FA781346FF
:102820009B001344DB0003F5A8737A681344FB6034
:10283000FB6800225A70FB6801229A70FB7803F053
:102840000703DAB2FB681A707B6893F89032012BA9
:1028500001D102231CE07B68012283F890227B686F
:102860001B68F968184604F0A2FCFB7803F0070324
:10287000002B08D17B681A687B6803F5267319461C
:10288000104604F0C7FD7B68002283F890220023E5
:1028900018461037BD4680BD80B584B000AF786063
:1028A0000B46FB70FB7803F00F037A6812799342B2
:1028B00001D9012340E097F90330002B0EDAFB78B1
:1028C00003F0070213469B001344DB0010337A68C1
:1028D0001344FB60FB6801225A700EE0FB7803F0A2
:1028E000070213469B001344DB0003F5A8737A68C4
:1028F0001344FB60FB6800225A70FB6800229A7048
:10290000FB7803F00703DAB2FB681A707B6893F870
:102910009032012B01D102230EE07B68012283F863
:1029200090227B681B68F968184604F090FC7B686D
:10293000002283F89022002318461037BD4680BD40
:1029400080B596B000AF7860BBE37B681B68B3F8D6
:102950004430A7F84E30B7F84E30DBB203F00F0327
:1029600087F84D3097F84D30002B40F07581B7F85F
:102970004E3003F01003002B4ED17B681B681B8880
:102980009BB223F4E14323F07003FB817B681A6858
:10299000FB896FEA43436FEA53439BB213807B6822
:1029A00010337B657B681B68B3F850309BB21A46C6
:1029B0007B6D1B78DB00134402335B007A6812687E
:1029C000134403F580631B88C3F309027B6DDA614E
:1029D0007B6D5A697B6DDB691A447B6D5A610021FE
:1029E000786806F066FB7B685B7BDBB2002B00F04F
:1029F00068837B6D9B69002B40F063837B685B7B06
:102A0000DBB263F07F03DAB27B681B68A3F84C206B
:102A10007B6800225A7354E37B6803F5A8737B65D7
:102A20007B681B681B88A7F84A30B7F84A3003F464
:102A30000063002B34D07B681B68B3F850309BB226
:102A40001A467B6D1B78DB00134406335B007A6803
:102A50001268134403F580631B88C3F309027B6D7E
:102A6000DA617B6818687B6803F526717B6DDA880C
:102A70007B6DDB699BB204F01DFD7B681B681B88C6
:102A80009AB240F68F7313403B827B681B683A8A88
:102A900042F0800292B21A80786806F0DDFA10E304
:102AA000B7F94A30002B80F20C837B681B681B88C7
:102AB0009AB240F68F731340FB837B681B68FA8BD6
:102AC00042F0800292B21A807B681B68B3F85030E3
:102AD0009BB21A467B6D1B78DB00134406335B0008
:102AE0007A681268134403F580631B88C3F30902F4
:102AF0007B6DDA617B6DDB69002B19D07B6D5B69C7
:102B0000002B15D07B6818687B6D59697B6DDA885E
:102B10007B6DDB699BB204F0CDFC7B6D5A697B6DEC
:102B2000DB691A447B6D5A610021786806F0A6FAC9
:102B30007B681B681B88A7F84A30B7F84A3003F453
:102B40000063002B40F0BD82B7F84A3003F44053D5
:102B5000B3F5405F00F0B5827B681B68BB617B68A2
:102B60001B68B3F850309BB21A46BB691344BB6173
:102B7000BB6903F20C437B617B691B889BB2C3F387
:102B800009039AB27B691A807B6D1B693E2B1DD9A4
:102B90007B6D1B695B097B647B6D1B6903F01F0305
:102BA000002B02D17B6C013B7B647B691B889AB252
:102BB0007B6C9BB29B029BB213439BB26FEA434375
:102BC0006FEA53439AB27B691A8026E07B6D1B69DA
:102BD000002B0AD17B691B889BB26FEA43436FEAE3
:102BE00053439AB27B691A8017E07B6D1B695B08BF
:102BF0007B647B6D1B6903F00103002B02D07B6CAF
:102C000001337B647B691B889AB27B6C9BB29B020D
:102C10009BB213439AB27B691A807B681B681B883E
:102C20009BB223F4804323F070037B827B8A83F47E
:102C300080537B827B8A83F400537B827B681A6893
:102C40007B8A43F07F4343F47F0343F4004343F024
:102C500080039BB2138034E27B681B681A4697F8A6
:102C60004D309B0013441B88A7F84A30B7F94A300F
:102C7000002B80F2FC807B681B681A4697F84D3069
:102C80009B0013441B889AB240F68F731340A7F839
:102C900048307B681B681A4697F84D309B001344F8
:102CA000B7F8482042F0800292B21A8097F84D207F
:102CB00013469B001344DB0003F5A8737A681344A2
:102CC0007B657B6D1B7B002B25D17B681B68B3F874
:102CD00050309BB21A467B6D1B78DB0013440633E1
:102CE0005B007A681268134403F580631B88C3F3A2
:102CF0000903A7F85030B7F85030002B00F092804D
:102D00007B6818687B6D59697B6DDA88B7F850303D
:102D100004F0D0FB86E07B6DDB78022B0AD1B7F89C
:102D20004A301A46796D786800F0D9F90346A7F859
:102D3000503077E07B681B681A467B6D1B789B00E0
:102D400013441B889BB223F4E04323F07003A7F8DD
:102D500052307B681B681A467B6D1B789B001A44B7
:102D6000B7F8523043F07F4343F47F0343F400430A
:102D700043F0C0039BB213807B681B681A467B6DCF
:102D80001B789B0013441B889BB203F48043002BE9
:102D900024D07B681B68B3F850309BB21A467B6D19
:102DA0001B78DB00134402335B007A68126813441B
:102DB00003F580631B88C3F30903A7F85030B7F805
:102DC0005030002B2ED07B6818687B6D59697B6D65
:102DD0001A89B7F8503004F06DFB23E07B681B685C
:102DE000B3F850309BB21A467B6D1B78DB0013445E
:102DF00006335B007A681268134403F580631B880E
:102E0000C3F30903A7F85030B7F85030002B09D0AE
:102E10007B6818687B6D59697B6D5A89B7F85030AB
:102E200004F048FB7B6DDA69B7F850301A447B6DCB
:102E3000DA617B6D5A69B7F850301A447B6D5A617C
:102E40007B6D9B69002B05D0B7F850207B6D1B690B
:102E50009A4206D27B6D1B781946786806F00EF907
:102E600005E07B681B68796D184602F0EFFDB7F846
:102E70004A3003F08003002B00F0238197F84D20A7
:102E800013469B001344DB0010337A6813447B65C0
:102E90007B681B681A4697F84D309B0013441B88CB
:102EA0009BB223F4E14323F07003A7F842307B6820
:102EB0001B681A4697F84D309B001A44B7F8423009
:102EC0006FEA43436FEA53439BB213807B6DDB7819
:102ED000012B40F0A2807B6D00229A617B6D1B7BF1
:102EE000002B00F09380B7F84A3003F04003002B2A
:102EF00046D07B6D5B78002B26D17B681B687B629C
:102F00007B681B68B3F850309BB21A467B6A134447
:102F10007B627B6D1B781A017B6A134403F20443C6
:102F20003B623B6A1B889BB2C3F309039AB23B6ABC
:102F30001A803B6A1B889BB26FEA43436FEA534394
:102F40009AB23B6A1A8061E07B6D5B78012B5DD1A0
:102F50007B681B68FB627B681B68B3F850309BB2D0
:102F60001A46FB6A1344FB627B6D1B781A01FB6AED
:102F7000134403F20443BB62BB6A00221A8045E09B
:102F80007B681B68FB637B6D5B78002B26D17B68BD
:102F90001B687B637B681B68B3F850309BB21A4692
:102FA0007B6B13447B637B6D1B781A017B6B134433
:102FB00003F20C433B633B6B1B889BB2C3F30903D7
:102FC0009AB23B6B1A803B6B1B889BB26FEA434300
:102FD0006FEA53439AB23B6B1A8017E07B6D5B78C4
:102FE000012B13D17B681B68B3F850309BB21A4693
:102FF000FB6B1344FB637B6D1B781A01FB6B134463
:1030000003F20C43BB63BB6B00221A807B6D1B7801
:103010001946786806F04DF853E0B7F84A3003F4E3
:103020008073002B46D17B681B68B3F850309BB28D
:103030001A467B6D1B78DB00134402335B007A6811
:103040001268134403F580631B88C3F30903A7F8D0
:1030500040307B6D9A69B7F840309A4207D97B6D52
:103060009A69B7F84030D21A7B6D9A6102E07B6DA5
:1030700000229A617B6D9B69002B06D17B6D1B78CA
:103080001946786806F015F81BE07B6D5A69B7F8A9
:1030900040301A447B6D5A617B6DDA69B7F8403075
:1030A0001A447B6DDA617B681B68796D184602F003
:1030B000CDFC06E0B7F84A301A46796D786800F022
:1030C0001BF97B681B68B3F844309BB21BB2002B22
:1030D000FFF63BAC002318465837BD4680BD80B58F
:1030E00088B000AFF860B9601346FB80FB8803F43A
:1030F0008043002B7ED0FB681B68B3F850309BB236
:103100001A46BB681B78DB00134402335B00FA6885
:103110001268134403F580631B88C3F309037B83A0
:10312000BB689A697B8B9A4206D3BB689A697B8B92
:10313000D21ABB689A6102E0BB6800229A61BB6840
:103140009B69002B23D1FB681B681A46BB681B7860
:103150009B0013441B889BB223F4804323F070032D
:103160003B833B8B83F400533B83FB681B681A460D
:10317000BB681B789B001A443B8B43F07F4343F4AE
:103180007F0343F4004343F080039BB21380FB882A
:1031900003F04003002B1FD0FB681B681A46BB6876
:1031A0001B789B0013441B889BB223F4E04323F05D
:1031B0007003FB82FB681B681A46BB681B789B0088
:1031C0001A44FB8A43F07F4343F47F0343F40043F4
:1031D00043F0C0039BB213807B8B002B00F08780F1
:1031E000FB681868BB685969BB681A897B8B04F057
:1031F00061F97CE0FB681B68B3F850309BB21A465B
:10320000BB681B78DB00134406335B00FA68126866
:10321000134403F580631B88C3F309037B83BB68F6
:103220009A697B8B9A4206D3BB689A697B8BD21AC8
:10323000BB689A6102E0BB6800229A61BB689B6927
:10324000002B23D1FB681B681A46BB681B789B00C8
:1032500013441B889BB223F4804323F07003FB8349
:10326000FB8B83F40053FB83FB681B681A46BB6827
:103270001B789B001A44FB8B43F07F4343F47F038E
:1032800043F4004343F080039BB21380FB8803F0B8
:103290004003002B1FD1FB681B681A46BB681B78D4
:1032A0009B0013441B889BB223F4E04323F070037C
:1032B000BB83FB681B681A46BB681B789B001A44DB
:1032C000BB8B43F07F4343F47F0343F4004343F05D
:1032D000C0039BB213807B8B002B08D0FB6818685F
:1032E000BB685969BB685A897B8B04F0E3F87B8B18
:1032F00018462037BD4680BD80B5A4B000AFF86049
:10330000B9601346FB80FB8803F04003002B00F0FC
:10331000DD81FB681B68B3F850309BB21A46BB686E
:103320001B78DB00134402335B00FA681268134415
:1033300003F580631B88C3F30903A7F88630BB68D5
:103340009A69B7F886309A4207D9BB689A69B7F884
:103350008630D21ABB689A6102E0BB6800229A618B
:10336000BB689B69002B40F0B980BB685B78002B81
:1033700026D1FB681B68FB62FB681B68B3F8503002
:103380009BB21A46FB6A1344FB62BB681B781A01A6
:10339000FB6A134403F20443BB62BB6A1B889BB203
:1033A000C3F309039AB2BB6A1A80BB6A1B889BB23B
:1033B0006FEA43436FEA53439AB2BB6A1A801AE03A
:1033C000BB685B78012B16D1FB681B687B63FB68CD
:1033D0001B68B3F850309BB21A467B6B13447B6377
:1033E000BB681B781A017B6B134403F204433B63F5
:1033F0003B6B00221A80FB681B687B62BB685B78B2
:10340000002B26D1FB681B68FB61FB681B68B3F8C7
:1034100050309BB21A46FB691344FB61BB681B78B2
:103420001A01FB69134403F20C43BB61BB691B889F
:103430009BB2C3F309039AB2BB691A80BB691B88AC
:103440009BB26FEA43436FEA53439AB2BB691A8057
:1034500017E0BB685B78012B13D1FB681B68B3F8DE
:1034600050309BB21A467B6A13447B62BB681B7860
:103470001A017B6A134403F20C433B623B6A00224D
:103480001A80BB681B781946F86805F012FEFB88A5
:1034900003F48043002B00F0FC82FB681B681A4693
:1034A000BB681B789B0013441B889BB223F4E0434A
:1034B00023F07003FB82FB681B681A46BB681B780D
:1034C0009B001A44FB8A43F07F4343F47F0343F499
:1034D000404343F080039BB21380DAE2FB8803F49D
:1034E0008043002B21D0FB681B681A46BB681B7801
:1034F0009B0013441B889BB223F4E04323F070032A
:10350000A7F88A30FB681B681A46BB681B789B00CB
:103510001A44B7F88A3043F07F4343F47F0343F4FF
:10352000404343F080039BB21380BB6893F8243080
:10353000012B40F0AE82BB685A69B7F886301A4456
:10354000BB685A61BB68DA69B7F886301A44BB6851
:10355000DA61BB681A6ABB681B699A420BD3BB6805
:103560001B69C7F88C30BB681A6AD7F88C30D21A3E
:10357000BB681A6217E0BB681B6A002B08D1B7F85A
:103580008630C7F88C30BB68002283F824200AE01C
:10359000BB68002283F82420BB681B6AC7F88C3004
:1035A000BB6800221A62BB685B78002B65D1FB68A0
:1035B0001B68FB63FB681B68B3F850309BB21A466C
:1035C000FB6B1344FB63BB681B781A01FB6B134452
:1035D00003F20443BB63BB6B1B889BB2C3F30903B9
:1035E0009AB2BB6B1A80D7F88C303E2B1DD9D7F816
:1035F0008C305B09BB64D7F88C3003F01F03002BC1
:1036000002D1BB6C013BBB64BB6B1B889AB2BB6C29
:103610009BB29B029BB213439BB26FEA43436FEA98
:1036200053439AB2BB6B1A8044E0D7F88C30002B1E
:103630000AD1BB6B1B889BB26FEA43436FEA5343CB
:103640009AB2BB6B1A8035E0D7F88C305B08BB644C
:10365000D7F88C3003F00103002B02D0BB6C013390
:10366000BB64BB6B1B889AB2BB6C9BB29B029BB2C8
:1036700013439AB2BB6B1A801CE0BB685B78012BCA
:1036800018D1FB681B687B64FB681B68B3F850307B
:103690009BB21A467B6C13447B64BB681B781A018F
:1036A0007B6C134403F204433B64D7F88C309AB22A
:1036B0003B6C1A80FB681868BB685969BB681A893B
:1036C000D7F88C309BB203F0B0FEE2E1FB681B68D8
:1036D000B3F850309BB21A46BB681B78DB0013442A
:1036E00006335B00FA681268134403F580631B8895
:1036F000C3F30903A7F88630BB689A69B7F8863028
:103700009A4207D3BB689A69B7F88630D21ABB6869
:103710009A6102E0BB6800229A61BB689B69002B3A
:1037200040F0C080BB685B78002B26D1FB681B682B
:10373000FB67FB681B68B3F850309BB21A46FB6FFF
:103740001344FB67BB681B781A01FB6F134403F239
:103750000443BB67BB6F1B889BB2C3F309039AB2D8
:10376000BB6F1A80BB6F1B889BB26FEA43436FEA43
:1037700053439AB2BB6F1A801AE0BB685B78012B87
:1037800016D1FB681B687B66FB681B68B3F850307A
:103790009BB21A467B6E13447B66BB681B781A018A
:1037A0007B6E134403F204433B663B6E00221A8097
:1037B000FB681B687B67BB685B78002B2BD1FB68C1
:1037C0001B68FB66FB681B68B3F850309BB21A4657
:1037D000FB6E1344FB66BB681B781A01FB6E134437
:1037E00003F20C43C7F88030D7F880301B889BB2B7
:1037F000C3F309039AB2D7F880301A80D7F8803023
:103800001B889BB26FEA43436FEA53439AB2D7F8DF
:1038100080301A8017E0BB685B78012B13D1FB68FE
:103820001B68B3F850309BB21A467B6F13447B671A
:10383000BB681B781A017B6F134403F20C433B6790
:103840003B6F00221A80BB681B781946F86805F0A8
:1038500030FCFB8803F48043002B40F01A81FB68A6
:103860001B681A46BB681B789B0013441B889BB2DD
:1038700023F4E04323F07003A7F88830FB681B684B
:103880001A46BB681B789B001A44B7F8883043F08F
:103890007F4343F47F0343F4404343F080039BB2F0
:1038A0001380F6E0FB8803F48043002B21D1FB68F2
:1038B0001B681A46BB681B789B0013441B889BB28D
:1038C00023F4E04323F07003A7F84E30FB681B6835
:1038D0001A46BB681B789B001A44B7F84E3043F079
:1038E0007F4343F47F0343F4404343F080039BB2A0
:1038F0001380BB6893F82430012B40F0CA80BB686A
:103900005A69B7F886301A44BB685A61BB68DA69ED
:10391000B7F886301A44BB68DA61BB681A6ABB68BC
:103920001B699A420BD3BB681B69C7F88C30BB6814
:103930001A6AD7F88C30D21ABB681A6217E0BB68D3
:103940001B6A002B08D1B7F88630C7F88C30BB68EB
:10395000002283F824200AE0BB681B6AC7F88C3079
:10396000BB6800221A62BB68002283F82420FB682F
:103970001B687B65BB685B78002B65D1FB681B68A7
:10398000FB65FB681B68B3F850309BB21A46FB6DB1
:103990001344FB65BB681B781A01FB6D134403F2EB
:1039A0000C43BB65BB6D1B889BB2C3F309039AB282
:1039B000BB6D1A80D7F88C303E2B1DD9D7F88C30D0
:1039C0005B09BB66D7F88C3003F01F03002B02D1D4
:1039D000BB6E013BBB66BB6D1B889AB2BB6E9BB2D4
:1039E0009B029BB213439BB26FEA43436FEA53437C
:1039F0009AB2BB6D1A8041E0D7F88C30002B0AD107
:103A0000BB6D1B889BB26FEA43436FEA53439AB284
:103A1000BB6D1A8032E0D7F88C305B08BB66D7F8F4
:103A20008C3003F00103002B02D0BB6E0133BB6668
:103A3000BB6D1B889AB2BB6E9BB29B029BB21343B9
:103A40009AB2BB6D1A8019E0BB685B78012B15D167
:103A5000FB681B68B3F850309BB21A467B6D134469
:103A60007B65BB681B781A017B6D134403F20C4322
:103A70003B65D7F88C309AB23B6D1A80FB681868AA
:103A8000BB685969BB685A89D7F88C309BB203F080
:103A9000CCFCFB681B681A46BB681B789B00134470
:103AA0001B889BB223F4E04323F04003BB82BB8A14
:103AB00083F01003BB82BB8A83F02003BB82FB68C8
:103AC0001B681A46BB681B789B001A44BB8A43F0EC
:103AD0007F4343F47F0343F4004343F080039BB2EE
:103AE0001380002318469037BD4680BD80B487B050
:103AF00000AFF8607B600B467B8113463B817B897E
:103B000003F080039BB2002B0BD07B8903F00702EC
:103B100013469B001344DB001033FA6813447B61A7
:103B200009E07A8913469B001344DB0003F5A87370
:103B3000FA6813447B613B89002B07D17B69002223
:103B40001A737B689AB27B69DA800BE07B69012289
:103B50001A737B689AB27B691A817B681B0C9AB2D4
:103B60007B695A81002318461C37BD4680BC7047CC
:103B700080B586B000AF78607B68002B01D101234F
:103B800072E27B681B6803F00103002B00F0878062
:103B9000924B5B6803F00C03042B0CD08F4B5B68DB
:103BA00003F00C03082B12D18C4B5B6803F48033B9
:103BB000B3F5803F0BD1894B1B6803F40033002B16
:103BC0006CD07B685B68002B68D101234CE27B687A
:103BD0005B68B3F5803F06D1804B1B687F4A43F496
:103BE000803313602EE07B685B68002B0CD17B4B2D
:103BF0001B687A4A23F480331360784B1B68774A3A
:103C000023F4802313601DE07B685B68B3F5A02F6D
:103C10000CD1724B1B68714A43F4802313606F4BC5
:103C20001B686E4A43F4803313600BE06B4B1B68D8
:103C30006A4A23F480331360684B1B68674A23F495
:103C4000802313607B685B68002B13D0FDF746FD73
:103C5000386108E0FDF742FD02463B69D31A642B48
:103C600001D9032300E25D4B1B6803F40033002BF2
:103C7000F0D014E0FDF732FD386108E0FDF72EFDCD
:103C800002463B69D31A642B01D90323ECE1534B61
:103C90001B6803F40033002BF0D100E000BF7B6809
:103CA0001B6803F00203002B63D04C4B5B6803F0EE
:103CB0000C03002B0BD0494B5B6803F00C03082B63
:103CC0001CD1464B5B6803F48033002B16D1434B69
:103CD0001B6803F00203002B05D07B681B69012BD6
:103CE00001D00123C0E13D4B1B6823F0F8027B6843
:103CF0005B69DB00394913430B603AE07B681B6961
:103D0000002B20D0364B01221A60FDF7E7FC38610A
:103D100008E0FDF7E3FC02463B69D31A022B01D908
:103D20000323A1E12D4B1B6803F00203002BF0D00D
:103D30002A4B1B6823F0F8027B685B69DB0027498C
:103D400013430B6015E0264B00221A60FDF7C6FCFA
:103D5000386108E0FDF7C2FC02463B69D31A022B2A
:103D600001D9032380E11D4B1B6803F00203002BE4
:103D7000F0D17B681B6803F00803002B3AD07B6806
:103D80009B69002B19D0174B01221A60FDF7A6FC86
:103D9000386108E0FDF7A2FC02463B69D31A022B0A
:103DA00001D9032360E10D4B5B6A03F00203002B92
:103DB000F0D0012000F0CEFA1CE00A4B00221A607D
:103DC000FDF78CFC38610FE0FDF788FC02463B698B
:103DD000D31A022B08D9032346E100BF001002408A
:103DE0000000424280044242924B5B6A03F00203AD
:103DF000002BE9D17B681B6803F00403002B00F063
:103E0000A6800023FB758B4BDB6903F08053002BEE
:103E10000DD1884BDB69874A43F08053D361854BD2
:103E2000DB6903F08053BB60BB680123FB75824BE9
:103E30001B6803F48073002B18D17F4B1B687E4AEC
:103E400043F480731360FDF749FC386108E0FDF727
:103E500045FC02463B69D31A642B01D9032303E1D5
:103E6000754B1B6803F48073002BF0D07B68DB6814
:103E7000012B06D16F4B1B6A6E4A43F0010313629C
:103E80002DE07B68DB68002B0CD16A4B1B6A694A0A
:103E900023F001031362674B1B6A664A23F0040395
:103EA00013621CE07B68DB68052B0CD1614B1B6A3D
:103EB000604A43F0040313625E4B1B6A5D4A43F0A1
:103EC000010313620BE05B4B1B6A5A4A23F00103A8
:103ED0001362584B1B6A574A23F0040313627B6832
:103EE000DB68002B15D0FDF7F9FB38610AE0FDF720
:103EF000F5FB02463B69D31A41F28832934201D95D
:103F00000323B1E04B4B1B6A03F00203002BEED0FE
:103F100014E0FDF7E3FB38610AE0FDF7DFFB024642
:103F20003B69D31A41F28832934201D903239BE0C3
:103F3000404B1B6A03F00203002BEED1FB7D012BEB
:103F400005D13C4BDB693B4A23F08053D3617B684E
:103F5000DB69002B00F08780364B5B6803F00C03B5
:103F6000082B61D07B68DB69022B46D1334B0022E2
:103F70001A60FDF7B3FB386108E0FDF7AFFB0246BE
:103F80003B69D31A022B01D903236DE0294B1B682F
:103F900003F00073002BF0D17B681B6AB3F5803F00
:103FA00008D1244B5B6823F400327B689B6821496D
:103FB00013434B601F4B5B6823F474127B68196AD0
:103FC0007B685B6A0B431B4913434B601B4B01220D
:103FD0001A60FDF783FB386108E0FDF77FFB0246BE
:103FE0003B69D31A022B01D903233DE0114B1B6817
:103FF00003F00073002BF0D035E0104B00221A6064
:10400000FDF76CFB386108E0FDF768FB02463B6991
:10401000D31A022B01D9032326E0064B1B6803F0B9
:104020000073002BF0D11EE07B68DB69012B07D108
:10403000012319E00010024000700040600042427D
:104040000B4B5B68FB60FB6803F480327B681B6A88
:104050009A4206D1FB6803F470127B685B6A9A424D
:1040600001D0012300E0002318461837BD4680BD6B
:104070000010024080B584B000AF786039607B6882
:10408000002B01D10123D0E06A4B1B6803F007032A
:104090003A689A4210D9674B1B6823F007026549BA
:1040A0003B6813430B60634B1B6803F007033A68DC
:1040B0009A4201D00123B8E07B681B6803F0020339
:1040C000002B20D07B681B6803F00403002B05D075
:1040D000594B5B68584A43F4E06353607B681B6844
:1040E00003F00803002B05D0534B5B68524A43F49E
:1040F00060535360504B5B6823F0F0027B689B6811
:104100004D4913434B607B681B6803F00103002B90
:1041100040D07B685B68012B07D1474B1B6803F4D9
:104120000033002B15D101237FE07B685B68022BF5
:1041300007D1414B1B6803F00073002B09D1012309
:1041400073E03D4B1B6803F00203002B01D10123F8
:104150006BE0394B5B6823F003027B685B68364990
:1041600013434B60FDF7BAFAF8600AE0FDF7B6FAC0
:104170000246FB68D31A41F28832934201D90323E5
:1041800053E02D4B5B6803F00C027B685B689B007F
:104190009A42EBD1274B1B6803F007033A689A4217
:1041A00010D2244B1B6823F0070222493B681343BB
:1041B0000B60204B1B6803F007033A689A4201D05A
:1041C000012332E07B681B6803F00403002B08D056
:1041D000194B5B6823F4E0627B68DB681649134384
:1041E0004B607B681B6803F00803002B09D0124B5F
:1041F0005B6823F460527B681B69DB000E49134344
:104200004B6000F021F802460B4B5B681B0903F082
:104210000F030A49CB5C22FA03F3094A1360094BE6
:104220001B681846FDF718FA002318461037BD46DC
:1042300080BD00BF002002400010024098DC000852
:104240000C0000201000002080B487B000AF0023D5
:10425000FB600023BB6000237B6100237B600023A5
:104260003B611E4B5B68FB60FB6803F00C03042B97
:1042700002D0082B03D027E0194B3B6127E0FB68F5
:104280009B0C03F00F03174AD35C7B60FB6803F4BD
:104290008033002B10D0114B5B685B0C03F00103E3
:1042A000114AD35CBB607B680D4A03FB02F2BB681A
:1042B000B2FBF3F37B6104E07B680C4A02FB03F37F
:1042C0007B617B693B6102E0054B3B6100BF3B6961
:1042D00018461C37BD4680BC704700BF0010024026
:1042E00000127A00B0DC0008C0DC000800093D00C4
:1042F00080B400AF024B1B681846BD4680BC7047B7
:104300000C00002080B500AFFFF7F2FF0246054B1E
:104310005B681B0A03F007030349CB5C22FA03F333
:10432000184680BD00100240A8DC000880B500AF30
:10433000FFF7DEFF0246054B5B68DB0A03F007036D
:104340000349CB5C22FA03F3184680BD00100240FB
:10435000A8DC000880B485B000AF78600A4B1B6809
:104360000A4AA2FB03235B0A7A6802FB03F3FB60A1
:1043700000BFFB685A1EFA60002BF9D100BF00BFD6
:104380001437BD4680BC70470C000020D34D62102E
:1043900080B586B000AF786000233B610023FB60EE
:1043A0007B681B6803F00103002B7DD00023FB75A5
:1043B0004F4BDB6903F08053002B0DD14C4BDB6975
:1043C0004B4A43F08053D361494BDB6903F0805380
:1043D000BB60BB680123FB75464B1B6803F480730D
:1043E000002B18D1434B1B68424A43F4807313607F
:1043F000FDF774F9386108E0FDF770F902463B6992
:10440000D31A642B01D903236DE03A4B1B6803F4E4
:104410008073002BF0D0364B1B6A03F44073FB60B3
:10442000FB68002B2ED07B685B6803F44073FA684E
:104430009A4227D02E4B1B6A23F44073FB602E4B0D
:1044400001221A602C4B00221A60294AFB68136271
:10445000FB6803F00103002B14D0FDF73FF938612E
:104460000AE0FDF73BF902463B69D31A41F2883274
:10447000934201D9032336E01D4B1B6A03F002036C
:10448000002BEED01A4B1B6A23F440727B685B68EA
:10449000174913430B62FB7D012B05D1144BDB69DC
:1044A000134A23F08053D3617B681B6803F0020337
:1044B000002B08D00E4B5B6823F440427B689B685E
:1044C0000B4913434B607B681B6803F01003002B00
:1044D00008D0074B5B6823F480027B68DB680449E3
:1044E00013434B60002318461837BD4680BD00BFFC
:1044F00000100240007000404004424280B582B08B
:1045000000AF78607B68002B01D1012341E07B681C
:1045100093F83D30DBB2002B06D17B68002283F894
:104520003C207868FCF75EFF7B68022283F83D2020
:104530007B681A687B6804331946104600F0F0F86F
:104540007B68012283F846207B68012283F83E20A5
:104550007B68012283F83F207B68012283F840209A
:104560007B68012283F841207B68012283F8422086
:104570007B68012283F843207B68012283F8442072
:104580007B68012283F845207B68012283F83D2067
:10459000002318460837BD4680BD000080B586B0B0
:1045A00000AFF860B9607A600023FB75FB6893F890
:1045B0003C30012B01D10223AEE0FB68012283F8DD
:1045C0003C207B680C2B00F29F8001A252F823F064
:1045D0000546000809470008094700080947000880
:1045E0004546000809470008094700080947000830
:1045F00087460008094700080947000809470008DE
:10460000C7460008FB681B68B968184600F0F6F852
:10461000FB681B689A69FB681B6842F008029A6194
:10462000FB681B689A69FB681B6822F004029A61A8
:10463000FB681B689969BB681A69FB681B680A43B9
:104640009A6164E0FB681B68B968184600F03CF9A1
:10465000FB681B689A69FB681B6842F400629A61F8
:10466000FB681B689A69FB681B6822F480629A6188
:10467000FB681B689969BB681B691A02FB681B68A9
:104680000A439A6143E0FB681B68B968184600F06A
:1046900085F9FB681B68DA69FB681B6842F0080251
:1046A000DA61FB681B68DA69FB681B6822F00402A8
:1046B000DA61FB681B68D969BB681A69FB681B680B
:1046C0000A43DA6123E0FB681B68B968184600F00A
:1046D000CFF9FB681B68DA69FB681B6842F400626B
:1046E000DA61FB681B68DA69FB681B6822F4806288
:1046F000DA61FB681B68D969BB681B691A02FB6831
:104700001B680A43DA6102E00123FB7500BFFB6806
:10471000002283F83C20FB7D18461837BD4680BD3B
:1047200080B485B000AF786039607B681B68FB603F
:104730007B682F4A93420BD07B68B3F1804F07D040
:104740007B682C4A934203D07B682B4A934208D162
:10475000FB6823F07003FB603B685B68FA681343F7
:10476000FB607B68224A93420BD07B68B3F1804F99
:1047700007D07B681F4A934203D07B681E4A93424E
:1047800008D1FB6823F44073FB603B68DB68FA6880
:104790001343FB60FB6823F080023B685B691343B3
:1047A000FB607B68FA681A603B689A687B68DA622B
:1047B0003B681A687B689A627B680D4A934203D112
:1047C0003B681A697B681A637B6801225A617B68BF
:1047D0001B6903F00103002B05D07B681B6923F0E4
:1047E00001027B681A6100BF1437BD4680BC704768
:1047F000002C0140000400400008004080B487B055
:1048000000AF786039607B681B6A7B617B681B6ADC
:1048100023F001027B681A627B685B683B617B68FE
:104820009B69FB60FB6823F07003FB60FB6823F06F
:104830000303FB603B681B68FA681343FB607B69FA
:1048400023F002037B613B689B687A6913437B61B9
:104850007B681C4A93420CD17B6923F008037B617F
:104860003B68DB687A6913437B617B6923F004034F
:104870007B617B68134A934211D13B6923F48073B7
:104880003B613B6923F400733B613B685B693A69B8
:1048900013433B613B689B693A6913433B617B6807
:1048A0003A695A607B68FA689A613B685A687B6823
:1048B0005A637B687A691A6200BF1C37BD4680BCA8
:1048C000704700BF002C014080B487B000AF786013
:1048D00039607B681B6A7B617B681B6A23F010026E
:1048E0007B681A627B685B683B617B689B69FB60E5
:1048F000FB6823F4E043FB60FB6823F44073FB6038
:104900003B681B681B02FA681343FB607B6923F05A
:1049100020037B613B689B681B017A6913437B61C1
:104920007B681D4A93420DD17B6923F080037B6134
:104930003B68DB681B017A6913437B617B6923F069
:1049400040037B617B68144A934213D13B6923F493
:1049500080633B613B6923F400633B613B685B69B7
:104960009B003A6913433B613B689B699B003A6932
:1049700013433B617B683A695A607B68FA689A61C5
:104980003B685A687B689A637B687A691A6200BFE1
:104990001C37BD4680BC7047002C014080B487B0F6
:1049A00000AF786039607B681B6A7B617B681B6A3B
:1049B00023F480727B681A627B685B683B617B686A
:1049C000DB69FB60FB6823F07003FB60FB6823F08E
:1049D0000303FB603B681B68FA681343FB607B6959
:1049E00023F400737B613B689B681B027A69134365
:1049F0007B617B681D4A93420DD17B6923F4006380
:104A00007B613B68DB681B027A6913437B617B69CE
:104A100023F480637B617B68144A934213D13B6922
:104A200023F480533B613B6923F400533B613B68B3
:104A30005B691B013A6913433B613B689B691B013E
:104A40003A6913433B617B683A695A607B68FA684C
:104A5000DA613B685A687B68DA637B687A691A6254
:104A600000BF1C37BD4680BC704700BF002C014012
:104A700080B487B000AF786039607B681B6A3B61A7
:104A80007B681B6A23F480527B681A627B685B68D0
:104A90007B617B68DB69FB60FB6823F4E043FB60C0
:104AA000FB6823F44073FB603B681B681B02FA68D9
:104AB0001343FB603B6923F400533B613B689B68F5
:104AC0001B033A6913433B617B680F4A934209D148
:104AD0007B6923F480437B613B685B699B017A6956
:104AE00013437B617B687A695A607B68FA68DA6194
:104AF0003B685A687B681A647B683A691A6200BF2F
:104B00001C37BD4680BC7047002C014080B485B086
:104B100000AF786039607B6893F83C30012B01D19D
:104B2000022346E07B68012283F83C207B68022256
:104B300083F83D207B681B685B68FB607B681B68B3
:104B40009B68BB60FB6823F07003FB603B681B68DD
:104B5000FA681343FB607B681B68FA685A607B68DD
:104B60001B68164A93420ED07B681B68B3F1804FD6
:104B700009D07B681B68124A934204D07B681B688B
:104B8000104A93420CD1BB6823F08003BB603B68A2
:104B90005B68BA681343BB607B681B68BA689A603D
:104BA0007B68012283F83D207B68002283F83C204B
:104BB000002318461437BD4680BC7047002C0140C6
:104BC000000400400008004080B485B000AF786069
:104BD00039600023FB607B6893F83C30012B01D1E6
:104BE00002233DE07B68012283F83C20FB6823F030
:104BF000FF023B68DB681343FB60FB6823F44072F1
:104C00003B689B681343FB60FB6823F480623B684E
:104C10005B681343FB60FB6823F400623B681B681E
:104C20001343FB60FB6823F480523B681B6913430A
:104C3000FB60FB6823F400523B685B691343FB6035
:104C4000FB6823F480423B68DB691343FB607B68AD
:104C50001B68FA685A647B68002283F83C200023B2
:104C600018461437BD4680BC704780B582B000AF8F
:104C700078607B68002B01D1012342E07B6893F8C8
:104C80004130DBB2002B06D17B68002283F8402044
:104C90007868FCF759FC7B68242283F841207B6804
:104CA0001B68DA687B681B6822F40052DA60786857
:104CB00000F02CF87B681B681A697B681B6822F47B
:104CC00090421A617B681B685A697B681B6822F0F6
:104CD0002A025A617B681B68DA687B681B6842F4A9
:104CE0000052DA607B6800225A647B68202283F8D5
:104CF00041207B68202283F842207B6800225A638F
:104D0000002318460837BD4680BD000080B584B03A
:104D100000AF78607B681B681B6923F440517B6897
:104D2000DA687B681B680A431A617B689A687B684B
:104D30001B691A437B685B691343BB607B681B6814
:104D4000DB6823F4B05323F00C037A681268B96867
:104D50000B43D3607B681B685B6923F440717B68FD
:104D60009A697B681B680A435A617B681B682C4AF6
:104D7000934203D1FFF7DAFAF86002E0FFF7C2FAD4
:104D8000F860FA6813469B0013449A001A447B6843
:104D90005B689B00B2FBF3F3224AA2FB03235B098F
:104DA0001901FA6813469B0013449A001A447B6861
:104DB0005B689B00B2FBF3F21A4BA3FB02035B0997
:104DC000642000FB03F3D31A1B013233154AA2FB04
:104DD00003235B0903F0F0031944FA6813469B00B0
:104DE00013449A001A447B685B689B00B2FBF3F2A1
:104DF0000C4BA3FB02035B09642000FB03F3D31AF3
:104E00001B013233074AA2FB03235B0903F00F02A5
:104E10007B681B680A449A6000BF1037BD4680BD9E
:104E2000003801401F85EB5180B485B000AFF860B9
:104E3000384680E80E00002318461437BD4680BC73
:104E4000704780B485B000AF78607B680022A3F81B
:104E500044204FF43F43FB60FB689AB27B68A3F8A1
:104E60004020002318461437BD4680BC704780B4EC
:104E700085B000AF78604FF43F43FB607B68B3F8C8
:104E800040309AB2FB689BB2DB439BB213409AB2AC
:104E90007B68A3F84020002318461437BD4680BC29
:104EA000704780B483B000AF78600B46FB7000237E
:104EB00018460C37BD4680BC704780B485B000AF43
:104EC000F860384680E80E00FB680122A3F8402015
:104ED000FB680022A3F84020FB680022A3F84420CE
:104EE000FB680022A3F85020002318461437BD4663
:104EF00080BC704780B49DB000AF786039600023FB
:104F000087F86F307A683B681B789B0013441B88D6
:104F10009BB223F4EC4323F07003A7F86C303B689A
:104F2000DB78032B1FD801A252F823F03D4F000875
:104F3000594F00086F4F00084B4F0008B7F86C300E
:104F400043F40073A7F86C3012E0B7F86C3043F408
:104F5000C063A7F86C300BE0B7F86C3043F48063A3
:104F6000A7F86C3004E0012387F86F3000E000BF41
:104F70007A683B681B789B001A44B7F86C3043F0A2
:104F80007F4343F47F0343F4004343F080039BB229
:104F900013807A683B681B789B0013441B889BB284
:104FA00023F4E04323F070039BB23A681278134372
:104FB000A7F866307A683B681B789B001A44B7F8FC
:104FC000663043F07F4343F47F0343F4004343F0F0
:104FD00080039BB213803B681B7B002B40F07881E1
:104FE0003B685B78002B00F084807B68BB617B684A
:104FF000B3F850309BB21A46BB691344BB613B689F
:105000001B781A01BB69134403F580637B613B681D
:10501000DB885B089BB25B009AB27B691A807A6876
:105020003B681B789B0013441B887B827B8A03F0C0
:105030004003002B1BD07A683B681B789B0013440D
:105040001B889BB223F4E04323F070033B827A6811
:105050003B681B789B001A443B8A43F07F4343F430
:105060007F0343F4004343F0C0039BB213803B68CB
:10507000DB78012B20D07A683B681B789B001344B7
:105080001B889BB223F4E04323F04003BB81BB8920
:1050900083F02003BB817A683B681B789B001A442D
:1050A000BB8943F07F4343F47F0343F4004343F061
:1050B00080039BB21380D5E27A683B681B789B0023
:1050C00013441B889BB223F4E04323F04003FB818D
:1050D0007A683B681B789B001A44FB8943F07F4346
:1050E00043F47F0343F4004343F080039BB21380F7
:1050F000B8E27B683B637B68B3F850309BB21A46DA
:105100003B6B13443B633B681B781A013B6B1344B6
:1051100003F58163FB623B68DB885B089BB25B0045
:105120009AB2FB6A1A807B68BB627B68B3F8503026
:105130009BB21A46BB6A1344BB623B681B781A01D8
:10514000BB6A134403F20C437B627B6A1B889BB2ED
:10515000C3F309039AB27B6A1A803B681B693E2B32
:105160001DD93B681B695B09BB663B681B6903F083
:105170001F03002B02D1BB6E013BBB667B6A1B8801
:105180009AB2BB6E9BB29B029BB213439BB26FEA77
:1051900043436FEA53439AB27B6A1A8026E03B6826
:1051A0001B69002B0AD17B6A1B889BB26FEA4343C1
:1051B0006FEA53439AB27B6A1A8017E03B681B6917
:1051C0005B08BB663B681B6903F00103002B02D040
:1051D000BB6E0133BB667B6A1B889AB2BB6E9BB207
:1051E0009B029BB213439AB27B6A1A807A683B682F
:1051F0001B789B0013441B887B847B8C03F48043C7
:10520000002B1BD07A683B681B789B0013441B88DB
:105210009BB223F4E04323F070033B847A683B683D
:105220001B789B001A443B8C43F07F4343F47F037D
:1052300043F4404343F080039BB213803B681B78E8
:10524000002B24D17A683B681B789B0013441B8891
:105250009BB223F4804323F07003BB83BB8B83F4A6
:105260008053BB83BB8B83F40053BB837A683B685A
:105270001B789B001A44BB8B43F07F4343F47F03AE
:1052800043F4004343F080039BB21380EAE17A6861
:105290003B681B789B0013441B889BB223F480431C
:1052A00023F07003FB83FB8B83F40053FB837A684A
:1052B0003B681B789B001A44FB8B43F07F4343F40D
:1052C0007F0343F4004343F080039BB21380C9E1A2
:1052D0003B68DB78022B1ED17A683B681B789B0009
:1052E00013441B889BB223F4E04323F07003A7F818
:1052F00062307A683B681B789B001A44B7F86230CA
:1053000043F07F4343F47F0343F4014343F08003BE
:105310009BB213801DE07A683B681B789B001344A6
:105320001B889BB223F4E24323F07003A7F8643098
:105330007A683B681B789B001A44B7F8643043F0E6
:105340007F4343F47F0343F4004343F080039BB265
:1053500013807B68FB657B68B3F850309BB21A46BC
:10536000FB6D1344FB653B681B781A01FB6D13440E
:1053700003F58063BB653B681B895B089BB25B00E0
:105380009AB2BB6D1A807B687B657B68B3F850303E
:105390009BB21A467B6D13447B653B681B781A01F0
:1053A0007B6D134403F581633B653B685B895B0858
:1053B0009BB25B009AB23B6D1A803B685B78002B16
:1053C00040F093807A683B681B789B0013441B88ED
:1053D000A7F84030B7F8403003F48043002B1BD0CF
:1053E0007A683B681B789B0013441B889BB223F4AC
:1053F000E04323F07003FB877A683B681B789B00CF
:105400001A44FB8F43F07F4343F47F0343F440434C
:1054100043F080039BB213807A683B681B789B0043
:1054200013441B88BB87BB8F03F04003002B1BD0AA
:105430007A683B681B789B0013441B889BB223F45B
:10544000E04323F070037B877A683B681B789B00FE
:105450001A447B8F43F07F4343F47F0343F40043BC
:1054600043F0C0039BB213807A683B681B789B00B3
:1054700013441B889BB223F4804323F070033B87C3
:105480003B8F83F480533B873B8F83F400533B87F0
:105490007A683B681B789B001A443B8F43F07F433C
:1054A00043F47F0343F4004343F080039BB2138033
:1054B0007A683B681B789B0013441B889BB223F4DB
:1054C000E04323F04003FB867A683B681B789B002F
:1054D0001A44FB8E43F07F4343F47F0343F40043BD
:1054E00043F080039BB21380BCE07A683B681B7872
:1054F0009B0013441B88A7F84E30B7F84E3003F4D6
:105500008043002B1DD07A683B681B789B001344B6
:105510001B889BB223F4E04323F07003A7F84C30C0
:105520007A683B681B789B001A44B7F84C3043F00C
:105530007F4343F47F0343F4404343F080039BB233
:1055400013807A683B681B789B0013441B88A7F87C
:105550004A30B7F84A3003F04003002B1DD07A6878
:105560003B681B789B0013441B889BB223F4E043E9
:1055700023F07003A7F848307A683B681B789B00DB
:105580001A44B7F8483043F07F4343F47F0343F4B1
:10559000004343F0C0039BB213803B68DB78012BD0
:1055A00024D07A683B681B789B0013441B889BB20D
:1055B00023F4E04323F04003A7F84430B7F8443025
:1055C00083F02003A7F844307A683B681B789B007F
:1055D0001A44B7F8443043F07F4343F47F0343F465
:1055E000004343F080039BB213801DE07A683B6860
:1055F0001B789B0013441B889BB223F4E04323F0E9
:105600004003A7F846307A683B681B789B001A4431
:10561000B7F8463043F07F4343F47F0343F400433D
:1056200043F080039BB213807A683B681B789B0031
:1056300013441B889BB223F4804323F07003A7F824
:1056400042307A683B681B789B001A44B7F84230B6
:1056500043F07F4343F47F0343F4004343F080036C
:105660009BB2138097F86F3018467437BD4680BCE4
:10567000704700BF80B48DB000AF786039603B6880
:105680001B7B002B40F08E803B685B78002B44D066
:105690007A683B681B789B0013441B88BB81BB89DD
:1056A00003F04003002B1BD07A683B681B789B00FB
:1056B00013441B889BB223F4E04323F070037B81E7
:1056C0007A683B681B789B001A447B8943F07F43D0
:1056D00043F47F0343F4004343F0C0039BB21380C1
:1056E0007A683B681B789B0013441B889BB223F4A9
:1056F000E04323F040033B817A683B681B789B00C2
:105700001A443B8943F07F4343F47F0343F400434F
:1057100043F080039BB2138092E17A683B681B7868
:105720009B0013441B887B827B8A03F48043002BFD
:105730001BD07A683B681B789B0013441B889BB284
:1057400023F4E04323F070033B827A683B681B78C4
:105750009B001A443B8A43F07F4343F47F0343F4A6
:10576000404343F080039BB213807A683B681B7808
:105770009B0013441B889BB223F4804323F07003E7
:10578000FB817A683B681B789B001A44FB8943F0D5
:105790007F4343F47F0343F4004343F080039BB211
:1057A00013804DE13B685B78002B40F0A5807A6860
:1057B0003B681B789B0013441B883B843B8C03F4A1
:1057C0008043002B1BD07A683B681B789B001344F6
:1057D0001B889BB223F4E04323F07003FB837A68B9
:1057E0003B681B789B001A44FB8B43F07F4343F4D8
:1057F0007F0343F4404343F080039BB213807A68F5
:105800003B681B789B0013441B88BB83BB8B03F056
:105810004003002B1BD07A683B681B789B00134425
:105820001B889BB223F4E04323F070037B837A68E8
:105830003B681B789B001A447B8B43F07F4343F407
:105840007F0343F4004343F0C0039BB213807A68A4
:105850003B681B789B0013441B889BB223F4E043F6
:1058600023F070033B837A683B681B789B001A44E3
:105870003B8B43F07F4343F47F0343F4004343F007
:10588000C0039BB213807A683B681B789B0013446B
:105890001B889BB223F4804323F07003FB827A6859
:1058A0003B681B789B001A44FB8A43F07F4343F418
:1058B0007F0343F4004343F080039BB213807A6874
:1058C0003B681B789B0013441B889BB223F4E04386
:1058D00023F04003BB827A683B681B789B001A4424
:1058E000BB8A43F07F4343F47F0343F4004343F018
:1058F00080039BB21380A3E07A683B681B789B000F
:1059000013441B88FB85FB8D03F48043002B1BD0C5
:105910007A683B681B789B0013441B889BB223F476
:10592000E04323F07003BB857A683B681B789B00DB
:105930001A44BB8D43F07F4343F47F0343F4404359
:1059400043F080039BB213807A683B681B789B000E
:1059500013441B887B857B8D03F04003002B1BD0F9
:105960007A683B681B789B0013441B889BB223F426
:10597000E04323F070033B857A683B681B789B000B
:105980001A443B8D43F07F4343F47F0343F40043C9
:1059900043F0C0039BB213807A683B681B789B007E
:1059A00013441B889BB223F4E04323F07003FB8471
:1059B0007A683B681B789B001A44FB8C43F07F435A
:1059C00043F47F0343F4404343F080039BB21380CE
:1059D0007A683B681B789B0013441B889BB223F4B6
:1059E000E04323F04003BB847A683B681B789B004C
:1059F0001A44BB8C43F07F4343F47F0343F40043DA
:105A000043F080039BB213807A683B681B789B004D
:105A100013441B889BB223F4804323F070037B84E0
:105A20007A683B681B789B001A447B8C43F07F4369
:105A300043F47F0343F4004343F080039BB213809D
:105A4000002318463437BD4680BC704780B5C2B0CD
:105A500000AF07F58473A3F58273186007F58473AC
:105A6000A3F58473196007F58473A3F584731B6829
:105A70005B78012B40F0B78607F58473A3F5847338
:105A80001B689A6907F58473A3F584731B681B6907
:105A90009A4208D907F58473A3F584731B681B69C0
:105AA000C7F8043107E007F58473A3F584731B6816
:105AB0009B69C7F8043107F58473A3F584731B68E9
:105AC0001B7B002B3AD107F58473A3F584731B6805
:105AD000596907F58473A3F584731B68DA88D7F8CE
