:020000040800F2
:1000000000500020251900088D13000895130008E2
:100010009D130008A5130008AD13000800000000A0
:10002000000000000000000000000000B513000800
:10003000C113000800000000CD130008D913000808
:100040006D1900086D1900086D1900086D19000878
:100050006D1900086D1900086D1900086D19000868
:100060006D1900086D1900086D1900086D19000858
:100070006D1900086D1900086D1900086D19000848
:100080006D1900086D1900086D1900086D19000838
:100090006D1900086D1900086D1900086D19000828
:1000A0006D1900086D1900086D1900086D19000818
:1000B0006D1900086D1900086D1900086D19000808
:1000C0006D1900086D1900086D1900086D190008F8
:1000D0006D1900086D1900086D1900086D190008E8
:1000E0006D1900086D1900086D1900080000000066
:1000F0000000000000000000000000000000000000
:0C01000000000000000000005FF808F1A3
:1001100010B5054C237833B9044B13B10448AFF341
:1001200000800123237010BDD801002000000000D2
:10013000C486000808B5034B1BB103490348AFF35D
:10014000008008BD00000000DC010020C48600081B
:10015000034613F8012B002AFBD1181A0138704707
:100160004FF0FF0C1CEAD0521EBF1CEAD15392EA9A
:100170000C0F93EA0C0F6FD01A4480EA010C400276
:1001800018BF5FEA41211ED04FF0006343EA5010D0
:1001900043EA5111A0FB01310CF00040B1F5000F12
:1001A0003EBF490041EAD3715B0040EA010062F1C1
:1001B0007F02FD2A1DD8B3F1004F40EBC25008BFAB
:1001C00020F00100704790F0000F0CF0004C08BFC9
:1001D00049024CEA502040EA51207F3AC2BFD2F196
:1001E000FF0340EAC250704740F400004FF00003A4
:1001F000013A5DDC12F1190FDCBF00F000407047DE
:10020000C2F10002410021FA02F1C2F1200200FA1B
:1002100002FC5FEA310040F1000053EA4C0308BFE2
:1002200020EADC70704792F0000F00F0004C02BF33
:10023000400010F4000F013AF9D040EA0C0093F0AE
:10024000000F01F0004C02BF490011F4000F013B08
:10025000F9D041EA0C018FE70CEAD15392EA0C0F76
:1002600018BF93EA0C0F0AD030F0004C18BF31F0E1
:10027000004CD8D180EA010000F00040704790F0B7
:10028000000F17BF90F0004F084691F0000F91F05B
:10029000004F14D092EA0C0F01D142020FD193EA21
:1002A0000C0F03D14B0218BF084608D180EA0100A9
:1002B00000F0004040F0FE4040F40000704740F085
:1002C000FE4040F44000704781F0004102E000BF72
:1002D00083F0004330B54FEA41044FEA430594EA06
:1002E000050F08BF90EA020F1FBF54EA000C55EA41
:1002F000020C7FEA645C7FEA655C00F0E2804FEA12
:100300005454D4EB5555B8BF6D420CDD2C4480EAF3
:10031000020281EA030382EA000083EA010180EA23
:10032000020281EA0303362D88BF30BD11F0004F71
:100330004FEA01314FF4801C4CEA113102D04042A7
:1003400061EB410113F0004F4FEA03334CEA1333E2
:1003500002D0524263EB430394EA050F00F0A780FA
:10036000A4F10104D5F1200E0DDB02FA0EFC22FAF5
:1003700005F2801841F1000103FA0EF2801843FAE9
:1003800005F359410EE0A5F120050EF1200E012ADA
:1003900003FA0EFC28BF4CF0020C43FA05F3C01818
:1003A00051EBE37101F0004507D54FF0000EDCF191
:1003B000000C7EEB00006EEB0101B1F5801F1BD33A
:1003C000B1F5001F0CD349085FEA30004FEA3C0C3E
:1003D00004F101044FEA445212F5800F80F09A8034
:1003E000BCF1004F08BF5FEA500C50F1000041EB38
:1003F000045141EA050130BD5FEA4C0C404141EB3C
:100400000101013C28BFB1F5801FE9D291F0000F36
:1004100004BF01460020B1FA81F308BF2033A3F1E5
:100420000B03B3F120020CDA0C3208DD02F1140CDC
:10043000C2F10C0201FA0CF021FA02F10CE002F117
:100440001402D8BFC2F1200C01FA02F120FA0CFC10
:10045000DCBF41EA0C019040E41AA2BF01EB045159
:10046000294330BD6FEA04041F3C1CDA0C340EDC57
:1004700004F11404C4F1200220FA04F001FA02F39A
:1004800040EA030021FA04F345EA030130BDC4F158
:100490000C04C4F1200220FA02F001FA04F340EA4D
:1004A0000300294630BD21FA04F0294630BD94F0FE
:1004B000000F83F4801306BF81F480110134013DE5
:1004C0004EE77FEA645C18BF7FEA655C29D094EA56
:1004D000050F08BF90EA020F05D054EA000C04BFD4
:1004E0001946104630BD91EA030F1EBF00210020BF
:1004F00030BD5FEA545C05D14000494128BF41F05E
:10050000004130BD14F580043CBF01F5801130BDC1
:1005100001F0004545F0FE4141F470014FF000004C
:1005200030BD7FEA645C1ABF194610467FEA655CFD
:100530001CBF0B46024650EA013406BF52EA03359F
:1005400091EA030F41F4002130BD00BF90F0000F8D
:1005500004BF0021704730B54FF4806404F13204C9
:100560004FF000054FF0000150E700BF90F0000F82
:1005700004BF0021704730B54FF4806404F13204A9
:1005800010F0004548BF40424FF000013EE700BF79
:1005900042004FEAE2014FEA31014FEA02701FBF09
:1005A00012F07F4393F07F4F81F06051704732F03B
:1005B0007F4208BF704793F07F4F04BF41F4002192
:1005C000704730B54FF4607401F0004521F00041F0
:1005D0001CE700BF50EA010208BF704730B54FF07A
:1005E00000050AE050EA010208BF704730B511F07B
:1005F000004502D5404261EB41014FF4806404F1B3
:1006000032045FEA915C3FF4D8AE4FF003025FEA38
:10061000DC0C18BF03325FEADC0C18BF033202EBBC
:10062000DC02C2F1200300FA03FC20FA02F001FA16
:1006300003FE40EA0E0021FA02F11444BDE600BFB9
:1006400070B54FF0FF0C4CF4E06C1CEA11541DBF68
:100650001CEA135594EA0C0F95EA0C0F00F0DEF833
:100660002C4481EA030621EA4C5123EA4C5350EA18
:10067000013518BF52EA033541F4801143F4801369
:1006800038D0A0FB02CE4FF00005E1FB02E506F0FA
:100690000042E0FB03E54FF00006E1FB03569CF04F
:1006A000000F18BF4EF0010EA4F1FF04B6F5007F55
:1006B00064F5407404D25FEA4E0E6D4146EB0606C7
:1006C00042EAC62141EA55514FEAC52040EA5E5050
:1006D0004FEACE2EB4F1FD0C88BFBCF5E06F1ED8FA
:1006E000BEF1004F08BF5FEA500E50F1000041EB31
:1006F000045170BD06F0004646EA010140EA0200DE
:1007000081EA0301B4EB5C04C2BFD4EB0C0541EAFF
:10071000045170BD41F480114FF0000E013C00F314
:10072000AB8014F1360FDEBF002001F0004170BD38
:10073000C4F10004203C35DA0C341BDC04F1140451
:10074000C4F1200500FA05F320FA04F001FA05F2DD
:1007500040EA020001F0004221F0004110EBD370AA
:1007600021FA04F642EB06015EEA430E08BF20EAD6
:10077000D37070BDC4F10C04C4F1200500FA04F379
:1007800020FA05F001FA04F240EA020001F000410B
:1007900010EBD37041F100015EEA430E08BF20EA7E
:1007A000D37070BDC4F1200500FA05F24EEA020EC6
:1007B00020FA04F301FA05F243EA020321FA04F0F5
:1007C00001F0004121FA04F220EA020000EBD370AC
:1007D0005EEA430E08BF20EAD37070BD94F0000FAC
:1007E0000FD101F00046400041EB010111F4801FE0
:1007F00008BF013CF7D041EA060195F0000F18BF91
:10080000704703F00046520043EB030313F4801FCC
:1008100008BF013DF7D043EA0603704794EA0C0F86
:100820000CEA135518BF95EA0C0F0CD050EA41069C
:1008300018BF52EA4306D1D181EA030101F0004119
:100840004FF0000070BD50EA410606BF1046194641
:1008500052EA430619D094EA0C0F02D150EA01364D
:1008600013D195EA0C0F05D152EA03361CBF10468E
:1008700019460AD181EA030101F0004141F0FE412D
:1008800041F470014FF0000070BD41F0FE4141F4B1
:10089000780170BD70B54FF0FF0C4CF4E06C1CEAB1
:1008A00011541DBF1CEA135594EA0C0F95EA0C0F66
:1008B00000F0A7F8A4EB050481EA030E52EA033521
:1008C0004FEA013100F088804FEA03334FF0805542
:1008D00045EA131343EA12634FEA022245EA11156F
:1008E00045EA10654FEA00260EF000419D4208BF20
:1008F000964244F1FD0404F5407402D25B084FEACD
:100900003202B61A65EB03055B084FEA32024FF478
:1009100080104FF4002CB6EB020E75EB030E22BFD5
:10092000B61A754640EA0C005B084FEA3202B6EB95
:10093000020E75EB030E22BFB61A754640EA5C0044
:100940005B084FEA3202B6EB020E75EB030E22BFD4
:10095000B61A754640EA9C005B084FEA3202B6EBD5
:10096000020E75EB030E22BFB61A754640EADC0094
:1009700055EA060E18D04FEA051545EA16754FEAF6
:1009800006164FEAC30343EA52734FEAC2025FEA14
:100990001C1CC0D111F4801F0BD141EA00014FF0A3
:1009A00000004FF0004CB6E711F4801F04BF014374
:1009B0000020B4F1FD0C88BFBCF5E06F3FF6AFAE90
:1009C000B5EB030C04BFB6EB020C5FEA500C50F120
:1009D000000041EB045170BD0EF0004E4EEA1131A3
:1009E00014EB5C04C2BFD4EB0C0541EA045170BDAA
:1009F00041F480114FF0000E013C90E645EA060EEE
:100A00008DE60CEA135594EA0C0F08BF95EA0C0F1B
:100A10003FF43BAF94EA0C0F0AD150EA01347FF463
:100A200034AF95EA0C0F7FF425AF104619462CE73A
:100A300095EA0C0F06D152EA03353FF4FDAE10469D
:100A4000194622E750EA410618BF52EA43067FF4EE
:100A5000C5AE50EA41047FF40DAF52EA43057FF47E
:100A6000EBAE12E74FF0FF3C06E000BF4FF0010C89
:100A700002E000BF4FF0010C4DF804CD4FEA410CED
:100A80007FEA6C5C4FEA430C18BF7FEA6C5C1BD0BA
:100A900001B050EA410C0CBF52EA430C91EA030F3B
:100AA00002BF90EA020F0020704710F1000F91EA98
:100AB000030F58BF994208BF90422CBFD8176FEA66
:100AC000E37040F0010070474FEA410C7FEA6C5C34
:100AD00002D150EA013C07D14FEA430C7FEA6C5C3B
:100AE000D6D152EA033CD3D05DF8040B704700BF67
:100AF0008446104662468C461946634600E000BFB5
:100B000001B5FFF7B7FF002848BF10F1000F01BD86
:100B10004DF808EDFFF7F4FF0CBF012000205DF851
:100B200008FB00BF4DF808EDFFF7EAFF34BF0120D6
:100B300000205DF808FB00BF4DF808EDFFF7E0FF6F
:100B400094BF012000205DF808FB00BF4DF808EDC0
:100B5000FFF7CEFF94BF012000205DF808FB00BF27
:100B60004DF808EDFFF7C4FF34BF012000205DF809
:100B700008FB00BF4FEA410C7FEA6C5C02D150EAEF
:100B8000013C0AD14FEA430C7FEA6C5C02D152EA85
:100B9000033C02D14FF0000070474FF00100704756
:100BA0004FEA410212F5001215D211D56FF4787395
:100BB000B3EB625212D94FEAC12343F0004343EA38
:100BC000505311F0004F23FA02F018BF4042704713
:100BD0004FF00000704750EA013005D111F000409D
:100BE00008BF6FF0004070474FF00000704700BF33
:100BF0004A0011D212F5001211D20DD56FF478739C
:100C0000B3EB62520ED44FEAC12343F0004343EAF0
:100C1000505323FA02F070474FF00000704750EA3B
:100C2000013002D14FF0FF3070474FF000007047A5
:100C30004FEA4102B2F1E04324BFB3F5001CDCF1FE
:100C4000FE5C0DD901F0004C4FEAC0024CEA507036
:100C5000B2F1004F40EB830008BF20F00100704765
:100C600011F0804F21D113F13872BCBF01F0004068
:100C7000704741F480114FEA5252C2F11802C2F19A
:100C8000200C10FA0CF320FA02F018BF40F001001B
:100C90004FEAC1234FEAD32303FA0CFC40EA0C00CD
:100CA00023FA02F34FEA4303CCE77FEA625307D10A
:100CB00050EA01331EBF4FF0FE4040F44000704741
:100CC00001F0004040F0FE4040F40000704700BFDB
:100CD0004FF0FF3C06E000BF4FF0010C02E000BF08
:100CE0004FF0010C4DF804CD4FEA40024FEA4103AA
:100CF0007FEA226C18BF7FEA236C11D001B052EA60
:100D0000530C18BF90EA010F58BFB2EB030088BF25
:100D1000C81738BF6FEAE17018BF40F00100704794
:100D20007FEA226C02D15FEA402C05D17FEA236C76
:100D3000E4D15FEA412CE1D05DF8040B704700BFBD
:100D4000844608466146FFE70FB5FFF7C9FF002854
:100D500048BF10F1000F0FBD4DF808EDFFF7F4FF8D
:100D60000CBF012000205DF808FB00BF4DF808ED26
:100D7000FFF7EAFF34BF012000205DF808FB00BF49
:100D80004DF808EDFFF7E0FF94BF012000205DF86B
:100D900008FB00BF4DF808EDFFF7D2FF94BF01201C
:100DA00000205DF808FB00BF4DF808EDFFF7C8FF15
:100DB00034BF012000205DF808FB00BF38B50022D9
:100DC000002304460D46FFF7ADFE28B9204629460C
:100DD000BDE8384000F00AB8204605F1004100F0B7
:100DE00005F8404261EB410138BD00BFD0B500229B
:100DF0000B4B06460F46FFF723FCFFF7F9FE0446B0
:100E0000FFF7A4FB0022074BFFF71AFC02460B4634
:100E100030463946FFF75CFAFFF7EAFE2146D0BDBF
:100E20000000F03D0000F04180B584B000AF3B1DF4
:100E300000221A605A609A60184B194A1A60174BC0
:100E400000229A60154B00221A73144B00221A7567
:100E5000124B4FF46022DA61104B00225A600F4BA4
:100E600001221A610D4800F009FE0346002B01D053
:100E700000F053FA01237B600123BB600023FB6079
:100E80003B1D1946054801F091F80346002B01D09F
:100E900000F043FA00BF1037BD4680BDF4010020CA
:100EA0000024014080B588B000AF786007F11003DE
:100EB00000221A605A609A60DA607B681B68144AE4
:100EC000934221D1134B9B69124A43F400739361FF
:100ED000104B9B6903F40073FB60FB680D4B9B692F
:100EE0000C4A43F0040393610A4B9B6903F004032B
:100EF000BB60BB6842233B6103237B6107F11003A6
:100F00001946054801F0CAFA00BF2037BD4680BD2A
:100F100000240140001002400008014080B588B064
:100F200000AF07F1100300221A605A609A60DA607D
:100F3000244B9B69234A43F010039361214B9B6927
:100F400003F01003FB60FB681E4B9B691D4A43F0D6
:100F5000200393611B4B9B6903F02003BB60BB68BC
:100F6000184B9B69174A43F004039361154B9B6927
:100F700003F004037B607B68124B9B69114A43F0CA
:100F8000080393610F4B9B6903F008033B603B68C8
:100F900000224FF400510C4801F004FC4FF40053C0
:100FA0003B6101237B610023BB610223FB6107F1ED
:100FB00010031946044801F071FA00BF2037BD46FE
:100FC00080BD00BF001002400010014080B586B017
:100FD00000AF7860396007F10C0300221A605A6094
:100FE0009A603B68FB6001233B6100237B6107F152
:100FF0000C031946786800F0D9FF0346002B01D096
:1010000000F08BF9786800F011FE4FF0FF3178683E
:1010100000F0BAFE0346002B04D1786800F0BAFF56
:10102000034600E0002318461837BD4680BD80B552
:1010300086B000AFF860B9607A600F237B61BB684F
:101040001A687B681B6819461046FFF7ADFE034619
:10105000002B0AD0FB681B68FE2B10DCFB681A68AB
:101060007B691A44FB681A6009E0FB681B68002B67
:1010700005DDFB681A687B69D21AFB681A60FB6899
:101080001B68002B02DAFB6800221A60FB681B68F1
:10109000FF2B02DDFB68FF221A60BB681A687B68C1
:1010A0001A6000BF1837BD4680BD00000000000078
:1010B0002DE9B0439EB004AF00F05AFC00F0D2F826
:1010C000FFF72CFF00F0B8FBFFF7AEFE00F052FA7E
:1010D00000F0D2FA0021584802F048F90C21574894
:1010E00002F044F901215648FFF770FF0346184605
:1010F000FFF72CFA4EA3D3E90023FFF7A1FA02462B
:101100000B4610461946FFF793FD03464D4A136000
:1011100006214B48FFF75AFF03461846FFF716FA19
:1011200043A3D3E90023FFF78BFA02460B46104690
:101130001946FFF77DFD0346434A1360414B1B6888
:10114000414A126811461846FFF70AF803461A4644
:101150003E4B1A6000237B667B6E002B03D13B4B1A
:101160004FF07C521A607B6E0A2B03D1374B4FF045
:101170007F521A607B6E0A2B01DD00237B667B6E3B
:1011800001337B66324A31493248FFF750FF314B19
:101190001A68294B1B685A632E4B1A68274B1B6829
:1011A0001A64284B1B681846FFF7F2F980468946F7
:1011B000254B1B681846FFF7EBF904460D46234BF9
:1011C0001B681846FFF7E4F902460B463846CDE99E
:1011D0000223CDE9004542464B461F4903F084FDFA
:1011E0003B461846FEF7B4FF03469AB239464FF025
:1011F000FF331A4802F037FD144B1B68144A136082
:1012000001224FF40051164801F0CCFA4FF47A70E5
:1012100000F010FC00224FF40051114801F0C2FA16
:101220004FF47A7000F006FC5CE700BFAFF300807B
:10123000B4D934E70C684A3F38020020800200200D
:10124000F401002024020020280200202C020020AB
:101250003002002000000020E0860008C8020020C4
:101260000010014080B594B000AF07F12803282298
:101270000021184604F0AAFC07F1140300221A60AA
:101280005A609A60DA601A613B1D00221A605A6047
:101290009A60DA600123BB624FF48033FB62002363
:1012A0003B630123BB6302237B644FF48033BB6445
:1012B0004FF4E013FB6407F12803184601F08AFAA3
:1012C0000346002B01D000F028F80F237B61022396
:1012D000BB610023FB614FF480633B6200237B62B0
:1012E00007F114030221184601F0F6FC0346002B17
:1012F00001D000F012F802237B604FF40043FB6042
:101300003B1D184601F076FE0346002B01D000F08D
:1013100004F800BF5037BD4680BD80B400AF72B640
:1013200000BF00BFFDE7000080B485B000AF154BE3
:101330009B69144A43F001039361124B9B6903F0CC
:101340000103BB60BB680F4BDB690E4A43F080535F
:10135000D3610C4BDB6903F080537B607B680A4BE5
:101360005B68FB60FB6823F0E063FB60FB6843F0B5
:101370000073FB60044AFB68536000BF1437BD462E
:1013800080BC7047001002400000014080B400AFF4
:1013900000BFFDE780B400AF00BFFDE780B400AF41
:1013A00000BFFDE780B400AF00BFFDE780B400AF31
:1013B00000BFFDE780B400AF00BFBD4680BC7047F2
:1013C00080B400AF00BFBD4680BC704780B400AFA2
:1013D00000BFBD4680BC704780B500AF00F00EFB7B
:1013E00000BF80BD80B400AF01231846BD4680BC5D
:1013F000704780B582B000AF7860396004F0F2FBCE
:10140000034616221A604FF0FF3318460837BD46D0
:1014100080BD80B582B000AF78604FF0FF31786852
:10142000FFF7E7FF00BFFDE780B586B000AFF860CB
:10143000B9607A6000237B610AE0AFF30080014667
:10144000BB685A1CBA60CAB21A707B6901337B61EF
:101450007A697B689A42F0DB7B6818461837BD468C
:1014600080BD80B586B000AFF860B9607A600023B7
:101470007B6109E0BB685A1CBA601B781846AFF361
:1014800000807B6901337B617A697B689A42F1DB7A
:101490007B6818461837BD4680BD80B483B000AF66
:1014A00078604FF0FF3318460C37BD4680BC70475C
:1014B00080B483B000AF786039603B684FF400526D
:1014C0005A60002318460C37BD4680BC704780B474
:1014D00083B000AF7860012318460C37BD4680BC4E
:1014E000704780B485B000AFF860B9607A600023BF
:1014F00018461437BD4680BC7047000080B586B0E2
:1015000000AF7860144A154BD31A7B617B693B614D
:10151000134B1B68002B02D1114B124A1A60104B5F
:101520001A687B6813443A699A4207D204F05AFB5E
:1015300003460C221A604FF0FF3309E0084B1B688A
:10154000FB60074B1A687B681344054A1360FB680D
:1015500018461837BD4680BD00500020000400002A
:10156000340200206004002080B400AF00BFBD46FC
:1015700080BC704780B592B000AF07F140030022F5
:101580001A605A6007F1240300221A605A609A60B8
:10159000DA601A615A619A613B1D202200211846C7
:1015A00004F014FB324B334A1A60314B04225A6068
:1015B0002F4B00229A602E4BFF22DA602C4B002228
:1015C0001A612B4B00225A61294B00229A6128484C
:1015D00001F07CFE0346002B01D0FFF79EFE0023A6
:1015E0003B6400237B6407F140031946204802F066
:1015F0003BFA0346002B01D0FFF78FFE60237B628E
:101600000023BB620023FB6200233B6300237B6358
:101610000023BB630023FB6307F124030022194668
:10162000134801F045FF0346002B01D0FFF775FE7C
:1016300000237B600023BB600023FB6000233B6131
:1016400000237B614FF40053BB6100233B623B1DD1
:101650001946074802F066FA0346002B01D0FFF74F
:101660005CFE034800F092F800BF4837BD4680BDDD
:1016700038020020002C014080B58AB000AF07F18D
:10168000200300221A605A603B1D00221A605A6033
:101690009A60DA601A615A619A61214B214A1A6094
:1016A0001F4B04225A601E4B00229A601C4BFF22E3
:1016B000DA601B4B00221A61194B00229A6118480C
:1016C00001F004FE0346002B01D0FFF726FE0023A5
:1016D0003B6200237B6207F120031946104802F0A9
:1016E000C3F90346002B01D0FFF717FE60237B6090
:1016F0000023BB600023FB6000237B613B1D0C22A9
:101700001946074801F0D4FE0346002B01D0FFF72D
:1017100004FE034800F03AF800BF2837BD4680BDFC
:10172000800200200004004080B485B000AF7860E3
:101730007B681B68124A93420CD1124B9B69114A79
:1017400043F4006393610F4B9B6903F40063FB60F8
:10175000FB6810E07B681B680B4A93420BD1094B76
:10176000DB69084A43F00203D361064BDB6903F0EF
:101770000203BB60BB6800BF1437BD4680BC704726
:10178000002C0140001002400004004080B588B0E9
:1017900000AF786007F1100300221A605A609A6067
:1017A000DA607B681B681F4A934219D11E4B9B6904
:1017B0001D4A43F0040393611B4B9B6903F0040330
:1017C000FB60FB684FF480733B6102237B61022363
:1017D000FB6107F110031946144800F05FFE1CE09E
:1017E0007B681B68124A934217D10F4B9B690E4AC4
:1017F00043F0080393610C4B9B6903F00803BB6043
:10180000BB6802233B6102237B610223FB6107F17A
:1018100010031946074800F041FE00BF2037BD46BF
:1018200080BD00BF002C01400010024000080140B4
:1018300000040040000C014080B500AF114B124A7B
:101840001A60104B4FF416525A600E4B00229A60E9
:101850000C4B0022DA600B4B00221A61094B0C2260
:101860005A61084B00229A61064B0022DA61054852
:1018700002F0A9F90346002B01D0FFF74EFD00BF8F
:1018800080BD00BFC80200200038014080B588B08C
:1018900000AF786007F1100300221A605A609A6066
:1018A000DA607B681B681C4A934231D11B4B9B69F1
:1018B0001A4A43F480439361184B9B6903F48043B5
:1018C000FB60FB68154B9B69144A43F0040393616A
:1018D000124B9B6903F00403BB60BB684FF40073B9
:1018E0003B6102237B610323FB6107F1100319466F
:1018F0000B4800F0D3FD4FF480633B6100237B6114
:101900000023BB6107F110031946054800F0C6FD2E
:1019100000BF2037BD4680BD0038014000100240A6
:1019200000080140FFF720FE0B480C490C4A002339
:1019300002E0D458C4500433C4188C42F9D3094A85
:10194000094C002301E013600432A242FBD304F0EF
:101950004FF9FFF7ADFB704700000020D8010020D1
:10196000848B0008D801002060040020FEE70000FE
:1019700080B500AF084B1B68074A43F010031360A3
:10198000032000F057FD0F2000F008F8FFF7CCFC13
:101990000023184680BD00BF0020024080B582B001
:1019A00000AF7860124B1A68124B1B7819464FF43F
:1019B0007A73B3FBF1F3B2FBF3F3184600F061FD69
:1019C0000346002B01D001230EE07B680F2B0AD8C1
:1019D000002279684FF0FF3000F037FD064A7B683F
:1019E0001360002300E0012318460837BD4680BD80
:1019F000040000200C0000200800002080B400AF8C
:101A0000054B1B781A46054B1B681344034A1360A9
:101A100000BFBD4680BC70470C00002010030020B2
:101A200080B400AF024B1B681846BD4680BC7047AF
:101A30001003002080B584B000AF7860FFF7F0FF9E
:101A4000B8607B68FB60FB68B3F1FF3F05D00A4BD1
:101A50001B781A46FB681344FB6000BFFFF7E0FFEA
:101A60000246BB68D31AFA689A42F7D800BF00BF93
:101A70001037BD4680BD00BF0C00002080B586B089
:101A800000AF78600023FB7500233B610023BB603F
:101A90000023FB607B68002B01D10123BEE07B6843
:101AA0009B68002B7B689B6A002B09D17B68002216
:101AB000DA627B68002283F824207868FFF7F2F965
:101AC000786800F0C5FB0346FB757B689B6A03F0F2
:101AD0001003002B40F09980FB7D002B40F0958097
:101AE0007B689B6A23F4885323F0020343F00202CD
:101AF0007B689A627B685A687B68DB691A437B68FB
:101B00001B7B5B001343BA681343BB607B689B6815
:101B1000B3F5807F03D07B689B68012B02D14FF423
:101B2000807300E000233A6913433B617B681B7DAF
:101B3000012B19D17B681B7B002B09D17B689B692A
:101B4000013B5A033B69134343F400633B610BE0E1
:101B50007B689B6A43F020027B689A627B68DB6A41
:101B600043F001027B68DA627B681B685B6823F4E0
:101B700069417B681B683A690A435A607B681B6845
:101B80009A68284B13407A681268B9680B439360CF
:101B90007B689B68B3F5807F03D07B689B68012BD3
:101BA00004D17B681B69013B1B05FB607B681B68DC
:101BB000DB6A23F470017B681B68FA680A43DA6207
:101BC0007B681B689A68184B1340BA689A420BD11D
:101BD0007B680022DA627B689B6A23F0030343F090
:101BE00001027B689A6218E07B689B6A23F012030B
:101BF00043F010027B689A627B68DB6A43F0010263
:101C00007B68DA620123FB7507E07B689B6A43F01F
:101C100010027B689A620123FB75FB7D184618371A
:101C2000BD4680BDFDF7E1FFFE0E1FFF80B584B00D
:101C300000AF78600023FB737B6893F82430012B9E
:101C400001D1022398E07B68012283F82420786880
:101C500000F0A4FA0346FB73FB7B002B40F0878067
:101C60007B689B6A23F4407323F0010343F4807282
:101C70007B689A627B681B68414A934205D1414B5D
:101C80005B6803F47023002B15D17B689B6A23F4F7
:101C900080127B689A627B681B685B6803F48063D0
:101CA000002B26D07B689B6A23F4405343F4805278
:101CB0007B689A621DE07B689B6A43F480127B68B4
:101CC0009A627B681B682F4A934204D07B681B682A
:101CD0002B4A93420DD12B4B5B6803F48063002B9E
:101CE00007D07B689B6A23F4405343F480527B689F
:101CF0009A627B689B6A03F48053002B06D07B6852
:101D0000DB6A23F006027B68DA6202E07B6800226D
:101D1000DA627B68002283F824207B681B686FF0FE
:101D200002021A607B681B689B6803F46023B3F5AA
:101D3000602F13D17B681B68114A934205D1114B68
:101D40005B6803F47023002B08D17B681B689A68DA
:101D50007B681B6842F4A0029A600CE07B681B68F9
:101D60009A687B681B6842F480129A6003E07B6883
:101D7000002283F82420FB7B18461037BD4680BD27
:101D8000002801400024014090B587B000AF786082
:101D9000396000237B610023FB6000233B61FFF778
:101DA0003FFE78617B681B689B6803F48073002B9F
:101DB0000BD07B689B6A43F020027B689A627B6849
:101DC000002283F824200123D3E07B681B685B6832
:101DD00003F48073002B31D17B681B68DB6A03F44A
:101DE0007003002B2AD121E03B68B3F1FF3F1DD0E7
:101DF0003B68002B07D0FFF713FE02467B69D31A1E
:101E00003A689A4212D27B681B681B6803F002038F
:101E1000002B0BD17B689B6A43F004027B689A62BB
:101E20007B68002283F824200323A2E07B681B68E0
:101E30001B6803F00203002BD6D070E04F4B1C68E8
:101E4000022001F08DF90346B4FBF3F27B681B68B6
:101E500019694B4B0B40002B18D17B681B68D96864
:101E6000484B0B40002B11D17B681B681969464B0E
:101E70000B40002B08D17B681B68D968434B0B4093
:101E8000002B01D1142320E029231EE07B681B686E
:101E900019693D4B0B40002B06D17B681B68D96844
:101EA0003A4B0B40002B0DD07B681B681969384BEF
:101EB0000B40002B08D17B681B68D968344B0B4062
:101EC000002B01D1542300E0FC2302FB03F33B6110
:101ED00021E03B68B3F1FF3F1AD03B68002B07D0ED
:101EE000FFF79EFD02467B69D31A3A689A420FD2E9
:101EF000FB683A699A420BD97B689B6A43F00402FB
:101F00007B689A627B68002283F82420032330E0F8
:101F1000FB680133FB60FB683A699A42D9D87B6859
:101F20001B686FF012021A607B689B6A43F40072B0
:101F30007B689A627B681B689B6803F46023B3F537
:101F4000602F15D17B681B7B002B11D17B689B6AAE
:101F500023F480727B689A627B689B6A03F48053E7
:101F6000002B05D17B689B6A43F001027B689A6273
:101F7000002318461C37BD4690BD00BF040000205A
:101F8000244992242449920092244912922449001F
:101F90004992240080B483B000AF78607B681B68EE
:101FA000DB6C18460C37BD4680BC704780B485B0EA
:101FB00000AF786039600023FB730023BB607B684F
:101FC00093F82430012B01D10223DCE07B6801224D
:101FD00083F824203B685B68062B1CD87B681B6851
:101FE000596B3B685A6813469B001344053B1F22FC
:101FF00002FA03F3DB4319403B6818683B685A68F0
:1020000013469B001344053B00FA03F27B681B68F0
:102010000A435A633CE03B685B680C2B1CD87B6826
:102020001B68196B3B685A6813469B001344233B9B
:102030001F2202FA03F3DB4319403B6818683B6830
:102040005A6813469B001344233B00FA03F27B6853
:102050001B680A431A631BE07B681B68D96A3B68EC
:102060005A6813469B001344413B1F2202FA03F3B4
:10207000DB4319403B6818683B685A6813469B006D
:102080001344413B00FA03F27B681B680A43DA629F
:102090003B681B68092B1CD97B681B68D9683B68A7
:1020A0001A6813465B0013441E3B072202FA03F32F
:1020B000DB4319403B6898683B681A6813465B002D
:1020C00013441E3B00FA03F27B681B680A43DA6084
:1020D00019E07B681B6819693B681A6813465B0046
:1020E0001344072202FA03F3DB4319403B68986864
:1020F0003B681A6813465B00134400FA03F27B68DE
:102100001B680A431A613B681B68102B03D03B68AD
:102110001B68112B32D17B681B681D4A934225D165
:102120007B681B689B6803F40003002B26D17B6847
:102130001B689A687B681B6842F400029A603B68DF
:102140001B68102B1AD1134B1B68134AA2FB0323E5
:102150009A0C13469B0013445B00BB6002E0BB6813
:10216000013BBB60BB68002BF9D107E07B689B6A31
:1021700043F020027B689A620123FB737B68002294
:1021800083F82420FB7B18461437BD4680BC70477B
:10219000002401400400002083DE1B4380B584B08E
:1021A00000AF78600023FB600023BB607B681B6886
:1021B0009B6803F00103012B40D07B681B689A6881
:1021C0007B681B6842F001029A601F4B1B681F4A24
:1021D000A2FB03239B0CBB6002E0BB68013BBB601E
:1021E000BB68002BF9D1FFF71BFCF8601FE0FFF77D
:1021F00017FC0246FB68D31A022B18D97B681B68B0
:102200009B6803F00103012B11D07B689B6A43F0AC
:1022100010027B689A627B68DB6A43F001027B688C
:10222000DA627B68002283F82420012307E07B68C0
:102230001B689B6803F00103012BD8D100231846CB
:102240001037BD4680BD00BF0400002083DE1B4365
:1022500080B584B000AF78600023FB607B681B68AA
:102260009B6803F00103012B2ED17B681B689A68E1
:102270007B681B6822F001029A60FFF7D1FBF860CF
:102280001BE0FFF7CDFB0246FB68D31A022B14D9E3
:102290007B681B689B6803F00103012B0DD17B68F1
:1022A0009B6A43F010027B689A627B68DB6A43F0AA
:1022B00001027B68DA62012307E07B681B689B6888
:1022C00003F00103012BDCD0002318461037BD4674
:1022D00080BD000080B485B000AF78607B6803F0FB
:1022E0000703FB600C4BDB68BB60BA684FF6FF036B
:1022F0001340BB60FB681A02BB68134343F0BF6323
:1023000043F40033BB60044ABB68D36000BF14379A
:10231000BD4680BC704700BF00ED00E080B400AF58
:10232000044BDB681B0A03F007031846BD4680BC5C
:10233000704700BF00ED00E080B483B000AF0346FB
:102340003960FB7197F90730002B0ADB3B68DAB282
:102350000C4997F907301201D2B20B4483F80023DD
:102360000AE03B68DAB20849FB7903F00F03043B4B
:102370001201D2B20B441A7600BF0C37BD4680BCA6
:10238000704700BF00E100E000ED00E080B489B0DC
:1023900000AFF860B9607A60FB6803F00703FB6187
:1023A000FB69C3F10703042B28BF0423BB61FB694E
:1023B0000433062B02D9FB69033B00E000237B6159
:1023C0004FF0FF32BB6902FA03F3DA43BB681A40ED
:1023D0007B699A404FF0FF317B6901FA03F3D943DF
:1023E0007B680B40134318462437BD4680BC7047BA
:1023F00080B582B000AF78607B68013BB3F1807F2D
:1024000001D301230FE00A4A7B68013B53600F218F
:102410004FF0FF30FFF790FF054B00229A60044B0E
:1024200007221A60002318460837BD4680BD00BF4A
:1024300010E000E080B582B000AF78607868FFF708
:1024400049FF00BF0837BD4680BD80B586B000AFEC
:102450000346B9607A60FB7300237B61FFF75EFF80
:1024600078617A68B9687869FFF790FF024697F952
:102470000F3011461846FFF75FFF00BF1837BD4603
:1024800080BD80B582B000AF78607868FFF7B0FF9C
:10249000034618460837BD4680BD000080B48BB0A7
:1024A00000AF7860396000237B6200233B6269E102
:1024B00001227B6A02FA03F3FB613B681B68FA693D
:1024C0001340BB61BA69FB699A4240F058813B688E
:1024D0005B689A4A93425ED0984A934275D8984A6C
:1024E000934258D0964A93426FD8964A934252D01C
:1024F000944A934269D8944A93424CD0924A934268
:1025000063D8924A934246D0904A93425DD8122BA8
:102510002AD8122B59D801A252F823F09725000887
:102520007125000883250008C5250008CB25000873
:10253000CB250008CB250008CB250008CB250008BB
:10254000CB250008CB250008CB250008CB250008AB
:10255000CB250008CB250008CB250008CB2500089B
:10256000792500088D250008794A934213D02CE084
:102570003B68DB683B6229E03B68DB6804333B6215
:1025800024E03B68DB6808333B621FE03B68DB68A4
:102590000C333B621AE03B689B68002B02D104239A
:1025A0003B6213E03B689B68012B05D108233B622B
:1025B0007B68FA691A6109E008233B627B68FA6963
:1025C0005A6103E000233B6200E000BFBB69FF2BC0
:1025D00001D87B6801E07B6804337B61BB69FF2B1A
:1025E00002D87B6A9B0002E07B6A083B9B003B6150
:1025F0007B691A680F213B6901FA03F3DB431A4038
:10260000396A3B6901FA03F31A437B691A603B6834
:102610005B6803F08053002B00F0B1804D4B9B6949
:102620004C4A43F0010393614A4B9B6903F0010359
:10263000BB60BB68484A7B6A9B08023352F8233070
:10264000FB607B6A03F003039B000F2202FA03F393
:10265000DB43FA681340FB607B68404A934213D027
:102660007B683F4A93420DD07B683E4A934207D035
:102670007B683D4A934201D1032306E0042304E032
:10268000022302E0012300E000237A6A02F0030241
:1026900092009340FA681343FB602F497B6A9B08C2
:1026A0000233FA6841F823203B685B6803F4801327
:1026B000002B06D02D4B9A682C49BB6913438B60C5
:1026C00006E02A4B9A68BB69DB43284913408B60BC
:1026D0003B685B6803F40013002B06D0234BDA68D9
:1026E0002249BB691343CB6006E0204BDA68BB6923
:1026F000DB431E491340CB603B685B6803F4003347
:10270000002B06D0194B5A681849BB6913434B601C
:1027100006E0164B5A68BB69DB43144913404B6013
:102720003B685B6803F48033002B21D00F4B1A68A1
:102730000E49BB6913430B6021E000BF000032105B
:1027400000003110000022100000211000001210C3
:10275000000011100010024000000140000801407C
:10276000000C014000100140001401400004014031
:102770000B4B1A68BB69DB43094913400B607B6A4A
:1027800001337B623B681A687B6A22FA03F3002BF1
:102790007FF48EAE00BF00BF2C37BD4680BC7047B3
:1027A0000004014080B483B000AF78600B467B80AA
:1027B00013467B707B78002B03D07A887B681A6184
:1027C00003E07B881A047B681A6100BF0C37BD46A2
:1027D00080BC704780B586B000AF78607B68002B06
:1027E00001D1012372E27B681B6803F00103002B17
:1027F00000F08780924B5B6803F00C03042B0CD035
:102800008F4B5B6803F00C03082B12D18C4B5B6879
:1028100003F48033B3F5803F0BD1894B1B6803F47D
:102820000033002B6CD07B685B68002B68D10123E0
:102830004CE27B685B68B3F5803F06D1804B1B6838
:102840007F4A43F4803313602EE07B685B68002B83
:102850000CD17B4B1B687A4A23F480331360784B8E
:102860001B68774A23F4802313601DE07B685B6854
:10287000B3F5A02F0CD1724B1B68714A43F480232F
:1028800013606F4B1B686E4A43F4803313600BE098
:102890006B4B1B686A4A23F480331360684B1B68D8
:1028A000674A23F4802313607B685B68002B13D096
:1028B000FFF7B6F8386108E0FFF7B2F802463B6967
:1028C000D31A642B01D9032300E25D4B1B6803F488
:1028D0000033002BF0D014E0FFF7A2F8386108E0D5
:1028E000FFF79EF802463B69D31A642B01D90323F4
:1028F000ECE1534B1B6803F40033002BF0D100E0F4
:1029000000BF7B681B6803F00203002B63D04C4BB5
:102910005B6803F00C03002B0BD0494B5B6803F0A2
:102920000C03082B1CD1464B5B6803F48033002B4F
:1029300016D1434B1B6803F00203002B05D07B68C4
:102940001B69012B01D00123C0E13D4B1B6823F023
:10295000F8027B685B69DB00394913430B603AE09E
:102960007B681B69002B20D0364B01221A60FFF7D1
:1029700057F8386108E0FFF753F802463B69D31A6D
:10298000022B01D90323A1E12D4B1B6803F00203A5
:10299000002BF0D02A4B1B6823F0F8027B685B69A0
:1029A000DB00274913430B6015E0264B00221A6019
:1029B000FFF736F8386108E0FFF732F802463B6966
:1029C000D31A022B01D9032380E11D4B1B6803F0AE
:1029D0000203002BF0D17B681B6803F00803002B77
:1029E0003AD07B689B69002B19D0174B01221A60E3
:1029F000FFF716F8386108E0FFF712F802463B6966
:102A0000D31A022B01D9032360E10D4B5B6A03F05B
:102A10000203002BF0D0012000F0CEFA1CE00A4B9C
:102A200000221A60FEF7FCFF38610FE0FEF7F8FFA6
:102A300002463B69D31A022B08D9032346E100BFA3
:102A4000001002400000424280044242924B5B6A06
:102A500003F00203002BE9D17B681B6803F0040339
:102A6000002B00F0A6800023FB758B4BDB6903F085
:102A70008053002B0DD1884BDB69874A43F080538C
:102A8000D361854BDB6903F08053BB60BB680123D6
:102A9000FB75824B1B6803F48073002B18D17F4BAE
:102AA0001B687E4A43F480731360FEF7B9FF3861F8
:102AB00008E0FEF7B5FF02463B69D31A642B01D943
:102AC000032303E1754B1B6803F48073002BF0D0E4
:102AD0007B68DB68012B06D16F4B1B6A6E4A43F0A3
:102AE000010313622DE07B68DB68002B0CD16A4B7D
:102AF0001B6A694A23F001031362674B1B6A664A2B
:102B000023F0040313621CE07B68DB68052B0CD107
:102B1000614B1B6A604A43F0040313625E4B1B6AFD
:102B20005D4A43F0010313620BE05B4B1B6A5A4A98
:102B300023F001031362584B1B6A574A23F0040326
:102B400013627B68DB68002B15D0FEF769FF3861E4
:102B50000AE0FEF765FF02463B69D31A41F288326C
:102B6000934201D90323B1E04B4B1B6A03F00203EC
:102B7000002BEED014E0FEF753FF38610AE0FEF7B9
:102B80004FFF02463B69D31A41F28832934201D982
:102B900003239BE0404B1B6A03F00203002BEED1A2
:102BA000FB7D012B05D13C4BDB693B4A23F0805375
:102BB000D3617B68DB69002B00F08780364B5B6854
:102BC00003F00C03082B61D07B68DB69022B46D134
:102BD000334B00221A60FEF723FF386108E0FEF74E
:102BE0001FFF02463B69D31A022B01D903236DE074
:102BF000294B1B6803F00073002BF0D17B681B6A24
:102C0000B3F5803F08D1244B5B6823F400327B6826
:102C10009B68214913434B601F4B5B6823F474127C
:102C20007B68196A7B685B6A0B431B4913434B60E3
:102C30001B4B01221A60FEF7F3FE386108E0FEF735
:102C4000EFFE02463B69D31A022B01D903233DE074
:102C5000114B1B6803F00073002BF0D035E0104BD4
:102C600000221A60FEF7DCFE386108E0FEF7D8FEAD
:102C700002463B69D31A022B01D9032326E0064BF7
:102C80001B6803F00073002BF0D11EE07B68DB694A
:102C9000012B07D1012319E0001002400070004011
:102CA000600042420B4B5B68FB60FB6803F48032C0
:102CB0007B681B6A9A4206D1FB6803F470127B683A
:102CC0005B6A9A4201D0012300E0002318461837BE
:102CD000BD4680BD0010024080B584B000AF786072
:102CE00039607B68002B01D10123D0E06A4B1B685F
:102CF00003F007033A689A4210D9674B1B6823F028
:102D0000070265493B6813430B60634B1B6803F084
:102D100007033A689A4201D00123B8E07B681B6838
:102D200003F00203002B20D07B681B6803F0040330
:102D3000002B05D0594B5B68584A43F4E06353605D
:102D40007B681B6803F00803002B05D0534B5B68BE
:102D5000524A43F460535360504B5B6823F0F002D7
:102D60007B689B684D4913434B607B681B6803F08D
:102D70000103002B40D07B685B68012B07D1474BD8
:102D80001B6803F40033002B15D101237FE07B681F
:102D90005B68022B07D1414B1B6803F00073002BCB
:102DA00009D1012373E03D4B1B6803F00203002BA4
:102DB00001D101236BE0394B5B6823F003027B6890
:102DC0005B68364913434B60FEF72AFEF8600AE061
:102DD000FEF726FE0246FB68D31A41F28832934280
:102DE00001D9032353E02D4B5B6803F00C027B6891
:102DF0005B689B009A42EBD1274B1B6803F00703EB
:102E00003A689A4210D2244B1B6823F007022249E9
:102E10003B6813430B60204B1B6803F007033A68C1
:102E20009A4201D0012332E07B681B6803F004035F
:102E3000002B08D0194B5B6823F4E0627B68DB68E9
:102E4000164913434B607B681B6803F00803002B93
:102E500009D0124B5B6823F460527B681B69DB006E
:102E60000E4913434B6000F021F802460B4B5B68A0
:102E70001B0903F00F030A49CB5C22FA03F3094A4A
:102E80001360094B1B681846FEF788FD002318469F
:102E90001037BD4680BD00BF002002400010024038
:102EA0000C870008040000200800002080B487B0D0
:102EB00000AF0023FB600023BB6000237B61002385
:102EC0007B6000233B611E4B5B68FB60FB6803F08B
:102ED0000C03042B02D0082B03D027E0194B3B61D5
:102EE00027E0FB689B0C03F00F03174AD35C7B6061
:102EF000FB6803F48033002B10D0114B5B685B0C34
:102F000003F00103114AD35CBB607B680D4A03FBED
:102F100002F2BB68B2FBF3F37B6104E07B680C4A0E
:102F200002FB03F37B617B693B6102E0054B3B6184
:102F300000BF3B6918461C37BD4680BC704700BFC8
:102F40000010024000127A0024870008348700082D
:102F500000093D0080B400AF024B1B681846BD4617
:102F600080BC70470400002080B500AFFFF7F2FF7F
:102F70000246054B5B681B0A03F007030349CB5C61
:102F800022FA03F3184680BD001002401C87000897
:102F900080B500AFFFF7DEFF0246054B5B68DB0A3A
:102FA00003F007030349CB5C22FA03F3184680BD04
:102FB000001002401C87000880B485B000AF786024
:102FC0000A4B1B680A4AA2FB03235B0A7A6802FBCE
:102FD00003F3FB6000BFFB685A1EFA60002BF9D1B7
:102FE00000BF00BF1437BD4680BC704704000020FE
:102FF000D34D621080B586B000AF786000233B618E
:103000000023FB607B681B6803F00103002B7DD06D
:103010000023FB754F4BDB6903F08053002B0DD170
:103020004C4BDB694B4A43F08053D361494BDB691E
:1030300003F08053BB60BB680123FB75464B1B68E4
:1030400003F48073002B18D1434B1B68424A43F4AE
:1030500080731360FEF7E4FC386108E0FEF7E0FCE3
:1030600002463B69D31A642B01D903236DE03A4B26
:103070001B6803F48073002BF0D0364B1B6A03F4FB
:103080004073FB60FB68002B2ED07B685B6803F409
:103090004073FA689A4227D02E4B1B6A23F4407380
:1030A000FB602E4B01221A602C4B00221A60294A29
:1030B000FB681362FB6803F00103002B14D0FEF7DA
:1030C000AFFC38610AE0FEF7ABFC02463B69D31A5D
:1030D00041F28832934201D9032336E01D4B1B6A2B
:1030E00003F00203002BEED01A4B1B6A23F440724C
:1030F0007B685B68174913430B62FB7D012B05D18D
:10310000144BDB69134A23F08053D3617B681B683F
:1031100003F00203002B08D00E4B5B6823F44042FF
:103120007B689B680B4913434B607B681B6803F00B
:103130001003002B08D0074B5B6823F480027B68E8
:10314000DB68044913434B60002318461837BD461B
:1031500080BD00BF001002400070004040044242A9
:1031600080B588B000AF786000237B610023FB61ED
:1031700000233B610023FB600023BB617B68102BB5
:103180000AD07B68102B00F28A807B68012B45D027
:103190007B68022B75D082E0464B5B68FB60454B39
:1031A0001B6803F08073002B7BD0FB689B0C03F043
:1031B0000F03414AD35C3B61FB6803F48033002B6F
:1031C00015D03C4B5B685B0C03F001033B4AD35CBE
:1031D0007B61FB6803F48033002B0DD0384A7B6998
:1031E000B2FBF3F23B6902FB03F3FB6104E03B69D2
:1031F000344A02FB03F3FB612E4B5B6803F480034C
:10320000B3F5800F02D1FB69BB614AE0FB695B004B
:103210002D4AA2FB03235B08BB6142E0254B1B6ADE
:10322000FB60FB6803F44073B3F5807F08D1FB6853
:1032300003F00203002B03D04FF40043BB611FE0F7
:10324000FB6803F44073B3F5007F09D1194B5B6A47
:1032500003F00203002B03D049F64043BB610FE0AB
:10326000FB6803F44073B3F5407F1CD1114B1B681E
:1032700003F40033002B16D04FF22443BB6112E05D
:1032800011E0FFF785FE02460A4B5B689B0B03F0DB
:10329000030301335B00B2FBF3F3BB6104E000BF47
:1032A00002E000BF00E000BFBB6918462037BD4602
:1032B00080BD00BF00100240388700084887000822
:1032C00000127A0000093D00ABAAAAAA80B582B01C
:1032D00000AF78607B68002B01D1012341E07B685F
:1032E00093F83D30DBB2002B06D17B68002283F8D7
:1032F0003C207868FEF718FA7B68022283F83D20AC
:103300007B681A687B6804331946104600F092F90E
:103310007B68012283F846207B68012283F83E20E7
:103320007B68012283F83F207B68012283F84020DC
:103330007B68012283F841207B68012283F84220C8
:103340007B68012283F843207B68012283F84420B4
:103350007B68012283F845207B68012283F83D20A9
:10336000002318460837BD4680BD000080B584B0F4
:1033700000AF786039603B68002B09D17B6893F817
:103380003E30DBB2012B14BF01230023DBB222E06D
:103390003B68042B09D17B6893F83F30DBB2012BEB
:1033A00014BF01230023DBB215E03B68082B09D1D1
:1033B0007B6893F84030DBB2012B14BF012300235C
:1033C000DBB208E07B6893F84130DBB2012B14BF1D
:1033D00001230023DBB2002B01D001235EE03B6818
:1033E000002B04D17B68022283F83E2013E03B6867
:1033F000042B04D17B68022283F83F200BE03B685A
:10340000082B04D17B68022283F8402003E07B680C
:10341000022283F841207B681B6801223968184624
:1034200000F0FEFA7B681B681E4A934207D17B6856
:103430001B685A6C7B681B6842F400425A647B68C4
:103440001B68184A93420ED07B681B68B3F1804F0B
:1034500009D07B681B68144A934204D07B681B68C0
:10346000124A934211D17B681B689B6803F00703E3
:10347000FB60FB68062B10D07B681B681A687B68B2
:103480001B6842F001021A6007E07B681B681A683B
:103490007B681B6842F001021A600023184610374F
:1034A000BD4680BD002C01400004004000080040E3
:1034B00080B586B000AFF860B9607A600023FB7514
:1034C000FB6893F83C30012B01D10223AEE0FB688E
:1034D000012283F83C207B680C2B00F29F8001A224
:1034E00052F823F0193500081D3600081D36000873
:1034F0001D360008593500081D3600081D36000825
:103500001D3600089B3500081D3600081D360008D2
:103510001D360008DB350008FB681B68B9681846D3
:1035200000F0F6F8FB681B689A69FB681B6842F0BC
:1035300008029A61FB681B689A69FB681B6822F0A5
:1035400004029A61FB681B689969BB681A69FB6889
:103550001B680A439A6164E0FB681B68B9681846F7
:1035600000F03CF9FB681B689A69FB681B6842F431
:1035700000629A61FB681B689A69FB681B6822F409
:1035800080629A61FB681B689969BB681B691A02B3
:10359000FB681B680A439A6143E0FB681B68B968D3
:1035A000184600F085F9FB681B68DA69FB681B6840
:1035B00042F00802DA61FB681B68DA69FB681B6885
:1035C00022F00402DA61FB681B68D969BB681A69DA
:1035D000FB681B680A43DA6123E0FB681B68B96873
:1035E000184600F0CFF9FB681B68DA69FB681B68B6
:1035F00042F40062DA61FB681B68DA69FB681B68E9
:1036000022F48062DA61FB681B68D969BB681B69B8
:103610001A02FB681B680A43DA6102E00123FB75AA
:1036200000BFFB68002283F83C20FB7D184618375A
:10363000BD4680BD80B485B000AF786039607B68DE
:103640001B68FB607B682F4A93420BD07B68B3F109
:10365000804F07D07B682C4A934203D07B682B4A6B
:10366000934208D1FB6823F07003FB603B685B6802
:10367000FA681343FB607B68224A93420BD07B6855
:10368000B3F1804F07D07B681F4A934203D07B6819
:103690001E4A934208D1FB6823F44073FB603B68E9
:1036A000DB68FA681343FB60FB6823F080023B6829
:1036B0005B691343FB607B68FA681A603B689A6831
:1036C0007B68DA623B681A687B689A627B680D4A9D
:1036D000934203D13B681A697B681A637B680122B5
:1036E0005A617B681B6903F00103002B05D07B68DE
:1036F0001B6923F001027B681A6100BF1437BD46C5
:1037000080BC7047002C01400004004000080040CD
:1037100080B487B000AF786039607B681B6A7B61DA
:103720007B681B6A23F001027B681A627B685B6816
:103730003B617B689B69FB60FB6823F07003FB6067
:10374000FB6823F00303FB603B681B68FA681343C4
:10375000FB607B6923F002037B613B689B687A69AD
:1037600013437B617B681C4A93420CD17B6923F035
:1037700008037B613B68DB687A6913437B617B6983
:1037800023F004037B617B68134A934211D13B69A8
:1037900023F480733B613B6923F400733B613B6816
:1037A0005B693A6913433B613B689B693A69134320
:1037B0003B617B683A695A607B68FA689A613B684A
:1037C0005A687B685A637B687A691A6200BF1C3743
:1037D000BD4680BC704700BF002C014080B487B05C
:1037E00000AF786039607B681B6A7B617B681B6A0D
:1037F00023F010027B681A627B685B683B617B6820
:103800009B69FB60FB6823F4E043FB60FB6823F4E7
:103810004073FB603B681B681B02FA681343FB6044
:103820007B6923F020037B613B689B681B017A69FD
:1038300013437B617B681D4A93420DD17B6923F062
:1038400080037B613B68DB681B017A6913437B6102
:103850007B6923F040037B617B68144A934213D158
:103860003B6923F480633B613B6923F400633B6164
:103870003B685B699B003A6913433B613B689B690A
:103880009B003A6913433B617B683A695A607B68E5
:10389000FA689A613B685A687B689A637B687A69C0
:1038A0001A6200BF1C37BD4680BC7047002C014027
:1038B00080B487B000AF786039607B681B6A7B6139
:1038C0007B681B6A23F480727B681A627B685B6882
:1038D0003B617B68DB69FB60FB6823F07003FB6086
:1038E000FB6823F00303FB603B681B68FA68134323
:1038F000FB607B6923F400737B613B689B681B0260
:103900007A6913437B617B681D4A93420DD17B69C1
:1039100023F400637B613B68DB681B027A69134315
:103920007B617B6923F480637B617B68144A9342EB
:1039300013D13B6923F480533B613B6923F400536B
:103940003B613B685B691B013A6913433B613B6820
:103950009B691B013A6913433B617B683A695A6072
:103960007B68FA68DA613B685A687B68DA637B686F
:103970007A691A6200BF1C37BD4680BC704700BF21
:10398000002C014080B487B000AF786039607B685C
:103990001B6A3B617B681B6A23F480527B681A6256
:1039A0007B685B687B617B68DB69FB60FB6823F499
:1039B000E043FB60FB6823F44073FB603B681B68DB
:1039C0001B02FA681343FB603B6923F400533B611D
:1039D0003B689B681B033A6913433B617B680F4A52
:1039E000934209D17B6923F480437B613B685B6927
:1039F0009B017A6913437B617B687A695A607B68B3
:103A0000FA68DA613B685A687B681A647B683A69CD
:103A10001A6200BF1C37BD4680BC7047002C0140B5
:103A200080B487B000AFF860B9607A60BB6803F01B
:103A30001F03012202FA03F37B61FB681A6A7B69A8
:103A4000DB431A40FB681A62FB681A6ABB6803F022
:103A50001F03796801FA03F31A43FB681A6200BF77
:103A60001C37BD4680BC704780B485B000AF78601D
:103A700039607B6893F83C30012B01D1022346E08A
:103A80007B68012283F83C207B68022283F83D207A
:103A90007B681B685B68FB607B681B689B68BB601E
:103AA000FB6823F07003FB603B681B68FA681343F4
:103AB000FB607B681B68FA685A607B681B68164A63
:103AC00093420ED07B681B68B3F1804F09D07B68AE
:103AD0001B68124A934204D07B681B68104A9342C9
:103AE0000CD1BB6823F08003BB603B685B68BA689D
:103AF0001343BB607B681B68BA689A607B680122CD
:103B000083F83D207B68002283F83C200023184680
:103B10001437BD4680BC7047002C014000040040B3
:103B20000008004080B485B000AF786039600023A1
:103B3000FB607B6893F83C30012B01D102233DE010
:103B40007B68012283F83C20FB6823F0FF023B687E
:103B5000DB681343FB60FB6823F440723B689B689F
:103B60001343FB60FB6823F480623B685B6813438C
:103B7000FB60FB6823F400623B681B681343FB6037
:103B8000FB6823F480523B681B691343FB60FB68AE
:103B900023F400523B685B691343FB60FB6823F42A
:103BA00080423B68DB691343FB607B681B68FA68F3
:103BB0005A647B68002283F83C200023184614379F
:103BC000BD4680BC704780B582B000AF78607B682E
:103BD000002B01D1012342E07B6893F84130DBB236
:103BE000002B06D17B68002283F840207868FDF71F
:103BF0004DFE7B68242283F841207B681B68DA68CD
:103C00007B681B6822F40052DA60786800F072F971
:103C10007B681B681A697B681B6822F490421A61F2
:103C20007B681B685A697B681B6822F02A025A610C
:103C30007B681B68DA687B681B6842F40052DA60B4
:103C40007B6800225A647B68202283F841207B68CD
:103C5000202283F842207B6800225A630023184602
:103C60000837BD4680BD80B58AB002AFF860B96044
:103C70003B601346FB8000237B61FB6893F8413077
:103C8000DBB2202B75D1BB68002B02D0FB88002B48
:103C900001D101236EE0FB6800225A64FB682122F7
:103CA00083F84120FDF7BCFE7861FB68FA889A84AE
:103CB000FB68FA88DA84FB689B68B3F5805F08D1FB
:103CC000FB681B69002B04D10023FB61BB68BB614F
:103CD00003E0BB68FB610023BB612EE03B680093FF
:103CE0007B6900228021F86800F048F80346002B29
:103CF00005D0FB68202283F8412003233AE0FB69CA
:103D0000002B0BD1BB691B881A46FB681B68C2F3EA
:103D100008025A60BB690233BB6107E0FB691A788D
:103D2000FB681B685A60FB690133FB61FB68DB8C35
:103D30009BB2013B9AB2FB68DA84FB68DB8C9BB2D6
:103D4000002BCBD13B6800937B6900224021F868AF
:103D500000F014F80346002B05D0FB68202283F8FE
:103D60004120032306E0FB68202283F84120002342
:103D700000E0022318462037BD4680BD80B586B0DE
:103D800000AFF860B9603B601346FB713BE03B6AF3
:103D9000B3F1FF3F37D0FDF743FE02463B68D31A2D
:103DA0003A6A9A4202D33B6A002B01D103233AE0DC
:103DB000FB681B68DB6803F00403002B23D0BB689F
:103DC000802B20D0BB68402B1DD0FB681B681B6874
:103DD00003F00803082B16D100237B61FB681B68E6
:103DE0001B687B61FB681B685B687B617B69F868AB
:103DF00000F01DF8FB6808225A64FB68002283F873
:103E0000402001230FE0FB681B681A68BB68134061
:103E1000BA689A420CBF01230023DBB21A46FB7931
:103E20009A42B4D0002318461837BD4680BD80B4EE
:103E300095B000AF78607B681B680C337B637B6B4D
:103E400053E8003F3B633B6B23F49073FB647B6858
:103E50001B680C33FA6C3A64FB63F96B3A6C41E80B
:103E60000023BB63BB6B002BE5D17B681B6814335D
:103E70003B623B6A53E8003FFB61FB6923F00103AF
:103E8000BB647B681B681433BA6CFA62BB62B96AA4
:103E9000FA6A41E800237B627B6A002BE5D17B68EC
:103EA0001B6B012B19D17B681B680C33FB60FB6813
:103EB00053E8003FBB60BB6823F010037B647B6862
:103EC0001B680C337A6CBA617B617969BA6941E825
:103ED00000233B613B69002BE5D17B68202283F8FE
:103EE00042207B6800221A6300BF5437BD4680BC65
:103EF0007047000080B584B000AF78607B681B68B5
:103F00001B6923F440517B68DA687B681B680A43AD
:103F10001A617B689A687B681B691A437B685B69D6
:103F20001343BB607B681B68DB6823F4B05323F04A
:103F30000C037A681268B9680B43D3607B681B680E
:103F40005B6923F440717B689A697B681B680A434C
:103F50005A617B681B682C4A934203D1FFF718F81B
:103F6000F86002E0FFF700F8F860FA6813469B007B
:103F700013449A001A447B685B689B00B2FBF3F31E
:103F8000224AA2FB03235B091901FA6813469B002E
:103F900013449A001A447B685B689B00B2FBF3F2FF
:103FA0001A4BA3FB02035B09642000FB03F3D31A43
:103FB0001B013233154AA2FB03235B0903F0F00314
:103FC0001944FA6813469B0013449A001A447B680C
:103FD0005B689B00B2FBF3F20C4BA3FB02035B0993
:103FE000642000FB03F3D31A1B013233074AA2FB00
:103FF00003235B0903F00F027B681B680A449A6085
:1040000000BF1037BD4680BD003801401F85EB5111
:10401000002B2DE9F0471D46BBBF03F100431D46B1
:1040200000232D2388B01446B8BF1446129A109E60
:104030001370149BDDF84CA023F02008B8F1460F54
:1040400005D0B8F1450F00D10136022300E003236B
:1040500007AA049206AACDE902A2CDE900362246BB
:104060002B4601F09DFEB8F1470F074619D1119B71
:10407000DB070ED500EB0609002200232046294667
:10408000FCF746FD08B1CDF81C903022079B4B454C
:104090001ED33846079B159ADB1B136008B0BDE89A
:1040A000F087B8F1460F00EB0609E5D10378302B15
:1040B0000AD10022002320462946FCF729FD18B921
:1040C000C6F10106CAF80060DAF800309944D3E777
:1040D000591C07911A70D9E7F7B50029B6BF2D23EF
:1040E0002B23494209290270437029DD0DF1070392
:1040F0001D460A27B1FBF7F61A4607FB16143034A3
:1041000002F8014C0C46632C314603F1FF33F1DC1D
:104110003031941E03F8011C2346411CAB420AD3E4
:104120000DF109039B1AAC4288BF002302330344FC
:10413000181A03B0F0BD13F8016B01F8016FEDE739
:10414000302330318370C170031DF1E72DE9F04F4A
:1041500091B00C46DDF8688016461F46054601F012
:104160003DFD036818460893FBF7F2FF00230E930A
:10417000D8F800300990073323F0070303F1080251
:1041800094F818A0D4F800B0C8F80020D3E900894A
:1041900029F000430B93CDF828804FF0FF32DDE982
:1041A0000A01C4E912899C4BFCF7E4FC70BBDDE911
:1041B0000A014FF0FF32984BFCF7BEFC30BB0022E7
:1041C000002340464946FCF7ADFC10B12D2384F88E
:1041D0004330924A924BBAF1470F94BF90469846AB
:1041E00003234FF0000923612BF0040323603346BF
:1041F0002146284600970FAA00F0D4F9013040F07C
:1042000090804FF0FF3011B0BDE8F08F42464B4632
:1042100040464946FCF7AEFC48B14B46002BB8BFC0
:104220002D23804AB8BF84F843307F4BD3E76368BF
:104230000AF0DF015A1C3FD10623636000224BF4D1
:104240008063236006920EAACDE904A20DAA039210
:104250000DF13302CDE901326368424600932846EE
:104260004B460A91FFF7D4FE0A99804647290D99DB
:1042700028D1C81C02DB6368994240DDAAF1020A1A
:104280005FFA8AFA5246013904F150000D91FFF7A6
:1042900023FF0E9A81461318012A236102DC22684B
:1042A000D20701D5013323619DF83330002B9ED016
:1042B0002D2384F843309AE74729BFD1002BBDD185
:1042C0000123BAE7BAF1650FDCD9BAF1660F18D14C
:1042D000002963680BDD216113B92268D00702D57C
:1042E00001330B4423614FF00009A165DCE713B9EA
:1042F0002268D20701D50233F4E70123F2E74FF039
:10430000670A0E9B994205DB23682161D807EAD52D
:104310004B1CE7E70029CCBF0122C1F10202134484
:10432000E0E723685A0507D4236942463146284608
:10433000B84701302BD164E7BAF1650F40F2DC8059
:10434000D4E9120100220023FCF7E2FB002833D05D
:10435000012331462846354AB84701303FF451AF72
:10436000DDE90D38434502DB2368D8070FD5DDE9C9
:10437000082331462846B84701303FF442AF4FF09A
:10438000000908F1FF3804F11A0AC84509DC23685E
:104390009B0700F10281E0680F9B9842B8BF184666
:1043A00031E70123524631462846B84701303FF4F1
:1043B00028AF09F10109E8E70D9B002B38DC012348
:1043C00031462846194AB84701303FF41AAFDDE9B3
:1043D0000D3959EA030302D12368D907D7D5DDE99E
:1043E000082331462846B84701303FF40AAF4FF062
:1043F000000A04F11A0B0D9B5B42534501DC4B464E
:1044000093E701235A4631462846B84701303FF426
:10441000F8AE0AF1010AEEE7FFFFEF7F4A870008D6
:104420004E87000852870008568700085A87000800
:10443000A36DDDF838A05345A8BF5346002B99461D
:1044400036DC4FF0000B29EAE97904F11A02A36D7A
:104450000A93A3EB09035B4531DC0D9B9A453ADCDB
:104460002368DA0737D40D9BAAEB03090A9BAAEB52
:1044700003039945A8BF9946B9F1000F33DC4FF00B
:10448000000829EAE97904F11A0B0D9BAAEB030352
:10449000A3EB090343457FF77AAF01235A46314620
:1044A0002846B84701303FF4ACAE08F10108ECE70C
:1044B000424631462846B8470130C2D1A1E6012321
:1044C000314628460A92B84701303FF49AAE0A9A1C
:1044D0000BF1010BBBE73146DDE908232846B8475D
:1044E0000130C0D18DE60A9A4B46314628464244F7
:1044F000B8470130C3D184E6DDF838A0BAF1010F26
:1045000001DCDB0736D50123424631462846B84751
:1045100001303FF476AEDDE9082331462846B8473E
:1045200001303FF46EAED4E91201002200230AF1FB
:10453000FF3AFCF7EDFAC0B9534608F101023146E3
:104540002846B84701300CD15BE601235A46314674
:104550002846B84701303FF454AE08F10108D04571
:10456000F3DB4B4604F15002E0E64FF0000804F1A3
:104570001A0BF4E701234246E1E701234A4631469C
:104580002846B84701303FF43CAE08F10108E36823
:104590000F995B1A4345F0DCFDE64FF0000804F18B
:1045A0001909F4E72DE9F047164698468A680B6921
:1045B00007469342B8BF1346336091F843200C4638
:1045C000DDF820900AB1013333602368990642BFB9
:1045D000336802333360256815F0060506D104F10F
:1045E000190AE36832689B1AAB422BDC94F843301B
:1045F0002268003B18BF0123920630D4414638465A
:1046000004F14302C847013023D02368226903F034
:104610000603042B14BF002533684FF0000608BFC3
:10462000E56804F11A0408BFED1A54F8123C08BFFB
:1046300025EAE5759342C4BF9B1AED18B5421AD11D
:10464000002008E00123524641463846C847013061
:1046500003D14FF0FF30BDE8F0870135C1E73020CE
:10466000E11881F843005A1C94F8451022440233A3
:1046700082F84310C2E70123224641463846C84724
:104680000130E6D00136D9E72DE9FF470F7E91468C
:10469000782F80460C469A460C9E01F1430207D8BB
:1046A000622F0AD8002F00F0D380582F00F0BA8074
:1046B00004F1420684F842703AE0A7F16303152B37
:1046C000F6D801A151F823F021470008354700082A
:1046D000B1460008B1460008B1460008B1460008DE
:1046E00035470008B1460008B1460008B146000849
:1046F000B1460008374800085F470008F147000846
:10470000B1460008B146000859480008B146000803
:104710005F470008B1460008B1460008F9470008A5
:1047200033681A1D1B68326004F1420684F8423077
:1047300001239EE033682068191D3160060601D50B
:104740001D6803E04506FBD5B3F90050002D03DAE0
:104750002D236D4284F843300A23594811E0216823
:104760003368080653F8045B02D4490648BFADB26B
:104770006F2F336014BF0A2308235148002184F8A7
:1047800043106668002EA8BF2168A660A4BF21F070
:10479000040121600DB9002E4BD01646B5FBF3F194
:1047A00003FB1157C75D06F8017D2F46BB420D463E
:1047B000F4D9082B0BD12368DF0708D5236961687A
:1047C0009942DEBF302306F8013C06F1FF36921B0A
:1047D00022614B4621464046CDF800A003AAFFF7D0
:1047E000E1FE01304AD14FF0FF3004B0BDE8F08760
:1047F000236843F0200323607827324884F845700B
:10480000236831681F0651F8045B02D45F0648BF75
:10481000ADB23160D90744BF43F0200323601DB11E
:104820001023ABE72648E9E7236823F02003236041
:10483000F6E71646BDE733682568181D61693060E4
:104840002E061B6801D5196002E06806FBD51980A9
:10485000002316462361BCE7336800211A1D32602D
:104860001E686268304601F0EAF908B1801B60609A
:1048700063682361002384F84330AAE7324649463F
:1048800040462369D0470130ADD023689B0713D43D
:10489000E068039B9842B8BF1846A6E7012332465A
:1048A00049464046D04701309DD00135E368039921
:1048B0005B1AAB42F2DCEBE7002504F11906F5E7E1
:1048C0005C8700086D8700082DE9F04F87B00393DF
:1048D0008B6817465A1EB2F5AE7F82BF6FF4AE7575
:1048E00003EB050B40F25D130A464FF0000588BF4D
:1048F0008B600B68804643F4F06342F81C3B0C4627
:1049000098BF4FF0000B1646AA46A946CDE90455BC
:1049100001920295A26852B13B681B784E2B65D874
:10492000402B3DD8A3F12B01C8B20E283BD9B9F1D9
:10493000000F03D0236823F4807323600AF1FF3A49
:10494000BAF1010F00F21881019B9E4200F2098129
:10495000012007B0BDE8F08FA3F161020D2AE6D86F
:1049600001A151F822F000BFAF4A00082F4900080A
:104970002F4900082F4900080F4B0008E74A00089C
:104980002F4900082F490008BD4A00082F49000898
:104990002F4900082F4900082F490008754A0008D0
:1049A000A3F14102DAE70E29C1D801A050F821F0A5
:1049B000654A00082F490008654A0008FB4A0008BC
:1049C0002F4900080D4A00084B4A00084B4A0008CE
:1049D0004B4A00084B4A00084B4A00084B4A000863
:1049E0004B4A00084B4A00084B4A00086E2B09D876
:1049F000602BB1D8542B7BD0592B98D1072D96D151
:104A000008252CE0742B73D0792BF6E72168C805B4
:104A10001BD521F08001216009F10109BBF1000FD4
:104A200003D001320BF1FF3BA260A368013BA360FE
:104A30002369013323617B68013B002B7B6040F3DA
:104A400087803B6801333B6064E71AEB05017FF424
:104A50006EAF0D468A46226822F4C072226006F8C4
:104A6000013BE2E7226810067FF561AF22F0800289
:104A70002260F4E7BAF1000F0ED1B9F1000F0ED1A8
:104A8000226802F4E061B1F5E06F08D122F4F0622F
:104A90004FF0010A2260E2E7BAF1020F55D0012D72
:104AA00002D0042D7FF443AF0135EDB2D7E7BAF160
:104AB000010F7FF43CAF4FF0020AD0E77DB9B9F1A6
:104AC000000F7FF437AF226802F4E061B1F5E06FC8
:104AD00040F0038122F4F06201252260BFE7032D3C
:104AE000E2D0052DDEE7022D7FF421AF0325B6E7E6
:104AF000062D7FF41CAF0725B1E7226891057FF5ED
:104B000016AF22F420722260CDF80890A7E7226841
:104B100002F4A061B1F5806F06D050057FF507AFB4
:104B2000B9F1000F00F0D980910558BF029922F425
:104B3000F06258BFA9EB010142F4C0724FF00009C6
:104B400058BFCDE90416226089E74FF0030A86E7D3
:104B500039464046D4F88031984700283FF4DAAE11
:104B6000E5E6D4F87C313A46404616F8011D9847F0
:104B70002369013B2361E7E66B1E062B24D8022D37
:104B800036D8019B9E427FF6E3AED4F87C313A469C
:104B9000404616F8011D98472369013B2361F0E761
:104BA000D4F87C313A4640461BF8011D98472369EA
:104BB000013B23610AF1FF3A5FFA8AFABAF1020F68
:104BC000EED1033DEDB2761B2368DA0530D55B05E7
:104BD00011D5019B9E427FF6BBAED4F87C313A469C
:104BE000404616F8011D98472369013B2361F0E711
:104BF000AA46B346DEE716F8011C2369652903F1CE
:104C0000FF3306F1FF3523610CD045290AD0D4F8D3
:104C10007C313A4640469847236916F8021C013B0E
:104C2000B51E23613A464046D4F87C3198472E465B
:104C3000226812F0100201D000208AE63270236848
:104C400003F4C063B3F5806F1CD1029B4B45A3EB0B
:104C5000090223D100224046019900F005FF039B81
:104C600025681B6815F0020F06460F4603F1040283
:104C70001FD003990A601B68C3E90067E36801332A
:104C8000E360D9E7049B002BE4D005990A23404652
:104C9000013100F069FF049B059EC21A04F26F13F4
:104CA0009E4228BF04F5B77630460D4900F01CF847
:104CB000D0E76D07DDD4039D2A601D6802460B46D0
:104CC000FBF758FF20B1074800F0DCFF2860D5E76C
:104CD00030463946FBF7ACFFF8E74FF000092DE608
:104CE0007E870008738B00080EB46FF0004100B59A
:104CF0009CB01DAB029006900791049108480949A9
:104D000053F8042B0591006802A9019302F0A4F95D
:104D10000022029B1A701CB05DF804EB03B07047D0
:104D2000880100200802FFFF002310B50446C0E9F7
:104D30000033C0E90433836081814366C2818361AB
:104D4000194608225C3000F041FF0D4B246263627B
:104D50000C4BA3620C4BE3620C4B23630C4B9C4249
:104D600006D003F16802944202D0D0339C4205D1B0
:104D700004F15800BDE8104000F05EBF10BD00BF58
:104D80007D7E00089F7E0008D77E0008FB7E00081D
:104D900014030020024A0349034800F0E7BE00BFA5
:104DA00010000020C97400088C01002041680C4BE1
:104DB00010B59942044601D002F086FBA168094B68
:104DC000994202D0204602F07FFBE168064B9942EF
:104DD00004D02046BDE8104002F076BB10BD00BFF5
:104DE000140300207C030020E403002010B50B4BCB
:104DF0000B4C0C4A20461A6004210022FFF794FF56
:104E000004F1680001220921FFF78EFF04F1D000B0
:104E10000222BDE810401221FFF786BF4C0400209B
:104E200014030020954D0008014800F006BF00BFA4
:104E300051040020014800F001BF00BF51040020D0
:104E400010B50446FFF7F0FF236A1BB1BDE8104020
:104E5000FFF7F0BF044B2362044B1B68002BF5D116
:104E6000FFF7C4FFF2E700BFAD4D00084C0400207F
:104E70002DE9F0410F46904602F0CCFE04460D4667
:104E8000B8F1000F11D0C7F30A53C3F16B03002B25
:104E90000BDD00241B0503F17F5505F54015224667
:104EA0002B46FBF7CDFB04460D4620462946BDE8C0
:104EB000F0810000000000002DE9F04F9FB0179234
:104EC00000220C461A924FF0000A4FF0000B0A46DF
:104ED0000590199211782B2948D036D80D2930D851
:104EE000082930D8002939D000220B92199D2A7840
:104EF000302A40F0B1806A7802F0DF02582A6CD183
:104F000002930B9B8E4A01931AAB009305981BAB3F
:104F100019A901F075FD10F00F06044605D0062E04
:104F200026D10023013519950B93179B002B40F0D8
:104F300084850B9BBBB150460BF100411FB0BDE80F
:104F4000F08F2029D0D10132C3E72D29CCD1012106
:104F50000B91511C19915278002AC7D1179B1994B3
:104F6000002B40F0688550465946E7E70021EFE7FF
:104F70001A9A3AB135211CA802F03CFF1A990598FB
:104F800002F016FB013E1B9A042E06D8DFE806F05D
:104F900014031D201400DDE91CABE10548BF4BF0F4
:104FA000004B2BF000431B0D1B05002BBDD100F067
:104FB00019FE22230360B8E702F23342DDE91CA3A5
:104FC00023F4801343EA025BE7E7DFF878B1E4E714
:104FD0006FF0004B4FF0FF3ADFE7199B5A1C199214
:104FE0005B78302BF9D0002B9FD001230993199BBC
:104FF0000A220C9300231F4608930A9319980578F8
:10500000A5F13003D9B2092928D901224E4900F06F
:10501000CBFD002832D000202A4681463D4603467B
:10502000652A01D0452A14D11DB9099A024395D0A9
:105030000025199C621C199262782B2A77D02D2AA0
:105040007BD04FF0000CA2F13001092940F28280A0
:1050500019944FF00008A2E00023C7E7082FD5BF3E
:105060000A99089902FB013302FB013300F10100A8
:10507000D4BF0A93089301371990BFE7199B5A1CB4
:1050800019925A787FB381463D46A2F13003092B2D
:1050900012D90123C4E7199B01305A1C19925A787E
:1050A000302AF8D0A2F13103082B00F2CB848146DC
:1050B00000200546199B0C93303A00F101032AD0D9
:1050C00099440A212B4600EB050C63450DD1691C60
:1050D00001442844082816DC0A230A9803FB00230D
:1050E0000A93002318E03846DAE7082B03F101039E
:1050F00003DC0A9E4E430A96E7E7102BDEBF089EAC
:105100004E430896E1E70F28EBDC0A23089803FBDF
:1051100000230893E5E72946199A0D46501C19907B
:1051200052781846B1E74FF0000901237DE74FF0B0
:10513000000CA21C1992A27885E74FF0010CF8E749
:105140009C8700080000F07F83870008199A511C93
:1051500019915278302AF9D0A2F1310108293FF68D
:1051600078AF4FF00A08303A0E92199A0F92199AB6
:10517000561C19965278A2F1300EBEF1090F39D99A
:105180000F9944F61F68761A082E03DC0E9988459D
:10519000A8BF8846BCF1000F01D0C8F10008002D5F
:1051A0004ED1099908437FF4C0AE002B7FF4D6AEF0
:1051B000692A28D025DC492A25D04E2A7FF4CEAE94
:1051C0009A4919A801F03EFE00283FF4C7AE199B8A
:1051D0001B78282B2ED196491CAA19A801F046FE4F
:1051E000052827D11D9BDDF870A043F0FF4B4BF441
:1051F000E00B9AE60E9908FB0121A1F130020E9214
:10520000B5E76E2ADAE78B4919A801F01BFE0028E2
:105210003FF4A4AE199B8849013B19A8199301F0EA
:1052200011FE10B9199B013319934FF0000ADFF8F2
:105230000CB27AE6824800F01FFD82468B4674E687
:10524000A8EB0903002F08BF2F460A98102D2C4603
:105250000993A8BF1024FBF779F9092D82468B46E4
:1052600011DC099B002B3FF460AE099B76DD162B09
:105270005DDC7449524601EBC3015B46D1E9000194
:10528000FBF7DEF9D9E76F4B03EBC40353E91223B5
:10529000FBF7D6F9824608988B46FBF757F902468A
:1052A0000B4650465946FBF715F80F2D82468B46A4
:1052B000D7DD099B2C1B1C44002C40F3968014F076
:1052C0000F030AD05F49524601EBC301D1E9000147
:1052D0005B46FBF7B5F982468B4634F00F0473D07A
:1052E000B4F59A7F48DD0024A046A1460A94222303
:1052F0004FF0000A059ADFF844B113600A9B002BB7
:105300003FF413AE1A99059802F052F949460598F0
:1053100002F04EF94146059802F04AF90A990598BB
:1053200002F046F92146059802F042F9FDE5099A96
:10533000C5F125039342BCDB424CC5F10F0504EBDC
:10534000C5015246D1E900015B46FBF779F9099B9B
:105350005D1B04EBC504D4E9002391E71633A8DBF9
:10536000384BA9EB080803EBC8085046D8E90023DE
:105370005946FBF78FFA60E7334B504608930023FA
:1053800059461E462411012C21DC0BB182468B4666
:105390002D49ABF1547B01EBC6015246D1E9000126
:1053A0005B46FBF74DF9254B0A460B4027498246E1
:1053B0008B4298D8A1F580118B4286BF4FF0FF3AFF
:1053C000DFF88CB002F1547B002308937AE0E20707
:1053D00005D5089BD3E90023FBF732F90123089A8E
:1053E0000136083264100892CDE7EDD0644214F023
:1053F0000F020AD0134B504603EBC2035946D3E9C0
:105400000023FBF747FA82468B462411DCD01F2C81
:1054100020DD0024A046A1460A942223059A4FF0DD
:10542000000A4FF0000B136068E700BF57870008C1
:10543000888700084F870008E48800080000F07F94
:10544000738B0008708A0008488A00080000A07C5E
:10545000FFFFEF7F14F0100318BF6A235046089334
:1054600059460023A94EE20704D5D6E90023FBF7ED
:10547000E7F80123641006F10806F4D10BB1824667
:105480008B46089BB3B1CBF30A52C2F16B03002BDE
:1054900059460FDD1F2B57DD342BD8BF4FF0FF339C
:1054A0004FF0000ACFBF4FF05C7BC2F14B0293403C
:1054B00003EA010B0022002350465946FBF728FB64
:1054C0000028A6D10A9B3A4600930C992B460598D2
:1054D00002F0D6F80A9000283FF405AF0024099A9C
:1054E000A9EB0803002AA8BF0023A046129322EAD2
:1054F000E27316930A9B0598596802F019F88146E1
:1055000000283FF4F4AE0A9B0C301A6903F10C0139
:105510000232920000F0A1FB1CAB01931BAB009385
:1055200052465B460598CDE90CAB02F0DBFB1A90C6
:1055300000283FF4DCAE0121059802F037F98046DF
:1055400048B94FF00008D2E64FF0FF3202FA03F3F9
:1055500003EA0A0AAEE71B9D1C9A002DABBF129B03
:10556000169BEF185E1B089BA8BF169EA5EB0305B4
:105570001544674B05F1FF35B8BF129F9D42C2F13C
:10558000360250DA5B1B1F2B4FF00101A2EB030226
:105590003DDC01FA03F3139300231093BD18089B1D
:1055A000AF4216441E443B46A8BF2B46B342A8BF99
:1055B0003346002BC2BFED1AF61AFF1A129B002BBE
:1055C00016DD41461A46059802F0AEF980460028DD
:1055D000B7D001461A9A059802F0FEF80E900028FE
:1055E0003FF485AE1A99059801F0E2FF0E9B1A93DD
:1055F000002D1DDC099B002B23DD4946169A0598DA
:1056000002F092F98146E0B94FF000096FE6C5F16A
:105610007F4505F57F0505F57B45E23501FA05F384
:1056200010931391BAE70023109301231393B5E766
:105630002A461A99059802F0D1F91A900028D9D172
:1056400055E6002E07DD49463246059802F0C6F9B8
:1056500081460028D8D0002F08DD41463A460598FB
:1056600002F0BCF9804600283FF441AE4A461A9940
:10567000059802F03BFA044600283FF438AEC368B0
:1056800041460F930023C36002F014FA002845DA64
:105690000F9B53EA0A036BD1CBF31303002B67D1A3
:1056A0002BF000431B0D1B05B3F1D66F60D9636966
:1056B00013B92369012B5BDD21460122059802F015
:1056C0008DF94146044602F0F5F9002850DD2BF033
:1056D0000043089A1B0D1B05002A6AD0B3F1D66F50
:1056E00067D8B3F15C7F7FF698AE50465946094BB8
:1056F0000022FAF7A5FF084B82460B408B46002B91
:105700007FF400AE2223059A1360FBE5B087000802
:1057100002FCFFFF000050390000F07FCDF838B0E8
:1057200065D10F9ACBF313035AB3994A93422BD105
:10573000089B514603B35A46964B1340B3F1D46FBE
:105740004FF0FF321BD81B0DC3F16B0302FA03F3BA
:10575000994219D1904B0E9A9A4202D101313FF4ED
:10576000C6AD4FF0000A8B4B0E9A1A4002F5801B13
:10577000089B002BB9D1C5E54FF0FF33E8E713468E
:10578000E6E753EA0A03A2D0109BDBB10E9A13425C
:10579000EED00F9B50465946089ABBB1FFF768FB05
:1057A00002460B46DDE90C01FAF794FD82468B4672
:1057B000DEE7A3F580136FEA135B4FF0FF3A6FEA61
:1057C0000B5BD5E7139B13EA0A0FE1E7FFF750FBEA
:1057D00002460B46DDE90C01FAF77AFD00220023B0
:1057E00082468B46FBF794F90028C1D015E6414666
:1057F000204602F0CFFA00224FF0804306460F46C3
:10580000FBF79AF900286DD00F9B002B78D1BAF1E5
:10581000000F56D10E9BC3F31303002B58D1002267
:10582000304639465D4BFBF77DF9002857D13046AD
:10583000394600225A4BFAF703FF06460F4607F196
:10584000004306960793DDE90623524DCDE9102368
:105850000E9B1D40534B9D4240F0AA800E9B50462C
:10586000A3F1547B594602F0D5F9DDE90623FAF796
:10587000E7FE52465B46FAF72DFD0B4645494A4A7C
:1058800019409142824642D90D9A434B9A4203D124
:105890000C9B01333FF42BAD4FF0FF3ADFF8F8B02B
:1058A0001A99059801F084FE4946059801F080FE9A
:1058B0004146059801F07CFE2146059801F078FEEE
:1058C00018E6BAF1010F03D10E9B002B3FF4A5ADF2
:1058D0000022364B0026CDE90623304FB3E70026E1
:1058E0002F4FACE7304639462D4B0022FAF7A8FE81
:1058F0000F9B06460F46002BA1D0CDE90667A2E715
:105900000022264B16461F46CDE906239BE703F1EE
:10591000547B089BCDF838B0002BC1D12BF000434D
:105920001B0D1B059D42BBD130463946FBF746FA9D
:10593000FAF758FE02460B4630463946FAF7C8FCDD
:105940000B460246CBF31306CDE90C230F9B46EA28
:105950000A061E4369D00AA3D3E90023FBF7E2F845
:1059600000287FF4CFAC08A3D3E90023DDE90C01C4
:10597000FBF7F6F8002893D0C4E400BFAFF3008033
:105980009535A094FFFFDF3F35E5AF350000E03FE0
:10599000FFFF0F000000F07FFFFFEF7F0000F03FF0
:1059A0000000E03F0000E07FFFFF9F7C0000F0BFB1
:1059B000089B23B3B5F1D46F21D827A3D3E90023E3
:1059C00030463946FBF7B8F8A0B139463046FBF708
:1059D0000FF9012838BF0120FAF7B8FD0F9B0646E2
:1059E0000F46FBB901F1004314901593DDE9142330
:1059F000CDE91023119B03F1D6635B1B1193DDE905
:105A00000C01DDE910AB02F005F902460B465046E9
:105A10005946FAF715FEDDE90C23FAF75BFC8246DE
:105A20008B4676E7CDE91467E0E70DA3D3E90023C1
:105A3000FBF778F89EE700230B93199B179A1360E6
:105A4000FFF777BA652A3FF46EAB452A3FF46BAB9C
:105A50000123FFF7A6BB00BF0000C0FFFFFFDF412F
:105A60009535A094FFFFCF3F014BFFF725BA00BF4C
:105A70001C000020242B2DE9F0478646904601D8D3
:105A8000012B06D100F0AEF8162303600020BDE81C
:105A9000F0870D4633482A4615F8014B065D16F08F
:105AA0000806F8D12D2C2DD101262C78951C33F029
:105AB000100209D1302C2AD12A7802F0DF02582AAC
:105AC00025D110236C780235002206F1004C0CF130
:105AD000FF3CBCFBF3F9104603FB19CAA4F13007E5
