:020000040800F2
:1000000000500020A1140008090F0008110F00087B
:10001000190F0008210F0008290F00080000000038
:10002000000000000000000000000000310F000888
:100030003D0F000800000000490F0008550F0008A0
:10004000E9140008E9140008E9140008E91400089C
:10005000E9140008E9140008E9140008E91400088C
:10006000E9140008E9140008E9140008E91400087C
:10007000E9140008E9140008E9140008E91400086C
:10008000E9140008E9140008E9140008E91400085C
:10009000E9140008E9140008E9140008E91400084C
:1000A000E9140008E9140008E9140008E91400083C
:1000B000E9140008E9140008E9140008E91400082C
:1000C000E9140008E9140008E9140008E91400081C
:1000D000E9140008E9140008E9140008E91400080C
:1000E000E9140008E9140008E91400080000000001
:1000F0000000000000000000000000000000000000
:0C01000000000000000000005FF808F1A3
:1001100010B5054C237833B9044B13B10448AFF341
:1001200000800123237010BDD401002000000000D6
:100130008478000808B5034B1BB103490348AFF3AB
:10014000008008BD00000000D8010020847800086D
:10015000034613F8012B002AFBD1181A0138704707
:1001600081F0004102E000BF83F0004330B54FEA68
:1001700041044FEA430594EA050F08BF90EA020FD5
:100180001FBF54EA000C55EA020C7FEA645C7FEA68
:10019000655C00F0E2804FEA5454D4EB5555B8BF8B
:1001A0006D420CDD2C4480EA020281EA030382EAFC
:1001B000000083EA010180EA020281EA0303362D8E
:1001C00088BF30BD11F0004F4FEA01314FF4801C61
:1001D0004CEA113102D0404261EB410113F0004F73
:1001E0004FEA03334CEA133302D0524263EB43032A
:1001F00094EA050F00F0A780A4F10104D5F1200EC8
:100200000DDB02FA0EFC22FA05F2801841F1000122
:1002100003FA0EF2801843FA05F359410EE0A5F1F6
:1002200020050EF1200E012A03FA0EFC28BF4CF027
:10023000020C43FA05F3C01851EBE37101F00045DD
:1002400007D54FF0000EDCF1000C7EEB00006EEBEA
:100250000101B1F5801F1BD3B1F5001F0CD3490874
:100260005FEA30004FEA3C0C04F101044FEA4452CB
:1002700012F5800F80F09A80BCF1004F08BF5FEA52
:10028000500C50F1000041EB045141EA050130BD32
:100290005FEA4C0C404141EB0101013C28BFB1F544
:1002A000801FE9D291F0000F04BF01460020B1FA8F
:1002B00081F308BF2033A3F10B03B3F120020CDA62
:1002C0000C3208DD02F1140CC2F10C0201FA0CF040
:1002D00021FA02F10CE002F11402D8BFC2F1200CA5
:1002E00001FA02F120FA0CFCDCBF41EA0C0190405B
:1002F000E41AA2BF01EB0451294330BD6FEA0404A4
:100300001F3C1CDA0C340EDC04F11404C4F120028E
:1003100020FA04F001FA02F340EA030021FA04F3A0
:1003200045EA030130BDC4F10C04C4F1200220FAF7
:1003300002F001FA04F340EA0300294630BD21FA35
:1003400004F0294630BD94F0000F83F4801306BFFB
:1003500081F480110134013D4EE77FEA645C18BFEF
:100360007FEA655C29D094EA050F08BF90EA020F86
:1003700005D054EA000C04BF1946104630BD91EA7E
:10038000030F1EBF0021002030BD5FEA545C05D181
:100390004000494128BF41F0004130BD14F58004C0
:1003A0003CBF01F5801130BD01F0004545F0FE4134
:1003B00041F470014FF0000030BD7FEA645C1ABF69
:1003C000194610467FEA655C1CBF0B46024650EAA0
:1003D000013406BF52EA033591EA030F41F40021CC
:1003E00030BD00BF90F0000F04BF0021704730B552
:1003F0004FF4806404F132044FF000054FF0000127
:1004000050E700BF90F0000F04BF0021704730B5E7
:100410004FF4806404F1320410F0004548BF4042BC
:100420004FF000013EE700BF42004FEAE2014FEA11
:1004300031014FEA02701FBF12F07F4393F07F4FEC
:1004400081F06051704732F07F4208BF704793F0EF
:100450007F4F04BF41F40021704730B54FF4607402
:1004600001F0004521F000411CE700BF50EA010205
:1004700008BF704730B54FF000050AE050EA0102AE
:1004800008BF704730B511F0004502D5404261EB1E
:1004900041014FF4806404F132045FEA915C3FF45F
:1004A000D8AE4FF003025FEADC0C18BF03325FEAFC
:1004B000DC0C18BF033202EBDC02C2F1200300FAAD
:1004C00003FC20FA02F001FA03FE40EA0E0021FAD2
:1004D00002F11444BDE600BF70B54FF0FF0C4CF4C0
:1004E000E06C1CEA11541DBF1CEA135594EA0C0F72
:1004F00095EA0C0F00F0DEF82C4481EA030621EAAD
:100500004C5123EA4C5350EA013518BF52EA0335E7
:1005100041F4801143F4801338D0A0FB02CE4FF099
:100520000005E1FB02E506F00042E0FB03E54FF0C9
:100530000006E1FB03569CF0000F18BF4EF0010EC1
:10054000A4F1FF04B6F5007F64F5407404D25FEABD
:100550004E0E6D4146EB060642EAC62141EA555170
:100560004FEAC52040EA5E504FEACE2EB4F1FD0CB2
:1005700088BFBCF5E06F1ED8BEF1004F08BF5FEA30
:10058000500E50F1000041EB045170BD06F00046E2
:1005900046EA010140EA020081EA0301B4EB5C048F
:1005A000C2BFD4EB0C0541EA045170BD41F4801187
:1005B0004FF0000E013C00F3AB8014F1360FDEBFAC
:1005C000002001F0004170BDC4F10004203C35DA88
:1005D0000C341BDC04F11404C4F1200500FA05F30B
:1005E00020FA04F001FA05F240EA020001F00042AC
:1005F00021F0004110EBD37021FA04F642EB060122
:100600005EEA430E08BF20EAD37070BDC4F10C044B
:10061000C4F1200500FA04F320FA05F001FA04F20F
:1006200040EA020001F0004110EBD37041F10001FB
:100630005EEA430E08BF20EAD37070BDC4F1200506
:1006400000FA05F24EEA020E20FA04F301FA05F26E
:1006500043EA020321FA04F001F0004121FA04F216
:1006600020EA020000EBD3705EEA430E08BF20EAE6
:10067000D37070BD94F0000F0FD101F00046400020
:1006800041EB010111F4801F08BF013CF7D041EAA2
:10069000060195F0000F18BF704703F000465200A6
:1006A00043EB030313F4801F08BF013DF7D043EA77
:1006B0000603704794EA0C0F0CEA135518BF95EA2D
:1006C0000C0F0CD050EA410618BF52EA4306D1D1B4
:1006D00081EA030101F000414FF0000070BD50EAD3
:1006E000410606BF1046194652EA430619D094EA5D
:1006F0000C0F02D150EA013613D195EA0C0F05D147
:1007000052EA03361CBF104619460AD181EA03019A
:1007100001F0004141F0FE4141F470014FF0000052
:1007200070BD41F0FE4141F4780170BD70B54FF0ED
:10073000FF0C4CF4E06C1CEA11541DBF1CEA13556D
:1007400094EA0C0F95EA0C0F00F0A7F8A4EB05044F
:1007500081EA030E52EA03354FEA013100F0888046
:100760004FEA03334FF0805545EA131343EA12630F
:100770004FEA022245EA111545EA10654FEA0026C4
:100780000EF000419D4208BF964244F1FD0404F57D
:10079000407402D25B084FEA3202B61A65EB0305D9
:1007A0005B084FEA32024FF480104FF4002CB6EB96
:1007B000020E75EB030E22BFB61A754640EA0C0016
:1007C0005B084FEA3202B6EB020E75EB030E22BF56
:1007D000B61A754640EA5C005B084FEA3202B6EB97
:1007E000020E75EB030E22BFB61A754640EA9C0056
:1007F0005B084FEA3202B6EB020E75EB030E22BF26
:10080000B61A754640EADC0055EA060E18D04FEAE3
:10081000051545EA16754FEA06164FEAC30343EA83
:1008200052734FEAC2025FEA1C1CC0D111F4801F50
:100830000BD141EA00014FF000004FF0004CB6E749
:1008400011F4801F04BF01430020B4F1FD0C88BFE8
:10085000BCF5E06F3FF6AFAEB5EB030C04BFB6EBF3
:10086000020C5FEA500C50F1000041EB045170BDE6
:100870000EF0004E4EEA113114EB5C04C2BFD4EB13
:100880000C0541EA045170BD41F480114FF0000E97
:10089000013C90E645EA060E8DE60CEA135594EA13
:1008A0000C0F08BF95EA0C0F3FF43BAF94EA0C0F16
:1008B0000AD150EA01347FF434AF95EA0C0F7FF48B
:1008C00025AF104619462CE795EA0C0F06D152EADF
:1008D00003353FF4FDAE1046194622E750EA4106C3
:1008E00018BF52EA43067FF4C5AE50EA41047FF4D4
:1008F0000DAF52EA43057FF4EBAE12E74FF0FF3C39
:1009000006E000BF4FF0010C02E000BF4FF0010C09
:100910004DF804CD4FEA410C7FEA6C5C4FEA430C82
:1009200018BF7FEA6C5C1BD001B050EA410C0CBFD1
:1009300052EA430C91EA030F02BF90EA020F002033
:10094000704710F1000F91EA030F58BF994208BF9A
:1009500090422CBFD8176FEAE37040F00100704757
:100960004FEA410C7FEA6C5C02D150EA013C07D1AE
:100970004FEA430C7FEA6C5CD6D152EA033CD3D0F9
:100980005DF8040B704700BF8446104662468C46F3
:100990001946634600E000BF01B5FFF7B7FF002826
:1009A00048BF10F1000F01BD4DF808EDFFF7F4FF4F
:1009B0000CBF012000205DF808FB00BF4DF808EDDA
:1009C000FFF7EAFF34BF012000205DF808FB00BFFD
:1009D0004DF808EDFFF7E0FF94BF012000205DF81F
:1009E00008FB00BF4DF808EDFFF7CEFF94BF0120D4
:1009F00000205DF808FB00BF4DF808EDFFF7C4FFCD
:100A000034BF012000205DF808FB00BF4FEA410C15
:100A10007FEA6C5C02D150EA013C0AD14FEA430CF8
:100A20007FEA6C5C02D152EA033C02D14FF0000035
:100A300070474FF0010070474FEA410212F5001273
:100A400015D211D56FF47873B3EB625212D94FEA15
:100A5000C12343F0004343EA505311F0004F23FAFF
:100A600002F018BF404270474FF00000704750EA54
:100A7000013005D111F0004008BF6FF00040704711
:100A80004FF00000704700BF4A0011D212F500126B
:100A900011D20DD56FF47873B3EB62520ED44FEAD6
:100AA000C12343F0004343EA505323FA02F0704756
:100AB0004FF00000704750EA013002D14FF0FF3094
:100AC00070474FF0000070474FEA4102B2F1E04337
:100AD00024BFB3F5001CDCF1FE5C0DD901F0004C25
:100AE0004FEAC0024CEA5070B2F1004F40EB830075
:100AF00008BF20F00100704711F0804F21D113F1A1
:100B00003872BCBF01F00040704741F480114FEAD9
:100B10005252C2F11802C2F1200C10FA0CF320FA62
:100B200002F018BF40F001004FEAC1234FEAD3237F
:100B300003FA0CFC40EA0C0023FA02F34FEA4303E9
:100B4000CCE77FEA625307D150EA01331EBF4FF072
:100B5000FE4040F44000704701F0004040F0FE408D
:100B600040F40000704700BF38B50022002304465F
:100B70000D46FFF723FF28B920462946BDE8384037
:100B800000F00AB8204605F1004100F005F84042A7
:100B900061EB410138BD00BFD0B500220B4B0646CA
:100BA0000F46FFF799FCFFF76FFF0446FFF71AFCAB
:100BB0000022074BFFF790FC02460B4630463946B1
:100BC000FFF7D2FAFFF760FF2146D0BD0000F03DED
:100BD0000000F04180B584B000AF3B1D00221A60D8
:100BE0005A609A60184B194A1A60174B00229A6093
:100BF000154B00221A73144B00221A75124B4FF436
:100C00006022DA61104B00225A600F4B01221A61F8
:100C10000D4800F0F1FC0346002B01D000F03BF939
:100C200001237B600123BB600023FB603B1D194651
:100C3000054800F0B9FD0346002B01D000F02BF968
:100C400000BF1037BD4680BDF001002000240140E8
:100C500080B588B000AF786007F1100300221A60F9
:100C60005A609A60DA607B681B68144A934221D10B
:100C7000134B9B69124A43F400739361104B9B69B9
:100C800003F40073FB60FB680D4B9B690C4A43F057
:100C9000040393610A4B9B6903F00403BB60BB68C8
:100CA00062233B6103237B6107F11003194605486A
:100CB00000F098FF00BF2037BD4680BD00240140F2
:100CC000001002400008014080B588B000AF07F175
:100CD000100300221A605A609A60DA60294B9B69FF
:100CE000284A43F010039361264B9B6903F01003DD
:100CF000FB60FB68234B9B69224A43F0200393610E
:100D0000204B9B6903F02003BB60BB681D4B9B69B4
:100D10001C4A43F0040393611A4B9B6903F00403DC
:100D20007B607B68174B9B69164A43F0080393610D
:100D3000144B9B6903F008033B603B6800224FF4AF
:100D40000051114801F0D2F84FF400533B610123E8
:100D50007B610023BB610223FB6107F1100319468D
:100D6000094800F03FFF4FF480533B6103237B6150
:100D700007F110031946054800F034FF00BF203783
:100D8000BD4680BD0010024000100140000C014033
:100D900080B500AF00F0AAFB00F022F8FFF794FF47
:100DA00000F008FBFFF716FF00F0A2F900F022FAAE
:100DB00001224FF40051094801F098F84FF4FA70FD
:100DC00000F0F6FB00224FF40051044801F08EF8C9
:100DD0004FF4FA7000F0ECFB00BFE9E700100140AF
:100DE00080B594B000AF07F12803282200211846EF
:100DF00003F0CCFF07F1140300221A605A609A60D6
:100E0000DA601A613B1D00221A605A609A60DA604B
:100E10000123BB624FF48033FB6200233B63012359
:100E2000BB6302237B644FF48033BB644FF4E01355
:100E3000FB6407F12803184601F070F80346002B05
:100E400001D000F028F80F237B610223BB6100234F
:100E5000FB614FF480633B6200237B6207F1140364
:100E60000221184601F0DCFA0346002B01D000F005
:100E700012F802237B604FF40043FB603B1D1846D1
:100E800001F05CFC0346002B01D000F004F800BF29
:100E90005037BD4680BD80B400AF72B600BF00BF02
:100EA000FDE7000080B485B000AF154B9B69144A84
:100EB00043F001039361124B9B6903F00103BB6094
:100EC000BB680F4BDB690E4A43F08053D3610C4B78
:100ED000DB6903F080537B607B680A4B5B68FB60D7
:100EE000FB6823F0E063FB60FB6843F00073FB608A
:100EF000044AFB68536000BF1437BD4680BC70478E
:100F0000001002400000014080B400AF00BFFDE7C8
:100F100080B400AF00BFFDE780B400AF00BFFDE7C5
:100F200080B400AF00BFFDE780B400AF00BFFDE7B5
:100F300080B400AF00BFBD4680BC704780B400AF36
:100F400000BFBD4680BC704780B400AF00BFBD4647
:100F500080BC704780B500AF00F00EFB00BF80BDC5
:100F600080B400AF01231846BD4680BC704780B5F1
:100F700082B000AF7860396003F014FF0346162298
:100F80001A604FF0FF3318460837BD4680BD80B564
:100F900082B000AF78604FF0FF317868FFF7E7FF6D
:100FA00000BFFDE780B586B000AFF860B9607A6039
:100FB00000237B610AE0AFF300800146BB685A1C46
:100FC000BA60CAB21A707B6901337B617A697B6847
:100FD0009A42F0DB7B6818461837BD4680BD80B565
:100FE00086B000AFF860B9607A6000237B6109E0E9
:100FF000BB685A1CBA601B781846AFF300807B6947
:1010000001337B617A697B689A42F1DB7B68184621
:101010001837BD4680BD80B483B000AF78604FF014
:10102000FF3318460C37BD4680BC704780B483B090
:1010300000AF786039603B684FF400525A6000237B
:1010400018460C37BD4680BC704780B483B000AFF3
:101050007860012318460C37BD4680BC704780B4C9
:1010600085B000AFF860B9607A6000231846143785
:10107000BD4680BC7047000080B586B000AF786088
:10108000144A154BD31A7B617B693B61134B1B6878
:10109000002B02D1114B124A1A60104B1A687B6860
:1010A00013443A699A4207D203F07CFE03460C22AD
:1010B0001A604FF0FF3309E0084B1B68FB60074BD9
:1010C0001A687B681344054A1360FB681846183792
:1010D000BD4680BD0050002000040000200200201A
:1010E0005004002080B400AF00BFBD4680BC7047F4
:1010F00080B592B000AF07F1400300221A605A6039
:1011000007F1240300221A605A609A60DA601A61BB
:101110005A619A613B1D20220021184603F036FED9
:10112000324B334A1A60314B04225A602F4B002253
:101130009A602E4BFF22DA602C4B00221A612B4B57
:1011400000225A61294B00229A61284801F0ACFB29
:101150000346002B01D0FFF79EFE00233B640023D3
:101160007B6407F140031946204801F0A5FE0346C1
:10117000002B01D0FFF78FFE60237B620023BB6250
:101180000023FB6200233B6300237B630023BB63DC
:101190000023FB6307F1240300221946134801F0E2
:1011A000D3FB0346002B01D0FFF775FE00237B60C5
:1011B0000023BB600023FB6000233B6100237B61B5
:1011C0004FF40053BB6100233B623B1D19460748A7
:1011D00001F0D0FE0346002B01D0FFF75CFE034870
:1011E00000F092F800BF4837BD4680BD24020020C1
:1011F000002C014080B58AB000AF07F12003002227
:101200001A605A603B1D00221A605A609A60DA60C8
:101210001A615A619A61214B214A1A601F4B0422BC
:101220005A601E4B00229A601C4BFF22DA601B4B57
:1012300000221A61194B00229A61184801F034FB10
:101240000346002B01D0FFF726FE00233B6200235C
:101250007B6207F120031946104801F02DFE03467A
:10126000002B01D0FFF717FE60237B600023BB60DB
:101270000023FB6000237B613B1D0C2219460748BD
:1012800001F062FB0346002B01D0FFF704FE034888
:1012900000F03AF800BF2837BD4680BD6C02002040
:1012A0000004004080B485B000AF78607B681B68A4
:1012B000124A93420CD1124B9B69114A43F40063CA
:1012C00093610F4B9B6903F40063FB60FB6810E0C4
:1012D0007B681B680B4A93420BD1094BDB69084AB8
:1012E00043F00203D361064BDB6903F00203BB60EA
:1012F000BB6800BF1437BD4680BC7047002C01405E
:10130000001002400004004080B588B000AF786053
:1013100007F1100300221A605A609A60DA607B6855
:101320001B681F4A934219D11E4B9B691D4A43F00B
:10133000040393611B4B9B6903F00403FB60FB6890
:101340004FF480733B6102237B610223FB6107F151
:1013500010031946144800F045FC1CE07B681B682C
:10136000124A934217D10F4B9B690E4A43F0080370
:1013700093610C4B9B6903F00803BB60BB680223BD
:101380003B6102237B610223FB6107F110031946D5
:10139000074800F027FC00BF2037BD4680BD00BFD6
:1013A000002C0140001002400008014000040040F1
:1013B000000C014080B500AF114B124A1A60104B6F
:1013C0004FF416525A600E4B00229A600C4B0022CA
:1013D000DA600B4B00221A61094B0C225A61084B50
:1013E00000229A61064B0022DA61054801F013FEE3
:1013F0000346002B01D0FFF74EFD00BF80BD00BFAC
:10140000B40200200038014080B588B000AF786099
:1014100007F1100300221A605A609A60DA607B6854
:101420001B681C4A934231D11B4B9B691A4A43F4F7
:1014300080439361184B9B6903F48043FB60FB6816
:10144000154B9B69144A43F004039361124B9B694B
:1014500003F00403BB60BB684FF400733B610223DD
:101460007B610323FB6107F1100319460B4800F071
:10147000B9FB4FF480633B6100237B610023BB61B8
:1014800007F110031946054800F0ACFB00BF2037F8
:10149000BD4680BD003801400010024000080140F8
:1014A000FFF720FE0B480C490C4A002302E0D458F9
:1014B000C4500433C4188C42F9D3094A094C0023A0
:1014C00001E013600432A242FBD303F071FCFFF78A
:1014D0005FFC704700000020D4010020047D00085C
:1014E000D40100204C040020FEE7000080B500AFCE
:1014F000084B1B68074A43F010031360032000F0F9
:101500003DFB0F2000F008F8FFF7CCFC0023184645
:1015100080BD00BF0020024080B582B000AF78607F
:10152000124B1A68124B1B7819464FF47A73B3FBAF
:10153000F1F3B2FBF3F3184600F047FB0346002B30
:1015400001D001230EE07B680F2B0AD800227968B6
:101550004FF0FF3000F01DFB064A7B68136000234C
:1015600000E0012318460837BD4680BD000000207A
:10157000080000200400002080B400AF054B1B7859
:101580001A46054B1B681344034A136000BFBD464F
:1015900080BC704708000020FC02002080B400AF2F
:1015A000024B1B681846BD4680BC7047FC020020F9
:1015B00080B584B000AF7860FFF7F0FFB8607B685B
:1015C000FB60FB68B3F1FF3F05D00A4B1B781A465E
:1015D000FB681344FB6000BFFFF7E0FF0246BB68F7
:1015E000D31AFA689A42F7D800BF00BF1037BD4639
:1015F00080BD00BF0800002080B586B000AF7860D5
:101600000023FB7500233B610023BB600023FB60CC
:101610007B68002B01D10123BEE07B689B68002B17
:101620007B689B6A002B09D17B680022DA627B68A9
:10163000002283F824207868FFF70AFB786800F01E
:10164000ABF90346FB757B689B6A03F01003002B24
:1016500040F09980FB7D002B40F095807B689B6A71
:1016600023F4885323F0020343F002027B689A625A
:101670007B685A687B68DB691A437B681B7B5B006D
:101680001343BA681343BB607B689B68B3F5807FE4
:1016900003D07B689B68012B02D14FF4807300E07C
:1016A00000233A6913433B617B681B7D012B19D1F1
:1016B0007B681B7B002B09D17B689B69013B5A032C
:1016C0003B69134343F400633B610BE07B689B6A17
:1016D00043F020027B689A627B68DB6A43F0010278
:1016E0007B68DA627B681B685B6823F469417B680E
:1016F0001B683A690A435A607B681B689A68284BE2
:1017000013407A681268B9680B4393607B689B68E2
:10171000B3F5807F03D07B689B68012B04D17B6885
:101720001B69013B1B05FB607B681B68DB6A23F4BC
:1017300070017B681B68FA680A43DA627B681B6881
:101740009A68184B1340BA689A420BD17B68002202
:10175000DA627B689B6A23F0030343F001027B6833
:101760009A6218E07B689B6A23F0120343F0100230
:101770007B689A627B68DB6A43F001027B68DA620D
:101780000123FB7507E07B689B6A43F010027B68CE
:101790009A620123FB75FB7D18461837BD4680BD54
:1017A000FDF7E1FFFE0E1FFF80B485B000AF78604B
:1017B00039600023FB730023BB607B6893F82430FF
:1017C000012B01D10223DCE07B68012283F8242075
:1017D0003B685B68062B1CD87B681B68596B3B68B1
:1017E0005A6813469B001344053B1F2202FA03F379
:1017F000DB4319403B6818683B685A6813469B00F6
:101800001344053B00FA03F27B681B680A435A63E2
:101810003CE03B685B680C2B1CD87B681B68196B31
:101820003B685A6813469B001344233B1F2202FA6D
:1018300003F3DB4319403B6818683B685A6813465A
:101840009B001344233B00FA03F27B681B680A43A6
:101850001A631BE07B681B68D96A3B685A681346A9
:101860009B001344413B1F2202FA03F3DB43194060
:101870003B6818683B685A6813469B001344413B19
:1018800000FA03F27B681B680A43DA623B681B6854
:10189000092B1CD97B681B68D9683B681A681346FA
:1018A0005B0013441E3B072202FA03F3DB4319409B
:1018B0003B6898683B681A6813465B0013441E3BFC
:1018C00000FA03F27B681B680A43DA6019E07B6860
:1018D0001B6819693B681A6813465B0013440722AA
:1018E00002FA03F3DB4319403B6898683B681A68C7
:1018F00013465B00134400FA03F27B681B680A433B
:101900001A613B681B68102B03D03B681B68112BC6
:1019100032D17B681B681D4A934225D17B681B68C6
:101920009B6803F40003002B26D17B681B689A6830
:101930007B681B6842F400029A603B681B68102BAE
:101940001AD1134B1B68134AA2FB03239A0C1346AC
:101950009B0013445B00BB6002E0BB68013BBB60C3
:10196000BB68002BF9D107E07B689B6A43F020023B
:101970007B689A620123FB737B68002283F8242032
:10198000FB7B18461437BD4680BC704700240140DD
:101990000000002083DE1B4380B584B000AF786078
:1019A0000023FB607B681B689B6803F00103012B2D
:1019B0002ED17B681B689A687B681B6822F0010245
:1019C0009A60FFF7EBFDF8601BE0FFF7E7FD0246CA
:1019D000FB68D31A022B14D97B681B689B6803F041
:1019E0000103012B0DD17B689B6A43F010027B68D9
:1019F0009A627B68DB6A43F001027B68DA6201234A
:101A000007E07B681B689B6803F00103012BDCD0B7
:101A1000002318461037BD4680BD000080B485B055
:101A200000AF78607B6803F00703FB600C4BDB685A
:101A3000BB60BA684FF6FF031340BB60FB681A0235
:101A4000BB68134343F0BF6343F40033BB60044AF5
:101A5000BB68D36000BF1437BD4680BC704700BF71
:101A600000ED00E080B400AF044BDB681B0A03F01C
:101A700007031846BD4680BC704700BF00ED00E07C
:101A800080B483B000AF03463960FB7197F907302B
:101A9000002B0ADB3B68DAB20C4997F907301201D8
:101AA000D2B20B4483F800230AE03B68DAB208495B
:101AB000FB7903F00F03043B1201D2B20B441A76F8
:101AC00000BF0C37BD4680BC704700BF00E100E09E
:101AD00000ED00E080B489B000AFF860B9607A60D2
:101AE000FB6803F00703FB61FB69C3F10703042BE9
:101AF00028BF0423BB61FB690433062B02D9FB69B1
:101B0000033B00E000237B614FF0FF32BB6902FA28
:101B100003F3DA43BB681A407B699A404FF0FF3108
:101B20007B6901FA03F3D9437B680B4013431846E2
:101B30002437BD4680BC704780B582B000AF786066
:101B40007B68013BB3F1807F01D301230FE00A4A98
:101B50007B68013B53600F214FF0FF30FFF790FF90
:101B6000054B00229A60044B07221A600023184696
:101B70000837BD4680BD00BF10E000E080B582B0F0
:101B800000AF78607868FFF749FF00BF0837BD46AF
:101B900080BD80B586B000AF0346B9607A60FB7344
:101BA00000237B61FFF75EFF78617A68B968786926
:101BB000FFF790FF024697F90F3011461846FFF7DE
:101BC0005FFF00BF1837BD4680BD80B582B000AF53
:101BD00078607868FFF7B0FF034618460837BD46BF
:101BE00080BD000080B48BB000AF78603960002306
:101BF0007B6200233B6269E101227B6A02FA03F304
:101C0000FB613B681B68FA691340BB61BA69FB69F9
:101C10009A4240F058813B685B689A4A93425ED092
:101C2000984A934275D8984A934258D0964A93421C
:101C30006FD8964A934252D0944A934269D8944AB4
:101C400093424CD0924A934263D8924A934246D0F0
:101C5000904A93425DD8122B2AD8122B59D801A250
:101C600052F823F0DF1C0008B91C0008CB1C000848
:101C70000D1D0008131D0008131D0008131D00088A
:101C8000131D0008131D0008131D0008131D000874
:101C9000131D0008131D0008131D0008131D000864
:101CA000131D0008131D0008C11C0008D51C0008E6
:101CB000794A934213D02CE03B68DB683B6229E011
:101CC0003B68DB6804333B6224E03B68DB68083335
:101CD0003B621FE03B68DB680C333B621AE03B6809
:101CE0009B68002B02D104233B6213E03B689B6896
:101CF000012B05D108233B627B68FA691A6109E070
:101D000008233B627B68FA695A6103E000233B6267
:101D100000E000BFBB69FF2B01D87B6801E07B6856
:101D200004337B61BB69FF2B02D87B6A9B0002E016
:101D30007B6A083B9B003B617B691A680F213B690A
:101D400001FA03F3DB431A40396A3B6901FA03F3F2
:101D50001A437B691A603B685B6803F08053002B71
:101D600000F0B1804D4B9B694C4A43F001039361F5
:101D70004A4B9B6903F00103BB60BB68484A7B6A1E
:101D80009B08023352F82330FB607B6A03F00303A5
:101D90009B000F2202FA03F3DB43FA681340FB6057
:101DA0007B68404A934213D07B683F4A93420DD0F0
:101DB0007B683E4A934207D07B683D4A934201D1FB
:101DC000032306E0042304E0022302E0012300E0F1
:101DD00000237A6A02F0030292009340FA681343E8
:101DE000FB602F497B6A9B080233FA6841F8232085
:101DF0003B685B6803F48013002B06D02D4B9A6878
:101E00002C49BB6913438B6006E02A4B9A68BB6977
:101E1000DB43284913408B603B685B6803F4001385
:101E2000002B06D0234BDA682249BB691343CB60F1
:101E300006E0204BDA68BB69DB431E491340CB60E8
:101E40003B685B6803F40033002B06D0194B5A68DB
:101E50001849BB6913434B6006E0164B5A68BB69CF
:101E6000DB43144913404B603B685B6803F48033E9
:101E7000002B21D00F4B1A680E49BB6913430B602E
:101E800021E000BF000032100000311000002210DD
:101E9000000021100000121000001110001002407C
:101EA0000000014000080140000C0140001001400A
:101EB00000140140000401400B4B1A68BB69DB436E
:101EC000094913400B607B6A01337B623B681A68E7
:101ED0007B6A22FA03F3002B7FF48EAE00BF00BFB3
:101EE0002C37BD4680BC70470004014080B483B0ED
:101EF00000AF78600B467B8013467B707B78002BAD
:101F000003D07A887B681A6103E07B881A047B68B7
:101F10001A6100BF0C37BD4680BC704780B586B0E3
:101F200000AF78607B68002B01D1012372E27B68EF
:101F30001B6803F00103002B00F08780924B5B6865
:101F400003F00C03042B0CD08F4B5B6803F00C03E5
:101F5000082B12D18C4B5B6803F48033B3F5803FC0
:101F60000BD1894B1B6803F40033002B6CD07B68CA
:101F70005B68002B68D101234CE27B685B68B3F59A
:101F8000803F06D1804B1B687F4A43F48033136047
:101F90002EE07B685B68002B0CD17B4B1B687A4A78
:101FA00023F480331360784B1B68774A23F4802333
:101FB00013601DE07B685B68B3F5A02F0CD1724BFA
:101FC0001B68714A43F4802313606F4B1B686E4A91
:101FD00043F4803313600BE06B4B1B686A4A23F4B5
:101FE00080331360684B1B68674A23F480231360B7
:101FF0007B685B68002B13D0FFF7D0FA386108E0EC
:10200000FFF7CCFA02463B69D31A642B01D90323AC
:1020100000E25D4B1B6803F40033002BF0D014E0AA
:10202000FFF7BCFA386108E0FFF7B8FA02463B69EF
:10203000D31A642B01D90323ECE1534B1B6803F43F
:102040000033002BF0D100E000BF7B681B6803F079
:102050000203002B63D04C4B5B6803F00C03002B96
:102060000BD0494B5B6803F00C03082B1CD1464B8B
:102070005B6803F48033002B16D1434B1B6803F0DD
:102080000203002B05D07B681B69012B01D00123C3
:10209000C0E13D4B1B6823F0F8027B685B69DB0005
:1020A000394913430B603AE07B681B69002B20D051
:1020B000364B01221A60FFF771FA386108E0FFF72A
:1020C0006DFA02463B69D31A022B01D90323A1E121
:1020D0002D4B1B6803F00203002BF0D02A4B1B682A
:1020E00023F0F8027B685B69DB00274913430B6030
:1020F00015E0264B00221A60FFF750FA386108E01D
:10210000FFF74CFA02463B69D31A022B01D903238D
:1021100080E11D4B1B6803F00203002BF0D17B68AC
:102120001B6803F00803002B3AD07B689B69002BE7
:1021300019D0174B01221A60FFF730FA386108E016
:10214000FFF72CFA02463B69D31A022B01D903236D
:1021500060E10D4B5B6A03F00203002BF0D001201D
:1021600000F0CEFA1CE00A4B00221A60FFF716FAC4
:1021700038610FE0FFF712FA02463B69D31A022BCF
:1021800008D9032346E100BF00100240000042428C
:1021900080044242924B5B6A03F00203002BE9D1B8
:1021A0007B681B6803F00403002B00F0A68000236B
:1021B000FB758B4BDB6903F08053002B0DD1884BF3
:1021C000DB69874A43F08053D361854BDB6903F0B9
:1021D0008053BB60BB680123FB75824B1B6803F413
:1021E0008073002B18D17F4B1B687E4A43F48073A9
:1021F0001360FFF7D3F9386108E0FFF7CFF9024623
:102200003B69D31A642B01D9032303E1754B1B6887
:1022100003F48073002BF0D07B68DB68012B06D1C0
:102220006F4B1B6A6E4A43F0010313622DE07B681B
:10223000DB68002B0CD16A4B1B6A694A23F001034F
:102240001362674B1B6A664A23F0040313621CE0A7
:102250007B68DB68052B0CD1614B1B6A604A43F03D
:10226000040313625E4B1B6A5D4A43F00103136271
:102270000BE05B4B1B6A5A4A23F001031362584B75
:102280001B6A574A23F0040313627B68DB68002B48
:1022900015D0FFF783F938610AE0FFF77FF90246AE
:1022A0003B69D31A41F28832934201D90323B1E04A
:1022B0004B4B1B6A03F00203002BEED014E0FFF738
:1022C0006DF938610AE0FFF769F902463B69D31AF4
:1022D00041F28832934201D903239BE0404B1B6AB1
:1022E00003F00203002BEED1FB7D012B05D13C4B0B
:1022F000DB693B4A23F08053D3617B68DB69002BA9
:1023000000F08780364B5B6803F00C03082B61D02C
:102310007B68DB69022B46D1334B00221A60FFF742
:102320003DF9386108E0FFF739F902463B69D31AF5
:10233000022B01D903236DE0294B1B6803F00073C6
:10234000002BF0D17B681B6AB3F5803F08D1244B8A
:102350005B6823F400327B689B68214913434B6020
:102360001F4B5B6823F474127B68196A7B685B6A95
:102370000B431B4913434B601B4B01221A60FFF7B1
:102380000DF9386108E0FFF709F902463B69D31AF5
:10239000022B01D903233DE0114B1B6803F00073AE
:1023A000002BF0D035E0104B00221A60FFF7F6F852
:1023B000386108E0FFF7F2F802463B69D31A022BB6
:1023C00001D9032326E0064B1B6803F00073002BA2
:1023D000F0D11EE07B68DB69012B07D1012319E0F6
:1023E0000010024000700040600042420B4B5B68EE
:1023F000FB60FB6803F480327B681B6A9A4206D15B
:10240000FB6803F470127B685B6A9A4201D0012377
:1024100000E0002318461837BD4680BD001002407A
:1024200080B584B000AF786039607B68002B01D143
:102430000123D0E06A4B1B6803F007033A689A4215
:1024400010D9674B1B6823F0070265493B681343AB
:102450000B60634B1B6803F007033A689A4201D094
:102460000123B8E07B681B6803F00203002B20D037
:102470007B681B6803F00403002B05D0594B5B6895
:10248000584A43F4E06353607B681B6803F0080319
:10249000002B05D0534B5B68524A43F460535360A2
:1024A000504B5B6823F0F0027B689B684D491343F7
:1024B0004B607B681B6803F00103002B40D07B68F6
:1024C0005B68012B07D1474B1B6803F40033002BDB
:1024D00015D101237FE07B685B68022B07D1414B5C
:1024E0001B6803F00073002B09D1012373E03D4BFF
:1024F0001B6803F00203002B01D101236BE0394B71
:102500005B6823F003027B685B68364913434B60CA
:10251000FFF744F8F8600AE0FFF740F80246FB686E
:10252000D31A41F28832934201D9032353E02D4B51
:102530005B6803F00C027B685B689B009A42EBD1FE
:10254000274B1B6803F007033A689A4210D2244BCA
:102550001B6823F0070222493B6813430B60204BA2
:102560001B6803F007033A689A4201D0012332E066
:102570007B681B6803F00403002B08D0194B5B68D1
:1025800023F4E0627B68DB68164913434B607B6889
:102590001B6803F00803002B09D0124B5B6823F47F
:1025A00060527B681B69DB000E4913434B6000F0EF
:1025B00021F802460B4B5B681B0903F00F030A4925
:1025C000CB5C22FA03F3094A1360094B1B681846D7
:1025D000FEF7A2FF002318461037BD4680BD00BF9E
:1025E0000020024000100240A078000800000020F7
:1025F0000400002080B487B000AF0023FB600023FC
:10260000BB6000237B6100237B6000233B611E4B8A
:102610005B68FB60FB6803F00C03042B02D0082B03
:1026200003D027E0194B3B6127E0FB689B0C03F0CC
:102630000F03174AD35C7B60FB6803F48033002BE5
:1026400010D0114B5B685B0C03F00103114AD35CA3
:10265000BB607B680D4A03FB02F2BB68B2FBF3F37D
:102660007B6104E07B680C4A02FB03F37B617B69BE
:102670003B6102E0054B3B6100BF3B6918461C37DC
:10268000BD4680BC704700BF0010024000127A00B7
:10269000B8780008C878000800093D0080B400AF91
:1026A000024B1B681846BD4680BC704700000020E6
:1026B00080B500AFFFF7F2FF0246054B5B681B0ACF
:1026C00003F007030349CB5C22FA03F3184680BDED
:1026D00000100240B078000880B500AFFFF7DEFFC1
:1026E0000246054B5B68DB0A03F007030349CB5C3A
:1026F00022FA03F3184680BD00100240B0780008AB
:1027000080B485B000AF78600A4B1B680A4AA2FB10
:1027100003235B0A7A6802FB03F3FB6000BFFB68DC
:102720005A1EFA60002BF9D100BF00BF1437BD4616
:1027300080BC704700000020D34D621080B586B089
:1027400000AF786000233B610023FB607B681B685F
:1027500003F00103002B7DD00023FB754F4BDB6999
:1027600003F08053002B0DD14C4BDB694B4A43F0F7
:102770008053D361494BDB6903F08053BB60BB6876
:102780000123FB75464B1B6803F48073002B18D1A3
:10279000434B1B68424A43F480731360FEF7FEFE0E
:1027A000386108E0FEF7FAFE02463B69D31A642B53
:1027B00001D903236DE03A4B1B6803F48073002BAF
:1027C000F0D0364B1B6A03F44073FB60FB68002BB0
:1027D0002ED07B685B6803F44073FA689A4227D076
:1027E0002E4B1B6A23F44073FB602E4B01221A60B0
:1027F0002C4B00221A60294AFB681362FB6803F025
:102800000103002B14D0FEF7C9FE38610AE0FEF781
:10281000C5FE02463B69D31A41F28832934201D980
:10282000032336E01D4B1B6A03F00203002BEED09E
:102830001A4B1B6A23F440727B685B681749134389
:102840000B62FB7D012B05D1144BDB69134A23F08E
:102850008053D3617B681B6803F00203002B08D010
:102860000E4B5B6823F440427B689B680B49134323
:102870004B607B681B6803F01003002B08D0074BEC
:102880005B6823F480027B68DB68044913434B6078
:10289000002318461837BD4680BD00BF0010024017
:1028A000007000404004424280B582B000AF7860C2
:1028B0007B68002B01D1012341E07B6893F83D3018
:1028C000DBB2002B06D17B68002283F83C207868BD
:1028D000FEF7E8FC7B68022283F83D207B681A68DB
:1028E0007B6804331946104600F0F0F87B6801223B
:1028F00083F846207B68012283F83E207B68012212
:1029000083F83F207B68012283F840207B68012206
:1029100083F841207B68012283F842207B680122F2
:1029200083F843207B68012283F844207B680122DE
:1029300083F845207B68012283F83D200023184658
:102940000837BD4680BD000080B586B000AFF86096
:10295000B9607A600023FB75FB6893F83C30012B6B
:1029600001D10223AEE0FB68012283F83C207B68A2
:102970000C2B00F29F8001A252F823F0B12900082D
:10298000B52A0008B52A0008B52A0008F129000870
:10299000B52A0008B52A0008B52A0008332A00081D
:1029A000B52A0008B52A0008B52A0008732A0008CD
:1029B000FB681B68B968184600F0F6F8FB681B68EE
:1029C0009A69FB681B6842F008029A61FB681B6801
:1029D0009A69FB681B6822F004029A61FB681B6815
:1029E0009969BB681A69FB681B680A439A6164E0CD
:1029F000FB681B68B968184600F03CF9FB681B6867
:102A00009A69FB681B6842F400629A61FB681B6864
:102A10009A69FB681B6822F480629A61FB681B68F4
:102A20009969BB681B691A02FB681B680A439A61B3
:102A300043E0FB681B68B968184600F085F9FB683D
:102A40001B68DA69FB681B6842F00802DA61FB6800
:102A50001B68DA69FB681B6822F00402DA61FB6814
:102A60001B68D969BB681A69FB681B680A43DA618D
:102A700023E0FB681B68B968184600F0CFF9FB68D3
:102A80001B68DA69FB681B6842F40062DA61FB6864
:102A90001B68DA69FB681B6822F48062DA61FB68F4
:102AA0001B68D969BB681B691A02FB681B680A436B
:102AB000DA6102E00123FB7500BFFB68002283F8A6
:102AC0003C20FB7D18461837BD4680BD80B485B0DC
:102AD00000AF786039607B681B68FB607B682F4AB9
:102AE00093420BD07B68B3F1804F07D07B682C4AB0
:102AF000934203D07B682B4A934208D1FB6823F0B2
:102B00007003FB603B685B68FA681343FB607B689B
:102B1000224A93420BD07B68B3F1804F07D07B6889
:102B20001F4A934203D07B681E4A934208D1FB6838
:102B300023F44073FB603B68DB68FA681343FB6077
:102B4000FB6823F080023B685B691343FB607B6892
:102B5000FA681A603B689A687B68DA623B681A68B0
:102B60007B689A627B680D4A934203D13B681A697D
:102B70007B681A637B6801225A617B681B6903F0DA
:102B80000103002B05D07B681B6923F001027B68E1
:102B90001A6100BF1437BD4680BC7047002C01404D
:102BA000000400400008004080B487B000AF7860A7
:102BB00039607B681B6A7B617B681B6A23F00102BA
:102BC0007B681A627B685B683B617B689B69FB6022
:102BD000FB6823F07003FB60FB6823F00303FB60DA
:102BE0003B681B68FA681343FB607B6923F00203B0
:102BF0007B613B689B687A6913437B617B681C4AF5
:102C000093420CD17B6923F008037B613B68DB684E
:102C10007A6913437B617B6923F004037B617B68E2
:102C2000134A934211D13B6923F480733B613B69A2
:102C300023F400733B613B685B693A6913433B6172
:102C40003B689B693A6913433B617B683A695A6008
:102C50007B68FA689A613B685A687B685A637B684C
:102C60007A691A6200BF1C37BD4680BC704700BF3E
:102C7000002C014080B487B000AF786039607B6879
:102C80001B6A7B617B681B6A23F010027B681A62F7
:102C90007B685B683B617B689B69FB60FB6823F436
:102CA000E043FB60FB6823F44073FB603B681B68F8
:102CB0001B02FA681343FB607B6923F020037B61EE
:102CC0003B689B681B017A6913437B617B681D4AE3
:102CD00093420DD17B6923F080037B613B68DB6805
:102CE0001B017A6913437B617B6923F040037B619D
:102CF0007B68144A934213D13B6923F480633B61A0
:102D00003B6923F400633B613B685B699B003A6964
:102D100013433B613B689B699B003A6913433B61EA
:102D20007B683A695A607B68FA689A613B685A68BE
:102D30007B689A637B687A691A6200BF1C37BD465C
:102D400080BC7047002C014080B487B000AF786031
:102D500039607B681B6A7B617B681B6A23F4807225
:102D60007B681A627B685B683B617B68DB69FB6040
:102D7000FB6823F07003FB60FB6823F00303FB6038
:102D80003B681B68FA681343FB607B6923F400739C
:102D90007B613B689B681B027A6913437B617B689C
:102DA0001D4A93420DD17B6923F400637B613B682C
:102DB000DB681B027A6913437B617B6923F48063C0
:102DC0007B617B68144A934213D13B6923F480539F
:102DD0003B613B6923F400533B613B685B691B012A
:102DE0003A6913433B613B689B691B013A69134392
:102DF0003B617B683A695A607B68FA68DA613B68D4
:102E00005A687B68DA637B687A691A6200BF1C378C
:102E1000BD4680BC704700BF002C014080B487B025
:102E200000AF786039607B681B6A3B617B681B6A16
:102E300023F480527B681A627B685B687B617B68E5
:102E4000DB69FB60FB6823F4E043FB60FB6823F471
:102E50004073FB603B681B681B02FA681343FB600E
:102E60003B6923F400533B613B689B681B033A6951
:102E700013433B617B680F4A934209D17B6923F47A
:102E800080437B613B685B699B017A6913437B618B
:102E90007B687A695A607B68FA68DA613B685A68CD
:102EA0007B681A647B683A691A6200BF1C37BD46AA
:102EB00080BC7047002C014080B485B000AF7860C2
:102EC00039607B6893F83C30012B01D1022346E046
:102ED0007B68012283F83C207B68022283F83D2036
:102EE0007B681B685B68FB607B681B689B68BB60DA
:102EF000FB6823F07003FB603B681B68FA681343B0
:102F0000FB607B681B68FA685A607B681B68164A1E
:102F100093420ED07B681B68B3F1804F09D07B6869
:102F20001B68124A934204D07B681B68104A934284
:102F30000CD1BB6823F08003BB603B685B68BA6858
:102F40001343BB607B681B68BA689A607B68012288
:102F500083F83D207B68002283F83C20002318463C
:102F60001437BD4680BC7047002C0140000400406F
:102F70000008004080B485B000AF7860396000235D
:102F8000FB607B6893F83C30012B01D102233DE0CC
:102F90007B68012283F83C20FB6823F0FF023B683A
:102FA000DB681343FB60FB6823F440723B689B685B
:102FB0001343FB60FB6823F480623B685B68134348
:102FC000FB60FB6823F400623B681B681343FB60F3
:102FD000FB6823F480523B681B691343FB60FB686A
:102FE00023F400523B685B691343FB60FB6823F4E6
:102FF00080423B68DB691343FB607B681B68FA68AF
:103000005A647B68002283F83C200023184614375A
:10301000BD4680BC704780B582B000AF78607B68E9
:10302000002B01D1012342E07B6893F84130DBB2F1
:10303000002B06D17B68002283F840207868FEF7D9
:10304000E3F97B68242283F841207B681B68DA68F7
:103050007B681B6822F40052DA60786800F02CF874
:103060007B681B681A697B681B6822F490421A61AE
:103070007B681B685A697B681B6822F02A025A61C8
:103080007B681B68DA687B681B6842F40052DA6070
:103090007B6800225A647B68202283F841207B6889
:1030A000202283F842207B6800225A6300231846BE
:1030B0000837BD4680BD000080B584B000AF7860A1
:1030C0007B681B681B6923F440517B68DA687B6866
:1030D0001B680A431A617B689A687B681B691A43FC
:1030E0007B685B691343BB607B681B68DB6823F408
:1030F000B05323F00C037A681268B9680B43D360AD
:103100007B681B685B6923F440717B689A697B6804
:103110001B680A435A617B681B682C4A934203D19F
:10312000FFF7DAFAF86002E0FFF7C2FAF860FA682F
:1031300013469B0013449A001A447B685B689B000B
:10314000B2FBF3F3224AA2FB03235B091901FA68DD
:1031500013469B0013449A001A447B685B689B00EB
:10316000B2FBF3F21A4BA3FB02035B09642000FBE2
:1031700003F3D31A1B013233154AA2FB03235B0965
:1031800003F0F0031944FA6813469B0013449A00B5
:103190001A447B685B689B00B2FBF3F20C4BA3FB09
:1031A00002035B09642000FB03F3D31A1B013233D3
:1031B000074AA2FB03235B0903F00F027B681B682D
:1031C0000A449A6000BF1037BD4680BD00380140F8
:1031D0001F85EB51002B2DE9F0471D46BBBF03F1C6
:1031E00000431D4600232D2388B01446B8BF144663
:1031F000129A109E1370149BDDF84CA023F0200847
:10320000B8F1460F05D0B8F1450F00D101360223C1
:1032100000E0032307AA049206AACDE902A2CDE9A1
:10322000003622462B4601F09BFEB8F1470F0746B9
:1032300019D1119BDB070ED500EB060900220023F4
:1032400020462946FDF7B0FB08B1CDF81C9030228E
:10325000079B4B451ED33846079B159ADB1B136013
:1032600008B0BDE8F087B8F1460F00EB0609E5D1DC
:103270000378302B0AD10022002320462946FDF78F
:1032800093FB18B9C6F10106CAF80060DAF80030FD
:103290009944D3E7591C07911A70D9E7F7B500296B
:1032A000B6BF2D232B23494209290270437029DD23
:1032B0000DF107031D460A27B1FBF7F61A4607FB77
:1032C0001614303402F8014C0C46632C314603F1DD
:1032D000FF33F1DC3031941E03F8011C2346411CFE
:1032E000AB420AD30DF109039B1AAC4288BF0023FD
:1032F00002330344181A03B0F0BD13F8016B01F850
:10330000016FEDE7302330318370C170031DF1E7A9
:103310002DE9F04F91B00C46DDF8688016461F4647
:10332000054601F03BFD036818460893FCF710FFC3
:1033300000230E93D8F800300990073323F00703D9
:1033400003F1080294F818A0D4F800B0C8F80020DF
:10335000D3E9008929F000430B93CDF828804FF082
:10336000FF32DDE90A01C4E912899C4BFDF74EFBEF
:1033700070BBDDE90A014FF0FF32984BFDF728FBE7
:1033800030BB0022002340464946FDF717FB10B131
:103390002D2384F84330924A924BBAF1470F94BFE1
:1033A0009046984603234FF0000923612BF0040355
:1033B000236033462146284600970FAA00F0D4F92F
:1033C000013040F090804FF0FF3011B0BDE8F08F39
:1033D00042464B4640464946FDF718FB48B14B462E
:1033E000002BB8BF2D23804AB8BF84F843307F4BF1
:1033F000D3E763680AF0DF015A1C3FD106236360FC
:1034000000224BF48063236006920EAACDE904A249
:103410000DAA03920DF13302CDE9013263684246F1
:10342000009328464B460A91FFF7D4FE0A9980463E
:1034300047290D9928D1C81C02DB6368994240DDF9
:10344000AAF1020A5FFA8AFA5246013904F15000E1
:103450000D91FFF723FF0E9A81461318012A23616D
:1034600002DC2268D20701D5013323619DF8333095
:10347000002B9ED02D2384F843309AE74729BFD1F3
:10348000002BBDD10123BAE7BAF1650FDCD9BAF13F
:10349000660F18D1002963680BDD216113B922681A
:1034A000D00702D501330B4423614FF00009A16519
:1034B000DCE713B92268D20701D50233F4E7012310
:1034C000F2E74FF0670A0E9B994205DB2368216102
:1034D000D807EAD54B1CE7E70029CCBF0122C1F190
:1034E00002021344E0E723685A0507D423694246E1
:1034F00031462846B84701302BD164E7BAF1650F51
:1035000040F2DC80D4E9120100220023FDF74CFADE
:10351000002833D0012331462846354AB8470130C8
:103520003FF451AFDDE90D38434502DB2368D8078E
:103530000FD5DDE9082331462846B84701303FF46E
:1035400042AF4FF0000908F1FF3804F11A0AC845EC
:1035500009DC23689B0700F10281E0680F9B984219
:10356000B8BF184631E70123524631462846B847CE
:1035700001303FF428AF09F10109E8E70D9B002B6A
:1035800038DC012331462846194AB84701303FF458
:103590001AAFDDE90D3959EA030302D12368D907CF
:1035A000D7D5DDE9082331462846B84701303FF436
:1035B0000AAF4FF0000A04F11A0B0D9B5B42534512
:1035C00001DC4B4693E701235A4631462846B8476B
:1035D00001303FF4F8AE0AF1010AEEE7FFFFEF7F9A
:1035E000CA780008CE780008D2780008D67800089B
:1035F000DA780008A36DDDF838A05345A8BF53461C
:10360000002B994636DC4FF0000B29EAE97904F1EA
:103610001A02A36D0A93A3EB09035B4531DC0D9BF2
:103620009A453ADC2368DA0737D40D9BAAEB0309E5
:103630000A9BAAEB03039945A8BF9946B9F1000F6D
:1036400033DC4FF0000829EAE97904F11A0B0D9BED
:10365000AAEB0303A3EB090343457FF77AAF0123EA
:103660005A4631462846B84701303FF4ACAE08F11F
:103670000108ECE7424631462846B8470130C2D13E
:10368000A1E60123314628460A92B84701303FF4AB
:103690009AAE0A9A0BF1010BBBE73146DDE908232C
:1036A0002846B8470130C0D18DE60A9A4B463146CC
:1036B00028464244B8470130C3D184E6DDF838A03B
:1036C000BAF1010F01DCDB0736D501234246314652
:1036D0002846B84701303FF476AEDDE9082331468D
:1036E0002846B84701303FF46EAED4E912010022FB
:1036F00000230AF1FF3AFDF757F9C0B9534608F124
:10370000010231462846B84701300CD15BE601235F
:103710005A4631462846B84701303FF454AE08F1C6
:103720000108D045F3DB4B4604F15002E0E64FF0D0
:10373000000804F11A0BF4E701234246E1E70123F4
:103740004A4631462846B84701303FF43CAE08F1BE
:103750000108E3680F995B1A4345F0DCFDE64FF082
:10376000000804F11909F4E72DE9F04716469846D8
:103770008A680B6907469342B8BF1346336091F8D5
:1037800043200C46DDF820900AB1013333602368F2
:10379000990642BF336802333360256815F0060589
:1037A00006D104F1190AE36832689B1AAB422BDC9C
:1037B00094F843302268003B18BF0123920630D4AE
:1037C0004146384604F14302C847013023D02368FC
:1037D000226903F00603042B14BF002533684FF061
:1037E000000608BFE56804F11A0408BFED1A54F892
:1037F000123C08BF25EAE5759342C4BF9B1AED1839
:10380000B5421AD1002008E001235246414638460D
:10381000C847013003D14FF0FF30BDE8F0870135D4
:10382000C1E73020E11881F843005A1C94F8451094
:103830002244023382F84310C2E701232246414664
:103840003846C8470130E6D00136D9E72DE9FF47B1
:103850000F7E9146782F80460C469A460C9E01F1C9
:10386000430207D8622F0AD8002F00F0D380582FC8
:1038700000F0BA8004F1420684F842703AE0A7F101
:103880006303152BF6D801A151F823F0E5380008A1
:10389000F9380008753800087538000875380008D0
:1038A00075380008F93800087538000875380008C0
:1038B0007538000875380008FB39000823390008FE
:1038C000B539000875380008753800081D3A000839
:1038D0007538000823390008753800087538000865
:1038E000BD39000833681A1D1B68326004F14206B6
:1038F00084F8423001239EE033682068191D31604E
:10390000060601D51D6803E04506FBD5B3F9005056
:10391000002D03DA2D236D4284F843300A235948E1
:1039200011E021683368080653F8045B02D44906A5
:1039300048BFADB26F2F336014BF0A23082351482C
:10394000002184F843106668002EA8BF2168A66095
:10395000A4BF21F0040121600DB9002E4BD0164602
:10396000B5FBF3F103FB1157C75D06F8017D2F4648
:10397000BB420D46F4D9082B0BD12368DF0708D5CD
:10398000236961689942DEBF302306F8013C06F1E5
:10399000FF36921B22614B4621464046CDF800A0DF
:1039A00003AAFFF7E1FE01304AD14FF0FF3004B027
:1039B000BDE8F087236843F020032360782732486E
:1039C00084F84570236831681F0651F8045B02D4FF
:1039D0005F0648BFADB23160D90744BF43F0200352
:1039E00023601DB11023ABE72648E9E7236823F0E5
:1039F00020032360F6E71646BDE733682568181DE7
:103A0000616930602E061B6801D5196002E0680606
:103A1000FBD51980002316462361BCE733680021DB
:103A20001A1D32601E686268304601F0E8F908B17C
:103A3000801B606063682361002384F84330AAE739
:103A40003246494640462369D0470130ADD023680D
:103A50009B0713D4E068039B9842B8BF1846A6E7BB
:103A60000123324649464046D04701309DD00135BA
:103A7000E36803995B1AAB42F2DCEBE7002504F143
:103A80001906F5E7DC780008ED7800082DE9F04F1D
:103A900087B003938B6817465A1EB2F5AE7F82BF7C
:103AA0006FF4AE7503EB050B40F25D130A464FF061
:103AB000000588BF8B600B68804643F4F06342F8D2
:103AC0001C3B0C4698BF4FF0000B1646AA46A94671
:103AD000CDE9045501920295A26852B13B681B786A
:103AE0004E2B65D8402B3DD8A3F12B01C8B20E2830
:103AF0003BD9B9F1000F03D0236823F4807323600E
:103B00000AF1FF3ABAF1010F00F21881019B9E42BF
:103B100000F20981012007B0BDE8F08FA3F1610236
:103B20000D2AE6D801A151F822F000BF733C00082D
:103B3000F33A0008F33A0008F33A0008D33C0008CF
:103B4000AB3C0008F33A0008F33A0008813C000857
:103B5000F33A0008F33A0008F33A0008F33A000891
:103B6000393C0008A3F14102DAE70E29C1D801A0CF
:103B700050F821F0293C0008F33A0008293C0008DD
:103B8000BF3C0008F33A0008D13B00080F3C000896
:103B90000F3C00080F3C00080F3C00080F3C0008D9
:103BA0000F3C00080F3C00080F3C00080F3C0008C9
:103BB0006E2B09D8602BB1D8542B7BD0592B98D1C0
:103BC000072D96D108252CE0742B73D0792BF6E7BE
:103BD0002168C8051BD521F08001216009F1010988
:103BE000BBF1000F03D001320BF1FF3BA260A368D1
:103BF000013BA3602369013323617B68013B002BF8
:103C00007B6040F387803B6801333B6064E71AEBDD
:103C100005017FF46EAF0D468A46226822F4C07219
:103C2000226006F8013BE2E7226810067FF561AFEB
:103C300022F080022260F4E7BAF1000F0ED1B9F150
:103C4000000F0ED1226802F4E061B1F5E06F08D1F7
:103C500022F4F0624FF0010A2260E2E7BAF1020FAB
:103C600055D0012D02D0042D7FF443AF0135EDB2C4
:103C7000D7E7BAF1010F7FF43CAF4FF0020AD0E76B
:103C80007DB9B9F1000F7FF437AF226802F4E0612B
:103C9000B1F5E06F40F0038122F4F062012522606B
:103CA000BFE7032DE2D0052DDEE7022D7FF421AF23
:103CB0000325B6E7062D7FF41CAF0725B1E7226880
:103CC00091057FF516AF22F420722260CDF808909E
:103CD000A7E7226802F4A061B1F5806F06D0500515
:103CE0007FF507AFB9F1000F00F0D980910558BFFB
:103CF000029922F4F06258BFA9EB010142F4C072AC
:103D00004FF0000958BFCDE90416226089E74FF053
:103D1000030A86E739464046D4F8803198470028A0
:103D20003FF4DAAEE5E6D4F87C313A46404616F880
:103D3000011D98472369013B2361E7E66B1E062BB3
:103D400024D8022D36D8019B9E427FF6E3AED4F8EC
:103D50007C313A46404616F8011D98472369013BDD
:103D60002361F0E7D4F87C313A4640461BF8011D48
:103D700098472369013B23610AF1FF3A5FFA8AFA07
:103D8000BAF1020FEED1033DEDB2761B2368DA05DE
:103D900030D55B0511D5019B9E427FF6BBAED4F8B2
:103DA0007C313A46404616F8011D98472369013B8D
:103DB0002361F0E7AA46B346DEE716F8011C236943
:103DC000652903F1FF3306F1FF3523610CD0452946
:103DD0000AD0D4F87C313A4640469847236916F811
:103DE000021C013BB51E23613A464046D4F87C31A3
:103DF00098472E46226812F0100201D000208AE671
:103E00003270236803F4C063B3F5806F1CD1029B4A
:103E10004B45A3EB090223D100224046019900F053
:103E200003FF039B25681B6815F0020F06460F462B
:103E300003F104021FD003990A601B68C3E90067FD
:103E4000E3680133E360D9E7049B002BE4D00599D4
:103E50000A234046013100F067FF049B059EC21A09
:103E600004F26F139E4228BF04F5B77630460D4921
:103E700000F01CF8D0E76D07DDD4039D2A601D68B3
:103E800002460B46FCF7C2FD20B1074800F0DAFFFE
:103E90002860D5E730463946FCF716FEF8E74FF0C4
:103EA00000092DE6FE780008F37C00080EB46FF0E0
:103EB000004100B59CB01DAB0290069007910491A3
:103EC0000848094953F8042B0591006802A9019399
:103ED00002F0A2F90022029B1A701CB05DF804EBFC
:103EE00003B07047840100200802FFFF002310B5D3
:103EF0000446C0E90033C0E904338360818143662E
:103F0000C2818361194608225C3000F03FFF0D4BEF
:103F1000246263620C4BA3620C4BE3620C4B236381
:103F20000C4B9C4206D003F16802944202D0D0337D
:103F30009C4205D104F15800BDE8104000F05CBF80
:103F400010BD00BF3D7000085F700008977000084A
:103F5000BB70000800030020024A0349034800F038
:103F6000E5BE00BF0C000020896600088801002023
:103F700041680C4B10B59942044601D002F084FB15
:103F8000A168094B994202D0204602F07DFBE1680E
:103F9000064B994204D02046BDE8104002F074BBA5
:103FA00010BD00BF0003002068030020D0030020E4
:103FB00010B50B4B0B4C0C4A20461A600421002212
:103FC000FFF794FF04F1680001220921FFF78EFF3B
:103FD00004F1D0000222BDE810401221FFF786BF95
:103FE0003804002000030020593F0008014800F079
:103FF00004BF00BF3D040020014800F0FFBE00BF29
:104000003D04002010B50446FFF7F0FF236A1BB102
:10401000BDE81040FFF7F0BF044B2362044B1B6860
:10402000002BF5D1FFF7C4FFF2E700BF713F000896
:10403000380400202DE9F0410F46904602F0CAFEF8
:1040400004460D46B8F1000F11D0C7F30A53C3F16F
:104050006B03002B0BDD00241B0503F17F5505F5D9
:10406000401522462B46FCF737FA04460D462046FB
:104070002946BDE8F08100002DE9F04F9FB017926E
:1040800000220C461A924FF0000A4FF0000B0A462D
:104090000590199211782B2948D036D80D2930D89F
:1040A000082930D8002939D000220B92199D2A788E
:1040B000302A40F0B1806A7802F0DF02582A6CD1D1
:1040C00002930B9B8E4A01931AAB009305981BAB8E
:1040D00019A901F075FD10F00F06044605D0062E53
:1040E00026D10023013519950B93179B002B40F027
:1040F00084850B9BBBB150460BF100411FB0BDE85E
:10410000F08F2029D0D10132C3E72D29CCD1012154
:104110000B91511C19915278002AC7D1179B199401
:10412000002B40F0688550465946E7E70021EFE74D
:104130001A9A3AB135211CA802F03CFF1A99059849
:1041400002F016FB013E1B9A042E06D8DFE806F0AB
:1041500014031D201400DDE91CABE10548BF4BF042
:10416000004B2BF000431B0D1B05002BBDD100F0B5
:1041700019FE22230360B8E702F23342DDE91CA3F3
:1041800023F4801343EA025BE7E7DFF878B1E4E762
:104190006FF0004B4FF0FF3ADFE7199B5A1C199262
:1041A0005B78302BF9D0002B9FD001230993199B0A
:1041B0000A220C9300231F4608930A931998057846
:1041C000A5F13003D9B2092928D901224E4900F0BE
:1041D000CBFD002832D000202A4681463D460346CA
:1041E000652A01D0452A14D11DB9099A024395D0F8
:1041F0000025199C621C199262782B2A77D02D2AEF
:104200007BD04FF0000CA2F13001092940F28280EE
:1042100019944FF00008A2E00023C7E7082FD5BF8C
:104220000A99089902FB013302FB013300F10100F6
:10423000D4BF0A93089301371990BFE7199B5A1C02
:1042400019925A787FB381463D46A2F13003092B7B
:1042500012D90123C4E7199B01305A1C19925A78CC
:10426000302AF8D0A2F13103082B00F2CB8481462A
:1042700000200546199B0C93303A00F101032AD027
:1042800099440A212B4600EB050C63450DD1691CAE
:1042900001442844082816DC0A230A9803FB00235B
:1042A0000A93002318E03846DAE7082B03F10103EC
:1042B00003DC0A9E4E430A96E7E7102BDEBF089EFA
:1042C0004E430896E1E70F28EBDC0A23089803FB2E
:1042D00000230893E5E72946199A0D46501C1990CA
:1042E00052781846B1E74FF0000901237DE74FF0FF
:1042F000000CA21C1992A27885E74FF0010CF8E798
:104300001C7900080000F07F03790008199A511CFD
:1043100019915278302AF9D0A2F1310108293FF6DB
:1043200078AF4FF00A08303A0E92199A0F92199A04
:10433000561C19965278A2F1300EBEF1090F39D9E8
:104340000F9944F61F68761A082E03DC0E998845EB
:10435000A8BF8846BCF1000F01D0C8F10008002DAD
:104360004ED1099908437FF4C0AE002B7FF4D6AE3E
:10437000692A28D025DC492A25D04E2A7FF4CEAEE2
:104380009A4919A801F03EFE00283FF4C7AE199BD8
:104390001B78282B2ED196491CAA19A801F046FE9D
:1043A000052827D11D9BDDF870A043F0FF4B4BF48F
:1043B000E00B9AE60E9908FB0121A1F130020E9262
:1043C000B5E76E2ADAE78B4919A801F01BFE002831
:1043D0003FF4A4AE199B8849013B19A8199301F039
:1043E00011FE10B9199B013319934FF0000ADFF841
:1043F0000CB27AE6824800F01FFD82468B4674E6D6
:10440000A8EB0903002F08BF2F460A98102D2C4651
:104410000993A8BF1024FBF7E5FF092D82468B46C0
:1044200011DC099B002B3FF460AE099B76DD162B57
:104430005DDC7449524601EBC3015B46D1E90001E2
:10444000FCF74AF8D9E76F4B03EBC40353E9122397
:10445000FCF742F8824608988B46FBF7C3FF0246FA
:104460000B4650465946FBF781FE0F2D82468B4680
:10447000D7DD099B2C1B1C44002C40F3968014F0C4
:104480000F030AD05F49524601EBC301D1E9000195
:104490005B46FCF721F882468B4634F00F0473D05C
:1044A000B4F59A7F48DD0024A046A1460A94222351
:1044B0004FF0000A059ADFF844B113600A9B002B05
:1044C0003FF413AE1A99059802F052F9494605983F
:1044D00002F04EF94146059802F04AF90A9905980A
:1044E00002F046F92146059802F042F9FDE5099AE5
:1044F000C5F125039342BCDB424CC5F10F0504EB2B
:10450000C5015246D1E900015B46FBF7E5FF099B77
:104510005D1B04EBC504D4E9002391E71633A8DB47
:10452000384BA9EB080803EBC8085046D8E900232C
:104530005946FCF7FBF860E7334B504608930023DD
:1045400059461E462411012C21DC0BB182468B46B4
:104550002D49ABF1547B01EBC6015246D1E9000174
:104560005B46FBF7B9FF254B0A460B4027498246BD
:104570008B4298D8A1F580118B4286BF4FF0FF3A4D
:10458000DFF88CB002F1547B002308937AE0E20755
:1045900005D5089BD3E90023FBF79EFF0123089A6A
:1045A0000136083264100892CDE7EDD0644214F071
:1045B0000F020AD0134B504603EBC2035946D3E90E
:1045C0000023FCF7B3F882468B462411DCD01F2C65
:1045D00020DD0024A046A1460A942223059A4FF02C
:1045E000000A4FF0000B136068E700BFD77800089F
:1045F00008790008CF780008647A00080000F07F8E
:10460000F37C0008F07B0008C87B00080000A07C59
:10461000FFFFEF7F14F0100318BF6A235046089382
:1046200059460023A94EE20704D5D6E90023FBF73B
:1046300053FF0123641006F10806F4D10BB1824642
:104640008B46089BB3B1CBF30A52C2F16B03002B2C
:1046500059460FDD1F2B57DD342BD8BF4FF0FF33EA
:104660004FF0000ACFBF4FF05C7BC2F14B0293408A
:1046700003EA010B0022002350465946FCF794F947
:104680000028A6D10A9B3A4600930C992B46059820
:1046900002F0D6F80A9000283FF405AF0024099AEA
:1046A000A9EB0803002AA8BF0023A046129322EA20
:1046B000E27316930A9B0598596802F019F881462F
:1046C00000283FF4F4AE0A9B0C301A6903F10C0188
:1046D0000232920000F0A1FB1CAB01931BAB0093D4
:1046E00052465B460598CDE90CAB02F0DBFB1A9015
:1046F00000283FF4DCAE0121059802F037F980462E
:1047000048B94FF00008D2E64FF0FF3202FA03F347
:1047100003EA0A0AAEE71B9D1C9A002DABBF129B51
:10472000169BEF185E1B089BA8BF169EA5EB030502
:104730001544674B05F1FF35B8BF129F9D42C2F18A
:10474000360250DA5B1B1F2B4FF00101A2EB030274
:104750003DDC01FA03F3139300231093BD18089B6B
:10476000AF4216441E443B46A8BF2B46B342A8BFE7
:104770003346002BC2BFED1AF61AFF1A129B002B0C
:1047800016DD41461A46059802F0AEF9804600282B
:10479000B7D001461A9A059802F0FEF80E9000284C
:1047A0003FF485AE1A99059801F0E2FF0E9B1A932B
:1047B000002D1DDC099B002B23DD4946169A059828
:1047C00002F092F98146E0B94FF000096FE6C5F1B9
:1047D0007F4505F57F0505F57B45E23501FA05F3D3
:1047E00010931391BAE70023109301231393B5E7B5
:1047F0002A461A99059802F0D1F91A900028D9D1C1
:1048000055E6002E07DD49463246059802F0C6F906
:1048100081460028D8D0002F08DD41463A46059849
:1048200002F0BCF9804600283FF441AE4A461A998E
:10483000059802F03BFA044600283FF438AEC368FE
:1048400041460F930023C36002F014FA002845DAB2
:104850000F9B53EA0A036BD1CBF31303002B67D1F1
:104860002BF000431B0D1B05B3F1D66F60D96369B4
:1048700013B92369012B5BDD21460122059802F063
:104880008DF94146044602F0F5F9002850DD2BF081
:104890000043089A1B0D1B05002A6AD0B3F1D66F9E
:1048A00067D8B3F15C7F7FF698AE50465946094B06
:1048B0000022FBF711FE084B82460B408B46002B73
:1048C0007FF400AE2223059A1360FBE530790008DF
:1048D00002FCFFFF000050390000F07FCDF838B037
:1048E00065D10F9ACBF313035AB3994A93422BD154
:1048F000089B514603B35A46964B1340B3F1D46F0D
:104900004FF0FF321BD81B0DC3F16B0302FA03F308
:10491000994219D1904B0E9A9A4202D101313FF43B
:10492000C6AD4FF0000A8B4B0E9A1A4002F5801B61
:10493000089B002BB9D1C5E54FF0FF33E8E71346DC
:10494000E6E753EA0A03A2D0109BDBB10E9A1342AA
:10495000EED00F9B50465946089ABBB1FFF76AFB51
:1049600002460B46DDE90C01FBF700FC82468B4654
:10497000DEE7A3F580136FEA135B4FF0FF3A6FEAAF
:104980000B5BD5E7139B13EA0A0FE1E7FFF752FB36
:1049900002460B46DDE90C01FBF7E6FB0022002393
:1049A00082468B46FCF700F80028C1D015E6414648
:1049B000204602F0CFFA00224FF0804306460F4611
:1049C000FCF706F800286DD00F9B002B78D1BAF1C8
:1049D000000F56D10E9BC3F31303002B58D10022B6
:1049E000304639465D4BFBF7E9FF002857D130468A
:1049F000394600225A4BFBF76FFD06460F4607F17A
:104A0000004306960793DDE90623524DCDE91023B6
:104A10000E9B1D40534B9D4240F0AA800E9B50467A
:104A2000A3F1547B594602F0D5F9DDE90623FBF7E3
:104A300053FD52465B46FBF799FB0B4645494A4AF4
:104A400019409142824642D90D9A434B9A4203D172
:104A50000C9B01333FF42BAD4FF0FF3ADFF8F8B079
:104A60001A99059801F084FE4946059801F080FEE8
:104A70004146059801F07CFE2146059801F078FE3C
:104A800018E6BAF1010F03D10E9B002B3FF4A5AD40
:104A90000022364B0026CDE90623304FB3E700262F
:104AA0002F4FACE7304639462D4B0022FBF714FD63
:104AB0000F9B06460F46002BA1D0CDE90667A2E763
:104AC0000022264B16461F46CDE906239BE703F13D
:104AD000547B089BCDF838B0002BC1D12BF000439C
:104AE0001B0D1B059D42BBD130463946FCF73CF8F7
:104AF000FBF7C4FC02460B4630463946FBF734FB55
:104B00000B460246CBF31306CDE90C230F9B46EA76
:104B10000A061E4369D00AA3D3E90023FBF74EFF20
:104B200000287FF4CFAC08A3D3E90023DDE90C0112
:104B3000FBF762FF002893D0C4E400BFAFF300800E
:104B40009535A094FFFFDF3F35E5AF350000E03F2E
:104B5000FFFF0F000000F07FFFFFEF7F0000F03F3E
:104B60000000E03F0000E07FFFFF9F7C0000F0BFFF
:104B7000089B23B3B5F1D46F21D827A3D3E9002331
:104B800030463946FBF724FFA0B139463046FBF7E3
:104B90007BFF012838BF0120FBF724FC0F9B064652
:104BA0000F46FBB901F1004314901593DDE914237E
:104BB000CDE91023119B03F1D6635B1B1193DDE953
:104BC0000C01DDE910AB02F005F902460B46504638
:104BD0005946FBF781FCDDE90C23FBF7C7FA824657
:104BE0008B4676E7CDE91467E0E70DA3D3E9002310
:104BF000FBF7E4FE9EE700230B93199B179A1360C3
:104C0000FFF777BA652A3FF46EAB452A3FF46BABEA
:104C10000123FFF7A6BB00BF0000C0FFFFFFDF417D
:104C20009535A094FFFFCF3F014BFFF725BA00BF9A
:104C300018000020242B2DE9F0478646904601D825
:104C4000012B06D100F0AEF8162303600020BDE86A
:104C5000F0870D4633482A4615F8014B065D16F0DD
:104C60000806F8D12D2C2DD101262C78951C33F077
:104C7000100209D1302C2AD12A7802F0DF02582AFA
:104C800025D110236C780235002206F1004C0CF17E
:104C9000FF3CBCFBF3F9104603FB19CAA4F1300733
:104CA000092F1BD83C46A34227DD571C07D081455E
:104CB00020D301D1A2451DDB012200FB034015F8E2
:104CC000014BEBE72B2C04BF2C78951CCFE7002B76
:104CD000DAD1302C0CBF08230A23D5E7A4F1410711
:104CE000192F01D8373CDEE7A4F16107192F04D84A
:104CF000573CD8E74FF0FF32E1E7531C08D122239D
:104D00006046CEF80030B8F1000FA0D0691E06E072
:104D100006B14042B8F1000F99D0002AF6D1C8F888
:104D2000001094E761790008FFF784BF2DE9F8438C
:104D30000746884614460026D4E90195B9F10109D1
:104D400005D52468002CF7D13046BDE8F883AB893F
:104D5000012B07D9B5F90E30013303D02946384667
:104D6000C04706436835E9E710B56AB101398418D0
:104D700010F8012B11F8013F9A4203D1A04201D053
:104D8000002AF5D1D01A10BD1046FCE703460244B4
:104D9000934200D1704703F8011BF9E700487047C0
:104DA00008010020014B1868704700BF84010020F3
:104DB00070B500260C4D0D4C641BA410A64209D101
:104DC00002F060FD00260A4D0A4C641BA410A642A6
:104DD00005D170BD55F8043B98470136EEE755F80C
:104DE000043B98470136F2E7FC7C0008FC7C000895
:104DF000FC7C0008007D0008704770477047034640
:104E000010B5C9B202449342184601D1002003E014
:104E1000047801338C42F6D110BD0A44914200F16E
:104E2000FF3300D1704710B511F8014B914203F8E0
:104E3000014FF9D110BD000000200149704700BFAB
:104E40000000F87F004870470000C07F2DE9F74F51
:104E500003690C690746A3427EDB013CA30000F115
:104E6000140501F11408009305EB8403019358F82D
:104E7000243055F8242001339A42B2FBF3F608EBB4
:104E800084092ED34FF0000AC446AE46D3465CF8E0
:104E9000043B98B206FB00A01B0C020C06FB03238C
:104EA000DEF8002080B292B2121A5A44DEF80000F6
:104EB0004FEA134A9BB2C3EB224303EB104392B277
:104EC00042EA0342E1454FEA234B4EF8042BDED27F
:104ED000009BEB582BB9019B043B9D421A462FD3F4
:104EE0003C61384601F0C6FE002825DB294600203B
:104EF00058F8042BD1F800C01FFA82FE1FFA8CF379
:104F0000A3EB0E030344120CC2EB234202EB1C4240
:104F10009BB243EA0243C1454FEA224041F8043BB9
:104F2000E6D255F8242005EB840322B9043B9D42C8
:104F30001A460BD33C610136304603B0BDE8F08F12
:104F40001268043B002ACBD1013CC6E71268043B3F
:104F5000002AEFD1013CEAE70020EEE70000000064
:104F60002DE9F04F14461D46C76997B08346CDE939
:104F70000245239E7FB9102001F04AFA0246CBF881
:104F80001C0020B9EF21A84BA84802F045F9C0E960
:104F900001770760C760DBF81C30196859B15A689F
:104FA000012393404A608B60584601F0E1FB0022E8
:104FB000DBF81C301A602B1EAFBF0023012223F048
:104FC00000430393A8BF3360DDF80C80984BB8BF53
:104FD000326033EA080312D142F20F73229A13604F
:104FE000C8F31303234300F05085249BDFF844A249
:104FF000002B00F052850AF1030300F04CBDDDE9FF
:105000000223CDE90C23DDE90C0100220023FBF78C
:10501000CBFC074658B10123229A1360249B13B19D
:10502000854B249A1360DFF814A200F036BD14AB50
:10503000019315AB00935846DDE90C2301F032FFD4
:10504000C8F30A568146002E77D0DDE90C010D9B8E
:10505000A6F2FF36C3F3130343F07F5343F4401328
:10506000129719460022764BFBF77EF868A3D3E926
:105070000023FBF731FA68A3D3E90023FBF776F8A6
:10508000044630460D46FBF7BDF965A3D3E900237E
:10509000FBF722FA02460B4620462946FBF766F844
:1050A00004460D46FBF7C8FC0022074600232046B5
:1050B0002946FBF783FC40B13846FBF7A3F92246AB
:1050C0002B46FBF771FC00B9013F162F53D8DDE9E1
:1050D0000C015C4B03EBC703D3E90023FBF76EFC29
:1050E00000284AD00023013F0F93149B9B1B5A1E9C
:1050F00046BFC3F1010800234FF00008099248BFE2
:105100000993002F3BDB099B0E973B440993002337
:105110000A93209B092B66D8052BC4BF043B209320
:10512000209BC8BF0024A3F10203D8BF0124032B96
:1051300064D8DFE803F02B383656DDE914631E44EB
:1051400006F23243202BC1BFC3F1400308FA03F833
:1051500006F2124324FA03F3D6BFC3F1200348EA50
:10516000030004FA03F0FBF73DF90122A1F1F87303
:10517000013E129275E70123B6E70F90B5E77B4237
:105180000A930023A8EB07080E93C2E700230B93B2
:10519000219B002B35DC01231A46CDE907332192F0
:1051A0000BE00123F3E700230B93219BFB180893EB
:1051B0000133012B0793B8BF012300210422DBF840
:1051C0001C0002F114059D421FD94160584601F0B0
:1051D0008FFA8246002839D1024640F2AF111A4BAD
:1051E000D2E60123E0E7012400230B9420934FF043
:1051F000FF330022CDE907331223D0E701230B93BD
:10520000F5E7219BCDE90733D7E701315200D8E715
:1052100061436F63A787D23FB3C8608B288AC63FBC
:10522000FB799F501344D33F6E7A0008857A0008BB
:105230000000F07F6A7A0008DB780008DA7800085E
:105240000000F83FF07B0008DD7A0008DBF81C3036
:105250001860079B0E2B00F2A480002C00F0A180A8
:10526000002F33DD864B07F00F0203EBC203F80576
:10527000D3E90034CDE904344FEA271416D5DDE92B
:105280000C01804B0326D3E90823FBF74FFACDE945
:10529000020104F00F047B4D54B9DDE90423DDE97C
:1052A0000201FBF743FACDE9020128E00226F2E70A
:1052B000E10708D5DDE90401D5E90023FBF70CF986
:1052C000CDE90401013664100835E5E700F0D2802D
:1052D000DDE90C017C426A4B04F00F0203EBC203D0
:1052E000D3E90023FBF7F8F802260023CDE90201F9
:1052F000644D2411002C40F0B280002BD3D1DDE9A5
:1053000002450F9B002B00F0B78000222046294663
:105310005D4BFBF753FB002800F0AE80079B002B92
:1053200000F0AA80089B002B37DD7B1E20460493EB
:1053300000222946554BFBF7CFF8CDE90201089C26
:1053400001363046FBF75EF8DDE90223FBF7C4F8CF
:1053500000224F4BFAF70AFF0546A1F15076002CC8
:1053600040F09A80DDE9020100224A4BFAF7FCFE88
:1053700002460B46CDE902232A463346FBF73CFBA7
:10538000002840F08E82DDE902012A4606F1004342
:10539000FBF714FB002840F02781DDE90C34CDE950
:1053A0000234159B002BC0F263810E2F00F3608145
:1053B000334B03EBC703D3E90034CDE90434219B1D
:1053C000002B03DA079B002B40F30081DDE9024547
:1053D0005646DDE9042320462946FBF7A7F9FBF7EB
:1053E0002BFB8046FBF70EF8DDE90423FBF774F88E
:1053F00002460B4620462946FAF7B6FE08F130046D
:10540000079D06F8014BA6EB0A04A54202460B468F
:1054100040F01681FAF7AAFEDDE9042304460D46A2
:10542000FBF7EAFA002840F0F880DDE90423204683
:105430002946FBF7B9FA18B118F0010F40F0ED80DA
:105440004946584601F094F900233370229B0137F6
:105450001F60249B002B00F020831E601DE3E207E9
:1054600005D5D5E90023FBF737F801230136641091
:1054700008353FE7022642E7079C049761E700BF33
:10548000F07B0008C87B00080000F03F00002440CB
:1054900000001C4000001440704B0B9903EBC40348
:1054A00053E902235444002945D000206C49FBF7FE
:1054B0003DF933462A46FAF757FE5646CDE9100124
:1054C000DDE90201FBF7B8FA0546FAF79BFF024651
:1054D0000B46DDE90201FAF747FE02460B4630357E
:1054E000CDE90223DDE9102306F8015BFBF766FA3C
:1054F000002863D1DDE9022300205A49FAF734FE7F
:10550000DDE91023FBF75AFA002840F08780A64215
:105510003FF443AFDDE910010022534BFAF7DCFF03
:105520000022CDE91001DDE902014F4BFAF7D4FF6B
:10553000CDE90201C4E731462846FAF7CDFF5646C9
:10554000CDE910011394DDE90201FBF775FA054678
:10555000FAF758FF02460B46DDE90201FAF704FEAE
:1055600002460B46303506F8015BA642CDE9022320
:105570004FF0000224D1DDE91001394BFAF7F6FDB6
:1055800002460B46DDE90201FBF736FA002845D159
:10559000DDE9102300203249FAF7E6FD02460B460A
:1055A000DDE90201FBF70AFA00283FF4F6AE139E8C
:1055B000731E139316F8013C302BF8D0049F3FE77D
:1055C000294BFAF789FFCDE90201BCE70CD1DDE9EF
:1055D00004010022254BFAF77FFFDDE90223FBF7E8
:1055E00001FA002800F05B8100242546219B5646E5
:1055F000DB43049300272146584601F0B9F8002DFB
:10560000DCD02FB1AF4203D03946584601F0B0F894
:105610002946584601F0ACF8D0E7049733461E46B9
:1056200013F8012D392A07D19A45F8D1049A01328D
:10563000049230228AF800201A7801321A70BDE7ED
:105640000022094BFAF748FF0022002304460D46CA
:10565000FBF7AAF900283FF4BCAEF1E6F07B0008A6
:105660000000E03F0000F03F000024400000144034
:105670000B9A002A00F0DB80209A012A00F3BF80F9
:10568000129A002A00F0B78003F2334346460A9C80
:10569000099A01211A4458469844099201F066F982
:1056A00005465EB1099B002B08DDB342A8BF334617
:1056B000099AA8EB0308F61AD31A09930A9BF3B1C7
:1056C0000B9B002B00F0B7808CB129462246584630
:1056D00001F00AFA4A4601460546584601F05CF9CF
:1056E00049460490584601F043F8049B99460A9BAA
:1056F0001A1B04D04946584601F0F6F981460121AB
:10570000584601F033F90E9B0446002B00F0C98186
:105710001A460146584601F0E7F9209B0446012B42
:1057200000F38F80029B002B40F08780039BC3F324
:105730001303002B40F08380039B23F000431B0DD9
:105740001B052BB1099B08F10108013309930123C3
:105750000A930E9B002B00F0AA81236904EB8303BC
:10576000186901F0B7F8C0F12000099B184410F047
:105770001F0071D0C0F12003042B65DD099BC0F12F
:105780001C000344804406440993B8F1000F05DD72
:1057900049464246584601F001FA8146099B002BD2
:1057A00005DD21461A46584601F0F8F904460F9BDC
:1057B000002B53D02146484601F05CFA00284DDA10
:1057C0007B1E494604930A220023584600F0F2FF4C
:1057D0000B9B8146002B00F06C81002329460A2296
:1057E000584600F0E7FF089B0546002B61DC209B34
:1057F000022B3BDC5DE0149BC3F1360346E7079BBD
:105800005C1E0A9BA342BFBF0A9B0E9AE31AD218E2
:10581000A8BF1C1B079BBEBF0A940E920024002B3E
:10582000B5BFA8EB030646460023079B30E7464674
:105830000A9C0B9D35E70A9A5CE7002388E7029BE8
:1058400086E700230A9388E79FD0099A1C331A44FD
:1058500098441E44099298E70346F6E7079B04978D
:10586000002B20DC0893209B022B1EDD089B002BC5
:105870007FF4BCAE21460522584600F09BFF01464E
:105880000446484601F0F6F900287FF7AFAE312311
:10589000564606F8013B049B01330493AAE6079C95
:1058A00004972546F3E7079B08930B9B002B00F01A
:1058B0000481002E05DD29463246584601F06EF976
:1058C00005460A9B002B5AD05846696800F010FF25
:1058D000064628B9024640F2EF21834BFFF754BB3E
:1058E0002A6905F10C01023292000C30FFF795FA9B
:1058F00001223146584601F051F92F4605460AF17A
:1059000001030793089B53440B93029B03F001038D
:105910000A93079B2146013B48460293FFF796FAFC
:105920003946089000F13008484601F0A3F92A46AC
:1059300009902146584601F0B9F9C268064602BBF3
:105940000146484601F096F90246314658460C9207
:1059500000F00EFF209B0C9A079E43EA02010A9B6F
:10596000194310D1B8F1390F29D0099B002B02DD62
:10597000089B03F13108029B83F800803BE6284630
:10598000BBE70122E1E7099B002B04DB20990B43D5
:105990000A990B4320D1002AEDDD494601225846E1
:1059A00001F0FCF82146814601F064F9002803DC8F
:1059B000E1D118F0010FDED0B8F1390FD8D1392379
:1059C000029A137033461E4616F8012C013B392A01
:1059D00052D001321A700EE6002A07DDB8F1390FF5
:1059E000EDD0029A08F10103137004E6079B079AB1
:1059F00003F8018C0B9B934228D0494600230A22CE
:105A0000584600F0D7FEAF4281464FF000034FF0FA
:105A10000A023946584607D100F0CCFE0746054633
:105A2000079B0133079374E700F0C4FE294607463D
:105A300000230A22584600F0BDFE0546F0E7089B09
:105A40000027002BCCBF1E460126564449460122A2
:105A5000584601F0A3F82146814601F00BF90028D1
:105A6000B0DC02D118F0010FACD133461E4613F85A
:105A7000012D302AFAD0BEE59A45A4D1049B01330A
:105A8000049331238AF80030B5E5249BDFF85CA04D
:105A90001BB10AF10803249A1360504617B0BDE801
:105AA000F08F209B012B7FF73DAE0E9B0A930120C8
:105AB0005BE6089B002B7FF7D6AE5646214648464C
:105AC000FFF7C4F900F13008089B06F8018BA6EB3C
:105AD0000A029342B3DD494600230A22584600F0E9
