:020000040800F2
:1000000000000220F5210008251A00082D1A00081A
:10001000351A00083D1A0008451A000800000000C3
:100020000000000000000000000000004D1A000861
:100030005B1A000800000000691A0008771A00081F
:1000400045220008452200084522000845220008F4
:1000500045220008452200084522000845220008E4
:1000600045220008452200084522000845220008D4
:1000700045220008452200084522000845220008C4
:1000800045220008452200084522000845220008B4
:1000900045220008452200084522000845220008A4
:1000A0004522000845220008452200084522000894
:1000B000452200084522000845220008851A00084C
:1000C000991A000845220008452200084522000828
:1000D0004522000845220008452200084522000864
:1000E0004522000845220008452200084522000854
:1000F0004522000845220008452200084522000844
:100100004522000845220008452200084522000833
:100110004522000845220008452200084522000823
:100120004522000845220008452200084522000813
:1001300045220008000000000000000045220008E1
:1001400045220008452200084522000845220008F3
:1001500045220008452200084522000845220008E3
:1001600045220008452200084522000845220008D3
:1001700045220008452200080000000000000000A1
:08018000452200084522000899
:1001900010B5054C237833B9044B13B10448AFF3C1
:1001A00000800123237010BDD40100200000000056
:1001B0005CAE000808B5034B1BB103490348AFF31D
:1001C000008008BD00000000D80100205CAE0008DF
:1001D00001F0FF01102A2BDB10F0070F08D010F8F8
:1001E000013B013A8B422DD010F0070F42B3F6D1FC
:1001F000F0B441EA012141EA014122F007047FF015
:1002000000070023F0E80256083C85EA010586EA6B
:10021000010685FA47F5A3FA87F586FA47F6A5FAA7
:1002200087F68EB9EED1F0BC01F0FF0102F00702B3
:1002300032B110F8013B013A83EA010313B1F8D15E
:100240000020704701387047002D06BF354603383F
:10025000073815F0010F07D1013015F4807F02BF78
:10026000013015F4C03F0130F0BC0138704700BFC9
:10027000034613F8012B002AFBD1181A01387047E6
:1002800081F0004102E000BF83F0004330B54FEA47
:1002900041044FEA430594EA050F08BF90EA020FB4
:1002A0001FBF54EA000C55EA020C7FEA645C7FEA47
:1002B000655C00F0E2804FEA5454D4EB5555B8BF6A
:1002C0006D420CDD2C4480EA020281EA030382EADB
:1002D000000083EA010180EA020281EA0303362D6D
:1002E00088BF30BD11F0004F4FEA01314FF4801C40
:1002F0004CEA113102D0404261EB410113F0004F52
:100300004FEA03334CEA133302D0524263EB430308
:1003100094EA050F00F0A780A4F10104D5F1200EA6
:100320000DDB02FA0EFC22FA05F2801841F1000101
:1003300003FA0EF2801843FA05F359410EE0A5F1D5
:1003400020050EF1200E012A03FA0EFC28BF4CF006
:10035000020C43FA05F3C01851EBE37101F00045BC
:1003600007D54FF0000EDCF1000C7EEB00006EEBC9
:100370000101B1F5801F1BD3B1F5001F0CD3490853
:100380005FEA30004FEA3C0C04F101044FEA4452AA
:1003900012F5800F80F09A80BCF1004F08BF5FEA31
:1003A000500C50F1000041EB045141EA050130BD11
:1003B0005FEA4C0C404141EB0101013C28BFB1F523
:1003C000801FE9D291F0000F04BF01460020B1FA6E
:1003D00081F308BF2033A3F10B03B3F120020CDA41
:1003E0000C3208DD02F1140CC2F10C0201FA0CF01F
:1003F00021FA02F10CE002F11402D8BFC2F1200C84
:1004000001FA02F120FA0CFCDCBF41EA0C01904039
:10041000E41AA2BF01EB0451294330BD6FEA040482
:100420001F3C1CDA0C340EDC04F11404C4F120026D
:1004300020FA04F001FA02F340EA030021FA04F37F
:1004400045EA030130BDC4F10C04C4F1200220FAD6
:1004500002F001FA04F340EA0300294630BD21FA14
:1004600004F0294630BD94F0000F83F4801306BFDA
:1004700081F480110134013D4EE77FEA645C18BFCE
:100480007FEA655C29D094EA050F08BF90EA020F65
:1004900005D054EA000C04BF1946104630BD91EA5D
:1004A000030F1EBF0021002030BD5FEA545C05D160
:1004B0004000494128BF41F0004130BD14F580049F
:1004C0003CBF01F5801130BD01F0004545F0FE4113
:1004D00041F470014FF0000030BD7FEA645C1ABF48
:1004E000194610467FEA655C1CBF0B46024650EA7F
:1004F000013406BF52EA033591EA030F41F40021AB
:1005000030BD00BF90F0000F04BF0021704730B530
:100510004FF4806404F132044FF000054FF0000105
:1005200050E700BF90F0000F04BF0021704730B5C6
:100530004FF4806404F1320410F0004548BF40429B
:100540004FF000013EE700BF42004FEAE2014FEAF0
:1005500031014FEA02701FBF12F07F4393F07F4FCB
:1005600081F06051704732F07F4208BF704793F0CE
:100570007F4F04BF41F40021704730B54FF46074E1
:1005800001F0004521F000411CE700BF50EA0102E4
:1005900008BF704730B54FF000050AE050EA01028D
:1005A00008BF704730B511F0004502D5404261EBFD
:1005B00041014FF4806404F132045FEA915C3FF43E
:1005C000D8AE4FF003025FEADC0C18BF03325FEADB
:1005D000DC0C18BF033202EBDC02C2F1200300FA8C
:1005E00003FC20FA02F001FA03FE40EA0E0021FAB1
:1005F00002F11444BDE600BF70B54FF0FF0C4CF49F
:10060000E06C1CEA11541DBF1CEA135594EA0C0F50
:1006100095EA0C0F00F0DEF82C4481EA030621EA8B
:100620004C5123EA4C5350EA013518BF52EA0335C6
:1006300041F4801143F4801338D0A0FB02CE4FF078
:100640000005E1FB02E506F00042E0FB03E54FF0A8
:100650000006E1FB03569CF0000F18BF4EF0010EA0
:10066000A4F1FF04B6F5007F64F5407404D25FEA9C
:100670004E0E6D4146EB060642EAC62141EA55514F
:100680004FEAC52040EA5E504FEACE2EB4F1FD0C91
:1006900088BFBCF5E06F1ED8BEF1004F08BF5FEA0F
:1006A000500E50F1000041EB045170BD06F00046C1
:1006B00046EA010140EA020081EA0301B4EB5C046E
:1006C000C2BFD4EB0C0541EA045170BD41F4801166
:1006D0004FF0000E013C00F3AB8014F1360FDEBF8B
:1006E000002001F0004170BDC4F10004203C35DA67
:1006F0000C341BDC04F11404C4F1200500FA05F3EA
:1007000020FA04F001FA05F240EA020001F000428A
:1007100021F0004110EBD37021FA04F642EB060100
:100720005EEA430E08BF20EAD37070BDC4F10C042A
:10073000C4F1200500FA04F320FA05F001FA04F2EE
:1007400040EA020001F0004110EBD37041F10001DA
:100750005EEA430E08BF20EAD37070BDC4F12005E5
:1007600000FA05F24EEA020E20FA04F301FA05F24D
:1007700043EA020321FA04F001F0004121FA04F2F5
:1007800020EA020000EBD3705EEA430E08BF20EAC5
:10079000D37070BD94F0000F0FD101F000464000FF
:1007A00041EB010111F4801F08BF013CF7D041EA81
:1007B000060195F0000F18BF704703F00046520085
:1007C00043EB030313F4801F08BF013DF7D043EA56
:1007D0000603704794EA0C0F0CEA135518BF95EA0C
:1007E0000C0F0CD050EA410618BF52EA4306D1D193
:1007F00081EA030101F000414FF0000070BD50EAB2
:10080000410606BF1046194652EA430619D094EA3B
:100810000C0F02D150EA013613D195EA0C0F05D125
:1008200052EA03361CBF104619460AD181EA030179
:1008300001F0004141F0FE4141F470014FF0000031
:1008400070BD41F0FE4141F4780170BD70B54FF0CC
:10085000FF0C4CF4E06C1CEA11541DBF1CEA13554C
:1008600094EA0C0F95EA0C0F00F0A7F8A4EB05042E
:1008700081EA030E52EA03354FEA013100F0888025
:100880004FEA03334FF0805545EA131343EA1263EE
:100890004FEA022245EA111545EA10654FEA0026A3
:1008A0000EF000419D4208BF964244F1FD0404F55C
:1008B000407402D25B084FEA3202B61A65EB0305B8
:1008C0005B084FEA32024FF480104FF4002CB6EB75
:1008D000020E75EB030E22BFB61A754640EA0C00F5
:1008E0005B084FEA3202B6EB020E75EB030E22BF35
:1008F000B61A754640EA5C005B084FEA3202B6EB76
:10090000020E75EB030E22BFB61A754640EA9C0034
:100910005B084FEA3202B6EB020E75EB030E22BF04
:10092000B61A754640EADC0055EA060E18D04FEAC2
:10093000051545EA16754FEA06164FEAC30343EA62
:1009400052734FEAC2025FEA1C1CC0D111F4801F2F
:100950000BD141EA00014FF000004FF0004CB6E728
:1009600011F4801F04BF01430020B4F1FD0C88BFC7
:10097000BCF5E06F3FF6AFAEB5EB030C04BFB6EBD2
:10098000020C5FEA500C50F1000041EB045170BDC5
:100990000EF0004E4EEA113114EB5C04C2BFD4EBF2
:1009A0000C0541EA045170BD41F480114FF0000E76
:1009B000013C90E645EA060E8DE60CEA135594EAF2
:1009C0000C0F08BF95EA0C0F3FF43BAF94EA0C0FF5
:1009D0000AD150EA01347FF434AF95EA0C0F7FF46A
:1009E00025AF104619462CE795EA0C0F06D152EABE
:1009F00003353FF4FDAE1046194622E750EA4106A2
:100A000018BF52EA43067FF4C5AE50EA41047FF4B2
:100A10000DAF52EA43057FF4EBAE12E74FF0FF3C17
:100A200006E000BF4FF0010C02E000BF4FF0010CE8
:100A30004DF804CD4FEA410C7FEA6C5C4FEA430C61
:100A400018BF7FEA6C5C1BD001B050EA410C0CBFB0
:100A500052EA430C91EA030F02BF90EA020F002012
:100A6000704710F1000F91EA030F58BF994208BF79
:100A700090422CBFD8176FEAE37040F00100704736
:100A80004FEA410C7FEA6C5C02D150EA013C07D18D
:100A90004FEA430C7FEA6C5CD6D152EA033CD3D0D8
:100AA0005DF8040B704700BF8446104662468C46D2
:100AB0001946634600E000BF01B5FFF7B7FF002805
:100AC00048BF10F1000F01BD4DF808EDFFF7F4FF2E
:100AD0000CBF012000205DF808FB00BF4DF808EDB9
:100AE000FFF7EAFF34BF012000205DF808FB00BFDC
:100AF0004DF808EDFFF7E0FF94BF012000205DF8FE
:100B000008FB00BF4DF808EDFFF7CEFF94BF0120B2
:100B100000205DF808FB00BF4DF808EDFFF7C4FFAB
:100B200034BF012000205DF808FB00BF4FEA410CF4
:100B30007FEA6C5C02D150EA013C0AD14FEA430CD7
:100B40007FEA6C5C02D152EA033C02D14FF0000014
:100B500070474FF0010070474FEA410212F5001252
:100B600015D211D56FF47873B3EB625212D94FEAF4
:100B7000C12343F0004343EA505311F0004F23FADE
:100B800002F018BF404270474FF00000704750EA33
:100B9000013005D111F0004008BF6FF000407047F0
:100BA0004FF00000704700BF53B94AB9002908BF91
:100BB00000281CBF4FF0FF314FF0FF3000F06AB942
:100BC000ADF1080C6DE904CE00F006F8DDF804E0A4
:100BD000DDE9022304B070472DE9F047089D0C467B
:100BE000002B4ED194468C458646B2FA82F262D9E9
:100BF0004AB1C2F12003914020FA03F30CFA02FC3F
:100C0000194300FA02FE4FEA1C471FFA8CF6B1FBAB
:100C1000F7F44FEA1E4307FB141143EA014304FBB8
:100C200006F199420AD91CEB030304F1FF3080F06E
:100C30001281994240F20F81023C6344591A1FFA13
:100C40008EF3B1FBF7F007FB101143EA014300FB01
:100C500006F69E420AD91CEB030300F1FF3180F037
:100C6000FC809E4240F2F980634402389B1B40EABC
:100C7000044000211DB1D3400022C5E90032BDE887
:100C8000F0878B4205D90DB1C5E900010021084666
:100C9000F5E7B3FA83F1002946D1A34202D390428B
:100CA000C0F0F080861A64EB03030120002DE6D02B
:100CB000C5E90063E3E7002A40F09080A1EB0C0453
:100CC0004FEA1C481FFA8CF70121B4FBF8F64FEAF3
:100CD0001E4308FB164443EA044307FB06F0984210
:100CE00008D91CEB030306F1FF3402D2984200F24C
:100CF000CD8026461C1A1FFA8EF3B4FBF8F008FBD1
:100D0000104443EA044300FB07F79F4208D91CEB59
:100D1000030300F1FF3402D29F4200F2B08020466C
:100D2000DB1B40EA0640A5E7C1F120068B4022FA12
:100D300006F71F4320FA06FC04FA01F343EA0C030A
:100D4000F44000FA01F8380C4FEA1349B4FBF0FE06
:100D50001FFA87FC00FB1E4449EA04440EFB0CF911
:100D6000A14502FA01F20AD93C190EF1FF3A80F0CE
:100D70008480A14540F28180AEF1020E3C44A4EB98
:100D800009041FFA83F9B4FBF0F300FB134449EAAA
:100D9000044403FB0CFCA44507D93C1903F1FF30C4
:100DA00067D2A44565D9023B3C4443EA0E40A0FB10
:100DB0000293A4EB0C049C42CE469C4651D34ED0E9
:100DC00055B1B8EB0E0364EB0C0404FA06F6CB4005
:100DD0001E43CC40C5E90064002150E7C2F1200366
:100DE00020FA03F10CFA02FC24FA03F394400C43BA
:100DF0004FEA1C4800FA02FE1FFA8CF7B3FBF8F02A
:100E000008FB1031230C43EA014300FB07F1994230
:100E100008D91CEB030300F1FF362CD299422AD9E2
:100E2000023863445B1AA4B2B3FBF8F108FB113338
:100E300044EA034401FB07F3A34208D91CEB040472
:100E400001F1FF3613D2A34211D902396444E41AE6
:100E500041EA004139E70446F0E6084606E7C8459E
:100E6000AED2B9EB020E63EB070C0138A8E73146AE
:100E7000EDE7034699E73046D4E7D6467FE763447B
:100E800002384DE70646234608460FE7023E634414
:100E900030E700BF704700BF80B584B000AF3B466D
:100EA00000221A605A609A60DA60214B214A1A6067
:100EB0001F4B4FF480325A601D4B00229A601C4B2E
:100EC00000221A611A4B00221A76194B002283F86D
:100ED0002020174B0022DA62154B174A9A62144BF6
:100EE0000022DA60124B0122DA61114B002283F8F2
:100EF00030200F4B01225A610D4801F03BFA0346A6
:100F0000002B01D000F060FD04233B6001237B60D7
:100F10000023BB603B461946054801F06FFA0346C3
:100F2000002B01D000F050FD00BF1037BD4680BD42
:100F3000F0010020002001400100000F80B584B0C6
:100F400000AF3B4600221A605A609A60DA60214B7B
:100F5000214A1A601F4B4FF480325A601D4B002209
:100F60009A601C4B00221A611A4B00221A76194B08
:100F7000002283F82020174B0022DA62154B174A13
:100F80009A62144B0022DA60124B0122DA61114B93
:100F9000002283F830200F4B01225A610D4801F0E6
:100FA000E9F90346002B01D000F00EFD06233B605B
:100FB00001237B600023BB603B461946054801F0D6
:100FC0001DFA0346002B01D000F0FEFC00BF1037D5
:100FD000BD4680BD38020020002101400100000F05
:100FE00080B584B000AF3B4600221A605A609A6018
:100FF000DA60214B214A1A601F4B4FF480325A604D
:101000001D4B00229A601C4B00221A611A4B0022D1
:101010001A76194B002283F82020174B0022DA623F
:10102000154B174A9A62144B0022DA60124B0122C8
:10103000DA61114B002283F830200F4B01225A61F4
:101040000D4801F097F90346002B01D000F0BCFCDD
:1010500001233B6001237B600023BB603B461946B4
:10106000054801F0CBF90346002B01D000F0ACFCA1
:1010700000BF1037BD4680BD800200200022014025
:101080000100000F80B590B000AF786007F12C032D
:1010900000221A605A609A60DA601A617B681B68E5
:1010A0006C4A934242D10023BB626B4B5B6C6A4A31
:1010B00043F480735364684B5B6C03F48073BB62CE
:1010C000BB6A00237B62644B1B6B634A43F00403DF
:1010D0001363614B1B6B03F004037B627B6A002389
:1010E0003B625D4B1B6B5C4A43F0010313635A4B3D
:1010F0001B6B03F001033B623B6A3C23FB6203234F
:101100003B6300237B6307F12C031946534801F02E
:10111000D5FC3023FB6203233B6300237B6307F191
:101120002C0319464E4801F0C9FC8EE07B681B6811
:101130004C4A93425CD10023FB61474B5B6C464AAF
:1011400043F400735364444B5B6C03F40073FB6122
:10115000FB690023BB61404B1B6B3F4A43F0040318
:1011600013633D4B1B6B03F00403BB61BB6900239E
:101170007B61394B1B6B384A43F001031363364BD9
:101180001B6B03F001037B617B6900233B61324BE6
:101190001B6B314A43F0020313632F4B1B6B03F0AD
:1011A00002033B613B690323FB6203233B63002390
:1011B0007B6307F12C031946284801F07FFCC0230C
:1011C000FB6203233B6300237B6307F12C03194677
:1011D000234801F073FC0323FB6203233B630023DA
:1011E0007B6307F12C0319461F4801F067FC2CE0D4
:1011F0007B681B681D4A934227D10023FB60164B76
:101200005B6C154A43F480635364134B5B6C03F4CB
:101210008063FB60FB680023BB600F4B1B6B0E4AB7
:1012200043F0010313630C4B1B6B03F00103BB6022
:10123000BB680623FB6203233B6300237B6307F148
:101240002C031946064801F039FC00BF4037BD4663
:1012500080BD00BF0020014000380240000802406D
:101260000000024000210140000402400022014031
:1012700080B58AB000AF07F1140300221A605A60EB
:101280009A60DA601A6100233B61594B1B6B584A24
:1012900043F004031363564B1B6B03F004033B61E1
:1012A0003B690023FB60524B1B6B514A43F08003A8
:1012B00013634F4B1B6B03F08003FB60FB68002341
:1012C000BB604B4B1B6B4A4A43F001031363484B13
:1012D0001B6B03F00103BB60BB6800237B60444BC6
:1012E0001B6B434A43F002031363414B1B6B03F038
:1012F00002037B607B6800233B603D4B1B6B3C4AD9
:1013000043F0080313633A4B1B6B03F008033B6085
:101310003B68002245F60441364801F083FD002277
:101320004FF40071344801F07DFD4FF2C0137B6132
:101330000323BB610023FB6107F1140319462F4807
:1013400001F0BCFB45F604437B610123BB61012333
:10135000FB6100233B6207F114031946254801F0A5
:10136000ADFB4AF238037B610323BB610023FB61C1
:1013700007F1140319461F4801F0A0FB4FF4007356
:101380007B610123BB610123FB6100233B6207F109
:1013900014031946184801F091FB4FF404437B6194
:1013A0000323BB610023FB6107F1140319461248B4
:1013B00001F084FB04237B610323BB610023FB61F9
:1013C00007F1140319460E4801F078FB4FF48073BF
:1013D0007B610023BB610123FB6107F11403194604
:1013E000044801F06BFB00BF2837BD4680BD00BF3D
:1013F00000380240000402400000024000080240A1
:10140000000C024080B586B004AF03463960FB7122
:101410001346BB80FB799AB24FF0FF330293BB882F
:1014200001933B68009301232021044802F09EF9B8
:10143000034618460837BD4680BD00BFC8020020DD
:10144000B0B5ACB000AF78600B46FB70FB780A33E8
:10145000DBB25B0087F8AF3097F8AE30194697F8EB
:10146000AF3002221846FFF7CDFF034619464FF072
:10147000FF336422264805F0F1FF97F8AE30194695
:1014800097F8AF3002221846FFF7BCFF0346002B47
:1014900016D1FA7897F8AE3007F148001D4907F0E9
:1014A000EFFA07F148031846FEF7E2FE03469AB248
:1014B00007F148014FF0FF33154805F0CFFF22E058
:1014C000154B07F10C041D4628686968AA68EB688B
:1014D0000FC42B8A238007F11E032A2200211846FD
:1014E00007F0B0FB07F10C014FF0FF333222084840
:1014F00005F0B4FF97F8AE3019464FF0FF33642281
:10150000034805F0ABFF00BFB037BD46B0BD00BF1C
:101510005404002078AE00088CAE000880B500AFFF
:10152000124B134A1A60114B124A5A600F4B002299
:101530009A600E4B2022DA600C4B4FF480421A6105
:101540000A4B00225A61094B00229A61074B002284
:10155000DA61064B00221A62044801F07DFC034662
:10156000002B01D000F030FA00BF80BDC80200207F
:1015700000540040801A060080B500AF124B134A99
:101580001A60114B124A5A600F4B00229A600E4BA0
:101590000022DA600C4B4FF480421A610A4B0022A1
:1015A0005A61094B00229A61074B0022DA61064B0F
:1015B00000221A62044801F04FFC0346002B01D0C0
:1015C00000F002FA00BF80BD1C030020005C004058
:1015D000A086010080B58CB000AF786007F11C03D5
:1015E00000221A605A609A60DA601A617B681B6890
:1015F0004A4A93423CD10023BB61494B1B6B484A8A
:1016000043F002031363464B1B6B03F00203BB6101
:10161000BB69C023FB6112233B6201237B6203236E
:10162000BB620423FB6207F11C0319463D4801F02D
:1016300045FA00237B613A4B1B6C394A43F4001393
:101640001364374B1B6C03F400137B617B6900222E
:1016500000211F2001F0CBF91F2001F0E4F9002246
:101660000021202001F0C3F9202001F0DCF950E036
:101670007B681B682C4A93424BD100233B61284B6B
:101680001B6B274A43F004031363254B1B6B03F0CA
:1016900004033B613B690023FB60214B1B6B204A29
:1016A00043F0010313631E4B1B6B03F00103FB604C
:1016B000FB684FF40073FB6112233B6201237B62E2
:1016C0000323BB620423FB6207F11C03194617487E
:1016D00001F0F4F94FF48073FB6112233B620123A4
:1016E0007B620323BB620423FB6207F11C031946E0
:1016F0000F4801F0E3F90023BB60094B1B6C084A5B
:1017000043F400031364064B1B6C03F40003BB603B
:10171000BB6800BF3037BD4680BD00BF00540040ED
:101720000038024000040240005C00400008024013
:1017300000000240B0B5B0B002AF00F085FD00F08F
:10174000D9F8FFF795FDFFF7A7FBFFF7F7FBFFF7CA
:1017500047FCFFF7E3FEFFF70FFF00F07FFA00F012
:10176000D7FA00F02FFB00F059FC00F0C9FC5548F7
:1017700002F02EFA0021544805F098F90C21534844
:1017800005F094F90C21524805F090F9012204214A
:10179000504801F047FB01224FF480614D4801F0B1
:1017A00041FB01224FF400614A4801F03BFB01225A
:1017B0004FF48051474801F035FB01224FF400718E
:1017C000454801F02FFB002387F8B730434B1B68D7
:1017D0001846FEF7B9FE04460D46414B1B681846F5
:1017E000FEF7B2FE02460B4607F13C00CDE90023AE
:1017F00022462B463B4907F043F907F13C031846C4
:10180000FEF736FD03469AB207F13C014FF0FF3375
:10181000354805F023FE07F1A0024FF0FF33009397
:1018200014234421314801F06FFD07F1A0024FF06D
:10183000FF330093142310212C4801F067FC97F824
:10184000B730013387F8B73097F8B730802B02D91B
:10185000002387F8B73001211A48FFF7F1FD244B28
:101860003C461D460FCD0FC40FCD0FC495E80700B1
:1018700003C4227007F1290300221A605A609A609B
:10188000DA60C3F80F2001224FF48041114801F0C3
:10189000C9FA39464FF0FF333222134805F0DEFD16
:1018A00004210C4801F0A6FA0346012B05D10122C0
:1018B0004FF40071084801F0B5FA4FF4FA6000F0F7
:1018C00035FD83E7C80200207C030020C40300200C
:1018D0000C040020000402400000024070030020BD
:1018E00074030020A0AE0008540400201C03002054
:1018F000C4AE000880B594B000AF07F120033022D9
:101900000021184607F09EF907F10C0300221A6027
:101910005A609A60DA601A610023BB60284B1B6C26
:10192000274A43F080531364254B1B6C03F080530C
:10193000BB60BB6800237B60224B1B68214A43F4D9
:10194000804313601F4B1B6803F480437B607B68FC
:1019500001233B624FF480337B620223BB634FF46D
:101960008003FB6304233B6460237B640623BB6426
:101970000423FB6407F12003184604F0AFFB034681
:10198000002B01D000F020F80F23FB6002233B6105
:1019900080237B614FF48053BB614FF48053FB6124
:1019A00007F10C030021184604F010FE0346002B3B
:1019B00001D000F009F800BF5037BD4680BD00BF20
:1019C000003802400070004080B400AF72B600BF23
:1019D00000BFFDE780B483B000AF00237B60104BF5
:1019E0005B6C0F4A43F4804353640D4B5B6C03F410
:1019F00080437B607B6800233B60094B1B6C084A7B
:101A000043F080531364064B1B6C03F080533B6020
:101A10003B6800BF0C37BD465DF8047B704700BFD4
:101A20000038024080B400AF00BFFDE780B400AFD3
:101A300000BFFDE780B400AF00BFFDE780B400AF9A
:101A400000BFFDE780B400AF00BFFDE780B400AF8A
:101A500000BFBD465DF8047B704780B400AF00BF97
:101A6000BD465DF8047B704780B400AF00BFBD4643
:101A70005DF8047B704780B500AF00F037FC00BF15
:101A800080BD000080B500AF024802F0D7F800BF6B
:101A900080BD00BFC802002080B500AF024802F040
:101AA00020FA00BF80BD00BFC802002080B400AF94
:101AB00001231846BD465DF8047B704780B582B0AF
:101AC00000AF7860396007F0C9F8034616221A6043
:101AD0004FF0FF3318460837BD4680BD80B582B051
:101AE00000AF78604FF0FF317868FFF7E7FF00BF85
:101AF000FDE780B586B000AFF860B9607A6000237A
:101B00007B610AE0AFF300800146BB685A1CBA60F3
:101B1000CAB21A707B6901337B617A697B689A4229
:101B2000F0DB7B6818461837BD4680BD80B586B0AF
:101B300000AFF860B9607A6000237B6109E0BB68A0
:101B40005A1CBA601B781846AFF300807B690133DA
:101B50007B617A697B689A42F1DB7B6818461837AB
:101B6000BD4680BD80B483B000AF78604FF0FF33D6
:101B700018460C37BD465DF8047B704780B483B0CF
:101B800000AF786039603B684FF400525A60002320
:101B900018460C37BD465DF8047B704780B483B0AF
:101BA00000AF7860012318460C37BD465DF8047B12
:101BB000704780B485B000AFF860B9607A600023E8
:101BC00018461437BD465DF8047B704780B586B073
:101BD00000AF7860144A154BD31A7B617B693B6177
:101BE000134B1B68002B02D1114B124A1A60104B89
:101BF0001A687B6813443A699A4207D207F02EF8B4
:101C000003460C221A604FF0FF3309E0084B1B68B3
:101C1000FB60074B1A687B681344054A1360FB6836
:101C200018461837BD4680BD0000022000040000A1
:101C300078030020D00A002080B400AF064BD3F810
:101C40008830054A43F47003C2F8883000BFBD46AF
:101C50005DF8047B704700BF00ED00E080B58AB0FE
:101C600000AF07F1200300221A605A603B1D0022DA
:101C70001A605A609A60DA601A615A619A61234B5D
:101C80004FF080421A60214B40F2A3125A601F4B62
:101C900000229A601D4B4FF0FF32DA601B4B00228E
:101CA0001A611A4B00229A61184804F0AFFE0346ED
:101CB000002B01D0FFF788FE00233B6200237B62EC
:101CC00007F120031946114805F0FCFA0346002BE2
:101CD00001D0FFF779FE60237B600023BB60002307
:101CE000FB6000237B613B1D00221946074804F07E
:101CF000A5FF0346002B01D0FFF766FE034800F066
:101D000007F900BF2837BD4680BD00BF7C03002017
:101D100080B58AB000AF07F1200300221A605A6034
:101D20003B1D00221A605A609A60DA601A615A619B
:101D30009A61224B224A1A60204B40F2A3125A6049
:101D40001E4B00229A601D4B4FF6FF72DA601B4B50
:101D500000221A61194B00229A61184804F056FEBD
:101D60000346002B01D0FFF72FFE00233B62002328
:101D70007B6207F120031946104805F0A3FA0346D9
:101D8000002B01D0FFF720FE60237B600023BB60A7
:101D90000023FB6000237B613B1D0C221946074892
:101DA00004F04CFF0346002B01D0FFF70DFE034863
:101DB00000F0AEF800BF2837BD4680BDC403002048
:101DC0000008004080B58AB000AF07F12003002270
:101DD0001A605A603B1D00221A605A609A60DA60ED
:101DE0001A615A619A61224B224A1A60204B40F2D2
:101DF000A3125A601E4B00229A601D4B4FF0FF3217
:101E0000DA601B4B00221A61194B00229A611848B4
:101E100004F0FCFD0346002B01D0FFF7D5FD0023A5
:101E20003B6200237B6207F120031946104805F04E
:101E300049FA0346002B01D0FFF7C6FD60237B6003
:101E40000023BB600023FB6000237B613B1D0C2251
:101E50001946074804F0F2FE0346002B01D0FFF7B5
:101E6000B3FD034800F054F800BF2837BD4680BDDD
:101E70000C040020000C004080B487B000AF7860F4
:101E80007B681B68B3F1804F0ED100237B611D4B33
:101E90001B6C1C4A43F0010313641A4B1B6C03F0C8
:101EA00001037B617B6926E07B681B68164A9342CD
:101EB0000ED100233B61134B1B6C124A43F0040309
:101EC0001364104B1B6C03F004033B613B6912E08D
:101ED0007B681B680D4A93420DD10023FB60094BC0
:101EE0001B6C084A43F008031364064B1B6C03F099
:101EF0000803FB60FB6800BF1C37BD465DF8047B30
:101F0000704700BF0038024000080040000C00404D
:101F100080B58AB000AF786007F1140300221A6020
:101F20005A609A60DA601A617B681B68B3F1804F6F
:101F30001ED100233B61344B1B6B334A43F001033A
:101F40001363314B1B6B03F001033B613B690123BE
:101F50007B610223BB610023FB6100233B62012301
:101F60007B6207F114031946284800F0A7FD47E0FB
:101F70007B681B68264A93421FD10023FB60224BDB
:101F80001B6B214A43F0020313631F4B1B6B03F0CF
:101F90000203FB60FB684FF400737B610223BB61AB
:101FA0000023FB6100233B6202237B6207F11403E1
:101FB0001946184800F082FD22E07B681B68164A2B
:101FC00093421DD10023BB600F4B1B6B0E4A43F0A5
:101FD000010313630C4B1B6B03F00103BB60BB6875
:101FE00008237B610223BB610023FB6100233B626A
:101FF00002237B6207F114031946044800F05EFDDA
:1020000000BF2837BD4680BD0038024000000240B6
:102010000008004000040240000C004080B500AF02
:10202000114B124A1A60104B4FF4E1325A600E4BBA
:1020300000229A600C4B0022DA600B4B00221A61DE
:10204000094B0C225A61084B00229A61064B002270
:10205000DA61054805F0B2F90346002B01D0FFF71D
:10206000B3FC00BF80BD00BF54040020004C004002
:1020700080B58AB000AF786007F1140300221A60BF
:102080005A609A60DA601A617B681B68194A934249
:102090002CD100233B61184B1B6C174A43F40023DF
:1020A0001364154B1B6C03F400233B613B69002355
:1020B000FB60114B1B6B104A43F0040313630E4B80
:1020C0001B6B03F00403FB60FB684FF440637B6110
:1020D0000223BB610123FB6103233B6208237B6274
:1020E00007F114031946054800F0E8FC00BF283743
:1020F000BD4680BD004C0040003802400008024050
:1021000080B500AF144B4FF0A0421A60124B04226E
:102110001A71114B0222DA710F4B00229A710E4B89
:1021200002225A720C4B00229A720B4B0022DA7276
:10213000094B00221A73084B00229A73064B0022A7
:10214000DA73054803F0BBFE0346002B01D0FFF70E
:102150003BFC00BF80BD00BF9C04002080B58AB05E
:1021600000AF786007F1140300221A605A609A6089
:10217000DA601A617B681B68B3F1A04F32D100238B
:102180003B611A4B1B6B194A43F001031363174B56
:102190001B6B03F001033B613B694FF4C0537B6150
:1021A0000223BB610023FB6103233B620A237B62A2
:1021B00007F1140319460E4800F080FC0B4B5B6BD3
:1021C0000A4A43F0800353630023FB60074B5B6CB8
:1021D000064A43F480435364044B5B6C03F480432E
:1021E000FB60FB6800BF2837BD4680BD0038024059
:1021F00000000240DFF834D0FFF71EFD0C480D4907
:102200000D4A002302E0D458C4500433C4188C4251
:10221000F9D30A4A0A4C002301E013600432A242B7
:10222000FBD306F021FDFFF785FA7047000002207E
:1022300000000020D401002098B20008D401002042
:10224000D00A0020FEE7000080B500AF0E4B1B68EF
:102250000D4A43F4007313600B4B1B680A4A43F4A6
:1022600080631360084B1B68074A43F48073136054
:10227000032000F0B1FB0F2000F008F8FFF7AAFBE5
:102280000023184680BD00BF003C024080B582B0EC
:1022900000AF7860124B1A68124B1B7819464FF446
:1022A0007A73B3FBF1F3B2FBF3F3184600F0C9FB0A
:1022B0000346002B01D001230EE07B680F2B0AD8C8
:1022C000002279684FF0FF3000F091FB064A7B68EE
:1022D0001360002300E0012318460837BD4680BD87
:1022E00000000020080000200400002080B400AF9F
:1022F000064B1B781A46064B1B681344044A1360AE
:1023000000BFBD465DF8047B704700BF0800002099
:102310008009002080B400AF034B1B681846BD46FF
:102320005DF8047B704700BF8009002080B584B051
:1023300000AF7860FFF7EEFFB8607B68FB60FB687A
:10234000B3F1FF3F05D00A4B1B781A46FB681344D4
:10235000FB6000BFFFF7DEFF0246BB68D31AFA68D6
:102360009A42F7D800BF00BF1037BD4680BD00BFFE
:102370000800002080B584B000AF78600023FB73B4
:102380007B68002B01D1012333E07B681B6C002BA1
:1023900009D17868FEF776FE7B6800225A647B6874
:1023A000002283F83C207B681B6C03F01003002B99
:1023B00018D17B681B6C23F4885323F0020343F08D
:1023C00002027B681A64786800F03AF97B680022A0
:1023D0005A647B681B6C23F0030343F001027B68A3
:1023E0001A6401E00123FB737B68002283F83C2020
:1023F000FB7B18461037BD4680BD000080B485B019
:1024000000AF786039600023BB607B6893F83C3094
:10241000012B01D1022305E17B68012283F83C20D6
:102420003B681B68092B25D97B681B68D9683B680A
:102430001B689BB21A4613465B0013441E3B0722DF
:1024400002FA03F3DA437B681B680A40DA607B68B0
:102450001B68D9683B689A683B681B689BB2184642
:1024600003465B0003441E3B9A407B681B680A439B
:10247000DA6022E07B681B6819693B681B689BB2C5
:102480001A4613465B001344072202FA03F3DA43A9
:102490007B681B680A401A617B681B6819693B6886
:1024A0009A683B681B689BB2184603465B0003446E
:1024B0009A407B681B680A431A613B685B68062B7D
:1024C00024D87B681B68596B3B685A6813469B008D
:1024D0001344053B1F2202FA03F3DA437B681B68AF
:1024E0000A405A637B681B68596B3B681B689BB248
:1024F00018463B685A6813469B001344053B00FA94
:1025000003F27B681B680A435A634CE03B685B68D4
:102510000C2B24D87B681B68196B3B685A681346E0
:102520009B001344233B1F2202FA03F3DA437B6828
:102530001B680A401A637B681B68196B3B681B6841
:102540009BB218463B685A6813469B001344233BD2
:1025500000FA03F27B681B680A431A6323E07B6876
:102560001B68D96A3B685A6813469B001344413B79
:102570001F2202FA03F3DA437B681B680A40DA621F
:102580007B681B68D96A3B681B689BB218463B682E
:102590005A6813469B001344413B00FA03F27B68E0
:1025A0001B680A43DA62224BFB607B681B68214A86
:1025B000934209D13B681B68122B05D1FB685B680D
:1025C00043F48002FB685A607B681B68194A934297
:1025D00023D13B681B68102B03D03B681B68112B71
:1025E0001BD1FB685B6843F40002FB685A603B68E0
:1025F0001B68102B11D1104B1B68104AA2FB032340
:102600009A0C13469B0013445B00BB6002E0BB685E
:10261000013BBB60BB68002BF9D17B68002283F8CB
:102620003C20002318461437BD465DF8047B7047F4
:1026300000230140002001400000002083DE1B43F6
:1026400080B485B000AF7860794BFB60FB685B6855
:1026500023F44032FB685A60FB685A687B685B6809
:102660001A43FB685A607B681B685A687B681B6862
:1026700022F480725A607B681B6859687B681B690A
:102680001A027B681B680A435A607B681B685A6899
:102690007B681B6822F040725A607B681B6859682F
:1026A0007B689A687B681B680A435A607B681B6872
:1026B0009A687B681B6822F400629A607B681B68DA
:1026C00099687B68DA687B681B680A439A607B6854
:1026D0009B6A584A934222D07B681B689A687B6841
:1026E0001B6822F070629A607B681B6899687B683F
:1026F0009A6A7B681B680A439A607B681B689A68C1
:102700007B681B6822F040529A607B681B6899685E
:102710007B68DA6A7B681B680A439A600FE07B6813
:102720001B689A687B681B6822F070629A607B68FD
:102730001B689A687B681B6822F040529A607B682D
:102740001B689A687B681B6822F002029A607B68AB
:102750001B6899687B681B7E5A007B681B680A436C
:102760009A607B6893F82030002B1BD07B681B6835
:102770005A687B681B6842F400625A607B681B6879
:102780005A687B681B6822F460425A607B681B6849
:1027900059687B685B6A013B5A037B681B680A4384
:1027A0005A6007E07B681B685A687B681B6822F4E4
:1027B00000625A607B681B68DA6A7B681B6822F4D7
:1027C0007002DA627B681B68D96A7B68DB69013B4F
:1027D0001A057B681B680A43DA627B681B689A6883
:1027E0007B681B6822F400729A607B681B6899689A
:1027F0007B6893F830305A027B681B680A439A6002
:102800007B681B689A687B681B6822F480629A6008
:102810007B681B6899687B685B699A027B681B68A8
:102820000A439A6000BF1437BD465DF8047B7047C9
:10283000002301400100000F80B485B000AF786034
:102840007B6803F00703FB600C4BDB68BB60BA6876
:102850004FF6FF031340BB60FB681A02BB681343CB
:1028600043F0BF6343F40033BB60044ABB68D360EA
:1028700000BF1437BD465DF8047B704700ED00E0F3
:1028800080B400AF044BDB681B0A03F00703184653
:10289000BD465DF8047B704700ED00E080B483B076
:1028A00000AF0346FB7197F90730002B0BDBFB7978
:1028B00003F01F02074997F907305B09012000FA6E
:1028C00002F241F8232000BF0C37BD465DF8047BBF
:1028D000704700BF00E100E080B483B000AF034662
:1028E0003960FB7197F90730002B0ADB3B68DAB2DD
:1028F0000C4997F907301201D2B20B4483F8002338
:102900000AE03B68DAB20849FB7903F00F03043BA5
:102910001201D2B20B441A7600BF0C37BD465DF8E7
:10292000047B704700E100E000ED00E080B489B076
:1029300000AFF860B9607A60FB6803F00703FB61E1
:10294000FB69C3F10703042B28BF0423BB61FB69A8
:102950000433062B02D9FB69033B00E000237B61B3
:102960004FF0FF32BB6902FA03F3DA43BB681A4047
:102970007B699A404FF0FF317B6901FA03F3D94339
:102980007B680B40134318462437BD465DF8047B33
:102990007047000080B582B000AF78607B68013B73
:1029A000B3F1807F01D301230FE00A4A7B68013B2A
:1029B00053600F214FF0FF30FFF78EFF054B0022D1
:1029C0009A60044B07221A60002318460837BD4658
:1029D00080BD00BF10E000E080B582B000AF78603D
:1029E0007868FFF729FF00BF0837BD4680BD80B576
:1029F00086B000AF0346B9607A60FB7300237B6149
:102A0000FFF73EFF78617A68B9687869FFF78EFF53
:102A1000024697F90F3011461846FFF75DFF00BFD9
:102A20001837BD4680BD80B582B000AF0346FB714C
:102A300097F907301846FFF731FF00BF0837BD464A
:102A400080BD80B582B000AF78607868FFF7A2FFE4
:102A5000034618460837BD4680BD80B483B000AF3A
:102A600078607B6893F83530DBB2022B04D07B684A
:102A700080225A6501230CE07B68052283F835200B
:102A80007B681B681A687B681B6822F001021A6069
:102A9000002318460C37BD465DF8047B704780B4B0
:102AA00083B000AF78607B6893F83530DBB21846AE
:102AB0000C37BD465DF8047B7047000080B489B0D8
:102AC00000AF7860396000237B6100233B61002305
:102AD000BB610023FB616BE10122FB6902FA03F396
:102AE0007B613B681B687A6913403B613A697B698B
:102AF0009A4240F05A813B685B6803F00303012B64
:102B000005D03B685B6803F00303022B30D17B6880
:102B10009B68BB61FB695B00032202FA03F3DB43A2
:102B2000BA691340BB613B68DA68FB695B0002FA73
:102B300003F3BA691343BB617B68BA699A607B6827
:102B40005B68BB610122FB6902FA03F3DB43BA69EC
:102B50001340BB613B685B681B0903F00102FB6922
:102B600002FA03F3BA691343BB617B68BA695A601E
:102B70003B685B6803F00303032B17D07B68DB68BB
:102B8000BB61FB695B00032202FA03F3DB43BA6912
:102B90001340BB613B689A68FB695B0002FA03F370
:102BA000BA691343BB617B68BA69DA603B685B68EA
:102BB00003F00303022B23D1FB69DA087B68083298
:102BC00053F82230BB61FB6903F007039B000F221F
:102BD00002FA03F3DB43BA691340BB613B681A692D
:102BE000FB6903F007039B0002FA03F3BA6913437E
:102BF000BB61FB69DA087B680832B96943F82210C7
:102C00007B681B68BB61FB695B00032202FA03F36C
:102C1000DB43BA691340BB613B685B6803F00302A6
:102C2000FB695B0002FA03F3BA691343BB617B687B
:102C3000BA691A603B685B6803F44033002B00F00C
:102C4000B4800023FB60604B5B6C5F4A43F48043BD
:102C500053645D4B5B6C03F48043FB60FB685B4A31
:102C6000FB699B08023352F82330BB61FB6903F018
:102C700003039B000F2202FA03F3DB43BA691340FC
:102C8000BB617B68524A93422BD07B68514A934286
:102C900025D07B68504A93421FD07B684F4A9342AD
:102CA00019D07B684E4A934213D07B684D4A9342B9
:102CB0000DD07B684C4A934207D07B684B4A9342C5
:102CC00001D107230EE008230CE006230AE00523C8
:102CD00008E0042306E0032304E0022302E00123CA
:102CE00000E00023FA6902F0030292009340BA69FF
:102CF0001343BB613549FB699B080233BA6941F84C
:102D000023203B4B9B68BB613B69DB43BA691340A3
:102D1000BB613B685B6803F48013002B03D0BA6986
:102D20003B691343BB61324ABB699360304BDB683C
:102D3000BB613B69DB43BA691340BB613B685B68BD
:102D400003F40013002B03D0BA693B691343BB6142
:102D5000274ABB69D360264B5B68BB613B69DB4399
:102D6000BA691340BB613B685B6803F40033002B16
:102D700003D0BA693B691343BB611D4ABB69536009
:102D80001B4B1B68BB613B69DB43BA691340BB61EA
:102D90003B685B6803F48033002B03D0BA693B695E
:102DA0001343BB61124ABB691360FB690133FB61CA
:102DB000FB690F2B7FF690AE00BF00BF2437BD46E6
:102DC0005DF8047B704700BF0038024000380140C6
:102DD000000002400004024000080240000C0240D3
:102DE000001002400014024000180240001C024083
:102DF000003C014080B485B000AF78600B467B801A
:102E00007B681A697B881340002B02D00123FB7377
:102E100001E00023FB73FB7B18461437BD465DF8C9
:102E2000047B704780B483B000AF78600B467B8032
:102E300013467B707B78002B03D07A887B689A617D
:102E400003E07B881A047B689A6100BF0C37BD469B
:102E50005DF8047B7047000080B584B000AF7860F7
:102E60007B68002B01D101232BE17B6893F83D3077
:102E7000DBB2002B06D17B68002283F83C20786807
:102E8000FEF7A8FB7B68242283F83D207B681B6843
:102E90001A687B681B6822F001021A607B681B6855
:102EA0001A687B681B6842F400421A607B681B68E2
:102EB0001A687B681B6822F400421A6003F07EFDEA
:102EC000F8607B685B68814A934207D8FB68804A58
:102ED000934294BF01230023DBB206E0FB687D4AE6
:102EE000934294BF01230023DBB2002B01D00123C6
:102EF000E7E0FB68784AA2FB03239B0CBB607B687E
:102F00001B685B6823F03F017B681B68BA680A4353
:102F10005A607B681B681B6A23F03F017B685B6813
:102F20006A4A934202D8BB68013309E0BB684FF498
:102F3000967202FB03F3694AA2FB03239B09013348
:102F40007A6812680B4313627B681B68DB6923F4A1
:102F50004F4222F0FF027B685B685C498B4219D8C4
:102F6000FB68591E7B685B685B00B1FBF3F3591C7F
:102F700040F6FC730B40002B0AD0FB68591E7B689F
:102F80005B685B00B1FBF3F30133C3F30B0351E068
:102F900004234FE07B689B68002B11D1FB68581E0F
:102FA0007B6859680B465B000B44B0FBF3F30133BD
:102FB000C3F30B03002B0CBF01230023DBB212E091
:102FC000FB68581E7B6859680B469B000B449900B0
:102FD0000B44B0FBF3F30133C3F30B03002B0CBF23
:102FE00001230023DBB2002B01D0012322E07B6808
:102FF0009B68002B0ED1FB68581E7B6859680B46F6
:103000005B000B44B0FBF3F30133C3F30B0343F456
:1030100000430FE0FB68581E7B6859680B469B0015
:103020000B4499000B44B0FBF3F30133C3F30B03E0
:1030300043F44043796809681343CB617B681B689C
:103040001B6823F0C0017B68DA697B681B6A1A433E
:103050007B681B680A431A607B681B689B6823F4C3
:10306000034323F0FF037A6811697A68D268114339
:103070007A6812680B4393607B681B68DB6823F0F7
:10308000FF017B685A697B689B691A437B681B68F0
:103090000A43DA607B681B681A687B681B6842F029
:1030A00001021A607B6800221A647B68202283F880
:1030B0003D207B6800221A637B68002283F83E2053
:1030C000002318461037BD4680BD00BFA086010012
:1030D0007F841E00FF083D0083DE1B43D34D62103A
:1030E00080B483B000AF78607B681B685B6903F0D5
:1030F0008003802B03D17B681B6800221A6100BF0C
:103100000C37BD465DF8047B7047000080B588B081
:1031100002AFF8607A601A460B467B8113463B810A
:10312000FFF7F8F87861FB6893F83D30DBB2202BAD
:1031300040F0E0807B690093192301227049F86810
:1031400002F03AFC0346002B01D00223D3E0FB68D7
:1031500093F83C30012B01D10223CCE0FB68012223
:1031600083F83C20FB681B681B6803F00103012BFC
:1031700007D0FB681B681A68FB681B6842F00102F5
:103180001A60FB681B681A68FB681B6822F40062FF
:103190001A60FB68212283F83D20FB68102283F827
:1031A0003E20FB6800221A64FB687A685A62FB685A
:1031B0003A895A85FB685B8D9AB2FB681A85FB6871
:1031C000504ADA6279897B693A6AF86802F014F940
:1031D0000346002B01D001238DE000233B61FB68F7
:1031E0001B685B693B61FB681B689B693B613B69D2
:1031F00066E07A69396AF86802F0F8FC0346002B49
:103200000DD0FB681B6C042B07D1FB681B681A6888
:10321000FB681B6842F400721A6001236BE0FB68D4
:103220005B6A1A78FB681B681A61FB685B6A5A1C48
:10323000FB685A62FB685B8D9BB2013B9AB2FB68EC
:103240005A85FB681B8D013B9AB2FB681A85FB68A7
:103250001B685B6903F00403042B1BD1FB681B8D07
:10326000002B17D0FB685B6A1A78FB681B681A6131
:10327000FB685B6A5A1CFB685A62FB685B8D9BB2F9
:10328000013B9AB2FB685A85FB681B8D013B9AB2E1
:10329000FB681A857A69396AF86802F0EFFC034620
:1032A000002B0DD0FB681B6C042B07D1FB681B683F
:1032B0001A68FB681B6842F400721A6001231AE066
:1032C000FB681B8D002B94D1FB681B681A68FB6898
:1032D0001B6842F400721A60FB68202283F83D20CC
:1032E000FB68002283F83E20FB68002283F83C2024
:1032F000002300E0022318461837BD4680BD00BFFA
:10330000020010000000FFFF80B58CB002AFF86033
:103310007A601A460B467B8113463B81FEF7FAFF23
:103320007862FB6893F83D30DBB2202B40F01782C7
:103330007B6A0093192301227C49F86802F03CFB68
:103340000346002B01D002230AE2FB6893F83C30CD
:10335000012B01D1022303E2FB68012283F83C2008
:10336000FB681B681B6803F00103012B07D0FB6897
:103370001B681A68FB681B6842F001021A60FB6850
:103380001B681A68FB681B6822F400621A60FB68FD
:10339000222283F83D20FB68102283F83E20FB6840
:1033A00000221A64FB687A685A62FB683A895A8577
:1033B000FB685B8D9AB2FB681A85FB685C4ADA622F
:1033C00079897B6A3A6BF86802F098F80346002B1B
:1033D00001D00123C4E1FB681B8D002B13D1002316
:1033E0003B62FB681B685B693B62FB681B689B690F
:1033F0003B623B6AFB681B681A68FB681B6842F407
:1034000000721A6098E1FB681B8D012B1BD1FB68D1
:103410001B681A68FB681B6822F480621A6000232C
:10342000FB61FB681B685B69FB61FB681B689B6950
:10343000FB61FB69FB681B681A68FB681B6842F448
:1034400000721A6078E1FB681B8D022B1BD1FB68B0
:103450001B681A68FB681B6822F480621A60FB68AC
:103460001B681A68FB681B6842F400621A6000233C
:10347000BB61FB681B685B69BB61FB681B689B6980
:10348000BB61BB6958E1FB681B681A68FB681B6875
:1034900042F480621A6000237B61FB681B685B69F1
:1034A0007B61FB681B689B697B617B6944E1FB680E
:1034B0001B8D032B00F2F180FB681B8D012B23D1A8
:1034C0007A6A396BF86802F053FC0346002B01D08E
:1034D000012345E1FB681B681A69FB685B6AD2B28D
:1034E0001A70FB685B6A5A1CFB685A62FB681B8D8A
:1034F000013B9AB2FB681A85FB685B8D9BB2013B6E
:103500009AB2FB685A8517E1FB681B8D022B4ED1DE
:103510007B6A00933B6B00220649F86802F04CFA84
:103520000346002B08D001231AE100BF020010005F
:103530000000FFFF04000100FB681B681A68FB68BD
:103540001B6842F400721A60FB681B681A69FB680A
:103550005B6AD2B21A70FB685B6A5A1CFB685A62DB
:10356000FB681B8D013B9AB2FB681A85FB685B8D7B
:103570009BB2013B9AB2FB685A85FB681B681A69CB
:10358000FB685B6AD2B21A70FB685B6A5A1CFB6804
:103590005A62FB681B8D013B9AB2FB681A85FB6877
:1035A0005B8D9BB2013B9AB2FB685A85C4E07B6A93
:1035B00000933B6B00226C49F86802F0FDF903466A
:1035C000002B01D00123CBE0FB681B681A68FB6865
:1035D0001B6822F480621A60FB681B681A69FB682A
:1035E0005B6AD2B21A70FB685B6A5A1CFB685A624B
:1035F000FB681B8D013B9AB2FB681A85FB685B8DEB
:103600009BB2013B9AB2FB685A857B6A00933B6B85
:1036100000225549F86802F0CFF90346002B01D08B
:1036200001239DE0FB681B681A68FB681B6842F475
:1036300000721A60FB681B681A69FB685B6AD2B289
:103640001A70FB685B6A5A1CFB685A62FB681B8D28
:10365000013B9AB2FB681A85FB685B8D9BB2013B0C
:103660009AB2FB685A85FB681B681A69FB685B6A3B
:10367000D2B21A70FB685B6A5A1CFB685A62FB681C
:103680001B8D013B9AB2FB681A85FB685B8D9BB270
:10369000013B9AB2FB685A854EE07A6A396BF8684A
:1036A00002F066FB0346002B01D0012358E0FB68C3
:1036B0001B681A69FB685B6AD2B21A70FB685B6AA6
:1036C0005A1CFB685A62FB681B8D013B9AB2FB686F
:1036D0001A85FB685B8D9BB2013B9AB2FB685A85E9
:1036E000FB681B685B6903F00403042B24D1FB68AF
:1036F0001B8D032B07D1FB681B681A68FB681B68CE
:1037000022F480621A60FB681B681A69FB685B6AB6
:10371000D2B21A70FB685B6A5A1CFB685A62FB687B
:103720001B8D013B9AB2FB681A85FB685B8D9BB2CF
:10373000013B9AB2FB685A85FB681B8D002B7FF416
:10374000B6AEFB68202283F83D20FB68002283F898
:103750003E20FB68002283F83C20002300E0022387
:1037600018462837BD4680BD0400010080B58CB0E6
:1037700002AFF860084611461A4603467B810B46A5
:103780003B811346FB80FEF7C5FD7862FB6893F82A
:103790003D30DBB2202B40F014827B6A009319236A
:1037A00001227B49F86802F007F90346002B01D09B
:1037B000022307E2FB6893F83C30012B01D102237E
:1037C00000E2FB68012283F83C20FB681B681B6851
:1037D00003F00103012B07D0FB681B681A68FB6824
:1037E0001B6842F001021A60FB681B681A68FB68DC
:1037F0001B6822F400621A60FB68222283F83D20D5
:10380000FB68402283F83E20FB6800221A64FB68B4
:103810003A6B5A62FB68BA8E5A85FB685B8D9AB226
:10382000FB681A85FB685B4ADA62F8883A8979890D
:103830007B6A0193BB6B00930346F86801F02CFF91
:103840000346002B01D00123BCE1FB681B8D002B3C
:1038500013D100233B62FB681B685B693B62FB681A
:103860001B689B693B623B6AFB681B681A68FB68C4
:103870001B6842F400721A6090E1FB681B8D012BFB
:103880001BD1FB681B681A68FB681B6822F4806206
:103890001A600023FB61FB681B685B69FB61FB68C6
:1038A0001B689B69FB61FB69FB681B681A68FB6806
:1038B0001B6842F400721A6070E1FB681B8D022BDA
:1038C0001BD1FB681B681A68FB681B6822F48062C6
:1038D0001A60FB681B681A68FB681B6842F4006288
:1038E0001A600023BB61FB681B685B69BB61FB68F6
:1038F0001B689B69BB61BB6950E100237B61FB686E
:103900001B685B697B61FB681B689B697B617B69EA
:1039100044E1FB681B8D032B00F2F180FB681B8DDB
:10392000012B23D17A6AB96BF86802F021FA0346B9
:10393000002B01D0012345E1FB681B681A69FB6875
:103940005B6AD2B21A70FB685B6A5A1CFB685A62E7
:10395000FB681B8D013B9AB2FB681A85FB685B8D87
:103960009BB2013B9AB2FB685A8517E1FB681B8D3D
:10397000022B4ED17B6A0093BB6B00220649F8688C
:1039800002F01AF80346002B08D001231AE100BF09
:10399000020010000000FFFF04000100FB681B682C
:1039A0001A68FB681B6842F400721A60FB681B68A7
:1039B0001A69FB685B6AD2B21A70FB685B6A5A1CB0
:1039C000FB685A62FB681B8D013B9AB2FB681A8543
:1039D000FB685B8D9BB2013B9AB2FB685A85FB6822
:1039E0001B681A69FB685B6AD2B21A70FB685B6A73
:1039F0005A1CFB685A62FB681B8D013B9AB2FB683C
:103A00001A85FB685B8D9BB2013B9AB2FB685A85B5
:103A1000C4E07B6A0093BB6B00226C49F86801F03C
:103A2000CBFF0346002B01D00123CBE0FB681B68D2
:103A30001A68FB681B6822F480621A60FB681B68C6
:103A40001A69FB685B6AD2B21A70FB685B6A5A1C1F
:103A5000FB685A62FB681B8D013B9AB2FB681A85B2
:103A6000FB685B8D9BB2013B9AB2FB685A857B6A0F
:103A70000093BB6B00225549F86801F09DFF034697
:103A8000002B01D001239DE0FB681B681A68FB68CE
:103A90001B6842F400721A60FB681B681A69FB68B5
:103AA0005B6AD2B21A70FB685B6A5A1CFB685A6286
:103AB000FB681B8D013B9AB2FB681A85FB685B8D26
:103AC0009BB2013B9AB2FB685A85FB681B681A6976
:103AD000FB685B6AD2B21A70FB685B6A5A1CFB68AF
:103AE0005A62FB681B8D013B9AB2FB681A85FB6822
:103AF0005B8D9BB2013B9AB2FB685A854EE07A6AB5
:103B0000B96BF86802F034F90346002B01D00123A9
:103B100058E0FB681B681A69FB685B6AD2B21A70CE
:103B2000FB685B6A5A1CFB685A62FB681B8D013B91
:103B30009AB2FB681A85FB685B8D9BB2013B9AB217
:103B4000FB685A85FB681B685B6903F00403042B60
:103B500024D1FB681B8D032B07D1FB681B681A68F7
:103B6000FB681B6822F480621A60FB681B681A6994
:103B7000FB685B6AD2B21A70FB685B6A5A1CFB680E
:103B80005A62FB681B8D013B9AB2FB681A85FB6881
:103B90005B8D9BB2013B9AB2FB685A85FB681B8D1B
:103BA000002B7FF4B6AEFB68202283F83D20FB6833
:103BB000002283F83E20FB68002283F83C2000238B
:103BC00000E0022318462837BD4680BD04000100EE
:103BD00080B483B000AF78607B6893F83D30DBB28F
:103BE000202B24D17B68282283F83D207B681B682A
:103BF0001B6803F00103012B07D07B681B681A6860
:103C00007B681B6842F001021A607B681B681A68B7
:103C10007B681B6842F480621A607B681B685A6884
:103C20007B681B6842F440725A60002300E0022364
:103C300018460C37BD465DF8047B704780B588B0E8
:103C400000AF78600023BB617B681B685B687B61A9
:103C50007B68DB6A3B617B6893F83E30FB737B6873
:103C600093F83D30BB73FB7B102B03D0FB7B402BC9
:103C700040F0B1807B681B689B69BB617B681B68F7
:103C80005B69FB61FB6903F00103002B0DD13B690C
:103C9000B3F52A0F03D03B69B3F12A4F01D10123B9
:103CA00000E00023012B00F01481FB6903F0010305
:103CB000002B0BD07B6903F40073002B06D07868CF
:103CC00002F0E2F8786800F07AFD83E0FB6903F027
:103CD0000803002B08D07B6903F40073002B03D08A
:103CE000786800F0F2FD75E0FB6903F00203002B39
:103CF00008D07B6903F40073002B03D0786800F0D0
:103D00000EFE67E0BB6903F00403002B36D07B682E
:103D10001B685B6803F40063B3F5006F00F0DB80A1
:103D2000FB6903F08003002B0DD07B6903F48063F3
:103D3000002B08D0FB6903F00403002B03D1786843
:103D400000F0D6F946E0FB6903F00403002B00F015
:103D5000C2807B6903F40073002B00F0BC80BB7B46
:103D6000212B03D1786800F05FFAB4E0FB7B402B95
:103D700040F0B180786800F0CDFAACE07B681B6859
:103D80005B6803F40063B3F5006F00F0A480FB6987
:103D900003F04003002B0DD07B6903F48063002BFC
:103DA00008D0FB6903F00403002B03D1786800F00E
:103DB00049FB0FE0FB6903F00403002B00F08B804C
:103DC0007B6903F40073002B00F08580786800F0B5
:103DD00001FC80E07FE07B681B6C002B04D07B68DB
:103DE0001B685B69FB6107E07B681B689B69BB61C3
:103DF0007B681B685B69FB61FB6903F00203002BB6
:103E000011D07B6903F40073002B0CD07B681B6C12
:103E1000002B03D07B681B689B69BB61B96978681C
:103E200000F0CCFF5AE0FB6903F01003002B08D030
:103E30007B6903F40073002B03D0786801F006F867
:103E40004CE0BB7B212B02D0BB7B292B20D1FB6913
:103E500003F08003002B0DD07B6903F48063002BFB
:103E600008D0FB6903F00403002B03D1786800F04D
:103E7000E7FE32E0FB6903F00403002B2DD07B69E1
:103E800003F40073002B28D0786800F016FF24E0BC
:103E9000FB6903F04003002B0DD07B6903F48063C2
:103EA000002B08D0FB6903F00403002B03D17868D2
:103EB00000F024FF12E0FB6903F00403002B0DD097
:103EC0007B6903F40073002B08D0786800F054FF7E
:103ED00004E000BF02E000BF00E000BF2037BD46A5
:103EE00080BD80B58AB000AF78607B681B685B6975
:103EF0003B627B681B685B68FB6100237B627B68BD
:103F000093F83E30FB763B6A03F48073002B0DD0B0
:103F1000FB6903F48073002B08D07B6A43F0010334
:103F20007B627B681B686FF480725A613B6A03F4A2
:103F30000073002B0DD0FB6903F48073002B08D0B5
:103F40007B6A43F002037B627B681B686FF400723C
:103F50005A613B6A03F48063002B3ED0FB6903F493
:103F60008073002B39D0FB7EBB767B685B8D9BB268
:103F70007B617B6893F83D30FB747B681B6BFB6057
:103F8000BB7E202B12D17B69002B0FD1FB7C212B18
:103F900008D0FB7C292B05D0FB7C282B06D1FB68A5
:103FA000212B03D1786801F081F816E07B681B684B
:103FB0006FF480625A617B6A43F004037B62FB7E8C
:103FC000102B02D0FB7E402B07D17B681B681A6840
:103FD0007B681B6842F400721A603B6A03F400635A
:103FE000002B0DD0FB6903F48073002B08D07B6A93
:103FF00043F008037B627B681B686FF400625A61C0
:104000007B6A002B08D07B681A6C7B6A1A437B683A
:104010001A64786801F0BEF800BF2837BD4680BD3D
:1040200080B483B000AF786000BF0C37BD465DF848
:10403000047B704780B483B000AF786000BF0C375A
:10404000BD465DF8047B704780B483B000AF7860F4
:1040500000BF0C37BD465DF8047B704780B483B069
:1040600000AF786000BF0C37BD465DF8047B704739
:1040700080B483B000AF78600B46FB7013463B8082
:1040800000BF0C37BD465DF8047B704780B483B039
:1040900000AF786000BF0C37BD465DF8047B704709
:1040A00080B483B000AF786000BF0C37BD465DF8C8
:1040B000047B704780B483B000AF786000BF0C37DA
:1040C000BD465DF8047B704780B483B000AF786074
:1040D00000BF0C37BD465DF8047B704780B483B0E9
:1040E00000AF786000BF0C37BD465DF8047B7047B9
:1040F00080B584B000AF78607B6893F83D30FB7387
:104100007B6893F83E30BB737B68DB6ABB607B687F
:104110001B8D002B50D1FB7B212B4DD1BB68082B75
:104120001DD0BB68202B1AD0BB6813F5803F16D07A
:104130007B681B685A687B681B6822F4E0625A60DF
:104140007B6811221A637B68002283F83E207B681B
:10415000202283F83D207868FFF762FF60E07B68EB
:104160001B685A687B681B6822F4E0625A607B68AF
:104170001B681A687B681B6842F400721A607B68CF
:1041800000221A637B68202283F83D207B6893F825
:104190003E30DBB2402B07D17B68002283F83E2003
:1041A0007868FFF77DFF3BE07B68002283F83E20C4
:1041B0007868FFF735FF33E0FB7B212B05D0BB7B15
:1041C000402B2DD1FB7B222B2AD17B685B8D9BB2B0
:1041D000002B08D17B681B685A687B681B6822F437
:1041E00080625A601CE07B6893F83E30DBB2402B63
:1041F00003D1786800F08EF812E07B685B6A1A7869
:104200007B681B681A617B685B6A5A1C7B685A6210
:104210007B685B8D9BB2013B9AB27B685A85FFE756
:1042200000BF1037BD4680BD80B584B000AF786058
:104230007B68DB6AFB607B6893F83D30DBB2212B47
:1042400064D17B685B8D9BB2002B12D07B685B6A6C
:104250001A787B681B681A617B685B6A5A1C7B68EA
:104260005A627B685B8D9BB2013B9AB27B685A8530
:104270004CE0FB68082B1DD0FB68202B1AD0FB6894
:1042800013F5803F16D07B681B685A687B681B68F3
:1042900022F4E0625A607B6811221A637B68002274
:1042A00083F83E207B68202283F83D207868FFF762
:1042B000B7FE2BE07B681B685A687B681B6822F49A
:1042C000E0625A607B681B681A687B681B6842F46E
:1042D00000721A607B6800221A637B68202283F8D0
:1042E0003D207B6893F83E30DBB2402B07D17B68E2
:1042F000002283F83E207868FFF7D2FE06E07B6854
:10430000002283F83E207868FFF78AFE00BF10374E
:10431000BD4680BD80B584B000AF78607B6893F8FF
:104320003D30FB737B681B6D002B1DD17B68DB6C04
:10433000012B0BD17B689B6CDAB27B681B681A611E
:104340007B681B6D9A1C7B681A6577E07B689B6CA9
:104350009BB21B12DAB27B681B681A617B681B6D0B
:104360005A1C7B681A6569E07B681B6D012B0BD1B9
:104370007B689B6CDAB27B681B681A617B681B6D7B
:104380005A1C7B681A6559E07B681B6D022B52D161
:10439000FB7B222B0DD17B681B681A687B681B682E
:1043A00042F480721A607B681B6D5A1C7B681A6528
:1043B00044E07B685B8D9BB2002B15D0FB7B212BEF
:1043C00012D17B685B6A1A787B681B681A617B680C
:1043D0005B6A5A1C7B685A627B685B8D9BB2013BAF
:1043E0009AB27B685A8529E07B685B8D9BB2002B73
:1043F00024D1FB7B212B21D17B681B685A687B6809
:104400001B6822F4E0625A607B681B681A687B684C
:104410001B6842F400721A607B6800221A637B6892
:10442000202283F83D207B68002283F83E207868B4
:10443000FFF736FE02E07868FEF752FE00BF103745
:10444000BD4680BD80B584B000AF78607B6893F8CE
:104450003D30DBB2222B40F0B9807B68DB6AFB6029
:104460007B685B8D9BB2BB60BB68032B21D97B68EB
:104470001B681A697B685B6AD2B21A707B685B6AD8
:104480005A1C7B685A627B685B8D9BB2013B9AB277
:104490007B685A857B685B8D9BB2032B40F09680CE
:1044A0007B681B685A687B681B6822F480625A60CC
:1044B0008CE07B68DB6A022B7FD0BB68012B02D0CB
:1044C000BB68002B79D1786801F020FC0346002BF3
:1044D0004CD17B681B681A687B681B6822F4806279
:1044E0001A607B681B685A687B681B6822F4E0626C
:1044F0005A607B681B681A697B685B6AD2B21A7063
:104500007B685B6A5A1C7B685A627B685B8D9BB2D6
:10451000013B9AB27B685A857B68202283F83D2054
:104520007B6893F83E30DBB2402B0AD17B680022D7
:1045300083F83E207B6800221A637868FFF7BAFD93
:1045400044E07B68002283F83E20FB68082B02D001
:10455000FB68202B03D17B6800221A6302E07B6892
:1045600012221A637868FFF765FD2FE07B681B68ED
:104570005A687B681B6822F4E0625A607B681B689B
:104580001A697B685B6AD2B21A707B685B6A5A1CD4
:104590007B685A627B685B8D9BB2013B9AB27B68F9
:1045A0005A857B68202283F83D207B68002283F8AF
:1045B0003E207868FFF788FD08E07B681B685A6832
:1045C0007B681B6822F480625A60FFE700BF1037E7
:1045D000BD4680BD80B584B000AF78607B68DB6A83
:1045E000FB607B685B8D9BB2042B1BD17B681B68D7
:1045F0005A687B681B6822F480625A607B681B687B
:104600001A697B685B6AD2B21A707B685B6A5A1C53
:104610007B685A627B685B8D9BB2013B9AB27B6878
:104620005A85C8E07B685B8D9BB2032B29D17B68E0
:104630001B685A687B681B6822F480625A60FB68BA
:10464000042B0AD0FB68022B07D07B681B681A6812
:104650007B681B6822F480621A607B681B681A6999
:104660007B685B6AD2B21A707B685B6A5A1C7B6893
:104670005A627B685B8D9BB2013B9AB27B685A851C
:1046800099E07B685B8D9BB2022B40F08180FB68D8
:10469000012B02D0FB68102B08D17B681B681A68BD
:1046A0007B681B6822F480621A6019E0FB68042BA7
:1046B00002D0FB68022B08D17B681B681A687B68F4
:1046C0001B6842F480621A600AE0FB68102B07D076
:1046D0007B681B681A687B681B6842F400721A606A
:1046E0007B681B681A697B685B6AD2B21A707B6848
:1046F0005B6A5A1C7B685A627B685B8D9BB2013B8C
:104700009AB27B685A857B681B681A697B685B6A0A
:10471000D2B21A707B685B6A5A1C7B685A627B68EB
:104720005B8D9BB2013B9AB27B685A857B681B68A4
:104730005A687B681B6822F440725A607B682022AA
:1047400083F83D207B6893F83E30DBB2402B0AD1E2
:104750007B68002283F83E207B6800221A63786819
:10476000FFF7A8FC27E07B68002283F83E20FB6867
:10477000082B02D0FB68202B03D17B6800221A6330
:1047800002E07B6812221A637868FFF753FC12E09C
:104790007B681B681A697B685B6AD2B21A707B6897
:1047A0005B6A5A1C7B685A627B685B8D9BB2013BDB
:1047B0009AB27B685A8500BF1037BD4680BD80B471
:1047C00083B000AF78607B6893F83E30DBB2402B5B
:1047D00017D17B681B6D002B09D17B685B6CDBB24A
:1047E0001A467B681B6802F0FE021A6167E07B686C
:1047F0005B6CDBB243F00103DAB27B681B681A61C1
:104800005DE07B681B69B3F5804F33D17B6893F81B
:104810003D30DBB2212B09D17B685B6CDBB21A46E1
:104820007B681B6802F0FE021A6108E07B685B6C23
:10483000DBB243F00103DAB27B681B681A617B6864
:104840005B6B002B04D07B685B6BDB6B002B08D1B0
:104850007B689B6B002B32D07B689B6BDB6B002BE8
:104860002DD07B681B685A687B681B6842F4006225
:104870005A6024E07B681B6D002B0ED17B685B6C5B
:104880009BB2DB11DBB203F00603DBB263F00F0374
:10489000DAB27B681B681A6111E07B681B6D012B23
:1048A0000DD17B685B6C9BB2DB11DBB203F00603BE
:1048B000DBB263F00E03DAB27B681B681A6100BFDB
:1048C0000C37BD465DF8047B704780B483B000AF01
:1048D00078607B685B6CDAB27B681B681A617B6806
:1048E0005B6B002B04D07B685B6BDB6B002B08D110
:1048F0007B689B6B002B0CD07B689B6BDB6B002B6E
:1049000007D07B681B685A687B681B6842F40062AA
:104910005A6000BF0C37BD465DF8047B704780B419
:1049200091B000AF78607B6893F83E3087F83F30F5
:104930007B68DB6ABB637B681B6B7B637B6893F87C
:104940003D30DBB2222B40F069817B681B6D002B70
:104950000FD197F83F30402B0BD100233B637B688E
:104960001B685B693B637B681B689B693B633B6BB4
:1049700060E17B681B6D002B1DD17B681B69B3F563
:10498000404F18D10023FB627B681B685B69FB62A8
:104990007B681B689B69FB62FB6A7B681B681A6803
:1049A0007B681B6842F480721A607B681B6D5A1C1E
:1049B0007B681A653EE17B685B8D9BB2002B13D14F
:1049C0000023BB627B681B685B69BB627B681B68FA
:1049D0009B69BB62BB6A7B681B681A687B681B6843
:1049E00042F400721A6015E17B685B8D9BB2012B6B
:1049F00040F08A80BB6B13F5803F37D17B681B6822
:104A00001A687B681B6822F480621A607B681B68E6
:104A10005B6803F40063B3F5006F13D17B681B6818
:104A20001A687B681B6822F480621A6000237B622C
:104A30007B681B685B697B627B681B689B697B6228
:104A40007B6AE7E000233B627B681B685B693B6233
:104A50007B681B689B693B623B6A7B681B681A68C2
:104A60007B681B6842F400721A60D3E0BB6B082BB2
:104A70002ED0BB6B202B2BD07B6B122B02D1BB6BB0
:104A8000012B25D1BB6B042B0ED0BB6B022B0BD0A3
:104A9000BB6B102B08D07B681B681A687B681B688F
:104AA00022F480621A6007E07B681B681A687B68E2
:104AB0001B6842F480621A600023FB617B681B68FC
:104AC0005B69FB617B681B689B69FB61FB69A1E01B
:104AD0007B681B681A687B681B6822F480621A6016
:104AE0000023BB617B681B685B69BB617B681B68DB
:104AF0009B69BB61BB697B681B681A687B681B6824
:104B000042F400721A6085E07B685B8D9BB2022BD9
:104B10004DD1BB6B042B16D0BB6B022B13D0BB6BE0
:104B2000102B10D07B681B681A687B681B6822F406
:104B300080621A607B681B681A687B681B6842F495
:104B400000621A6007E07B681B681A687B681B6854
:104B500042F480621A607B681B685B6803F4006340
:104B6000B3F5006F17D1BB6B13F5803F0BD0BB6B58
:104B7000012B08D0BB6B082B05D0BB6B102B02D0D0
:104B8000BB6B202B07D17B681B685A687B681B684E
:104B900042F480525A6000237B617B681B685B692A
:104BA0007B617B681B689B697B617B6932E07B680A
:104BB0001B681A687B681B6842F480621A607B6815
:104BC0001B685B6803F40063B3F5006F17D1BB6B20
:104BD00013F5803F0BD0BB6B012B08D0BB6B082BB0
:104BE00005D0BB6B102B02D0BB6B202B07D17B6891
:104BF0001B685A687B681B6842F480525A60002325
:104C00003B617B681B685B693B617B681B689B69D8
:104C10003B613B697B6800221A650BE00023FB6067
:104C20007B681B685B69FB607B681B689B69FB603A
:104C3000FB68FFE700BF4437BD465DF8047B704763
:104C400080B584B000AF78607B6893F83D30FB732B
:104C50007B685B8D9BB2002B2BD07B685B6A1A78DC
:104C60007B681B681A617B685B6A5A1C7B685A62A6
:104C70007B685B8D9BB2013B9AB27B685A857B68EF
:104C80005B8D9BB2002B14D1FB7B292B11D17B6850
:104C90001B685A687B681B6822F480625A607B68D4
:104CA00021221A637B68282283F83D207868FFF769
:104CB000CBF900BF1037BD4680BD80B483B000AFD4
:104CC00078607B685B8D9BB2002B11D07B685B6A40
:104CD0001A787B681B681A617B685B6A5A1C7B6860
:104CE0005A627B685B8D9BB2013B9AB27B685A85A6
:104CF00000BF0C37BD465DF8047B704780B584B0BB
:104D000000AF78607B6893F83D30FB737B685B8D08
:104D10009BB2002B2CD07B681B681A697B685B6A8E
:104D2000D2B21A707B685B6A5A1C7B685A627B68D5
:104D30005B8D9BB2013B9AB27B685A857B685B8D29
:104D40009BB2002B14D1FB7B2A2B11D17B681B68F3
:104D50005A687B681B6822F480625A607B68222252
:104D60001A637B68282283F83D207868FFF776F97C
:104D700000BF1037BD4680BD80B483B000AF7860FF
:104D80007B685B8D9BB2002B12D07B681B681A6915
:104D90007B685B6AD2B21A707B685B6A5A1C7B685C
:104DA0005A627B685B8D9BB2013B9AB27B685A85E5
:104DB00000BF0C37BD465DF8047B704780B584B0FA
:104DC00000AF786039600023FB737B6893F83D3057
:104DD000DBB203F02803282B25D17B681B685A68B7
:104DE0007B681B6822F480625A603B6803F004030E
:104DF000002B01D10123FB733B6803F08003002BE0
:104E000003D17B68DB68BB8102E07B689B69BB8167
:104E10007B68002283F83C20BA89FB7B19467868BE
:104E2000FFF726F90EE00023BB607B681B685B6917
:104E3000BB607B681B689B69BB60BB687B680022AA
:104E400083F83C2000BF1037BD4680BD80B584B0DC
:104E500000AF78607B6893F83D30FB737B681B681C
:104E60005A687B681B6822F4E0625A600023BB60CA
:104E70007B681B685B69BB607B681B681A687B6822
:104E80001B6842F001021A60BB687B681B681A68E5
:104E90007B681B6822F480621A607B681B685B6811
:104EA00003F40063B3F5006F72D1FB7B222B02D0B9
:104EB000FB7B2A2B35D17B689B6B1B685B689AB2A6
:104EC0007B685A857B685B8D9BB2002B05D07B6825
:104ED0001B6C43F004027B681A647B681B685A6889
:104EE0007B681B6822F400625A607B689B6B1846E3
:104EF000FDF7D5FD0346012B49D07B689B6B694AC2
:104F00001A657B689B6B1846FDF7A7FD0346002BCF
:104F10003DD07B689B6B1B6D7A68926B10469847FF
:104F200035E07B685B6B1B685B689AB27B685A856F
:104F30007B685B8D9BB2002B05D07B681B6C43F0BC
:104F400004027B681A647B681B685A687B681B686C
:104F500022F400625A607B685B6B1846FDF79FFD88
:104F60000346012B14D07B685B6B4E4A1A657B6845
:104F70005B6B1846FDF771FD0346002B08D07B687C
:104F80005B6B1B6D7A68526B1046984700E000BF60
:104F90007B685B8D9BB2002B3ED07B681B685B6996
:104FA00003F00403042B12D17B681B681A697B6829
:104FB0005B6AD2B21A707B685B6A5A1C7B685A6261
:104FC0007B685B8D9BB2013B9AB27B685A857B689C
:104FD0001B685B6903F04003402B12D17B681B68A0
:104FE0001A697B685B6AD2B21A707B685B6A5A1C6A
:104FF0007B685A627B685B8D9BB2013B9AB27B688F
:105000005A857B685B8D9BB2002B05D07B681B6C3F
:1050100043F004027B681A647B681B6C002B03D08E
:10502000786800F0B7F839E0FB7B2A2B09D17B6860
:1050300000221A637B68282283F83D207868FFF7F6
:105040000DF87B6893F83D30DBB2282B11D17B68DB
:10505000154ADA627B6800221A637B68202283F893
:105060003D207B68002283F83E207868FFF70EF829
:1050700014E07B681B6B222B02D0FB7B222B0DD113
:105080007B6800221A637B68202283F83D207B68BE
:10509000002283F83E207868FEF7E0FF00BF10375B
:1050A000BD4680BD695800080000FFFF80B584B090
:1050B00000AF78607B6893F83D30FB737B68DB6AF8
:1050C000BB60BB68082B02D0BB68202B29D1FB7BBF
:1050D000282B26D17B682E4ADA627B681B685A68C7
:1050E0007B681B6822F4E0625A607B681B686FF47F
:1050F00080625A617B681B681A687B681B6822F4AF
:1051000080621A607B6800221A637B68202283F821
:105110003D207B68002283F83E207868FEF7B6FFCA
:1051200031E0FB7B212B29D17B68194ADA627B684D
:1051300021221A637B68202283F83D207B680022AD
:1051400083F83E207B681B685A687B681B6822F4E2
:10515000E0625A607B681B686FF480625A617B680A
:105160001B681A687B681B6822F480621A60786882
:10517000FDF7B6FF7868FEF767FF04E07B681B6801
:105180006FF480625A6100BF1037BD4680BD00BF1A
:105190000000FFFF80B584B000AF78607B6893F8B3
:1051A0003D30FB737B6893F83E30BB73BB7B102BA9
:1051B00002D0BB7B402B0AD1FB7B222B07D17B6823
:1051C0001B681A687B681B6822F400621A60FB7B0C
:1051D00003F02803282B07D17B6800221A637B6821
:1051E000282283F83D2015E07B681B685B6803F488
:1051F0000063B3F5006F0AD0FB7B602B07D07B68A0
:10520000202283F83D207B68002283F83E207B68C3
:1052100000221A637B681B685B6803F40063B3F5C4
:10522000006F62D17B681B685A687B681B6822F438
:1052300000625A607B685B6B93F83530DBB2012B00
:1052400020D07B685B6B6A4A1A657B685B6B18468B
:10525000FDF703FC0346002B00F089807B681B6888
:105260001A687B681B6822F001021A607B682022A2
:1052700083F83D207B685B6B1B6D7A68526B104630
:10528000984774E07B689B6B594A1A657B689B6BF7
:105290001846FDF7E2FB0346002B68D07B681B68CD
:1052A0005B6903F04003402B0BD17B681B681A69D4
:1052B0007B685B6AD2B21A707B685B6A5A1C7B6837
:1052C0005A627B681B681A687B681B6822F00102BF
:1052D0001A607B68202283F83D207B689B6B1B6DE6
:1052E0007A68926B1046984741E07B6893F83D30AE
:1052F000DBB2602B25D17B68202283F83D207B68C0
:1053000000221A647B681B685B6903F04003402B32
:105310000BD17B681B681A697B685B6AD2B21A7012
:105320007B685B6A5A1C7B685A627B681B681A68D8
:105330007B681B6822F001021A607868FEF7CEFED7
:1053400015E07B681B685B6903F04003402B0BD1C1
:105350007B681B681A697B685B6AD2B21A707B68CB
:105360005B6A5A1C7B685A627868FEF7ADFE7B6800
:105370001B6CBB60BB6803F00103002B0ED1BB6844
:1053800003F00203002B09D1BB6803F00403002BD8
:1053900004D1BB6803F00803002B07D07B681B68AF
:1053A0005A687B681B6822F4E0625A607B6893F855
:1053B0003D30FB737B681B6C03F00403042B13D19B
:1053C000FB7B282B10D17B680A4ADA627B680022BB
:1053D0001A637B68202283F83D207B68002283F8D3
:1053E0003E207868FEF752FE00BF1037BD4680BDF4
:1053F000695800080000FFFF80B588B002AFF86070
:105400007A603B600B467B81FB68DB6A7B617B6972
:10541000082B06D07B69012B03D07B6913F5803FF5
:1054200008D1FB681B681A68FB681B6842F480722D
:105430001A600BE0FB681B6B122B07D1FB681B6823
:105440001A68FB681B6842F480721A603B6800931C
:105450007B6800224FF00111F86800F0ADFA0346B6
:10546000002B0DD0FB681B681B6803F48073B3F539
:10547000807F03D1FB684FF400721A64032335E088
:10548000FB681B69B3F5804F08D17B89DBB21A46F4
:10549000FB681B6802F0FE021A611BE07B89DB11CE
:1054A000DBB203F00603DBB263F00F03DAB2FB6892
:1054B0001B681A613B687A680E49F86800F0F6FAD2
:1054C0000346002B01D0012310E07B89DAB2FB6890
:1054D0001B681A613B687A680749F86800F0E6FAC9
:1054E0000346002B01D0012300E0002318461837A3
:1054F000BD4680BD080001000200010080B588B0F3
:1055000002AFF8607A603B600B467B81FB68DB6A28
:105510007B61FB681B681A68FB681B6842F4806249
:105520001A607B69082B06D07B69012B03D07B694D
:1055300013F5803F08D1FB681B681A68FB681B687D
:1055400042F480721A600BE0FB681B6B112B07D1D1
:10555000FB681B681A68FB681B6842F480721A605B
:105560003B6800937B6800224FF00111F86800F05F
:1055700023FA0346002B0DD0FB681B681B6803F45D
:105580008073B3F5807F03D1FB684FF400721A6417
:10559000032379E0FB681B69B3F5804F08D17B8951
:1055A000DBB243F00103DAB2FB681B681A615FE00B
:1055B0007B89DB11DBB203F00603DBB263F00F0380
:1055C000DAB2FB681B681A613B687A683049F86890
:1055D00000F06CFA0346002B01D0012354E07B89D4
:1055E000DAB2FB681B681A613B687A682949F86877
:1055F00000F05CFA0346002B01D0012344E00023B5
:105600003B61FB681B685B693B61FB681B689B69CE
:105610003B613B69FB681B681A68FB681B6842F4C6
:1056200080721A603B6800937B6800224FF0011182
:10563000F86800F0C1F90346002B0DD0FB681B6829
:105640001B6803F48073B3F5807F03D1FB684FF4CC
:1056500000721A64032317E07B89DB11DBB203F0CD
:105660000603DBB263F00E03DAB2FB681B681A6153
:105670003B687A680749F86800F018FA0346002B7F
:1056800001D0012300E0002318461837BD4680BD35
:10569000080001000200010080B588B002AFF86088
:1056A000084611461A4603467B810B463B8113464A
:1056B000FB80FB681B681A68FB681B6842F4806209
:1056C0001A60FB681B681A68FB681B6842F48072EA
:1056D0001A607B6A00933B6A00224FF00111F86860
:1056E00000F06AF90346002B0DD0FB681B681B68AD
:1056F00003F48073B3F5807F03D1FB684FF400722D
:105700001A640323AAE07B89DBB21A46FB681B6894
:1057100002F0FE021A617B6A3A6A5249F86800F0A8
:10572000C5F90346002B01D0012397E000237B61DC
:10573000FB681B685B697B61FB681B689B697B611D
:105740007B697A6A396AF86800F050FA0346002BE0
:105750000DD0FB681B6C042B07D1FB681B681A6813
:10576000FB681B6842F400721A60012376E0FB8834
:10577000012B05D13B89DAB2FB681B681A6121E075
:105780003B891B0A9BB2DAB2FB681B681A617A6A12
:10579000396AF86800F02AFA0346002B0DD0FB683E
:1057A0001B6C042B07D1FB681B681A68FB681B681D
:1057B00042F400721A60012350E03B89DAB2FB68C0
:1057C0001B681A617A6A396AF86800F00FFA0346B2
:1057D000002B0DD0FB681B6C042B07D1FB681B68EA
:1057E0001A68FB681B6842F400721A60012335E0F6
:1057F000FB681B681A68FB681B6842F480721A60B9
:105800007B6A00933B6A00224FF00111F86800F0B8
:10581000D3F80346002B0DD0FB681B681B6803F40C
:105820008073B3F5807F03D1FB684FF400721A6474
:10583000032313E07B89DBB243F00103DAB2FB6898
:105840001B681A617B6A3A6A0649F86800F02EF90B
:105850000346002B01D0012300E00023184618372F
:10586000BD4680BD0200010080B586B000AF786003
:105870000023FB607B689B6B7B617B6993F83D3009
:10588000FB744B4B1B68DB084A4AA2FB03231A0A32
:1058900013469B001344DA00D31AFB60FB68002B0D
:1058A00006D17B691B6C43F020027B691A640AE015
:1058B000FB68013BFB607B691B681B6803F400739A
:1058C000B3F5007FEAD07B695B6B002B03D07B696B
:1058D0005B6B0022DA637B699B6B002B03D07B69D7
:1058E0009B6B0022DA637B691B681A687B691B6803
:1058F00022F480621A607B6900225A857B695B6BA7
:10590000002B03D07B695B6B00221A657B699B6B64
:10591000002B03D07B699B6B00221A657B691B6897
:105920001A687B691B6822F001021A607B6993F890
:105930003D30DBB2602B0ED17B69202283F83D2005
:105940007B69002283F83E207B6900221A64786913
:10595000FEF7C4FB27E0FB7C03F02803282B17D1BC
:105960007B691B681A687B691B6842F001021A6038
:105970007B691B681A687B691B6842F480621A6045
:105980007B6900221A637B69282283F83D2007E0A7
:105990007B69202283F83D207B69002283F83E202A
:1059A0007869FEF791FB00BF1837BD4680BD00BF88
:1059B0000000002089B5F81480B584B000AFF8600D
:1059C000B9603B601346FB7148E03B68B3F1FF3FB1
:1059D00044D0FCF79FFC0246BB69D31A3A689A424E
:1059E00002D33B68002B39D1BB681B0CDBB2012B07
:1059F0000DD1FB681B685B69DA43BB6813409BB23F
:105A0000002B0CBF01230023DBB21A460CE0FB681D
:105A10001B689B69DA43BB6813409BB2002B0CBF29
:105A200001230023DBB21A46FB799A4216D1FB68A8
:105A300000221A63FB68202283F83D20FB680022C5
:105A400083F83E20FB681B6C43F02002FB681A645D
:105A5000FB68002283F83C20012323E0BB681B0C79
:105A6000DBB2012B0DD1FB681B685B69DA43BB68B5
:105A700013409BB2002B0CBF01230023DBB21A465C
:105A80000CE0FB681B689B69DA43BB6813409BB260
:105A9000002B0CBF01230023DBB21A46FB799A428C
:105AA00093D0002318461037BD4680BD80B584B022
:105AB00000AFF860B9607A603B6071E0FB681B681A
:105AC0005B6903F48063B3F5806F23D1FB681B68C7
:105AD0001A68FB681B6842F400721A60FB681B6856
