:020000040800F2
:100000000000022041250008A5220008AD220008BA
:10001000B5220008BD220008C5220008000000002B
:10002000000000000000000000000000CD220008D9
:10003000DB22000800000000E9220008F722000887
:1000400091250008912500089125000891250008B8
:1000500091250008912500089125000891250008A8
:100060009125000891250008912500089125000898
:100070009125000805230008912500081923000890
:100080009125000891250008912500089125000878
:100090009125000891250008912500089125000868
:1000A0009125000891250008912500089125000858
:1000B0009125000891250008912500082D230008AE
:1000C000412300089125000891250008912500088A
:1000D0009125000891250008912500089125000828
:1000E0009125000891250008912500089125000818
:1000F0009125000891250008912500089125000808
:1001000091250008912500089125000891250008F7
:1001100091250008912500089125000891250008E7
:1001200091250008912500089125000891250008D7
:100130009125000800000000000000009125000843
:1001400091250008912500089125000855230008F5
:1001500091250008912500089125000891250008A7
:10016000692300087D2300089125000891250008D7
:100170009125000891250008000000000000000003
:080180009125000891250008FB
:1001900010B5054C237833B9044B13B10448AFF3C1
:1001A00000800123237010BDD00200200000000059
:1001B000E401010808B5034B1BB103490348AFF341
:1001C000008008BD00000000D4020020E401010806
:1001D00001F0FF01102A2BDB10F0070F08D010F8F8
:1001E000013B013A8B422DD010F0070F42B3F6D1FC
:1001F000F0B441EA012141EA014122F007047FF015
:1002000000070023F0E80256083C85EA010586EA6B
:10021000010685FA47F5A3FA87F586FA47F6A5FAA7
:1002200087F68EB9EED1F0BC01F0FF0102F00702B3
:1002300032B110F8013B013A83EA010313B1F8D15E
:100240000020704701387047002D06BF354603383F
:10025000073815F0010F07D1013015F4807F02BF78
:10026000013015F4C03F0130F0BC0138704700BFC9
:10027000034613F8012B002AFBD1181A01387047E6
:1002800081F0004102E000BF83F0004330B54FEA47
:1002900041044FEA430594EA050F08BF90EA020FB4
:1002A0001FBF54EA000C55EA020C7FEA645C7FEA47
:1002B000655C00F0E2804FEA5454D4EB5555B8BF6A
:1002C0006D420CDD2C4480EA020281EA030382EADB
:1002D000000083EA010180EA020281EA0303362D6D
:1002E00088BF30BD11F0004F4FEA01314FF4801C40
:1002F0004CEA113102D0404261EB410113F0004F52
:100300004FEA03334CEA133302D0524263EB430308
:1003100094EA050F00F0A780A4F10104D5F1200EA6
:100320000DDB02FA0EFC22FA05F2801841F1000101
:1003300003FA0EF2801843FA05F359410EE0A5F1D5
:1003400020050EF1200E012A03FA0EFC28BF4CF006
:10035000020C43FA05F3C01851EBE37101F00045BC
:1003600007D54FF0000EDCF1000C7EEB00006EEBC9
:100370000101B1F5801F1BD3B1F5001F0CD3490853
:100380005FEA30004FEA3C0C04F101044FEA4452AA
:1003900012F5800F80F09A80BCF1004F08BF5FEA31
:1003A000500C50F1000041EB045141EA050130BD11
:1003B0005FEA4C0C404141EB0101013C28BFB1F523
:1003C000801FE9D291F0000F04BF01460020B1FA6E
:1003D00081F308BF2033A3F10B03B3F120020CDA41
:1003E0000C3208DD02F1140CC2F10C0201FA0CF01F
:1003F00021FA02F10CE002F11402D8BFC2F1200C84
:1004000001FA02F120FA0CFCDCBF41EA0C01904039
:10041000E41AA2BF01EB0451294330BD6FEA040482
:100420001F3C1CDA0C340EDC04F11404C4F120026D
:1004300020FA04F001FA02F340EA030021FA04F37F
:1004400045EA030130BDC4F10C04C4F1200220FAD6
:1004500002F001FA04F340EA0300294630BD21FA14
:1004600004F0294630BD94F0000F83F4801306BFDA
:1004700081F480110134013D4EE77FEA645C18BFCE
:100480007FEA655C29D094EA050F08BF90EA020F65
:1004900005D054EA000C04BF1946104630BD91EA5D
:1004A000030F1EBF0021002030BD5FEA545C05D160
:1004B0004000494128BF41F0004130BD14F580049F
:1004C0003CBF01F5801130BD01F0004545F0FE4113
:1004D00041F470014FF0000030BD7FEA645C1ABF48
:1004E000194610467FEA655C1CBF0B46024650EA7F
:1004F000013406BF52EA033591EA030F41F40021AB
:1005000030BD00BF90F0000F04BF0021704730B530
:100510004FF4806404F132044FF000054FF0000105
:1005200050E700BF90F0000F04BF0021704730B5C6
:100530004FF4806404F1320410F0004548BF40429B
:100540004FF000013EE700BF42004FEAE2014FEAF0
:1005500031014FEA02701FBF12F07F4393F07F4FCB
:1005600081F06051704732F07F4208BF704793F0CE
:100570007F4F04BF41F40021704730B54FF46074E1
:1005800001F0004521F000411CE700BF50EA0102E4
:1005900008BF704730B54FF000050AE050EA01028D
:1005A00008BF704730B511F0004502D5404261EBFD
:1005B00041014FF4806404F132045FEA915C3FF43E
:1005C000D8AE4FF003025FEADC0C18BF03325FEADB
:1005D000DC0C18BF033202EBDC02C2F1200300FA8C
:1005E00003FC20FA02F001FA03FE40EA0E0021FAB1
:1005F00002F11444BDE600BF70B54FF0FF0C4CF49F
:10060000E06C1CEA11541DBF1CEA135594EA0C0F50
:1006100095EA0C0F00F0DEF82C4481EA030621EA8B
:100620004C5123EA4C5350EA013518BF52EA0335C6
:1006300041F4801143F4801338D0A0FB02CE4FF078
:100640000005E1FB02E506F00042E0FB03E54FF0A8
:100650000006E1FB03569CF0000F18BF4EF0010EA0
:10066000A4F1FF04B6F5007F64F5407404D25FEA9C
:100670004E0E6D4146EB060642EAC62141EA55514F
:100680004FEAC52040EA5E504FEACE2EB4F1FD0C91
:1006900088BFBCF5E06F1ED8BEF1004F08BF5FEA0F
:1006A000500E50F1000041EB045170BD06F00046C1
:1006B00046EA010140EA020081EA0301B4EB5C046E
:1006C000C2BFD4EB0C0541EA045170BD41F4801166
:1006D0004FF0000E013C00F3AB8014F1360FDEBF8B
:1006E000002001F0004170BDC4F10004203C35DA67
:1006F0000C341BDC04F11404C4F1200500FA05F3EA
:1007000020FA04F001FA05F240EA020001F000428A
:1007100021F0004110EBD37021FA04F642EB060100
:100720005EEA430E08BF20EAD37070BDC4F10C042A
:10073000C4F1200500FA04F320FA05F001FA04F2EE
:1007400040EA020001F0004110EBD37041F10001DA
:100750005EEA430E08BF20EAD37070BDC4F12005E5
:1007600000FA05F24EEA020E20FA04F301FA05F24D
:1007700043EA020321FA04F001F0004121FA04F2F5
:1007800020EA020000EBD3705EEA430E08BF20EAC5
:10079000D37070BD94F0000F0FD101F000464000FF
:1007A00041EB010111F4801F08BF013CF7D041EA81
:1007B000060195F0000F18BF704703F00046520085
:1007C00043EB030313F4801F08BF013DF7D043EA56
:1007D0000603704794EA0C0F0CEA135518BF95EA0C
:1007E0000C0F0CD050EA410618BF52EA4306D1D193
:1007F00081EA030101F000414FF0000070BD50EAB2
:10080000410606BF1046194652EA430619D094EA3B
:100810000C0F02D150EA013613D195EA0C0F05D125
:1008200052EA03361CBF104619460AD181EA030179
:1008300001F0004141F0FE4141F470014FF0000031
:1008400070BD41F0FE4141F4780170BD70B54FF0CC
:10085000FF0C4CF4E06C1CEA11541DBF1CEA13554C
:1008600094EA0C0F95EA0C0F00F0A7F8A4EB05042E
:1008700081EA030E52EA03354FEA013100F0888025
:100880004FEA03334FF0805545EA131343EA1263EE
:100890004FEA022245EA111545EA10654FEA0026A3
:1008A0000EF000419D4208BF964244F1FD0404F55C
:1008B000407402D25B084FEA3202B61A65EB0305B8
:1008C0005B084FEA32024FF480104FF4002CB6EB75
:1008D000020E75EB030E22BFB61A754640EA0C00F5
:1008E0005B084FEA3202B6EB020E75EB030E22BF35
:1008F000B61A754640EA5C005B084FEA3202B6EB76
:10090000020E75EB030E22BFB61A754640EA9C0034
:100910005B084FEA3202B6EB020E75EB030E22BF04
:10092000B61A754640EADC0055EA060E18D04FEAC2
:10093000051545EA16754FEA06164FEAC30343EA62
:1009400052734FEAC2025FEA1C1CC0D111F4801F2F
:100950000BD141EA00014FF000004FF0004CB6E728
:1009600011F4801F04BF01430020B4F1FD0C88BFC7
:10097000BCF5E06F3FF6AFAEB5EB030C04BFB6EBD2
:10098000020C5FEA500C50F1000041EB045170BDC5
:100990000EF0004E4EEA113114EB5C04C2BFD4EBF2
:1009A0000C0541EA045170BD41F480114FF0000E76
:1009B000013C90E645EA060E8DE60CEA135594EAF2
:1009C0000C0F08BF95EA0C0F3FF43BAF94EA0C0FF5
:1009D0000AD150EA01347FF434AF95EA0C0F7FF46A
:1009E00025AF104619462CE795EA0C0F06D152EABE
:1009F00003353FF4FDAE1046194622E750EA4106A2
:100A000018BF52EA43067FF4C5AE50EA41047FF4B2
:100A10000DAF52EA43057FF4EBAE12E74FF0FF3C17
:100A200006E000BF4FF0010C02E000BF4FF0010CE8
:100A30004DF804CD4FEA410C7FEA6C5C4FEA430C61
:100A400018BF7FEA6C5C1BD001B050EA410C0CBFB0
:100A500052EA430C91EA030F02BF90EA020F002012
:100A6000704710F1000F91EA030F58BF994208BF79
:100A700090422CBFD8176FEAE37040F00100704736
:100A80004FEA410C7FEA6C5C02D150EA013C07D18D
:100A90004FEA430C7FEA6C5CD6D152EA033CD3D0D8
:100AA0005DF8040B704700BF8446104662468C46D2
:100AB0001946634600E000BF01B5FFF7B7FF002805
:100AC00048BF10F1000F01BD4DF808EDFFF7F4FF2E
:100AD0000CBF012000205DF808FB00BF4DF808EDB9
:100AE000FFF7EAFF34BF012000205DF808FB00BFDC
:100AF0004DF808EDFFF7E0FF94BF012000205DF8FE
:100B000008FB00BF4DF808EDFFF7CEFF94BF0120B2
:100B100000205DF808FB00BF4DF808EDFFF7C4FFAB
:100B200034BF012000205DF808FB00BF4FEA410CF4
:100B30007FEA6C5C02D150EA013C0AD14FEA430CD7
:100B40007FEA6C5C02D152EA033C02D14FF0000014
:100B500070474FF0010070474FEA410212F5001252
:100B600015D211D56FF47873B3EB625212D94FEAF4
:100B7000C12343F0004343EA505311F0004F23FADE
:100B800002F018BF404270474FF00000704750EA33
:100B9000013005D111F0004008BF6FF000407047F0
:100BA0004FF00000704700BF4A0011D212F500124A
:100BB00011D20DD56FF47873B3EB62520ED44FEAB5
:100BC000C12343F0004343EA505323FA02F0704735
:100BD0004FF00000704750EA013002D14FF0FF3073
:100BE00070474FF00000704753B94AB9002908BF59
:100BF00000281CBF4FF0FF314FF0FF3000F06AB902
:100C0000ADF1080C6DE904CE00F006F8DDF804E063
:100C1000DDE9022304B070472DE9F047089D0C463A
:100C2000002B4ED194468C458646B2FA82F262D9A8
:100C30004AB1C2F12003914020FA03F30CFA02FCFE
:100C4000194300FA02FE4FEA1C471FFA8CF6B1FB6B
:100C5000F7F44FEA1E4307FB141143EA014304FB78
:100C600006F199420AD91CEB030304F1FF3080F02E
:100C70001281994240F20F81023C6344591A1FFAD3
:100C80008EF3B1FBF7F007FB101143EA014300FBC1
:100C900006F69E420AD91CEB030300F1FF3180F0F7
:100CA000FC809E4240F2F980634402389B1B40EA7C
:100CB000044000211DB1D3400022C5E90032BDE847
:100CC000F0878B4205D90DB1C5E900010021084626
:100CD000F5E7B3FA83F1002946D1A34202D390424B
:100CE000C0F0F080861A64EB03030120002DE6D0EB
:100CF000C5E90063E3E7002A40F09080A1EB0C0413
:100D00004FEA1C481FFA8CF70121B4FBF8F64FEAB2
:100D10001E4308FB164443EA044307FB06F09842CF
:100D200008D91CEB030306F1FF3402D2984200F20B
:100D3000CD8026461C1A1FFA8EF3B4FBF8F008FB90
:100D4000104443EA044300FB07F79F4208D91CEB19
:100D5000030300F1FF3402D29F4200F2B08020462C
:100D6000DB1B40EA0640A5E7C1F120068B4022FAD2
:100D700006F71F4320FA06FC04FA01F343EA0C03CA
:100D8000F44000FA01F8380C4FEA1349B4FBF0FEC6
:100D90001FFA87FC00FB1E4449EA04440EFB0CF9D1
:100DA000A14502FA01F20AD93C190EF1FF3A80F08E
:100DB0008480A14540F28180AEF1020E3C44A4EB58
:100DC00009041FFA83F9B4FBF0F300FB134449EA6A
:100DD000044403FB0CFCA44507D93C1903F1FF3084
:100DE00067D2A44565D9023B3C4443EA0E40A0FBD0
:100DF0000293A4EB0C049C42CE469C4651D34ED0A9
:100E000055B1B8EB0E0364EB0C0404FA06F6CB40C4
:100E10001E43CC40C5E90064002150E7C2F1200325
:100E200020FA03F10CFA02FC24FA03F394400C4379
:100E30004FEA1C4800FA02FE1FFA8CF7B3FBF8F0E9
:100E400008FB1031230C43EA014300FB07F19942F0
:100E500008D91CEB030300F1FF362CD299422AD9A2
:100E6000023863445B1AA4B2B3FBF8F108FB1133F8
:100E700044EA034401FB07F3A34208D91CEB040432
:100E800001F1FF3613D2A34211D902396444E41AA6
:100E900041EA004139E70446F0E6084606E7C8455E
:100EA000AED2B9EB020E63EB070C0138A8E731466E
:100EB000EDE7034699E73046D4E7D6467FE763443B
:100EC00002384DE70646234608460FE7023E6344D4
:100ED00030E700BF704700BF80B586B000AF7860D4
:100EE000396007F1080300221A605A609A60DA60DC
:100EF0003B68BB600123FB6000233B6107F10803F3
:100F00001946786801F08AFD0346002B01D000F0F5
:100F100067FE786801F018FC4FF0FF31786801F047
:100F2000E5FC0346002B13D1786801F06AFD034607
:100F30001846FFF7E7FA0AA3D3E90023FFF75CFBA3
:100F400002460B4610461946FFF72EFE034600E008
:100F5000002318461837BD4680BD00BFAFF30080A0
:100F6000B4D934E70C684A3F80B586B002AF034677
:100F70003960FB711346BB80FA1D4FF0FF330093BD
:100F8000012310210B4802F0BBFE0346FB73FB7BE1
:100F9000002B01D0FB7B09E0BB884FF0FF320092B1
:100FA0003A681021034802F0A9FF0346184610379B
:100FB000BD4680BDC403002080B586B000AF786018
:100FC00007F10803022219461420FFF7CDFF03465C
:100FD000002B09D13B7A1B021AB27B7A1BB2134356
:100FE0001BB29BB2BB8101E00023BB8107F1080368
:100FF000022219461620FFF7B7FF0346002B09D13E
:101000003B7A1B021AB27B7A1BB213431BB29BB210
:10101000FB8101E00023FB8107F10C030433012273
:1010200019460220FFF7A0FF0346002B01D0002342
:101030003B7407F10C030533012219460320FFF727
:1010400093FF0346002B01D000237B7407F10C03B0
:101050000633012219460420FFF786FF0346002BC2
:1010600001D00023BB7407F10C030733012219469A
:101070000520FFF779FF0346002B01D00023FB7406
:1010800007F10803022219461220FFF76DFF0346FD
:10109000002B09D13B7A1B021AB27B7A1BB2134395
:1010A0001BB29BB2BB8201E00023BB827B681A4665
:1010B00007F10C0303CB106051601B881381786823
:1010C0001837BD4680BD000080B582B000AF7860A3
:1010D0007B681B68054A934204D10A2204490548EB
:1010E00003F0AEF900BF0837BD4680BD0054004094
:1010F0006C060020C403002080B582B000AF786089
:101100000B46FB7013463B807B681B680E4A93427C
:1011100015D1FB78012B05D10A220C490C4803F0AC
:101120008FF90CE0FB78002B09D10A48FFF7A0F8F3
:1011300003469BB21A460749054803F011F900BF60
:101140000837BD4680BD00BF005400406C0600203B
:10115000C40300200000002080B483B000AF78609A
:1011600000BF0C37BD465DF8047B7047B0B59EB03C
:1011700002AF01F00FFA00F093F900F0ADFC00F0BF
:1011800083FC00F0F7F900F047FA00F097FA00F05E
:10119000E7FA00F013FB00F03FFB00F097FB00F0D4
:1011A000EFFB00F047FC0BF0D1FCA64803F0B8F9C8
:1011B0000021A54807F05CF90C21A44807F058F974
:1011C0000C21A34807F054F901220421A14802F0A0
:1011D00023FC01224FF480619E4802F01DFC012295
:1011E0004FF400619B4802F017FC01224FF480513C
:1011F000984802F011FC98480CF0D6FE0B21974855
:10120000FFF76AFE07EE900AF8EE677A944BC3ED9B
:10121000007A0A219148FFF75FFE07EE900AF8EE88
:10122000677A904BC3ED007A0B218C48FFF754FE90
:1012300007EE900AF8EE677A8B4BC3ED007A0A212D
:101240008648FFF749FE07EE900AF8EE677A874B6B
:10125000C3ED007A0B218148FFF73EFE07EE900AAE
:10126000F8EE677A824BC3ED007A0A217B48FFF7DC
:1012700033FE07EE900AF8EE677A7E4BC3ED007AF4
:101280000B217648FFF728FE07EE900AF8EE677A02
:10129000794BC3ED007A0A217048FFF71DFE07EE77
:1012A000900AF8EE677A754BC3ED007A6C4B1B68B9
:1012B0001846FFF749F904460D466A4B1B68184665
:1012C000FFF742F902460B463846CDE90023224695
:1012D0002B466B490CF086FD3B461846FEF7C8FFCF
:1012E00003469AB239464FF0FF33664807F098FD3F
:1012F0005D4B1B681846FFF727F904460D465B4B0C
:101300001B681846FFF720F902460B463846CDE920
:10131000002322462B465C490CF064FD3B461846F0
:10132000FEF7A6FF03469AB239464FF0FF33554801
:1013300007F076FD4E4B1B681846FFF705F904468B
:101340000D464C4B1B681846FFF7FEF802460B464D
:101350003846CDE9002322462B464C490CF042FD8D
:101360003B461846FEF784FF03469AB239464FF0D3
:10137000FF33444807F054FD3F4B1B681846FFF706
:10138000E3F804460D463D4B1B681846FFF7DCF8B2
:1013900002460B463846CDE9002322462B463C49FF
:1013A0000CF020FD3B461846FEF762FF03469AB25A
:1013B00039464FF0FF33334807F032FD07F164033D
:1013C0001846FFF7F9FD97F86A3003F02003002B69
:1013D0000BD197F86A3003F01003002B05D197F872
:1013E0006A3003F00803002B0DD001224FF4804136
:1013F000184802F011FB4FF0FF33322225492148F3
:1014000007F00EFD0CE000224FF48041114802F07D
:1014100003FB4FF0FF3332221F491A4807F000FD4B
:1014200004210C4802F0E0FA0346012B05D1012209
:101430004FF40071194802F0EFFA4FF4FA7001F01E
:101440001BF9D8E6C40300202C05002074050020F9
:10145000BC05002000040240000201083403002003
:101460004C0600205006002054060020580600209C
:101470005C0600206006002064060020680600204C
:101480000C0201080406002024020108440201089D
:101490005C0201087C020108A4020108000002406D
:1014A00080B594B000AF07F1200330220021184628
:1014B0000CF08CFD07F10C0300221A605A609A6050
:1014C000DA601A610023BB60284B1B6C274A43F08B
:1014D00080531364254B1B6C03F08053BB60BB68C7
:1014E00000237B60224B1B68214A43F48043136036
:1014F0001F4B1B6803F480437B607B6801233B62C6
:101500004FF480337B620223BB634FF48003FB63A1
:1015100004233B6460237B640623BB640423FB64D5
:1015200007F12003184606F0BBFA0346002B01D052
:1015300000F056FB0F23FB6002233B6180237B619D
:101540004FF4C053BB614FF48053FB6107F10C03B0
:101550000021184606F01CFD0346002B01D000F0C8
:101560003FFB00BF5037BD4680BD00BF0038024082
:101570000070004080B584B000AF3B4600221A6086
:101580005A609A60DA60214B214A1A601F4B4FF46F
:1015900080325A601D4B00229A601C4B00221A6157
:1015A0001A4B00221A76194B002283F82020174B81
:1015B0000022DA62154B174A9A62144B0022DA6055
:1015C000124B0122DA61114B002283F830200F4BBD
:1015D00001225A610D4801F073F80346002B01D037
:1015E00000F0FEFA04233B6001237B600023BB6014
:1015F0003B461946054801F011FA0346002B01D07D
:1016000000F0EEFA00BF1037BD4680BDEC020020AE
:10161000002001400100000F80B584B000AF3B46C0
:1016200000221A605A609A60DA60214B214A1A60DF
:101630001F4B4FF480325A601D4B00229A601C4BA6
:1016400000221A611A4B00221A76194B002283F8E5
:101650002020174B0022DA62154B174A9A62144B6E
:101660000022DA60124B0122DA61114B002283F86A
:1016700030200F4B01225A610D4801F021F803463A
:10168000002B01D000F0ACFA06233B6001237B6005
:101690000023BB603B461946054801F0BFF90346ED
:1016A000002B01D000F09CFA00BF1037BD4680BD72
:1016B00034030020002101400100000F80B584B0F8
:1016C00000AF3B4600221A605A609A60DA60214BF4
:1016D000214A1A601F4B4FF480325A601D4B002282
:1016E0009A601C4B00221A611A4B00221A76194B81
:1016F000002283F82020174B0022DA62154B174A8C
:101700009A62144B0022DA60124B0122DA61114B0B
:10171000002283F830200F4B01225A610D4800F05F
:10172000CFFF0346002B01D000F05AFA01233B60A3
:1017300001237B600023BB603B461946054801F04E
:101740006DF90346002B01D000F04AFA00BF1037B4
:10175000BD4680BD7C030020002201400100000F37
:1017600080B500AF124B134A1A60114B124A5A60EF
:101770000F4B00229A600E4B0022DA600C4B4FF4A4
:1017800080421A610A4B00225A61094B00229A6179
:10179000074B0022DA61064B00221A62044802F06D
:1017A00055F90346002B01D000F01AFA00BF80BDA6
:1017B000C403002000540040A086010080B500AFA3
:1017C000124B134A1A60114B124A5A600F4B0022F7
:1017D0009A600E4B0022DA600C4B4FF480421A6183
:1017E0000A4B00225A61094B00229A61074B0022E2
:1017F000DA61064B00221A62044802F027F9034618
:10180000002B01D000F0ECF900BF80BD18040020CF
:10181000005C0040A086010080B58AB000AF07F1EF
:10182000200300221A605A603B1D00221A605A6091
:101830009A60DA601A615A619A61234B4FF08042D4
:101840001A60214B40F2A3125A601F4B00229A608B
:101850001D4B4FF0FF32DA601B4B00221A611A4B0E
:1018600000229A61184806F0B3FD0346002B01D010
:1018700000F0B6F900233B6200237B6207F12003EE
:101880001946114807F000FA0346002B01D000F07A
:10189000A7F960237B600023BB600023FB6000236B
:1018A0007B613B1D00221946074806F0A9FE03464E
:1018B000002B01D000F094F9034800F025FC00BF94
:1018C0002837BD4680BD00BF2C05002080B58AB0FA
:1018D00000AF07F1200300221A605A603B1D00226E
:1018E0001A605A609A60DA601A615A619A61224BF2
:1018F000224A1A60204B40F2A3125A601E4B00226B
:101900009A601D4B4FF6FF72DA601B4B00221A6182
:10191000194B00229A61184806F05AFD0346002B25
:1019200001D000F05DF900233B6200237B6207F1E8
:1019300020031946104807F0A7F90346002B01D0F1
:1019400000F04EF960237B600023BB600023FB6046
:1019500000237B613B1D0C221946074806F050FE10
:101960000346002B01D000F03BF9034800F0CCFB0C
:1019700000BF2837BD4680BD740500200008004028
:1019800080B58AB000AF07F1200300221A605A60C8
:101990003B1D00221A605A609A60DA601A615A612F
:1019A0009A61224B224A1A60204B40F2A3125A60DD
:1019B0001E4B00229A601D4B4FF0FF32DA601B4B2A
:1019C00000221A61194B00229A61184806F000FDA6
:1019D0000346002B01D000F003F900233B620023F3
:1019E0007B6207F120031946104807F04DF90346C2
:1019F000002B01D000F0F4F860237B600023BB6073
:101A00000023FB6000237B613B1D0C221946074825
:101A100006F0F6FD0346002B01D000F0E1F8034884
:101A200000F072FB00BF2837BD4680BDBC0500201A
:101A3000000C004080B500AF114B124A1A60104BE9
:101A40004FF4E1325A600E4B00229A600C4B002298
:101A5000DA600B4B00221A61094B0C225A61084BC9
:101A600000229A61064B0022DA61054807F088F9E6
:101A70000346002B01D000F0B3F800BF80BD00BFCB
:101A800004060020004C004080B582B000AF002367
:101A90007B60104B1B6B0F4A43F4001313630D4B19
:101AA0001B6B03F400137B607B68002200210D2078
:101AB00001F0ADFA0D2001F0C6FA002200210F203E
:101AC00001F0A5FA0F2001F0BEFA00BF0837BD46AD
:101AD00080BD00BF0038024080B58AB000AF07F17A
:101AE000140300221A605A609A60DA601A610023B7
:101AF0003B61384B1B6B374A43F080031363354B14
:101B00001B6B03F080033B613B690023FB60314B9F
:101B10001B6B304A43F0040313632E4B1B6B03F023
:101B20000403FB60FB680023BB602A4B1B6B294A44
:101B300043F001031363274B1B6B03F00103BB60EE
:101B4000BB6800237B60234B1B6B224A43F00203DC
:101B50001363204B1B6B03F002037B607B68002246
:101B600045F604411C4801F057FF00224FF4007174
:101B70001A4801F051FF45F604437B610123BB6124
:101B80000023FB6100233B6207F11403194612484E
:101B900001F08EFD4FF400737B610123BB610023D4
:101BA000FB6100233B6207F1140319460B4801F067
:101BB0007FFD4FF480737B610023BB610023FB61D9
:101BC00007F114031946044801F072FD00BF2837DD
:101BD000BD4680BD003802400004024000000240C3
:101BE00080B400AF72B600BF00BFFDE780B483B021
:101BF00000AF00237B60104B5B6C0F4A43F48043C3
:101C000053640D4B5B6C03F480437B607B68002363
:101C10003B60094B1B6C084A43F080531364064B2E
:101C20001B6C03F080533B603B6800BF0C37BD4624
:101C30005DF8047B704700BF0038024080B590B06B
:101C400000AF786007F12C0300221A605A609A6096
:101C5000DA601A617B681B686C4A934242D10023A8
:101C6000BB626B4B5B6C6A4A43F480735364684B92
:101C70005B6C03F48073BB62BB6A00237B62644BC2
:101C80001B6B634A43F004031363614B1B6B03F04C
:101C900004037B627B6A00233B625D4B1B6B5C4AE7
:101CA00043F0010313635A4B1B6B03F001033B62C8
:101CB0003B6A3C23FB6203233B6300237B6307F106
:101CC0002C031946534801F0F3FC3023FB62032335
:101CD0003B6300237B6307F12C0319464E4801F058
:101CE000E7FC8EE07B681B684C4A93425CD1002382
:101CF000FB61474B5B6C464A43F400735364444BAF
:101D00005B6C03F40073FB61FB690023BB61404B18
:101D10001B6B3F4A43F0040313633D4B1B6B03F003
:101D20000403BB61BB6900237B61394B1B6B384AE1
:101D300043F001031363364B1B6B03F001037B611C
:101D40007B6900233B61324B1B6B314A43F002033A
:101D500013632F4B1B6B03F002033B613B690323AF
:101D6000FB6203233B6300237B6307F12C031946CB
:101D7000284801F09DFCC023FB6203233B63002342
:101D80007B6307F12C031946234801F091FC0323E0
:101D9000FB6203233B6300237B6307F12C0319469B
:101DA0001F4801F085FC2CE07B681B681D4A9342AC
:101DB00027D10023FB60164B5B6C154A43F480630C
:101DC0005364134B5B6C03F48063FB60FB6800237C
:101DD000BB600F4B1B6B0E4A43F0010313630C4BAC
:101DE0001B6B03F00103BB60BB680623FB6203238C
:101DF0003B6300237B6307F12C031946064801F07F
:101E000057FC00BF4037BD4680BD00BF00200140E9
:101E1000003802400008024000000240002101405A
:101E2000000402400022014080B58CB000AF786011
:101E300007F11C0300221A605A609A60DA601A6186
:101E40007B681B68804A93423CD10023BB617F4B77
:101E50001B6B7E4A43F0020313637C4B1B6B03F046
:101E60000203BB61BB69C023FB6112233B620123F8
:101E70007B620323BB620423FB6207F11C03194648
:101E8000734801F015FC00237B61704B1B6C6F4A9B
:101E900043F4001313646D4B1B6C03F400137B615C
:101EA0007B69002200211F2001F0B1F81F2001F002
:101EB000CAF800220021202001F0A9F8202001F01A
:101EC000C2F8BDE07B681B68624A934240F0B8806C
:101ED00000233B615D4B1B6B5C4A43F004031363BF
:101EE0005A4B1B6B03F004033B613B690023FB600F
:101EF000564B1B6B554A43F001031363534B1B6B4B
:101F000003F00103FB60FB684FF40073FB611223D5
:101F10003B6201237B620323BB620423FB6207F164
:101F20001C0319464C4801F0C3FB4FF48073FB615E
:101F300012233B6201237B620323BB620423FB6207
:101F400007F11C031946454801F0B2FB0023BB60B2
:101F50003E4B1B6C3D4A43F4000313643B4B1B6C2C
:101F600003F40003BB60BB683D4B3E4A1A603C4B28
:101F70004FF0C0625A603A4B40229A60384B0022C0
:101F8000DA60374B4FF480621A61354B00225A6198
:101F9000334B00229A61324B0022DA61304B00222F
:101FA0001A622F4B00225A622D4801F067F803464F
:101FB000002B01D0FFF714FE7B68294A5A63284A98
:101FC0007B689363284B294A1A60274B4FF0C06205
:101FD0005A60254B00229A60234B0022DA60224B84
:101FE0004FF480621A61204B00225A611E4B00227E
:101FF0009A611D4B0022DA611B4B00221A621A4BB8
:1020000000225A62184801F039F80346002B01D02B
:10201000FFF7E6FD7B68144A9A63134A7B68936373
:1020200000220021482000F0F2FF482001F00BF8C8
:1020300000220021492000F0EAFF492001F003F8C6
:1020400000BF3037BD4680BD00540040003802401C
:1020500000040240005C0040000802400000024012
:102060006C04002070600240CC04002040600240FC
:1020700080B487B000AF78607B681B68B3F1804F95
:102080000ED100237B611D4B1B6C1C4A43F00103E6
:1020900013641A4B1B6C03F001037B617B6926E020
:1020A0007B681B68164A93420ED100233B61134B99
:1020B0001B6C124A43F004031364104B1B6C03F0B7
:1020C00004033B613B6912E07B681B680D4A934245
:1020D0000DD10023FB60094B1B6C084A43F0080339
:1020E0001364064B1B6C03F00803FB60FB6800BF26
:1020F0001C37BD465DF8047B704700BF00380240C6
:1021000000080040000C004080B58AB000AF786045
:1021100007F1140300221A605A609A60DA601A61AB
:102120007B681B68B3F1804F1ED100233B61344BA9
:102130001B6B334A43F001031363314B1B6B03F0FA
:1021400001033B613B6901237B610223BB610023E7
:10215000FB6100233B6201237B6207F114031946F4
:10216000284801F0A5FA47E07B681B68264A93429D
:102170001FD10023FB60224B1B6B214A43F002035B
:1021800013631F4B1B6B03F00203FB60FB684FF4F0
:1021900000737B610223BB610023FB6100233B6270
:1021A00002237B6207F114031946184801F080FAF4
:1021B00022E07B681B68164A93421DD10023BB6056
:1021C0000F4B1B6B0E4A43F0010313630C4B1B6B4D
:1021D00003F00103BB60BB6808237B610223BB6182
:1021E0000023FB6100233B6202237B6207F114039F
:1021F0001946044801F05CFA00BF2837BD4680BD8F
:102200000038024000000240000800400004024084
:10221000000C004080B58AB000AF786007F114036D
:1022200000221A605A609A60DA601A617B681B6843
:10223000194A93422CD100233B61184B1B6C174A5F
:1022400043F400231364154B1B6C03F400233B6120
:102250003B690023FB60114B1B6B104A43F00403E6
:1022600013630E4B1B6B03F00403FB60FB684FF41E
:1022700040637B610223BB610023FB6103233B625C
:1022800008237B6207F114031946054801F010FA90
:1022900000BF2837BD4680BD004C004000380240DA
:1022A0000008024080B400AF00BFFDE780B400AF7B
:1022B00000BFFDE780B400AF00BFFDE780B400AF12
:1022C00000BFFDE780B400AF00BFFDE780B400AF02
:1022D00000BFBD465DF8047B704780B400AF00BF0F
:1022E000BD465DF8047B704780B400AF00BFBD46BB
:1022F0005DF8047B704780B500AF00F09DF900BF2A
:1023000080BD000080B500AF024800F087FF00BF2D
:1023100080BD00BFCC04002080B500AF024800F0B3
:102320007DFF00BF80BD00BF6C04002080B500AF02
:10233000024802F02BF900BF80BD00BFC40300209B
:1023400080B500AF024802F074FA00BF80BD00BF44
:10235000C403002080B500AF024804F092FA00BF29
:1023600080BD00BF601B002080B500AF024802F0B6
:102370000DF900BF80BD00BF1804002080B500AF7C
:10238000024802F056FA00BF80BD00BF18040020CA
:1023900080B400AF01231846BD465DF8047B70474A
:1023A00080B582B000AF786039600BF01BFE034649
:1023B00016221A604FF0FF3318460837BD4680BD1D
:1023C00080B582B000AF78604FF0FF317868FFF7DA
:1023D000E7FF00BFFDE780B586B000AFF860B960E9
:1023E0007A6000237B610AE0AFF300800146BB689E
:1023F0005A1CBA60CAB21A707B6901337B617A6970
:102400007B689A42F0DB7B6818461837BD4680BD72
:1024100080B586B000AFF860B9607A6000237B6158
:1024200009E0BB685A1CBA601B781846AFF30080FD
:102430007B6901337B617A697B689A42F1DB7B6857
:1024400018461837BD4680BD80B483B000AF7860B1
:102450004FF0FF3318460C37BD465DF8047B7047DC
:1024600080B483B000AF786039603B684FF40052AD
:102470005A60002318460C37BD465DF8047B704750
:1024800080B483B000AF7860012318460C37BD4696
:102490005DF8047B704780B485B000AFF860B96028
:1024A0007A60002318461437BD465DF8047B7047F8
:1024B00080B586B000AF7860144A154BD31A7B61A3
:1024C0007B693B61134B1B68002B02D1114B124AF5
:1024D0001A60104B1A687B6813443A699A4207D213
:1024E0000BF080FD03460C221A604FF0FF3309E029
:1024F000084B1B68FB60074B1A687B681344054A4E
:102500001360FB6818461837BD4680BD00000220E6
:102510000004000078060020B023002080B400AF43
:10252000064BD3F88830054A43F47003C2F888306C
:1025300000BFBD465DF8047B704700BF00ED00E0C2
:10254000DFF834D0FFF7EAFF0C480D490D4A0023AD
:1025500002E0D458C4500433C4188C42F9D30A4A58
:102560000A4C002301E013600432A242FBD30BF0BB
:102570003FFDFEF7FBFD7047000002200000002039
:10258000D0020020C0060108D0020020B0230020A5
:10259000FEE7000080B500AF0E4B1B680D4A43F408
:1025A000007313600B4B1B680A4A43F4806313608B
:1025B000084B1B68074A43F480731360032000F044
:1025C0001BFD0F2000F008F8FFF710FB0023184652
:1025D00080BD00BF003C024080B582B000AF786093
:1025E000124B1A68124B1B7819464FF47A73B3FBDF
:1025F000F1F3B2FBF3F3184600F033FD0346002B72
:1026000001D001230EE07B680F2B0AD800227968E5
:102610004FF0FF3000F0FBFC064A7B68136000239C
:1026200000E0012318460837BD4680BD0C0000209D
:10263000140000201000002080B400AF064B1B786F
:102640001A46064B1B681344044A136000BFBD467C
:102650005DF8047B704700BF140000207C0600205A
:1026600080B400AF034B1B681846BD465DF8047B81
:10267000704700BF7C06002080B584B000AF786052
:10268000FFF7EEFFB8607B68FB60FB68B3F1FF3FCC
:1026900005D00A4B1B781A46FB681344FB6000BF49
:1026A000FFF7DEFF0246BB68D31AFA689A42F7D8F2
:1026B00000BF00BF1037BD4680BD00BF1400002022
:1026C00080B584B000AF78600023FB737B68002B7B
:1026D00001D1012333E07B681B6C002B09D17868A2
:1026E000FFF7ACFA7B6800225A647B68002283F80B
:1026F0003C207B681B6C03F01003002B18D17B6817
:102700001B6C23F4885323F0020343F002027B681E
:102710001A64786800F0A4FA7B6800225A647B6827
:102720001B6C23F0030343F001027B681A6401E091
:102730000123FB737B68002283F83C20FB7B184657
:102740001037BD4680BD000080B485B000AF786012
:102750000023BB607B6893F83C30012B01D102233E
:10276000B2E07B68012283F83C207B681B689B6891
:1027700003F00103012B18D07B681B689A687B6803
:102780001B6842F001029A60524B1B68524AA2FB3E
:1027900003239A0C13465B001344BB6002E0BB6842
:1027A000013BBB60BB68002BF9D17B681B689B6851
:1027B00003F00103012B7AD17B681B6C23F4E063E7
:1027C00023F0010343F480727B681A647B681B6802
:1027D0005B6803F48063002B07D07B681B6C23F4D9
:1027E000405343F480527B681A647B681B6C03F48B
:1027F0008053B3F5805F06D17B685B6C23F00602E3
:102800007B685A6402E07B6800225A647B6800227D
:1028100083F83C20314BFB607B681B686FF0220221
:102820001A60FB685B6803F01F03002B2AD17B68EA
:102830001B682B4A934215D07B681B68294A934238
:1028400005D1264B5B6803F01F03002B0AD07B6881
:102850001B68254A934236D1204B5B6803F0100376
:10286000002B30D17B681B689B6803F04053002B22
:1028700029D17B681B689A687B681B6842F080429C
:102880009A6020E07B681B68154A93421BD17B68E5
:102890001B689B6803F04053002B14D17B681B68B6
:1028A0009A687B681B6842F080429A600BE07B6804
:1028B0001B6C43F010027B681A647B685B6C43F00E
:1028C00001027B685A64002318461437BD465DF840
:1028D000047B70470C00002083DE1B430023014073
:1028E00000200140002101400022014080B584B059
:1028F00000AF786039600023FB607B681B689B68D1
:1029000003F48063B3F5806F13D17B681B689B6809
:1029100003F48073B3F5807F0BD17B681B6C43F0AD
:1029200020027B681A647B68002283F83C20012324
:1029300063E0FFF795FEF86021E03B68B3F1FF3FED
:102940001DD03B68002B07D0FFF78AFE0246FB68CC
:10295000D31A3A689A4212D27B681B681B6803F04C
:102960000203022B0BD07B681B6C43F004027B68D4
:102970001A647B68002283F83C2003233DE07B68D7
:102980001B681B6803F00203022BD6D17B681B680F
:102990006FF012021A607B681B6C43F400727B6854
:1029A0001A647B681B689B6803F04053002B23D19B
:1029B0007B681B7E002B1FD17B681B68DB6A03F4DE
:1029C0007003002B06D07B681B689B6803F4806350
:1029D000002B11D17B681B6C23F480727B681A6416
:1029E0007B681B6C03F48053002B05D17B681B6C48
:1029F00043F001027B681A64002318461037BD4675
:102A000080BD80B483B000AF78607B681B68DB6CEE
:102A100018460C37BD465DF8047B704780B485B01E
:102A200000AF786039600023BB607B6893F83C306E
:102A3000012B01D1022305E17B68012283F83C20B0
:102A40003B681B68092B25D97B681B68D9683B68E4
:102A50001B689BB21A4613465B0013441E3B0722B9
:102A600002FA03F3DA437B681B680A40DA607B688A
:102A70001B68D9683B689A683B681B689BB218461C
:102A800003465B0003441E3B9A407B681B680A4375
:102A9000DA6022E07B681B6819693B681B689BB29F
:102AA0001A4613465B001344072202FA03F3DA4383
:102AB0007B681B680A401A617B681B6819693B6860
:102AC0009A683B681B689BB2184603465B00034448
:102AD0009A407B681B680A431A613B685B68062B57
:102AE00024D87B681B68596B3B685A6813469B0067
:102AF0001344053B1F2202FA03F3DA437B681B6889
:102B00000A405A637B681B68596B3B681B689BB221
:102B100018463B685A6813469B001344053B00FA6D
:102B200003F27B681B680A435A634CE03B685B68AE
:102B30000C2B24D87B681B68196B3B685A681346BA
:102B40009B001344233B1F2202FA03F3DA437B6802
:102B50001B680A401A637B681B68196B3B681B681B
:102B60009BB218463B685A6813469B001344233BAC
:102B700000FA03F27B681B680A431A6323E07B6850
:102B80001B68D96A3B685A6813469B001344413B53
:102B90001F2202FA03F3DA437B681B680A40DA62F9
:102BA0007B681B68D96A3B681B689BB218463B6808
:102BB0005A6813469B001344413B00FA03F27B68BA
:102BC0001B680A43DA62224BFB607B681B68214A60
:102BD000934209D13B681B68122B05D1FB685B68E7
:102BE00043F48002FB685A607B681B68194A934271
:102BF00023D13B681B68102B03D03B681B68112B4B
:102C00001BD1FB685B6843F40002FB685A603B68B9
:102C10001B68102B11D1104B1B68104AA2FB032319
:102C20009A0C13469B0013445B00BB6002E0BB6838
:102C3000013BBB60BB68002BF9D17B68002283F8A5
:102C40003C20002318461437BD465DF8047B7047CE
:102C500000230140002001400C00002083DE1B43C4
:102C600080B485B000AF7860794BFB60FB685B682F
:102C700023F44032FB685A60FB685A687B685B68E3
:102C80001A43FB685A607B681B685A687B681B683C
:102C900022F480725A607B681B6859687B681B69E4
:102CA0001A027B681B680A435A607B681B685A6873
:102CB0007B681B6822F040725A607B681B68596809
:102CC0007B689A687B681B680A435A607B681B684C
:102CD0009A687B681B6822F400629A607B681B68B4
:102CE00099687B68DA687B681B680A439A607B682E
:102CF0009B6A584A934222D07B681B689A687B681B
:102D00001B6822F070629A607B681B6899687B6818
:102D10009A6A7B681B680A439A607B681B689A689A
:102D20007B681B6822F040529A607B681B68996838
:102D30007B68DA6A7B681B680A439A600FE07B68ED
:102D40001B689A687B681B6822F070629A607B68D7
:102D50001B689A687B681B6822F040529A607B6807
:102D60001B689A687B681B6822F002029A607B6885
:102D70001B6899687B681B7E5A007B681B680A4346
:102D80009A607B6893F82030002B1BD07B681B680F
:102D90005A687B681B6842F400625A607B681B6853
:102DA0005A687B681B6822F460425A607B681B6823
:102DB00059687B685B6A013B5A037B681B680A435E
:102DC0005A6007E07B681B685A687B681B6822F4BE
:102DD00000625A607B681B68DA6A7B681B6822F4B1
:102DE0007002DA627B681B68D96A7B68DB69013B29
:102DF0001A057B681B680A43DA627B681B689A685D
:102E00007B681B6822F400729A607B681B68996873
:102E10007B6893F830305A027B681B680A439A60DB
:102E20007B681B689A687B681B6822F480629A60E2
:102E30007B681B6899687B685B699A027B681B6882
:102E40000A439A6000BF1437BD465DF8047B7047A3
:102E5000002301400100000F80B485B000AF78600E
:102E60007B6803F00703FB600C4BDB68BB60BA6850
:102E70004FF6FF031340BB60FB681A02BB681343A5
:102E800043F0BF6343F40033BB60044ABB68D360C4
:102E900000BF1437BD465DF8047B704700ED00E0CD
:102EA00080B400AF044BDB681B0A03F0070318462D
:102EB000BD465DF8047B704700ED00E080B483B050
:102EC00000AF0346FB7197F90730002B0BDBFB7952
:102ED00003F01F02074997F907305B09012000FA48
:102EE00002F241F8232000BF0C37BD465DF8047B99
:102EF000704700BF00E100E080B483B000AF03463C
:102F00003960FB7197F90730002B0ADB3B68DAB2B6
:102F10000C4997F907301201D2B20B4483F8002311
:102F20000AE03B68DAB20849FB7903F00F03043B7F
:102F30001201D2B20B441A7600BF0C37BD465DF8C1
:102F4000047B704700E100E000ED00E080B489B050
:102F500000AFF860B9607A60FB6803F00703FB61BB
:102F6000FB69C3F10703042B28BF0423BB61FB6982
:102F70000433062B02D9FB69033B00E000237B618D
:102F80004FF0FF32BB6902FA03F3DA43BB681A4021
:102F90007B699A404FF0FF317B6901FA03F3D94313
:102FA0007B680B40134318462437BD465DF8047B0D
:102FB0007047000080B582B000AF78607B68013B4D
:102FC000B3F1807F01D301230FE00A4A7B68013B04
:102FD00053600F214FF0FF30FFF78EFF054B0022AB
:102FE0009A60044B07221A60002318460837BD4632
:102FF00080BD00BF10E000E080B582B000AF786017
:103000007868FFF729FF00BF0837BD4680BD80B54F
:1030100086B000AF0346B9607A60FB7300237B6122
:10302000FFF73EFF78617A68B9687869FFF78EFF2D
:10303000024697F90F3011461846FFF75DFF00BFB3
:103040001837BD4680BD80B582B000AF0346FB7126
:1030500097F907301846FFF731FF00BF0837BD4624
:1030600080BD80B582B000AF78607868FFF7A2FFBE
:10307000034618460837BD4680BD000080B586B0BF
:1030800000AF786000237B61FFF7EAFA38617B6864
:10309000002B01D1012399E07B68022283F83520BF
:1030A0007B68002283F834207B681B681A687B6881
:1030B0001B6822F001021A600FE0FFF7D1FA024606
:1030C0003B69D31A052B08D97B6820225A657B6897
:1030D000032283F83520032378E07B681B681B6894
:1030E00003F00103002BE8D17B681B681B687B6140
:1030F0007A69384B13407B617B685A687B689B68B0
:103100001A437B68DB681A437B681B691A437B6838
:103110005B691A437B689B691A437B68DB691A43C6
:103120007B681B6A13437A6913437B617B685B6A24
:10313000042B07D17B68DA6A7B681B6B13437A69BF
:1031400013437B617B681B687A691A607B681B6824
:103150005B697B617B6923F007037B617B685B6A4A
:103160007A6913437B617B685B6A042B17D17B68A8
:103170009B6A7A6913437B617B68DB6A002B0ED004
:10318000786800F019FA0346002B08D07B684022CB
:103190005A657B68012283F83520012316E07B689D
:1031A0001B687A695A61786800F0D0F90346FB60C1
:1031B0007B68DB6D3F229A40FB689A607B68002247
:1031C0005A657B68012283F835200023184618379A
:1031D000BD4680BD3F8010F080B483B000AF786002
:1031E0007B6893F83530DBB2022B04D07B688022F9
:1031F0005A6501230CE07B68052283F835207B6843
:103200001B681A687B681B6822F001021A600023A1
:1032100018460C37BD465DF8047B704780B586B014
:1032200000AF78600023BB608E4B1B688E4AA2FB08
:1032300003239B0A7B617B689B6D3B613B691B6839
:10324000FB607B68DB6D08229A40FB681340002B13
:103250001AD07B681B681B6803F00403002B13D093
:103260007B681B681A687B681B6822F004021A607E
:103270007B68DB6D08229A403B699A607B685B6DD6
:1032800043F001027B685A657B68DB6D01229A403E
:10329000FB681340002B12D07B681B685B6903F04E
:1032A0008003002B0BD07B68DB6D01229A403B69C9
:1032B0009A607B685B6D43F002027B685A657B68AD
:1032C000DB6D04229A40FB681340002B12D07B6810
:1032D0001B681B6803F00203002B0BD07B68DB6DBF
:1032E00004229A403B699A607B685B6D43F004025C
:1032F0007B685A657B68DB6D10229A40FB6813403F
:10330000002B43D07B681B681B6803F00803002B6D
:103310003CD07B68DB6D10229A403B699A607B68E9
:103320001B681B6803F48023002B18D07B681B6884
:103330001B6803F40023002B08D17B681B6C002B57
:1033400024D07B681B6C786898471FE07B689B6C77
:10335000002B1BD07B689B6C7868984716E07B68D5
:103360001B681B6803F48073002B07D17B681B6804
:103370001A687B681B6822F008021A607B681B6C65
:10338000002B03D07B681B6C786898477B68DB6DEB
:1033900020229A40FB681340002B00F08F807B684E
:1033A0001B681B6803F01003002B00F087807B680C
:1033B000DB6D20229A403B699A607B6893F8353038
:1033C000DBB2052B36D17B681B681A687B681B68EB
:1033D00022F016021A607B681B685A697B681B68BA
:1033E00022F080025A617B681B6C002B03D17B6842
:1033F0009B6C002B07D07B681B681A687B681B6876
:1034000022F008021A607B68DB6D3F229A403B691C
:103410009A607B68012283F835207B68002283F85C
:1034200034207B681B6D002B7ED07B681B6D786819
:10343000984779E07B681B681B6803F48023002BA6
:103440001DD07B681B681B6803F40023002B0DD183
:103450007B685B6C002B31D07B685B6C786898472D
:103460002CE000BF0C000020B5814E1B7B68DB6B9D
:10347000002B23D07B68DB6B786898471EE07B6865
:103480001B681B6803F48073002B0FD17B681B68DB
:103490001A687B681B6822F010021A607B680122A0
:1034A00083F835207B68002283F834207B68DB6B4F
:1034B000002B03D07B68DB6B786898477B685B6D7B
:1034C000002B32D07B685B6D03F00103002B22D010
:1034D0007B68052283F835207B681B681A687B6847
:1034E0001B6822F001021A60BB680133BB607A6975
:1034F0009A4207D37B681B681B6803F00103002B0B
:10350000F2D100E000BF7B68012283F835207B68A0
:10351000002283F834207B68DB6C002B05D07B68AD
:10352000DB6C7868984700E000BF1837BD4680BD67
:1035300080B483B000AF78607B6893F83530DBB23D
:1035400018460C37BD465DF8047B704780B485B0E3
:1035500000AF78607B681B68DBB2103B144AA2FBAB
:1035600003231B09FB60134AFB6813441B781A46AC
:103570007B68DA65FB68032B09D97B681B6823F439
:103580007F7323F003031A1D7B689A6507E07B684D
:103590001B6823F47F7323F003037A6893657B68C9
:1035A0009B6D18461437BD465DF8047B704700BF1D
:1035B000ABAAAAAA3803010880B485B000AF78602E
:1035C0000023FB737B689B6ABB607B689B69002B55
:1035D0001FD1BB68032B56D801A252F823F000BFBD
:1035E000F135000803360008F13500088736000879
:1035F0007B68DB6A03F08073002B46D00123FB73EA
:1036000043E07B68DB6AB3F1C07F40D10123FB73E9
:103610003DE07B689B69B3F5005F21D1BB68032B5C
:1036200037D801A252F823F0393600083F36000897
:1036300039360008513600080123FB7330E07B68FF
:10364000DB6A03F08073002B25D00123FB7322E09B
:103650007B68DB6AB3F1C07F1FD10123FB731CE0E1
:10366000BB68022B03D9BB68032B03D018E00123EE
:10367000FB7315E07B68DB6A03F08073002B0ED0D0
:103680000123FB730BE000BF0AE000BF08E000BFAE
:1036900006E000BF04E000BF02E000BF00E000BFA2
:1036A000FB7B18461437BD465DF8047B704700BFAE
:1036B00080B489B000AF7860396000237B6100235B
:1036C0003B610023BB610023FB616BE10122FB69CD
:1036D00002FA03F37B613B681B687A6913403B6124
:1036E0003A697B699A4240F05A813B685B6803F013
:1036F0000303012B05D03B685B6803F00303022B37
:1037000030D17B689B68BB61FB695B00032202FAD6
:1037100003F3DB43BA691340BB613B68DA68FB69BA
:103720005B0002FA03F3BA691343BB617B68BA69B1
:103730009A607B685B68BB610122FB6902FA03F354
:10374000DB43BA691340BB613B685B681B0903F04C
:103750000102FB6902FA03F3BA691343BB617B6898
:10376000BA695A603B685B6803F00303032B17D008
:103770007B68DB68BB61FB695B00032202FA03F331
:10378000DB43BA691340BB613B689A68FB695B0025
:1037900002FA03F3BA691343BB617B68BA69DA6062
:1037A0003B685B6803F00303022B23D1FB69DA0853
:1037B0007B68083253F82230BB61FB6903F00703D2
:1037C0009B000F2202FA03F3DB43BA691340BB618B
:1037D0003B681A69FB6903F007039B0002FA03F3D5
:1037E000BA691343BB61FB69DA087B680832B969BF
:1037F00043F822107B681B68BB61FB695B000322F6
:1038000002FA03F3DB43BA691340BB613B685B68B0
:1038100003F00302FB695B0002FA03F3BA69134386
:10382000BB617B68BA691A603B685B6803F440332C
:10383000002B00F0B4800023FB60604B5B6C5F4AA0
:1038400043F4804353645D4B5B6C03F48043FB6043
:10385000FB685B4AFB699B08023352F82330BB616B
:10386000FB6903F003039B000F2202FA03F3DB431F
:10387000BA691340BB617B68524A93422BD07B6884
:10388000514A934225D07B68504A93421FD07B68AF
:103890004F4A934219D07B684E4A934213D07B68BB
:1038A0004D4A93420DD07B684C4A934207D07B68C7
:1038B0004B4A934201D107230EE008230CE0062374
:1038C0000AE0052308E0042306E0032304E00223C2
:1038D00002E0012300E00023FA6902F003029200F3
:1038E0009340BA691343BB613549FB699B080233B6
:1038F000BA6941F823203B4B9B68BB613B69DB43C2
:10390000BA691340BB613B685B6803F48013002B0A
:1039100003D0BA693B691343BB61324ABB69936008
:10392000304BDB68BB613B69DB43BA691340BB6169
:103930003B685B6803F40013002B03D0BA693B6952
:103940001343BB61274ABB69D360264B5B68BB61ED
:103950003B69DB43BA691340BB613B685B6803F4B6
:103960000033002B03D0BA693B691343BB611D4A86
:10397000BB6953601B4B1B68BB613B69DB43BA6986
:103980001340BB613B685B6803F48033002B03D0BA
:10399000BA693B691343BB61124ABB691360FB6997
:1039A0000133FB61FB690F2B7FF690AE00BF00BFB8
:1039B0002437BD465DF8047B704700BF00380240E5
:1039C00000380140000002400004024000080240AC
:1039D000000C024000100240001402400018024097
:1039E000001C0240003C014080B485B000AF78600C
:1039F0000B467B807B681A697B881340002B02D0C2
:103A00000123FB7301E00023FB73FB7B1846143793
:103A1000BD465DF8047B704780B483B000AF78602A
:103A20000B467B8013467B707B78002B03D07A8813
:103A30007B689A6103E07B881A047B689A6100BF07
:103A40000C37BD465DF8047B7047000080B584B03C
:103A500000AF78607B68002B01D101232BE17B68EC
:103A600093F83D30DBB2002B06D17B68002283F84F
:103A70003C207868FEF7D8F97B68242283F83D2043
:103A80007B681B681A687B681B6822F001021A6059
:103A90007B681B681A687B681B6842F400421A60E6
:103AA0007B681B681A687B681B6822F400421A60F6
:103AB00004F066FCF8607B685B68814A934207D833
:103AC000FB68804A934294BF01230023DBB206E0E7
:103AD000FB687D4A934294BF01230023DBB2002B95
:103AE00001D00123E7E0FB68784AA2FB03239B0C8B
:103AF000BB607B681B685B6823F03F017B681B68C9
:103B0000BA680A435A607B681B681B6A23F03F014E
:103B10007B685B686A4A934202D8BB68013309E05C
:103B2000BB684FF4967202FB03F3694AA2FB0323BE
:103B30009B0901337A6812680B4313627B681B6828
:103B4000DB6923F44F4222F0FF027B685B685C492B
:103B50008B4219D8FB68591E7B685B685B00B1FB20
:103B6000F3F3591C40F6FC730B40002B0AD0FB68A2
:103B7000591E7B685B685B00B1FBF3F30133C3F351
:103B80000B0351E004234FE07B689B68002B11D1AD
:103B9000FB68581E7B6859680B465B000B44B0FB02
:103BA000F3F30133C3F30B03002B0CBF01230023FA
:103BB000DBB212E0FB68581E7B6859680B469B001D
:103BC0000B4499000B44B0FBF3F30133C3F30B0335
:103BD000002B0CBF01230023DBB2002B01D00123FB
:103BE00022E07B689B68002B0ED1FB68581E7B6827
:103BF00059680B465B000B44B0FBF3F30133C3F38E
:103C00000B0343F400430FE0FB68581E7B685968C0
:103C10000B469B000B4499000B44B0FBF3F30133BC
:103C2000C3F30B0343F44043796809681343CB6142
:103C30007B681B681B6823F0C0017B68DA697B68BE
:103C40001B6A1A437B681B680A431A607B681B68FF
:103C50009B6823F4034323F0FF037A6811697A68B1
:103C6000D26811437A6812680B4393607B681B68C3
:103C7000DB6823F0FF017B685A697B689B691A4304
:103C80007B681B680A43DA607B681B681A687B687C
:103C90001B6842F001021A607B6800221A647B688C
:103CA000202283F83D207B6800221A637B68002273
:103CB00083F83E20002318461037BD4680BD00BF64
:103CC000A08601007F841E00FF083D0083DE1B43A9
:103CD000D34D621080B483B000AF78607B681B68FE
:103CE0005B6903F08003802B03D17B681B68002293
:103CF0001A6100BF0C37BD465DF8047B70470000B9
:103D000080B588B002AFF8607A601A460B467B81B6
:103D100013463B81FEF7A4FC7861FB6893F83D30C5
:103D2000DBB2202B40F0E0807B6900931923012255
:103D30007049F86802F0DEF90346002B01D0022337
:103D4000D3E0FB6893F83C30012B01D10223CCE097
:103D5000FB68012283F83C20FB681B681B6803F0AA
:103D60000103012B07D0FB681B681A68FB681B68FE
:103D700042F001021A60FB681B681A68FB681B6846
:103D800022F400621A60FB68212283F83D20FB6860
:103D9000102283F83E20FB6800221A64FB687A68D0
:103DA0005A62FB683A895A85FB685B8D9AB2FB6858
:103DB0001A85FB68504ADA6279897B693A6AF86841
:103DC00001F0A0FF0346002B01D001238DE000236A
:103DD0003B61FB681B685B693B61FB681B689B6917
:103DE0003B613B6966E07A69396AF86802F09CFADF
:103DF0000346002B0DD0FB681B6C042B07D1FB681E
:103E00001B681A68FB681B6842F400721A60012381
:103E10006BE0FB685B6A1A78FB681B681A61FB68D9
:103E20005B6A5A1CFB685A62FB685B8D9BB2013B64
:103E30009AB2FB685A85FB681B8D013B9AB2FB68FE
:103E40001A85FB681B685B6903F00403042B1BD114
:103E5000FB681B8D002B17D0FB685B6A1A78FB6828
:103E60001B681A61FB685B6A5A1CFB685A62FB6834
:103E70005B8D9BB2013B9AB2FB685A85FB681B8D38
:103E8000013B9AB2FB681A857A69396AF86802F0D0
:103E900093FA0346002B0DD0FB681B6C042B07D153
:103EA000FB681B681A68FB681B6842F400721A60A2
:103EB00001231AE0FB681B8D002B94D1FB681B6863
:103EC0001A68FB681B6842F400721A60FB682022C3
:103ED00083F83D20FB68002283F83E20FB68002227
:103EE00083F83C20002300E0022318461837BD4623
:103EF00080BD00BF020010000000FFFF80B58CB045
:103F000002AFF8607A601A460B467B8113463B810C
:103F1000FEF7A6FB7862FB6893F83D30DBB2202BFE
:103F200040F017827B6A0093192301227C49F868CC
:103F300002F0E0F80346002B01D002230AE2FB68FE
:103F400093F83C30012B01D1022303E2FB680122EC
:103F500083F83C20FB681B681B6803F00103012BFE
:103F600007D0FB681B681A68FB681B6842F00102F7
:103F70001A60FB681B681A68FB681B6822F4006201
:103F80001A60FB68222283F83D20FB68102283F828
:103F90003E20FB6800221A64FB687A685A62FB685C
:103FA0003A895A85FB685B8D9AB2FB681A85FB6873
:103FB0005C4ADA6279897B6A3A6BF86801F024FF1F
:103FC0000346002B01D00123C4E1FB681B8D002BAD
:103FD00013D100233B62FB681B685B693B62FB6893
:103FE0001B689B693B623B6AFB681B681A68FB683D
:103FF0001B6842F400721A6098E1FB681B8D012B6C
:104000001BD1FB681B681A68FB681B6822F480627E
:104010001A600023FB61FB681B685B69FB61FB683E
:104020001B689B69FB61FB69FB681B681A68FB687E
:104030001B6842F400721A6078E1FB681B8D022B4A
:104040001BD1FB681B681A68FB681B6822F480623E
:104050001A60FB681B681A68FB681B6842F4006200
:104060001A600023BB61FB681B685B69BB61FB686E
:104070001B689B69BB61BB6958E1FB681B681A68D8
:10408000FB681B6842F480621A6000237B61FB6856
:104090001B685B697B61FB681B689B697B617B6953
:1040A00044E1FB681B8D032B00F2F180FB681B8D44
:1040B000012B23D17A6A396BF86802F0F7F90346CD
:1040C000002B01D0012345E1FB681B681A69FB68DE
:1040D0005B6AD2B21A70FB685B6A5A1CFB685A6250
:1040E000FB681B8D013B9AB2FB681A85FB685B8DF0
:1040F0009BB2013B9AB2FB685A8517E1FB681B8DA6
:10410000022B4ED17B6A00933B6B00220649F86874
:1041100001F0F0FF0346002B08D001231AE100BF95
:10412000020010000000FFFF04000100FB681B6894
:104130001A68FB681B6842F400721A60FB681B680F
:104140001A69FB685B6AD2B21A70FB685B6A5A1C18
:10415000FB685A62FB681B8D013B9AB2FB681A85AB
:10416000FB685B8D9BB2013B9AB2FB685A85FB688A
:104170001B681A69FB685B6AD2B21A70FB685B6ADB
:104180005A1CFB685A62FB681B8D013B9AB2FB68A4
:104190001A85FB685B8D9BB2013B9AB2FB685A851E
:1041A000C4E07B6A00933B6B00226C49F86801F025
:1041B000A1FF0346002B01D00123CBE0FB681B6865
:1041C0001A68FB681B6822F480621A60FB681B682F
:1041D0001A69FB685B6AD2B21A70FB685B6A5A1C88
:1041E000FB685A62FB681B8D013B9AB2FB681A851B
:1041F000FB685B8D9BB2013B9AB2FB685A857B6A78
:1042000000933B6B00225549F86801F073FF0346A9
:10421000002B01D001239DE0FB681B681A68FB6836
:104220001B6842F400721A60FB681B681A69FB681D
:104230005B6AD2B21A70FB685B6A5A1CFB685A62EE
:10424000FB681B8D013B9AB2FB681A85FB685B8D8E
:104250009BB2013B9AB2FB685A85FB681B681A69DE
:10426000FB685B6AD2B21A70FB685B6A5A1CFB6817
:104270005A62FB681B8D013B9AB2FB681A85FB688A
:104280005B8D9BB2013B9AB2FB685A854EE07A6A1D
:10429000396BF86802F00AF90346002B01D00123BC
:1042A00058E0FB681B681A69FB685B6AD2B21A7037
:1042B000FB685B6A5A1CFB685A62FB681B8D013BFA
:1042C0009AB2FB681A85FB685B8D9BB2013B9AB280
:1042D000FB685A85FB681B685B6903F00403042BC9
:1042E00024D1FB681B8D032B07D1FB681B681A6860
:1042F000FB681B6822F480621A60FB681B681A69FD
:10430000FB685B6AD2B21A70FB685B6A5A1CFB6876
:104310005A62FB681B8D013B9AB2FB681A85FB68E9
:104320005B8D9BB2013B9AB2FB685A85FB681B8D83
:10433000002B7FF4B6AEFB68202283F83D20FB689B
:10434000002283F83E20FB68002283F83C200023F3
:1043500000E0022318462837BD4680BD0400010056
:1043600080B485B000AFF860B9601346FB80FB688D
:1043700093F83D30DBB2202B58D1BB68002B02D024
:10438000FB88002B01D1012351E0FB6893F83C30FE
:10439000012B01D102234AE0FB68012283F83C2073
:1043A000FB681B681B6803F00103012B07D0FB6847
:1043B0001B681A68FB681B6842F001021A60FB6800
:1043C0001B681A68FB681B6822F400621A60FB68AD
:1043D000212283F83D20FB68202283F83E20FB68E1
:1043E00000221A64FB68BA685A62FB68FA885A8528
:1043F000FB685B8D9AB2FB681A85FB680F4ADA622C
:10440000FB681B681A68FB681B6842F480621A60CC
:10441000FB68002283F83C20FB681B685A68FB6835
:104420001B6842F4E0625A60002300E00223184651
:104430001437BD465DF8047B704700BF0000FFFFE6
:1044400080B485B000AFF860B9601346FB80FB68AC
:1044500093F83D30DBB2202B58D1BB68002B02D043
:10446000FB88002B01D1012351E0FB6893F83C301D
:10447000012B01D102234AE0FB68012283F83C2092
:10448000FB681B681B6803F00103012B07D0FB6866
:104490001B681A68FB681B6842F001021A60FB681F
:1044A0001B681A68FB681B6822F400621A60FB68CC
:1044B000222283F83D20FB68202283F83E20FB68FF
:1044C00000221A64FB68BA685A62FB68FA885A8547
:1044D000FB685B8D9AB2FB681A85FB680F4ADA624B
:1044E000FB681B681A68FB681B6842F480621A60EC
:1044F000FB68002283F83C20FB681B685A68FB6855
:104500001B6842F4E0625A60002300E00223184670
:104510001437BD465DF8047B704700BF0000FFFF05
:1045200080B483B000AF78607B6893F83D30DBB235
:10453000202B24D17B68282283F83D207B681B68D0
:104540001B6803F00103012B07D07B681B681A6806
:104550007B681B6842F001021A607B681B681A685E
:104560007B681B6842F480621A607B681B685A682B
:104570007B681B6842F440725A60002300E002230B
:1045800018460C37BD465DF8047B704780B588B08F
:1045900000AF78600023BB617B681B685B687B6150
:1045A0007B68DB6A3B617B6893F83E30FB737B681A
:1045B00093F83D30BB73FB7B102B03D0FB7B402B70
:1045C00040F0B1807B681B689B69BB617B681B689E
:1045D0005B69FB61FB6903F00103002B0DD13B69B3
:1045E000B3F52A0F03D03B69B3F12A4F01D1012360
:1045F00000E00023012B00F01481FB6903F00103AC
:10460000002B0BD07B6903F40073002B06D0786875
:1046100001F0D8FF786800F058FD83E0FB6903F0F3
:104620000803002B08D07B6903F40073002B03D030
:10463000786800F0D0FD75E0FB6903F00203002B01
:1046400008D07B6903F40073002B03D0786800F076
:10465000ECFD67E0BB6903F00403002B36D07B68F8
:104660001B685B6803F40063B3F5006F00F0DB8048
:10467000FB6903F08003002B0DD07B6903F480639A
:10468000002B08D0FB6903F00403002B03D17868EA
:1046900000F0B4F946E0FB6903F00403002B00F0DE
:1046A000C2807B6903F40073002B00F0BC80BB7BED
:1046B000212B03D1786800F03DFAB4E0FB7B402B5E
:1046C00040F0B180786800F0ABFAACE07B681B6822
:1046D0005B6803F40063B3F5006F00F0A480FB692E
:1046E00003F04003002B0DD07B6903F48063002BA3
:1046F00008D0FB6903F00403002B03D1786800F0B5
:1047000027FB0FE0FB6903F00403002B00F08B8014
:104710007B6903F40073002B00F08580786800F05B
:10472000DFFB80E07FE07B681B6C002B04D07B68A4
:104730001B685B69FB6107E07B681B689B69BB6169
:104740007B681B685B69FB61FB6903F00203002B5C
:1047500011D07B6903F40073002B0CD07B681B6CB9
:10476000002B03D07B681B689B69BB61B9697868C3
:1047700000F0AAFF5AE0FB6903F01003002B08D0F9
:104780007B6903F40073002B03D0786800F0E4FF2A
:104790004CE0BB7B212B02D0BB7B292B20D1FB69BA
:1047A00003F08003002B0DD07B6903F48063002BA2
:1047B00008D0FB6903F00403002B03D1786800F0F4
:1047C000C5FE32E0FB6903F00403002B2DD07B69AA
:1047D00003F40073002B28D0786800F0F4FE24E086
:1047E000FB6903F04003002B0DD07B6903F4806369
:1047F000002B08D0FB6903F00403002B03D1786879
:1048000000F002FF12E0FB6903F00403002B0DD05F
:104810007B6903F40073002B08D0786800F032FF46
:1048200004E000BF02E000BF00E000BF2037BD464B
:1048300080BD80B58AB000AF78607B681B685B691B
:104840003B627B681B685B68FB6100237B627B6863
:1048500093F83E30FB763B6A03F48073002B0DD057
:10486000FB6903F48073002B08D07B6A43F00103DB
:104870007B627B681B686FF480725A613B6A03F449
:104880000073002B0DD0FB6903F48073002B08D05C
:104890007B6A43F002037B627B681B686FF40072E3
:1048A0005A613B6A03F48063002B3ED0FB6903F43A
:1048B0008073002B39D0FB7EBB767B685B8D9BB20F
:1048C0007B617B6893F83D30FB747B681B6BFB60FE
:1048D000BB7E202B12D17B69002B0FD1FB7C212BBF
:1048E00008D0FB7C292B05D0FB7C282B06D1FB684C
:1048F000212B03D1786801F05FF816E07B681B6814
:104900006FF480625A617B6A43F004037B62FB7E32
:10491000102B02D0FB7E402B07D17B681B681A68E6
:104920007B681B6842F400721A603B6A03F4006300
:10493000002B0DD0FB6903F48073002B08D07B6A39
:1049400043F008037B627B681B686FF400625A6166
:104950007B6A002B08D07B681A6C7B6A1A437B68E1
:104960001A64786801F09CF800BF2837BD4680BD06
:1049700080B483B000AF786000BF0C37BD465DF8EF
:10498000047B704780B483B000AF786000BF0C3701
:10499000BD465DF8047B704780B483B000AF78609B
:1049A00000BF0C37BD465DF8047B704780B483B010
:1049B00000AF786000BF0C37BD465DF8047B7047E0
:1049C00080B483B000AF786000BF0C37BD465DF89F
:1049D000047B704780B483B000AF786000BF0C37B1
:1049E000BD465DF8047B704780B483B000AF78604B
:1049F00000BF0C37BD465DF8047B704780B584B0BE
:104A000000AF78607B6893F83D30FB737B6893F868
:104A10003E30BB737B68DB6ABB607B681B8D002B01
:104A200050D1FB7B212B4DD1BB68082B1DD0BB681F
:104A3000202B1AD0BB6813F5803F16D07B681B680B
:104A40005A687B681B6822F4E0625A607B68112216
:104A50001A637B68002283F83E207B68202283F85B
:104A60003D207868FFF784FF60E07B681B685A6828
:104A70007B681B6822F4E0625A607B681B681A68D6
:104A80007B681B6842F400721A607B6800221A631C
:104A90007B68202283F83D207B6893F83E30DBB2B0
:104AA000402B07D17B68002283F83E207868FFF70F
:104AB00087FF3BE07B68002283F83E207868FFF7A1
:104AC00057FF33E0FB7B212B05D0BB7B402B2DD147
:104AD000FB7B222B2AD17B685B8D9BB2002B08D1FC
:104AE0007B681B685A687B681B6822F480625A6086
:104AF0001CE07B6893F83E30DBB2402B03D1786832
:104B000000F08EF812E07B685B6A1A787B681B689D
:104B10001A617B685B6A5A1C7B685A627B685B8D92
:104B20009BB2013B9AB27B685A85FFE700BF103702
:104B3000BD4680BD80B584B000AF78607B68DB6A1D
:104B4000FB607B6893F83D30DBB2212B64D17B683E
:104B50005B8D9BB2002B12D07B685B6A1A787B68F6
:104B60001B681A617B685B6A5A1C7B685A627B68A7
:104B70005B8D9BB2013B9AB27B685A854CE0FB6827
:104B8000082B1DD0FB68202B1AD0FB6813F5803F43
:104B900016D07B681B685A687B681B6822F4E06249
:104BA0005A607B6811221A637B68002283F83E20DA
:104BB0007B68202283F83D207868FFF7D9FE2BE040
:104BC0007B681B685A687B681B6822F4E0625A6045
:104BD0007B681B681A687B681B6842F400721A6065
:104BE0007B6800221A637B68202283F83D207B6863
:104BF00093F83E30DBB2402B07D17B68002283F86C
:104C00003E207868FFF7DCFE06E07B68002283F830
:104C10003E207868FFF7ACFE00BF1037BD4680BD70
:104C200080B584B000AF78607B6893F83D30FB734B
:104C30007B681B6D002B1DD17B68DB6C012B0BD1BE
:104C40007B689B6CDAB27B681B681A617B681B6DA2
:104C50009A1C7B681A6577E07B689B6C9BB21B1281
:104C6000DAB27B681B681A617B681B6D5A1C7B6813
:104C70001A6569E07B681B6D012B0BD17B689B6C0F
:104C8000DAB27B681B681A617B681B6D5A1C7B68F3
:104C90001A6559E07B681B6D022B52D1FB7B222BDE
:104CA0000DD17B681B681A687B681B6842F48072B0
:104CB0001A607B681B6D5A1C7B681A6544E07B6830
:104CC0005B8D9BB2002B15D0FB7B212B12D17B6817
:104CD0005B6A1A787B681B681A617B685B6A5A1C7E
:104CE0007B685A627B685B8D9BB2013B9AB27B68A2
:104CF0005A8529E07B685B8D9BB2002B24D1FB7B1E
:104D0000212B21D17B681B685A687B681B6822F4C1
:104D1000E0625A607B681B681A687B681B6842F413
:104D200000721A607B6800221A637B68202283F875
:104D30003D207B68002283F83E207868FFF740FE24
:104D400002E07868FEF7C6FF00BF1037BD4680BDA1
:104D500080B584B000AF78607B6893F83D30DBB2FB
:104D6000222B40F0B9807B68DB6AFB607B685B8D3F
:104D70009BB2BB60BB68032B21D97B681B681A6997
:104D80007B685B6AD2B21A707B685B6A5A1C7B686C
:104D90005A627B685B8D9BB2013B9AB27B685A85F5
:104DA0007B685B8D9BB2032B40F096807B681B6811
:104DB0005A687B681B6822F480625A608CE07B68CA
:104DC000DB6A022B7FD0BB68012B02D0BB68002BB3
:104DD00079D1786801F038FB0346002B4CD17B6811
:104DE0001B681A687B681B6822F480621A607B6803
:104DF0001B685A687B681B6822F4E0625A607B6813
:104E00001B681A697B685B6AD2B21A707B685B6A3E
:104E10005A1C7B685A627B685B8D9BB2013B9AB2DD
:104E20007B685A857B68202283F83D207B6893F855
:104E30003E30DBB2402B0AD17B68002283F83E2053
:104E40007B6800221A637868FFF7C4FD44E07B6842
:104E5000002283F83E20FB68082B02D0FB68202B41
:104E600003D17B6800221A6302E07B6812221A6376
:104E70007868FFF787FD2FE07B681B685A687B68BE
:104E80001B6822F4E0625A607B681B681A697B68C1
:104E90005B6AD2B21A707B685B6A5A1C7B685A6282
:104EA0007B685B8D9BB2013B9AB27B685A857B68BD
:104EB000202283F83D207B68002283F83E2078681A
:104EC000FCF74AF908E07B681B685A687B681B6836
:104ED00022F480625A60FFE700BF1037BD4680BDF4
:104EE00080B584B000AF78607B68DB6AFB607B686C
:104EF0005B8D9BB2042B1BD17B681B685A687B6857
:104F00001B6822F480625A607B681B681A697B68A0
:104F10005B6AD2B21A707B685B6A5A1C7B685A6201
:104F20007B685B8D9BB2013B9AB27B685A85C8E077
:104F30007B685B8D9BB2032B29D17B681B685A6809
:104F40007B681B6822F480625A60FB68042B0AD0DD
:104F5000FB68022B07D07B681B681A687B681B689C
:104F600022F480621A607B681B681A697B685B6A3E
:104F7000D2B21A707B685B6A5A1C7B685A627B6883
:104F80005B8D9BB2013B9AB27B685A8599E07B6846
:104F90005B8D9BB2022B40F08180FB68012B02D01D
:104FA000FB68102B08D17B681B681A687B681B683C
:104FB00022F480621A6019E0FB68042B02D0FB68BF
:104FC000022B08D17B681B681A687B681B6842F457
:104FD00080621A600AE0FB68102B07D07B681B68B0
:104FE0001A687B681B6842F400721A607B681B6851
:104FF0001A697B685B6AD2B21A707B685B6A5A1C5A
:105000007B685A627B685B8D9BB2013B9AB27B687E
:105010005A857B681B681A697B685B6AD2B21A7012
:105020007B685B6A5A1C7B685A627B685B8D9BB2AB
:10503000013B9AB27B685A857B681B685A687B681B
:105040001B6822F440725A607B68202283F83D205E
:105050007B6893F83E30DBB2402B0AD17B6800229C
:1050600083F83E207B6800221A637868FFF7B2FC61
:1050700027E07B68002283F83E20FB68082B02D0E3
:10508000FB68202B03D17B6800221A6302E07B6857
:1050900012221A637868FFF775FC12E07B681B68C0
:1050A0001A697B685B6AD2B21A707B685B6A5A1CA9
:1050B0007B685A627B685B8D9BB2013B9AB27B68CE
:1050C0005A8500BF1037BD4680BD80B483B000AFA5
:1050D00078607B6893F83E30DBB2402B17D17B6859
:1050E0001B6D002B09D17B685B6CDBB21A467B68B9
:1050F0001B6802F0FE021A6167E07B685B6CDBB242
:1051000043F00103DAB27B681B681A615DE07B68DB
:105110001B69B3F5804F33D17B6893F83D30DBB228
:10512000212B09D17B685B6CDBB21A467B681B685C
:1051300002F0FE021A6108E07B685B6CDBB243F0B0
:105140000103DAB27B681B681A617B685B6B002B1A
:1051500004D07B685B6BDB6B002B08D17B689B6B9F
:10516000002B32D07B689B6BDB6B002B2DD07B68D8
:105170001B685A687B681B6842F400625A6024E02E
:105180007B681B6D002B0ED17B685B6C9BB2DB11C7
:10519000DBB203F00603DBB263F00F03DAB27B6825
:1051A0001B681A6111E07B681B6D012B0DD17B68B8
:1051B0005B6C9BB2DB11DBB203F00603DBB263F086
:1051C0000E03DAB27B681B681A6100BF0C37BD465C
:1051D0005DF8047B704780B483B000AF78607B6873
:1051E0005B6CDAB27B681B681A617B685B6B002BB7
:1051F00004D07B685B6BDB6B002B08D17B689B6BFF
:10520000002B0CD07B689B6BDB6B002B07D07B6883
:105210001B685A687B681B6842F400625A6000BFD2
:105220000C37BD465DF8047B704780B491B000AF89
:1052300078607B6893F83E3087F83F307B68DB6AA4
:10524000BB637B681B6B7B637B6893F83D30DBB291
:10525000222B40F069817B681B6D002B0FD197F8E2
:105260003F30402B0BD100233B637B681B685B699D
:105270003B637B681B689B693B633B6B60E17B68BE
:105280001B6D002B1DD17B681B69B3F5404F18D1F6
:105290000023FB627B681B685B69FB627B681B68A1
:1052A0009B69FB62FB6A7B681B681A687B681B68EA
:1052B00042F480721A607B681B6D5A1C7B681A6509
:1052C0003EE17B685B8D9BB2002B13D10023BB6258
:1052D0007B681B685B69BB627B681B689B69BB6200
:1052E000BB6A7B681B681A687B681B6842F40072A3
:1052F0001A6015E17B685B8D9BB2012B40F08A80C0
:10530000BB6B13F5803F37D17B681B681A687B68DD
:105310001B6822F480621A607B681B685B6803F478
:105320000063B3F5006F13D17B681B681A687B6854
:105330001B6822F480621A6000237B627B681B6812
:105340005B697B627B681B689B697B627B6AE7E0C9
:1053500000233B627B681B685B693B627B681B6860
:105360009B693B623B6A7B681B681A687B681B68A9
:1053700042F400721A60D3E0BB6B082B2ED0BB6BDB
:10538000202B2BD07B6B122B02D1BB6B012B25D199
:10539000BB6B042B0ED0BB6B022B0BD0BB6B102B4B
:1053A00008D07B681B681A687B681B6822F48062DF
:1053B0001A6007E07B681B681A687B681B6842F408
:1053C00080621A600023FB617B681B685B69FB617C
:1053D0007B681B689B69FB61FB69A1E07B681B68BC
:1053E0001A687B681B6822F480621A600023BB6124
:1053F0007B681B685B69BB617B681B689B69BB61E1
:10540000BB697B681B681A687B681B6842F4007282
:105410001A6085E07B685B8D9BB2022B4DD1BB6B24
:10542000042B16D0BB6B022B13D0BB6B102B10D0F0
:105430007B681B681A687B681B6822F480621A60AC
:105440007B681B681A687B681B6842F400621A60FC
:1054500007E07B681B681A687B681B6842F48062FF
:105460001A607B681B685B6803F40063B3F5006F28
:1054700017D1BB6B13F5803F0BD0BB6B012B08D052
:10548000BB6B082B05D0BB6B102B02D0BB6B202B4A
:1054900007D17B681B685A687B681B6842F480529E
:1054A0005A6000237B617B681B685B697B617B685A
:1054B0001B689B697B617B6932E07B681B681A68AB
:1054C0007B681B6842F480621A607B681B685B68BB
:1054D00003F40063B3F5006F17D1BB6B13F5803F86
:1054E0000BD0BB6B012B08D0BB6B082B05D0BB6B63
:1054F000102B02D0BB6B202B07D17B681B685A682E
:105500007B681B6842F480525A6000233B617B68D1
:105510001B685B693B617B681B689B693B613B69FE
:105520007B6800221A650BE00023FB607B681B6828
:105530005B69FB607B681B689B69FB60FB68FFE73E
:1055400000BF4437BD465DF8047B704780B584B02A
:1055500000AF78607B6893F83D30FB737B685B8DB0
:105560009BB2002B2BD07B685B6A1A787B681B6828
:105570001A617B685B6A5A1C7B685A627B685B8D28
:105580009BB2013B9AB27B685A857B685B8D9BB26C
:10559000002B14D1FB7B292B11D17B681B685A6827
:1055A0007B681B6822F480625A607B6821221A6340
:1055B0007B68282283F83D207868FFF7EDF900BF6B
:1055C0001037BD4680BD80B483B000AF78607B6883
:1055D0005B8D9BB2002B11D07B685B6A1A787B686D
:1055E0001B681A617B685B6A5A1C7B685A627B681D
:1055F0005B8D9BB2013B9AB27B685A8500BF0C372A
:10560000BD465DF8047B704780B584B000AF78601C
:105610007B6893F83D30FB737B685B8D9BB2002BFE
:105620002CD07B681B681A697B685B6AD2B21A70DF
:105630007B685B6A5A1C7B685A627B685B8D9BB295
:10564000013B9AB27B685A857B685B8D9BB2002BCD
:1056500014D1FB7B2A2B11D17B681B685A687B68AD
:105660001B6822F480625A607B6822221A637B687E
:10567000282283F83D207868FBF726FD00BF10370D
:10568000BD4680BD80B483B000AF78607B685B8D21
:105690009BB2002B12D07B681B681A697B685B6A1F
:1056A000D2B21A707B685B6A5A1C7B685A627B684C
:1056B0005B8D9BB2013B9AB27B685A8500BF0C3769
:1056C000BD465DF8047B704780B584B000AF78605C
:1056D00039600023FB737B6893F83D30DBB203F045
:1056E0002803282B25D17B681B685A687B681B68B8
:1056F00022F480625A603B6803F00403002B01D15E
:105700000123FB733B6803F08003002B03D17B680C
:10571000DB68BB8102E07B689B69BB817B68002200
:1057200083F83C20BA89FB7B19467868FBF7E4FCD8
:105730000EE00023BB607B681B685B69BB607B6815
:105740001B689B69BB60BB687B68002283F83C20B8
:1057500000BF1037BD4680BD80B584B000AF786013
:105760007B6893F83D30FB737B681B685A687B68E5
:105770001B6822F4E0625A600023BB607B681B68F0
:105780005B69BB607B681B681A687B681B6842F0BA
:1057900001021A60BB687B681B681A687B681B681B
:1057A00022F480621A607B681B685B6803F4006304
:1057B000B3F5006F72D1FB7B222B02D0FB7B2A2B2F
:1057C00035D17B689B6B1B685B689AB27B685A8596
:1057D0007B685B8D9BB2002B05D07B681B6C43F014
:1057E00004027B681A647B681B685A687B681B68C4
:1057F00022F400625A607B689B6B1846FDF798FEA6
:105800000346012B49D07B689B6B694A1A657B680C
:105810009B6B1846FDF7E0FC0346002B3DD07B68F0
:105820009B6B1B6D7A68926B1046984735E07B68DE
:105830005B6B1B685B689AB27B685A857B685B8D83
:105840009BB2002B05D07B681B6C43F004027B6885
:105850001A647B681B685A687B681B6822F40062C4
:105860005A607B685B6B1846FDF762FE0346012BAE
:1058700014D07B685B6B4E4A1A657B685B6B18467D
:10588000FDF7AAFC0346002B08D07B685B6B1B6D01
:105890007A68526B1046984700E000BF7B685B8DCA
:1058A0009BB2002B3ED07B681B685B6903F004034E
:1058B000042B12D17B681B681A697B685B6AD2B2C1
:1058C0001A707B685B6A5A1C7B685A627B685B8DC6
:1058D0009BB2013B9AB27B685A857B681B685B6907
:1058E00003F04003402B12D17B681B681A697B6868
:1058F0005B6AD2B21A707B685B6A5A1C7B685A6218
:105900007B685B8D9BB2013B9AB27B685A857B6852
:105910005B8D9BB2002B05D07B681B6C43F00402AF
:105920007B681A647B681B6C002B03D0786800F0DE
:10593000B7F839E0FB7B2A2B09D17B6800221A6378
:105940007B68282283F83D207868FBF7BDFB7B68E5
:1059500093F83D30DBB2282B11D17B68154ADA620F
:105960007B6800221A637B68202283F83D207B68D5
:10597000002283F83E207868FFF718F814E07B686F
:105980001B6B222B02D0FB7B222B0DD17B680022CC
:105990001A637B68202283F83D207B68002283F80D
:1059A0003E207868FBF790FB00BF1037BD4680BDF6
:1059B000A55F00080000FFFF80B584B000AF7860ED
:1059C0007B6893F83D30FB737B68DB6ABB60BB6828
:1059D000082B02D0BB68202B29D1FB7B282B26D19A
:1059E0007B682E4ADA627B681B685A687B681B6892
:1059F00022F4E0625A607B681B686FF480625A612F
:105A00007B681B681A687B681B6822F480621A60D6
:105A10007B6800221A637B68202283F83D207B6824
:105A2000002283F83E207868FEF7C0FF31E0FB7B60
:105A3000212B29D17B68194ADA627B6821221A63FB
:105A40007B68202283F83D207B68002283F83E207B
:105A50007B681B685A687B681B6822F4E0625A60A6
:105A60007B681B686FF480625A617B681B681A68E8
:105A70007B681B6822F480621A607868FEF72AF956
:105A80007868FEF789FF04E07B681B686FF480622A
:105A90005A6100BF1037BD4680BD00BF0000FFFF48
:105AA00080B584B000AF78607B6893F83D30FB73BD
:105AB0007B6893F83E30BB73BB7B102B02D0BB7B63
:105AC000402B0AD1FB7B222B07D17B681B681A680D
:105AD0007B681B6822F400621A60FB7B03F02803DA
