:020000040800F2
:1000000000000220352900089121000899210008EC
:10001000A1210008A9210008B1210008000000006A
:10002000000000000000000000000000B9210008EE
:10003000C721000800000000D5210008E3210008C6
:1000400085290008852900088529000885290008D8
:1000500085290008852900088529000885290008C8
:1000600085290008852900088529000885290008B8
:1000700085290008852900088529000885290008A8
:100080008529000885290008852900088529000898
:100090008529000885290008852900088529000888
:1000A0008529000885290008852900088529000878
:1000B0008529000885290008852900088529000868
:1000C0008529000885290008852900088529000858
:1000D0008529000885290008852900088529000848
:1000E0008529000885290008852900088529000838
:1000F0008529000885290008852900088529000828
:100100008529000885290008852900088529000817
:100110008529000885290008852900088529000807
:1001200085290008852900088529000885290008F7
:100130008529000800000000000000008529000853
:1001400085290008852900088529000885290008D7
:1001500085290008852900088529000885290008C7
:1001600085290008852900088529000885290008B7
:100170008529000885290008000000000000000013
:0801800085290008852900080B
:1001900010B5054C237833B9044B13B10448AFF3C1
:1001A00000800123237010BDD40100200000000056
:1001B0004097000808B5034B1BB103490348AFF350
:1001C000008008BD00000000D80100204097000812
:1001D00001F0FF01102A2BDB10F0070F08D010F8F8
:1001E000013B013A8B422DD010F0070F42B3F6D1FC
:1001F000F0B441EA012141EA014122F007047FF015
:1002000000070023F0E80256083C85EA010586EA6B
:10021000010685FA47F5A3FA87F586FA47F6A5FAA7
:1002200087F68EB9EED1F0BC01F0FF0102F00702B3
:1002300032B110F8013B013A83EA010313B1F8D15E
:100240000020704701387047002D06BF354603383F
:10025000073815F0010F07D1013015F4807F02BF78
:10026000013015F4C03F0130F0BC0138704700BFC9
:10027000034613F8012B002AFBD1181A01387047E6
:1002800081F0004102E000BF83F0004330B54FEA47
:1002900041044FEA430594EA050F08BF90EA020FB4
:1002A0001FBF54EA000C55EA020C7FEA645C7FEA47
:1002B000655C00F0E2804FEA5454D4EB5555B8BF6A
:1002C0006D420CDD2C4480EA020281EA030382EADB
:1002D000000083EA010180EA020281EA0303362D6D
:1002E00088BF30BD11F0004F4FEA01314FF4801C40
:1002F0004CEA113102D0404261EB410113F0004F52
:100300004FEA03334CEA133302D0524263EB430308
:1003100094EA050F00F0A780A4F10104D5F1200EA6
:100320000DDB02FA0EFC22FA05F2801841F1000101
:1003300003FA0EF2801843FA05F359410EE0A5F1D5
:1003400020050EF1200E012A03FA0EFC28BF4CF006
:10035000020C43FA05F3C01851EBE37101F00045BC
:1003600007D54FF0000EDCF1000C7EEB00006EEBC9
:100370000101B1F5801F1BD3B1F5001F0CD3490853
:100380005FEA30004FEA3C0C04F101044FEA4452AA
:1003900012F5800F80F09A80BCF1004F08BF5FEA31
:1003A000500C50F1000041EB045141EA050130BD11
:1003B0005FEA4C0C404141EB0101013C28BFB1F523
:1003C000801FE9D291F0000F04BF01460020B1FA6E
:1003D00081F308BF2033A3F10B03B3F120020CDA41
:1003E0000C3208DD02F1140CC2F10C0201FA0CF01F
:1003F00021FA02F10CE002F11402D8BFC2F1200C84
:1004000001FA02F120FA0CFCDCBF41EA0C01904039
:10041000E41AA2BF01EB0451294330BD6FEA040482
:100420001F3C1CDA0C340EDC04F11404C4F120026D
:1004300020FA04F001FA02F340EA030021FA04F37F
:1004400045EA030130BDC4F10C04C4F1200220FAD6
:1004500002F001FA04F340EA0300294630BD21FA14
:1004600004F0294630BD94F0000F83F4801306BFDA
:1004700081F480110134013D4EE77FEA645C18BFCE
:100480007FEA655C29D094EA050F08BF90EA020F65
:1004900005D054EA000C04BF1946104630BD91EA5D
:1004A000030F1EBF0021002030BD5FEA545C05D160
:1004B0004000494128BF41F0004130BD14F580049F
:1004C0003CBF01F5801130BD01F0004545F0FE4113
:1004D00041F470014FF0000030BD7FEA645C1ABF48
:1004E000194610467FEA655C1CBF0B46024650EA7F
:1004F000013406BF52EA033591EA030F41F40021AB
:1005000030BD00BF90F0000F04BF0021704730B530
:100510004FF4806404F132044FF000054FF0000105
:1005200050E700BF90F0000F04BF0021704730B5C6
:100530004FF4806404F1320410F0004548BF40429B
:100540004FF000013EE700BF42004FEAE2014FEAF0
:1005500031014FEA02701FBF12F07F4393F07F4FCB
:1005600081F06051704732F07F4208BF704793F0CE
:100570007F4F04BF41F40021704730B54FF46074E1
:1005800001F0004521F000411CE700BF50EA0102E4
:1005900008BF704730B54FF000050AE050EA01028D
:1005A00008BF704730B511F0004502D5404261EBFD
:1005B00041014FF4806404F132045FEA915C3FF43E
:1005C000D8AE4FF003025FEADC0C18BF03325FEADB
:1005D000DC0C18BF033202EBDC02C2F1200300FA8C
:1005E00003FC20FA02F001FA03FE40EA0E0021FAB1
:1005F00002F11444BDE600BF70B54FF0FF0C4CF49F
:10060000E06C1CEA11541DBF1CEA135594EA0C0F50
:1006100095EA0C0F00F0DEF82C4481EA030621EA8B
:100620004C5123EA4C5350EA013518BF52EA0335C6
:1006300041F4801143F4801338D0A0FB02CE4FF078
:100640000005E1FB02E506F00042E0FB03E54FF0A8
:100650000006E1FB03569CF0000F18BF4EF0010EA0
:10066000A4F1FF04B6F5007F64F5407404D25FEA9C
:100670004E0E6D4146EB060642EAC62141EA55514F
:100680004FEAC52040EA5E504FEACE2EB4F1FD0C91
:1006900088BFBCF5E06F1ED8BEF1004F08BF5FEA0F
:1006A000500E50F1000041EB045170BD06F00046C1
:1006B00046EA010140EA020081EA0301B4EB5C046E
:1006C000C2BFD4EB0C0541EA045170BD41F4801166
:1006D0004FF0000E013C00F3AB8014F1360FDEBF8B
:1006E000002001F0004170BDC4F10004203C35DA67
:1006F0000C341BDC04F11404C4F1200500FA05F3EA
:1007000020FA04F001FA05F240EA020001F000428A
:1007100021F0004110EBD37021FA04F642EB060100
:100720005EEA430E08BF20EAD37070BDC4F10C042A
:10073000C4F1200500FA04F320FA05F001FA04F2EE
:1007400040EA020001F0004110EBD37041F10001DA
:100750005EEA430E08BF20EAD37070BDC4F12005E5
:1007600000FA05F24EEA020E20FA04F301FA05F24D
:1007700043EA020321FA04F001F0004121FA04F2F5
:1007800020EA020000EBD3705EEA430E08BF20EAC5
:10079000D37070BD94F0000F0FD101F000464000FF
:1007A00041EB010111F4801F08BF013CF7D041EA81
:1007B000060195F0000F18BF704703F00046520085
:1007C00043EB030313F4801F08BF013DF7D043EA56
:1007D0000603704794EA0C0F0CEA135518BF95EA0C
:1007E0000C0F0CD050EA410618BF52EA4306D1D193
:1007F00081EA030101F000414FF0000070BD50EAB2
:10080000410606BF1046194652EA430619D094EA3B
:100810000C0F02D150EA013613D195EA0C0F05D125
:1008200052EA03361CBF104619460AD181EA030179
:1008300001F0004141F0FE4141F470014FF0000031
:1008400070BD41F0FE4141F4780170BD70B54FF0CC
:10085000FF0C4CF4E06C1CEA11541DBF1CEA13554C
:1008600094EA0C0F95EA0C0F00F0A7F8A4EB05042E
:1008700081EA030E52EA03354FEA013100F0888025
:100880004FEA03334FF0805545EA131343EA1263EE
:100890004FEA022245EA111545EA10654FEA0026A3
:1008A0000EF000419D4208BF964244F1FD0404F55C
:1008B000407402D25B084FEA3202B61A65EB0305B8
:1008C0005B084FEA32024FF480104FF4002CB6EB75
:1008D000020E75EB030E22BFB61A754640EA0C00F5
:1008E0005B084FEA3202B6EB020E75EB030E22BF35
:1008F000B61A754640EA5C005B084FEA3202B6EB76
:10090000020E75EB030E22BFB61A754640EA9C0034
:100910005B084FEA3202B6EB020E75EB030E22BF04
:10092000B61A754640EADC0055EA060E18D04FEAC2
:10093000051545EA16754FEA06164FEAC30343EA62
:1009400052734FEAC2025FEA1C1CC0D111F4801F2F
:100950000BD141EA00014FF000004FF0004CB6E728
:1009600011F4801F04BF01430020B4F1FD0C88BFC7
:10097000BCF5E06F3FF6AFAEB5EB030C04BFB6EBD2
:10098000020C5FEA500C50F1000041EB045170BDC5
:100990000EF0004E4EEA113114EB5C04C2BFD4EBF2
:1009A0000C0541EA045170BD41F480114FF0000E76
:1009B000013C90E645EA060E8DE60CEA135594EAF2
:1009C0000C0F08BF95EA0C0F3FF43BAF94EA0C0FF5
:1009D0000AD150EA01347FF434AF95EA0C0F7FF46A
:1009E00025AF104619462CE795EA0C0F06D152EABE
:1009F00003353FF4FDAE1046194622E750EA4106A2
:100A000018BF52EA43067FF4C5AE50EA41047FF4B2
:100A10000DAF52EA43057FF4EBAE12E74FF0FF3C17
:100A200006E000BF4FF0010C02E000BF4FF0010CE8
:100A30004DF804CD4FEA410C7FEA6C5C4FEA430C61
:100A400018BF7FEA6C5C1BD001B050EA410C0CBFB0
:100A500052EA430C91EA030F02BF90EA020F002012
:100A6000704710F1000F91EA030F58BF994208BF79
:100A700090422CBFD8176FEAE37040F00100704736
:100A80004FEA410C7FEA6C5C02D150EA013C07D18D
:100A90004FEA430C7FEA6C5CD6D152EA033CD3D0D8
:100AA0005DF8040B704700BF8446104662468C46D2
:100AB0001946634600E000BF01B5FFF7B7FF002805
:100AC00048BF10F1000F01BD4DF808EDFFF7F4FF2E
:100AD0000CBF012000205DF808FB00BF4DF808EDB9
:100AE000FFF7EAFF34BF012000205DF808FB00BFDC
:100AF0004DF808EDFFF7E0FF94BF012000205DF8FE
:100B000008FB00BF4DF808EDFFF7CEFF94BF0120B2
:100B100000205DF808FB00BF4DF808EDFFF7C4FFAB
:100B200034BF012000205DF808FB00BF4FEA410CF4
:100B30007FEA6C5C02D150EA013C0AD14FEA430CD7
:100B40007FEA6C5C02D152EA033C02D14FF0000014
:100B500070474FF0010070474FEA410212F5001252
:100B600015D211D56FF47873B3EB625212D94FEAF4
:100B7000C12343F0004343EA505311F0004F23FADE
:100B800002F018BF404270474FF00000704750EA33
:100B9000013005D111F0004008BF6FF000407047F0
:100BA0004FF00000704700BF4A0011D212F500124A
:100BB00011D20DD56FF47873B3EB62520ED44FEAB5
:100BC000C12343F0004343EA505323FA02F0704735
:100BD0004FF00000704750EA013002D14FF0FF3073
:100BE00070474FF00000704753B94AB9002908BF59
:100BF00000281CBF4FF0FF314FF0FF3000F06AB902
:100C0000ADF1080C6DE904CE00F006F8DDF804E063
:100C1000DDE9022304B070472DE9F047089D0C463A
:100C2000002B4ED194468C458646B2FA82F262D9A8
:100C30004AB1C2F12003914020FA03F30CFA02FCFE
:100C4000194300FA02FE4FEA1C471FFA8CF6B1FB6B
:100C5000F7F44FEA1E4307FB141143EA014304FB78
:100C600006F199420AD91CEB030304F1FF3080F02E
:100C70001281994240F20F81023C6344591A1FFAD3
:100C80008EF3B1FBF7F007FB101143EA014300FBC1
:100C900006F69E420AD91CEB030300F1FF3180F0F7
:100CA000FC809E4240F2F980634402389B1B40EA7C
:100CB000044000211DB1D3400022C5E90032BDE847
:100CC000F0878B4205D90DB1C5E900010021084626
:100CD000F5E7B3FA83F1002946D1A34202D390424B
:100CE000C0F0F080861A64EB03030120002DE6D0EB
:100CF000C5E90063E3E7002A40F09080A1EB0C0413
:100D00004FEA1C481FFA8CF70121B4FBF8F64FEAB2
:100D10001E4308FB164443EA044307FB06F09842CF
:100D200008D91CEB030306F1FF3402D2984200F20B
:100D3000CD8026461C1A1FFA8EF3B4FBF8F008FB90
:100D4000104443EA044300FB07F79F4208D91CEB19
:100D5000030300F1FF3402D29F4200F2B08020462C
:100D6000DB1B40EA0640A5E7C1F120068B4022FAD2
:100D700006F71F4320FA06FC04FA01F343EA0C03CA
:100D8000F44000FA01F8380C4FEA1349B4FBF0FEC6
:100D90001FFA87FC00FB1E4449EA04440EFB0CF9D1
:100DA000A14502FA01F20AD93C190EF1FF3A80F08E
:100DB0008480A14540F28180AEF1020E3C44A4EB58
:100DC00009041FFA83F9B4FBF0F300FB134449EA6A
:100DD000044403FB0CFCA44507D93C1903F1FF3084
:100DE00067D2A44565D9023B3C4443EA0E40A0FBD0
:100DF0000293A4EB0C049C42CE469C4651D34ED0A9
:100E000055B1B8EB0E0364EB0C0404FA06F6CB40C4
:100E10001E43CC40C5E90064002150E7C2F1200325
:100E200020FA03F10CFA02FC24FA03F394400C4379
:100E30004FEA1C4800FA02FE1FFA8CF7B3FBF8F0E9
:100E400008FB1031230C43EA014300FB07F19942F0
:100E500008D91CEB030300F1FF362CD299422AD9A2
:100E6000023863445B1AA4B2B3FBF8F108FB1133F8
:100E700044EA034401FB07F3A34208D91CEB040432
:100E800001F1FF3613D2A34211D902396444E41AA6
:100E900041EA004139E70446F0E6084606E7C8455E
:100EA000AED2B9EB020E63EB070C0138A8E731466E
:100EB000EDE7034699E73046D4E7D6467FE763443B
:100EC00002384DE70646234608460FE7023E6344D4
:100ED00030E700BF704700BF80B586B000AF7860D4
:100EE000396007F1080300221A605A609A60DA60DC
:100EF0003B68BB600123FB6000233B6107F10803F3
:100F00001946786801F084FF0346002B01D001F0F8
:100F100001F8786801F012FE4FF0FF31786801F0B7
:100F2000DFFE0346002B13D1786801F064FF03460F
:100F30001846FFF7E7FA0AA3D3E90023FFF75CFBA3
:100F400002460B4610461946FFF72EFE034600E008
:100F5000002318461837BD4680BD00BFAFF30080A0
:100F6000B4D934E70C684A3F80B584B000AF3B4643
:100F700000221A605A609A60DA60214B214A1A6096
:100F80001F4B4FF480325A601D4B00229A601C4B5D
:100F900000221A611A4B00221A76194B002283F89C
:100FA0002020174B0022DA62154B174A9A62144B25
:100FB0000022DA60124B0122DA61114B002283F821
:100FC00030200F4B01225A610D4801F073FD03469A
:100FD000002B01D000F09EFF04233B6001237B60C7
:100FE0000023BB603B461946054801F011FF03464C
:100FF000002B01D000F08EFF00BF1037BD4680BD32
:10100000F0010020002001400100000F80B584B0F5
:1010100000AF3B4600221A605A609A60DA60214BAA
:10102000214A1A601F4B4FF480325A601D4B002238
:101030009A601C4B00221A611A4B00221A76194B37
:10104000002283F82020174B0022DA62154B174A42
:101050009A62144B0022DA60124B0122DA61114BC2
:10106000002283F830200F4B01225A610D4801F015
:1010700021FD0346002B01D000F04CFF06233B600E
:1010800001237B600023BB603B461946054801F005
:10109000BFFE0346002B01D000F03CFF00BF10371D
:1010A000BD4680BD38020020002101400100000F34
:1010B00080B584B000AF3B4600221A605A609A6047
:1010C000DA60214B214A1A601F4B4FF480325A607C
:1010D0001D4B00229A601C4B00221A611A4B002201
:1010E0001A76194B002283F82020174B0022DA626F
:1010F000154B174A9A62144B0022DA60124B0122F8
:10110000DA61114B002283F830200F4B01225A6123
:101110000D4801F0CFFC0346002B01D000F0FAFE91
:1011200001233B6001237B600023BB603B461946E3
:10113000054801F06DFE0346002B01D000F0EAFEE9
:1011400000BF1037BD4680BD800200200022014054
:101150000100000F80B590B000AF786007F12C035C
:1011600000221A605A609A60DA601A617B681B6814
:101170006C4A934242D10023BB626B4B5B6C6A4A60
:1011800043F480735364684B5B6C03F48073BB62FD
:10119000BB6A00237B62644B1B6B634A43F004030E
:1011A0001363614B1B6B03F004037B627B6A0023B8
:1011B0003B625D4B1B6B5C4A43F0010313635A4B6C
:1011C0001B6B03F001033B623B6A3C23FB6203237E
:1011D0003B6300237B6307F12C031946534802F05D
:1011E0001BF93023FB6203233B6300237B6307F17E
:1011F0002C0319464E4802F00FF98EE07B681B68FD
:101200004C4A93425CD10023FB61474B5B6C464ADE
:1012100043F400735364444B5B6C03F40073FB6151
:10122000FB690023BB61404B1B6B3F4A43F0040347
:1012300013633D4B1B6B03F00403BB61BB690023CD
:101240007B61394B1B6B384A43F001031363364B08
:101250001B6B03F001037B617B6900233B61324B15
:101260001B6B314A43F0020313632F4B1B6B03F0DC
:1012700002033B613B690323FB6203233B630023BF
:101280007B6307F12C031946284802F0C5F8C023F8
:10129000FB6203233B6300237B6307F12C031946A6
:1012A000234802F0B9F80323FB6203233B630023C6
:1012B0007B6307F12C0319461F4802F0ADF82CE0C0
:1012C0007B681B681D4A934227D10023FB60164BA5
:1012D0005B6C154A43F480635364134B5B6C03F4FB
:1012E0008063FB60FB680023BB600F4B1B6B0E4AE7
:1012F00043F0010313630C4B1B6B03F00103BB6052
:10130000BB680623FB6203233B6300237B6307F177
:101310002C031946064802F07FF800BF4037BD464F
:1013200080BD00BF0020014000380240000802409C
:101330000000024000210140000402400022014060
:1013400080B586B002AF78600B467B803E233B734E
:101350007B88DBB27B737B881B0A9BB2DBB2BB73DF
:101360007B68186807F10C024FF0FF3300930323EA
:10137000102102F04BFB034618461037BD4680BDD6
:1013800080B590B002AFF8607A601A460B467B8158
:1013900013467B723E233B757B89DBB27B757B8971
:1013A0001B0A9BB2DBB2BB757A7A07F114030333D5
:1013B0007968184606F0F1F8FB6818687B7A9BB2EA
:1013C00003339BB207F114024FF0FF31009110215B
:1013D00002F01CFB034687F8373097F83730002BB4
:1013E00002D097F8373006E07B7A79897A68F86816
:1013F00000F005F8034618463837BD4680BD80B575
:1014000088B002AFF8607A601A460B467B811346BB
:101410007B727B89DAB27B891B0A9BB2DBB21344F5
:10142000FB750023BB7509E0BB7D7A6813441A780D
:10143000FB7D1344FB75BB7D0133BB75BA7D7B7AA5
:101440009A42F1D3FB7DDB437B757B7A04333B759A
:1014500060233B747B7D7B743B7DBB74FB681868A9
:1014600007F110024FF0FF3300930323102102F025
:10147000CDFA034618461837BD4680BD80B588B002
:1014800002AFF8607A601A460B467B8113467B7286
:10149000FB68186807F10A024FF0FF33009301233D
:1014A000102102F0B3FA0346FB75FB7D002B01D03F
:1014B000FB7D0BE0FB6818687B7A9BB24FF0FF3234
:1014C00000927A68102102F09FFB034618461837F5
:1014D000BD4680BD80B584B000AF7860902178684B
:1014E000FFF72EFF02233B7307F10C02012349F2A1
:1014F0001B017868FFF744FFE1233B7307F10C02FF
:10150000012349F224017868FFF73AFFB8233B73BF
:101510000B237B7307F10C02022349F22E0178683A
:10152000FFF72EFF92217868FFF70AFF00BF103700
:10153000BD4680BD80B584B000AF78600023FB73EA
:101540001BE0FB7B0A339BB25B0099B207F10802F8
:1015500002237868FFF792FF3B7A1AB27B7A1B026C
:101560001BB213431AB2FB7B91B27A685B0013443F
:101570000A469A80FB7B0133FB73FB7B042BE0D98B
:1015800007F10802022326217868FFF777FF3B7AEC
:101590001AB27B7A1B021BB213431BB29AB27B684E
:1015A000DA8107F10802022322217868FFF766FF3B
:1015B0003B7A1AB27B7A1B021BB213431BB29AB25C
:1015C0007B681A8207F10802022324217868FFF75A
:1015D00055FF3B7A1AB27B7A1B021BB213431BB234
:1015E0009AB27B685A8207F10802022328217868A0
:1015F000FFF744FF3B7A1AB27B7A1B021BB21343FC
:101600001AB27B689A8207F1080202232A217868BD
:10161000FFF734FF3B7A1AB27B7A1B021BB21343EB
:101620001BB29AB27B68DA8207F1080204233621E2
:101630007868FFF723FF3B7A1A467B7A1B021A432E
:10164000BB7A1B041A43FB7A1B061A437B689A6118
:1016500007F1080202233A217868FFF70FFF3B7A6F
:101660001AB27B7A1B021BB213431AB27B689A83AD
:1016700007F1080202233C217868FFF7FFFE3B7A5E
:101680001AB27B7A1B021BB213431AB27B68DA834D
:1016900007F10802022312217868FFF7EFFE3B7A78
:1016A0005AB27B7A1B025BB213435BB2DAB27B683D
:1016B00083F820207B6803F12102012362217868EE
:1016C000FFF7DCFE7B6803F12202012364217868C6
:1016D000FFF7D4FE7B6803F12302012349F22401C2
:1016E0007868FFF7CBFE07F10802022349F22E01CA
:1016F0007868FFF7C3FE3B7A1AB27B7A1B021BB2F3
:1017000013431BB29AB27B689A8407F10802022342
:1017100049F232017868FFF7B1FE3B7A1AB27B7A60
:101720001B021BB213431BB29AB27B68DA847B683C
:1017300003F12802012349F236017868FFF79EFE83
:101740007B6803F12902012349F238017868FFF729
:1017500095FE7B6803F12A02012349F23A01786879
:10176000FFF78CFE7B6803F12B02012349F23C0159
:101770007868FFF783FE7B6803F12C02012349F2AE
:1017800040017868FFF77AFE7B6803F12D020123A0
:1017900049F243017868FFF771FE7B6803F12E027E
:1017A000012349F246017868FFF768FE7B6803F180
:1017B0002F02012349F249017868FFF75FFE7B6839
:1017C00003F13002012349F24C017868FFF756FE1D
:1017D00000BF1037BD4680BD80B58AB000AF07F1AD
:1017E000140300221A605A609A60DA601A610023BA
:1017F0003B61594B1B6B584A43F004031363564B30
:101800001B6B03F004033B613B690023FB60524BFD
:101810001B6B514A43F0800313634F4B1B6B03F068
:101820008003FB60FB680023BB604B4B1B6B4A4A89
:1018300043F001031363484B1B6B03F00103BB60D0
:10184000BB6800237B60444B1B6B434A43F002039D
:101850001363414B1B6B03F002037B607B68002327
:101860003B603D4B1B6B3C4A43F0080313633A4B10
:101870001B6B03F008033B603B68002245F6044104
:10188000364801F065FF00224FF40071344801F042
:101890005FFF4FF2C0137B610323BB610023FB6139
:1018A00007F1140319462F4801F0B6FD45F604432D
:1018B0007B610123BB610123FB6100233B6207F1D4
:1018C00014031946254801F0A7FD4AF238037B614D
:1018D0000323BB610023FB6107F1140319461F4872
:1018E00001F09AFD4FF400737B610123BB6101237A
:1018F000FB6100233B6207F114031946184801F00D
:101900008BFD4FF404437B610323BB610023FB6128
:1019100007F114031946124801F07EFD04237B6190
:101920000323BB610023FB6107F1140319460E4832
:1019300001F072FD4FF480737B610023BB610123D2
:10194000FB6107F114031946044801F065FD00BF6F
:101950002837BD4680BD00BF003802400004024069
:101960000000024000080240000C024080B500AFB9
:10197000124B134A1A60114B124A5A600F4B002245
:101980009A600E4B0022DA600C4B4FF480421A61D1
:101990000A4B00225A61094B00229A61074B002230
:1019A000DA61064B00221A62044801F0EBFE03469E
:1019B000002B01D000F0AEFA00BF80BDC8020020AD
:1019C00000540040801A060080B500AF124B134A45
:1019D0001A60114B124A5A600F4B00229A600E4B4C
:1019E0000022DA600C4B4FF480421A610A4B00224D
:1019F0005A61094B00229A61074B0022DA61064BBB
:101A000000221A62044801F0BDFE0346002B01D0FB
:101A100000F080FA00BF80BD1C030020005C004085
:101A2000A086010080B58CB000AF786007F11C0380
:101A300000221A605A609A60DA601A617B681B683B
:101A4000424A93422CD10023BB61414B1B6B404A5D
:101A500043F0020313633E4B1B6B03F00203BB61B5
:101A6000BB69C023FB6112233B6200237B6203231B
:101A7000BB620423FB6207F11C031946354801F0E1
:101A8000CBFC00237B61324B1B6C314A43F40013C7
:101A900013642F4B1B6C03F400137B617B6950E0D4
:101AA0007B681B682C4A93424BD100233B61284B37
:101AB0001B6B274A43F004031363254B1B6B03F096
:101AC00004033B613B690023FB60214B1B6B204AF5
:101AD00043F0010313631E4B1B6B03F00103FB6018
:101AE000FB684FF40073FB6112233B6201237B62AE
:101AF0000323BB620423FB6207F11C03194617484A
:101B000001F08AFC4FF48073FB6112233B620123D6
:101B10007B620323BB620423FB6207F11C031946AB
:101B20000F4801F079FC0023BB60094B1B6C084A8D
:101B300043F400031364064B1B6C03F40003BB6007
:101B4000BB6800BF3037BD4680BD00BF00540040B9
:101B50000038024000040240005C004000080240DF
:101B6000000002402DE9B04396B006AF78603960BE
:101B70007B685B691846FEF7E7FC04460D467B6808
:101B80009B691846FEF7E0FC804689467B68DB6966
:101B90001846FEF7D9FC02460B4607F10C00CDE9CA
:101BA0000423CDE90289CDE900453B680B4A322187
:101BB00005F0C4FB07F10C031846FEF759FB03467A
:101BC0009AB207F10C014FF0FF33054804F0A4F876
:101BD00000BF4037BD46BDE8B08300BF589700083E
:101BE0004C040020B0B5D4B000AF00F0CDFE00F042
:101BF00029F9FFF7F1FDFFF7B7F9FFF707FAFFF74C
:101C000057FAFFF7B3FEFFF7DFFE00F0C9FB00F065
:101C100021FC00F077FC00F0A1FD00F011FE002196
:101C2000774803F0A1FB0C21764803F09DFB0C21C3
:101C3000754803F099FB754B07F594741D460FCD5D
:101C40000FC40FCD0FC495E8030084E80300704B68
:101C500007F580741D460FCD0FC40FCD0FC495E856
:101C6000030084E803006B4B07F1D8041D460FCD39
:101C70000FC40FCD0FC495E8030084E80300664B42
:101C800007F1B8041D460FCD0FC495E80F0084E896
:101C90000F00624B07F198041D460FCD0FC495E865
:101CA0000F0084E80F005E4B07F178041D460FCD4E
:101CB0000FC495E80F0084E80F005A4B07F1580451
:101CC0001D460FCD0FC495E80F0084E80F0007F5FF
:101CD000A873A3F58C73184620231A46002105F03B
:101CE00023FC07F5A873A3F58C734F4A5A6107F5D7
:101CF000A873A3F58C734D4A9A6107F5A873A3F5F1
:101D00008C734FF400729A8307F5A873A3F5A6733A
:101D1000184634231A46002105F006FC07F5A8737F
:101D2000A3F5A673424A1A6007F15803184600F05B
:101D3000F7F907F17803184600F0F2F907F1980374
:101D4000184600F0EDF907F13803184600F0E8F9FD
:101D50003B1D1846FFF7BEFB07F59473184600F0CD
:101D600020F907F58073184600F01BF907F1D80336
:101D7000184600F016F907F594732E491846FFF738
:101D8000F1FE07F580732C491846FFF7EBFE07F1CB
:101D9000D8032A491846FFF7E5FE07F1B8031846AD
:101DA00000F06AF907F19803184600F065F907F1A9
:101DB0007803184600F060F907F15803184600F060
:101DC0005BF907F13803184600F056F93B1D184639
:101DD000FFF7B0FB01224FF48041194801F0B8FC35
:101DE00041F2883000F042FE00224FF48041144856
:101DF00001F0AEFC41F2883000F038FE00BFABE7E6
:101E000074030020BC030020040400209497000801
:101E1000BC970008E497000810980008389800085C
:101E20005C9800088498000874970008000002403D
:101E3000C80200207C970008849700088C9700084F
:101E40000004024080B594B000AF07F120033022B7
:101E50000021184605F068FB07F10C0300221A6008
:101E60005A609A60DA601A610023BB60274B1B6CD2
:101E7000264A43F080531364244B1B6C03F08053B9
:101E8000BB60BB6800237B60214B1B68204A43F486
:101E9000804313601E4B1B6803F480437B607B68A8
:101EA00001233B624FF480337B620223BB634FF418
:101EB0008003FB6304233B6460237B640623BB64D1
:101EC0000423FB6407F12003184602F065FD034676
:101ED000002B01D000F01EF80F23FB6002233B61B2
:101EE00000237B610023BB610023FB6107F10C032E
:101EF0000121184602F0C8FF0346002B01D000F074
:101F000009F800BF5037BD4680BD00BF0038024011
:101F10000070004080B400AF72B600BF00BFFDE7A4
:101F200080B487B000AFF860B9607A600223FB75B7
:101F3000BB6893ED007A7B68D3ED007AB4EEE77A64
:101F4000F1EE10FA13DDFB681B781A46FB7DC3F136
:101F5000FF039A4207DCFB681A78FB7D1344DAB270
:101F6000FB681A7013E0FB68FF221A700FE0FB6831
:101F70001B78FA7D9A4207D8FB681A78FB7DD31A42
:101F8000DAB2FB681A7002E0FB6800221A70BB68C4
:101F90001A687B681A6000BF1C37BD465DF8047B79
:101FA000704780B582B000AF78607B681A687B6844
:101FB0005B6819461046FEF78FFF07EE900AF8EEB1
:101FC000677A7B68C3ED057A7B681A687B689B68D3
:101FD00019461046FEF780FF07EE900AF8EE677A82
:101FE0007B68C3ED067A7B6893ED057A7B68D3ED59
:101FF000067A67EE277A7B68C3ED077A7B6803F180
:1020000024007B6803F11C017B6820331A46FFF72C
:1020100087FF7B681B69002B07D17B6893F824201E
:102020007B68DB681B685A6321E07B681B69042BB3
:1020300008D17B6893F824107B68DB681A680B462C
:10204000936314E07B681B69082B08D17B6893F8C5
:1020500024107B68DB681A680B46D36307E07B6853
:1020600093F824107B68DB681A680B46136400BF82
:102070000837BD4680BD0000F0B595B004AF78606C
:102080007B681A687B685B6819461046FEF724FF78
:1020900007EE900AF8EE677A7B68C3ED037A7B68F7
:1020A0001A687B689B6819461046FEF715FF07EE15
:1020B000900AF8EE677A7B68C3ED047A7B685E6904
:1020C0007B68DB681846FEF73FFA04460D467B68DE
:1020D0001B691846FEF738FA02460B4607F10C005A
:1020E000CDE90223CDE9004533460B4A322105F004
:1020F00025F907F10C031846FEF7BAF803469AB221
:1021000007F10C014FF0FF33044803F005FE00BF58
:102110004437BD46F0BD00BFA49800084C04002021
:1021200080B582B000AF78607B6898697B689B8BD4
:102130000122194601F00CFB00BF0837BD4680BDE7
:1021400080B483B000AF00237B60104B5B6C0F4A00
:1021500043F4804353640D4B5B6C03F480437B601A
:102160007B6800233B60094B1B6C084A43F080539B
:102170001364064B1B6C03F080533B603B6800BF4D
:102180000C37BD465DF8047B704700BF0038024045
:1021900080B400AF00BFFDE780B400AF00BFFDE733
:1021A00080B400AF00BFFDE780B400AF00BFFDE723
:1021B00080B400AF00BFFDE780B400AF00BFBD46F4
:1021C0005DF8047B704780B400AF00BFBD465DF88A
:1021D000047B704780B400AF00BFBD465DF8047B50
:1021E000704780B500AF00F021FC00BF80BD80B417
:1021F00000AF01231846BD465DF8047B704780B5EB
:1022000082B000AF7860396005F09AF90346162273
:102210001A604FF0FF3318460837BD4680BD80B5C1
:1022200082B000AF78604FF0FF317868FFF7E7FFCA
:1022300000BFFDE780B586B000AFF860B9607A6096
:1022400000237B610AE0AFF300800146BB685A1CA3
:10225000BA60CAB21A707B6901337B617A697B68A4
:102260009A42F0DB7B6818461837BD4680BD80B5C2
:1022700086B000AFF860B9607A6000237B6109E046
:10228000BB685A1CBA601B781846AFF300807B69A4
:1022900001337B617A697B689A42F1DB7B6818467F
:1022A0001837BD4680BD80B483B000AF78604FF072
:1022B000FF3318460C37BD465DF8047B704780B489
:1022C00083B000AF786039603B684FF400525A60C9
:1022D000002318460C37BD465DF8047B704780B478
:1022E00083B000AF7860012318460C37BD465DF817
:1022F000047B704780B485B000AFF860B9607A6045
:10230000002318461437BD465DF8047B7047000073
:1023100080B586B000AF7860144A154BD31A7B6144
:102320007B693B61134B1B68002B02D1114B124A96
:102330001A60104B1A687B6813443A699A4207D2B4
:1023400005F0FEF803460C221A604FF0FF3309E057
:10235000084B1B68FB60074B1A687B681344054AEF
:102360001360FB6818461837BD4680BD0000022088
:102370000004000070030020C80A002080B400AFF1
:10238000064BD3F88830054A43F47003C2F888300E
:1023900000BFBD465DF8047B704700BF00ED00E064
:1023A00080B58AB000AF07F1200300221A605A609E
:1023B0003B1D00221A605A609A60DA601A615A6105
:1023C0009A61234B4FF080421A60214B40F2A312D6
:1023D0005A601F4B00229A601D4B4FF0FF32DA60AB
:1023E0001B4B00221A611A4B00229A61184802F016
:1023F0006BFF0346002B01D0FFF78CFD00233B62EF
:1024000000237B6207F120031946114803F0B8FB53
:102410000346002B01D0FFF77DFD60237B60002386
:10242000BB600023FB6000237B613B1D002219463B
:10243000074803F061F80346002B01D0FFF76AFD5F
:10244000034800F005F900BF2837BD4680BD00BF36
:102450007403002080B58AB000AF07F1200300228A
:102460001A605A603B1D00221A605A609A60DA6056
:102470001A615A619A61214B214A1A601F4B01224D
:102480005A601E4B00229A601C4B1E22DA601B4BC6
:1024900000221A61194B00229A61184802F014FFB9
:1024A0000346002B01D0FFF735FD00233B620023DC
:1024B0007B6207F120031946104803F061FB0346D5
:1024C000002B01D0FFF726FD60237B600023BB605B
:1024D0000023FB6000237B613B1D0C22194607484B
:1024E00003F00AF80346002B01D0FFF713FD034861
:1024F00000F0AEF800BF2837BD4680BDBC03002009
:102500000008004080B58AB000AF07F12003002228
:102510001A605A603B1D00221A605A609A60DA60A5
:102520001A615A619A61224B224A1A60204B40F28A
:10253000A3125A601E4B00229A601D4B4FF0FF32CF
:10254000DA601B4B00221A61194B00229A6118486D
:1025500002F0BAFE0346002B01D0FFF7DBFC00239C
:102560003B6200237B6207F120031946104803F009
:1025700007FB0346002B01D0FFF7CCFC60237B60F8
:102580000023BB600023FB6000237B613B1D0C220A
:102590001946074802F0B0FF0346002B01D0FFF7B1
:1025A000B9FC034800F054F800BF2837BD4680BD91
:1025B00004040020000C004080B487B000AF7860B5
:1025C0007B681B68B3F1804F0ED100237B611D4BEC
:1025D0001B6C1C4A43F0010313641A4B1B6C03F081
:1025E00001037B617B6926E07B681B68164A934286
:1025F0000ED100233B61134B1B6C124A43F00403C2
:102600001364104B1B6C03F004033B613B6912E045
:102610007B681B680D4A93420DD10023FB60094B78
:102620001B6C084A43F008031364064B1B6C03F051
:102630000803FB60FB6800BF1C37BD465DF8047BE8
:10264000704700BF0038024000080040000C004006
:1026500080B58AB000AF786007F1140300221A60D9
:102660005A609A60DA601A617B681B68B3F1804F28
:102670001ED100233B61344B1B6B334A43F00103F3
:102680001363314B1B6B03F001033B613B69012377
:102690007B610223BB610023FB6100233B620123BA
:1026A0007B6207F114031946284800F0B5FE47E0A5
:1026B0007B681B68264A93421FD10023FB60224B94
:1026C0001B6B214A43F0020313631F4B1B6B03F088
:1026D0000203FB60FB684FF400737B610223BB6164
:1026E0000023FB6100233B6202237B6207F114039A
:1026F0001946184800F090FE22E07B681B68164AD5
:1027000093421DD10023BB600F4B1B6B0E4A43F05D
:10271000010313630C4B1B6B03F00103BB60BB682D
:1027200008237B610223BB610023FB6100233B6222
:1027300002237B6207F114031946044800F06CFE83
:1027400000BF2837BD4680BD00380240000002406F
:102750000008004000040240000C004080B500AFBB
:10276000114B124A1A60104B4FF4E1325A600E4B73
:1027700000229A600C4B0022DA600B4B00221A6197
:10278000094B0C225A61084B00229A61064B002229
:10279000DA61054803F070FA0346002B01D0FFF719
:1027A000B9FB00BF80BD00BF4C040020004C0040BE
:1027B00080B58AB000AF786007F1140300221A6078
:1027C0005A609A60DA601A617B681B68194A934202
:1027D0002CD100233B61184B1B6C174A43F4002398
:1027E0001364154B1B6C03F400233B613B6900230E
:1027F000FB60114B1B6B104A43F0040313630E4B39
:102800001B6B03F00403FB60FB684FF440637B61C8
:102810000223BB610123FB6103233B6208237B622C
:1028200007F114031946054800F0F6FD00BF2837EC
:10283000BD4680BD004C0040003802400008024008
:1028400080B500AF144B4FF0A0421A60124B042227
:102850001A71114B0222DA710F4B00229A710E4B42
:1028600002225A720C4B00229A720B4B0022DA722F
:10287000094B00221A73084B00229A73064B002260
:10288000DA73054801F078FF0346002B01D0FFF70B
:1028900041FB00BF80BD00BF9404002080B58AB01A
:1028A00000AF786007F1140300221A605A609A6042
:1028B000DA601A617B681B68B3F1A04F32D1002344
:1028C0003B611A4B1B6B194A43F001031363174B0F
:1028D0001B6B03F001033B613B694FF4C0537B6109
:1028E0000223BB610023FB6103233B620A237B625B
:1028F00007F1140319460E4800F08EFD0B4B5B6B7D
:102900000A4A43F0800353630023FB60074B5B6C70
:10291000064A43F480435364044B5B6C03F48043E6
:10292000FB60FB6800BF2837BD4680BD0038024011
:1029300000000240DFF834D0FFF720FD0C480D49BD
:102940000D4A002302E0D458C4500433C4188C420A
:10295000F9D30A4A0A4C002301E013600432A24270
:10296000FBD304F0F3FDFFF73DF9704700000220B0
:1029700000000020D4010020509C0008D401002059
:10298000C80A0020FEE7000080B500AF0E4B1B68B0
:102990000D4A43F4007313600B4B1B680A4A43F45F
:1029A00080631360084B1B68074A43F4807313600D
:1029B000032000F0FDFC0F2000F008F8FFF7C0FB3B
:1029C0000023184680BD00BF003C024080B582B0A5
:1029D00000AF7860124B1A68124B1B7819464FF4FF
:1029E0007A73B3FBF1F3B2FBF3F3184600F007FD83
:1029F0000346002B01D001230EE07B680F2B0AD881
:102A0000002279684FF0FF3000F0DDFC064A7B6859
:102A10001360002300E0012318460837BD4680BD3F
:102A200000000020080000200400002080B400AF57
:102A3000064B1B781A46064B1B681344044A136066
:102A400000BFBD465DF8047B704700BF0800002052
:102A50007809002080B400AF034B1B681846BD46C0
:102A60005DF8047B704700BF7809002080B584B012
:102A700000AF7860FFF7EEFFB8607B68FB60FB6833
:102A8000B3F1FF3F05D00A4B1B781A46FB6813448D
:102A9000FB6000BFFFF7DEFF0246BB68D31AFA688F
:102AA0009A42F7D800BF00BF1037BD4680BD00BFB7
:102AB0000800002080B584B000AF78600023FB736D
:102AC0007B68002B01D1012333E07B681B6C002B5A
:102AD00009D17868FEF73EFB7B6800225A647B6868
:102AE000002283F83C207B681B6C03F01003002B52
:102AF00018D17B681B6C23F4885323F0020343F046
:102B000002027B681A64786800F0A4FA7B680022ED
:102B10005A647B681B6C23F0030343F001027B685B
:102B20001A6401E00123FB737B68002283F83C20D8
:102B3000FB7B18461037BD4680BD000080B485B0D1
:102B400000AF78600023BB607B6893F83C30012BBA
:102B500001D10223B2E07B68012283F83C207B682C
:102B60001B689B6803F00103012B18D07B681B686E
:102B70009A687B681B6842F001029A60524B1B689E
:102B8000524AA2FB03239A0C13465B001344BB601A
:102B900002E0BB68013BBB60BB68002BF9D17B68DE
:102BA0001B689B6803F00103012B7AD17B681B6CC7
:102BB00023F4E06323F0010343F480727B681A641A
:102BC0007B681B685B6803F48063002B07D07B681D
:102BD0001B6C23F4405343F480527B681A647B6877
:102BE0001B6C03F48053B3F5805F06D17B685B6C8C
:102BF00023F006027B685A6402E07B6800225A6474
:102C00007B68002283F83C20314BFB607B681B68AB
:102C10006FF022021A60FB685B6803F01F03002B51
:102C20002AD17B681B682B4A934215D07B681B68AE
:102C3000294A934205D1264B5B6803F01F03002B02
:102C40000AD07B681B68254A934236D1204B5B68CB
:102C500003F01003002B30D17B681B689B6803F0E6
:102C60004053002B29D17B681B689A687B681B68DE
:102C700042F080429A6020E07B681B68154A9342CC
:102C80001BD17B681B689B6803F04053002B14D159
:102C90007B681B689A687B681B6842F080429A6078
:102CA0000BE07B681B6C43F010027B681A647B6846
:102CB0005B6C43F001027B685A64002318461437AA
:102CC000BD465DF8047B70470000002083DE1B4397
:102CD000002301400020014000210140002201406A
:102CE00080B584B000AF786039600023FB607B68FA
:102CF0001B689B6803F48063B3F5806F13D17B6816
:102D00001B689B6803F48073B3F5807F0BD17B68ED
:102D10001B6C43F020027B681A647B68002283F8F6
:102D20003C20012363E0FFF795FEF86021E03B685B
:102D3000B3F1FF3F1DD03B68002B07D0FFF78AFEA1
:102D40000246FB68D31A3A689A4212D27B681B6823
:102D50001B6803F00203022B0BD07B681B6C43F053
:102D600004027B681A647B68002283F83C200323FA
:102D70003DE07B681B681B6803F00203022BD6D181
:102D80007B681B686FF012021A607B681B6C43F44F
:102D900000727B681A647B681B689B6803F0405371
:102DA000002B23D17B681B7E002B1FD17B681B6807
:102DB000DB6A03F47003002B06D07B681B689B68FA
:102DC00003F48063002B11D17B681B6C23F48072A9
:102DD0007B681A647B681B6C03F48053002B05D15D
:102DE0007B681B6C43F001027B681A640023184661
:102DF0001037BD4680BD80B483B000AF78607B687B
:102E00001B68DB6C18460C37BD465DF8047B7047C9
:102E100080B485B000AF786039600023BB607B6808
:102E200093F83C30012B01D1022305E17B6801229C
:102E300083F83C203B681B68092B25D97B681B68FD
:102E4000D9683B681B689BB21A4613465B00134463
:102E50001E3B072202FA03F3DA437B681B680A4031
:102E6000DA607B681B68D9683B689A683B681B68B6
:102E70009BB2184603465B0003441E3B9A407B68A6
:102E80001B680A43DA6022E07B681B6819693B68AB
:102E90001B689BB21A4613465B001344072202FAD2
:102EA00003F3DA437B681B680A401A617B681B687E
:102EB00019693B689A683B681B689BB218460346D1
:102EC0005B0003449A407B681B680A431A613B68B5
:102ED0005B68062B24D87B681B68596B3B685A6873
:102EE00013469B001344053B1F2202FA03F3DA4307
:102EF0007B681B680A405A637B681B68596B3B6898
:102F00001B689BB218463B685A6813469B001344E3
:102F1000053B00FA03F27B681B680A435A634CE0E6
:102F20003B685B680C2B24D87B681B68196B3B687B
:102F30005A6813469B001344233B1F2202FA03F3F3
:102F4000DA437B681B680A401A637B681B68196B4D
:102F50003B681B689BB218463B685A6813469B0047
:102F60001344233B00FA03F27B681B680A431A638D
:102F700023E07B681B68D96A3B685A6813469B004C
:102F80001344413B1F2202FA03F3DA437B681B68B8
:102F90000A40DA627B681B68D96A3B681B689BB28F
:102FA00018463B685A6813469B001344413B00FA9D
:102FB00003F27B681B680A43DA62224BFB607B6882
:102FC0001B68214A934209D13B681B68122B05D12B
:102FD000FB685B6843F48002FB685A607B681B688F
:102FE000194A934223D13B681B68102B03D03B68DE
:102FF0001B68112B1BD1FB685B6843F40002FB6864
:103000005A603B681B68102B11D1104B1B68104A8B
:10301000A2FB03239A0C13469B0013445B00BB6086
:1030200002E0BB68013BBB60BB68002BF9D17B6849
:10303000002283F83C20002318461437BD465DF873
:10304000047B704700230140002001400000002065
:1030500083DE1B4380B485B000AF7860794BFB60A2
:10306000FB685B6823F44032FB685A60FB685A686F
:103070007B685B681A43FB685A607B681B685A6808
:103080007B681B6822F480725A607B681B685968F1
:103090007B681B691A027B681B680A435A607B685D
:1030A0001B685A687B681B6822F040725A607B6814
:1030B0001B6859687B689A687B681B680A435A607A
:1030C0007B681B689A687B681B6822F400629A60C0
:1030D0007B681B6899687B68DA687B681B680A43B1
:1030E0009A607B689B6A584A934222D07B681B682F
:1030F0009A687B681B6822F070629A607B681B6824
:1031000099687B689A6A7B681B680A439A607B6847
:103110001B689A687B681B6822F040529A607B6843
:103120001B6899687B68DA6A7B681B680A439A6047
:103130000FE07B681B689A687B681B6822F07062EE
:103140009A607B681B689A687B681B6822F0405213
:103150009A607B681B689A687B681B6822F0020291
:103160009A607B681B6899687B681B7E5A007B6845
:103170001B680A439A607B6893F82030002B1BD0B1
:103180007B681B685A687B681B6842F400625A605F
:103190007B681B685A687B681B6822F460425A602F
:1031A0007B681B6859687B685B6A013B5A037B68D4
:1031B0001B680A435A6007E07B681B685A687B6893
:1031C0001B6822F400625A607B681B68DA6A7B68BD
:1031D0001B6822F47002DA627B681B68D96A7B681C
:1031E000DB69013B1A057B681B680A43DA627B686E
:1031F0001B689A687B681B6822F400729A607B687F
:103200001B6899687B6893F830305A027B681B68AA
:103210000A439A607B681B689A687B681B6822F483
:1032200080629A607B681B6899687B685B699A0218
:103230007B681B680A439A6000BF1437BD465DF87F
:10324000047B7047002301400100000F80B485B06B
:1032500000AF78607B6803F00703FB600C4BDB6812
:10326000BB60BA684FF6FF031340BB60FB681A02ED
:10327000BB68134343F0BF6343F40033BB60044AAD
:10328000BB68D36000BF1437BD465DF8047B704750
:1032900000ED00E080B400AF044BDB681B0A03F0D4
:1032A00007031846BD465DF8047B704700ED00E05B
:1032B00080B483B000AF03463960FB7197F90730E3
:1032C000002B0ADB3B68DAB20C4997F90730120190
:1032D000D2B20B4483F800230AE03B68DAB2084913
:1032E000FB7903F00F03043B1201D2B20B441A76B0
:1032F00000BF0C37BD465DF8047B704700E100E07D
:1033000000ED00E080B489B000AFF860B9607A6089
:10331000FB6803F00703FB61FB69C3F10703042BA0
:1033200028BF0423BB61FB690433062B02D9FB6968
:10333000033B00E000237B614FF0FF32BB6902FAE0
:1033400003F3DA43BB681A407B699A404FF0FF31C0
:103350007B6901FA03F3D9437B680B40134318469A
:103360002437BD465DF8047B7047000080B582B00D
:1033700000AF78607B68013BB3F1807F01D301230C
:103380000FE00A4A7B68013B53600F214FF0FF308A
:10339000FFF78EFF054B00229A60044B07221A604C
:1033A000002318460837BD4680BD00BF10E000E08E
:1033B00080B582B000AF78607868FFF747FF00BF44
:1033C0000837BD4680BD80B586B000AF0346B96002
:1033D0007A60FB7300237B61FFF75CFF78617A689A
:1033E000B9687869FFF78EFF024697F90F301146EA
:1033F0001846FFF75DFF00BF1837BD4680BD80B59A
:1034000082B000AF78607868FFF7B0FF03461846D7
:103410000837BD4680BD000080B489B000AF786039
:10342000396000237B6100233B610023BB610023E3
:10343000FB616BE10122FB6902FA03F37B613B68EC
:103440001B687A6913403B613A697B699A4240F094
:103450005A813B685B6803F00303012B05D03B688E
:103460005B6803F00303022B30D17B689B68BB6170
:10347000FB695B00032202FA03F3DB43BA691340E2
:10348000BB613B68DA68FB695B0002FA03F3BA6967
:103490001343BB617B68BA699A607B685B68BB61F8
:1034A0000122FB6902FA03F3DB43BA691340BB61F3
:1034B0003B685B681B0903F00102FB6902FA03F336
:1034C000BA691343BB617B68BA695A603B685B6841
:1034D00003F00303032B17D07B68DB68BB61FB6938
:1034E0005B00032202FA03F3DB43BA691340BB61BA
:1034F0003B689A68FB695B0002FA03F3BA691343FD
:10350000BB617B68BA69DA603B685B6803F0030300
:10351000022B23D1FB69DA087B68083253F822308A
:10352000BB61FB6903F007039B000F2202FA03F360
:10353000DB43BA691340BB613B681A69FB6903F05E
:1035400007039B0002FA03F3BA691343BB61FB69EB
:10355000DA087B680832B96943F822107B681B6877
:10356000BB61FB695B00032202FA03F3DB43BA6928
:103570001340BB613B685B6803F00302FB695B00BF
:1035800002FA03F3BA691343BB617B68BA691A6034
:103590003B685B6803F44033002B00F0B4800023E9
:1035A000FB60604B5B6C5F4A43F4804353645D4B4C
:1035B0005B6C03F48043FB60FB685B4AFB699B0820
:1035C000023352F82330BB61FB6903F003039B0015
:1035D0000F2202FA03F3DB43BA691340BB617B6835
:1035E000524A93422BD07B68514A934225D07B6844
:1035F000504A93421FD07B684F4A934219D07B6850
:103600004E4A934213D07B684D4A93420DD07B685B
:103610004C4A934207D07B684B4A934201D107231F
:103620000EE008230CE006230AE0052308E004234B
:1036300006E0032304E0022302E0012300E000236C
:10364000FA6902F0030292009340BA691343BB6126
:103650003549FB699B080233BA6941F823203B4B8B
:103660009B68BB613B69DB43BA691340BB613B6844
:103670005B6803F48013002B03D0BA693B691343E2
:10368000BB61324ABB699360304BDB68BB613B690D
:10369000DB43BA691340BB613B685B6803F400130A
:1036A000002B03D0BA693B691343BB61274ABB694E
:1036B000D360264B5B68BB613B69DB43BA6913404F
:1036C000BB613B685B6803F40033002B03D0BA692D
:1036D0003B691343BB611D4ABB6953601B4B1B68AD
:1036E000BB613B69DB43BA691340BB613B685B6804
:1036F00003F48033002B03D0BA693B691343BB61E9
:10370000124ABB691360FB690133FB61FB690F2B34
:103710007FF690AE00BF00BF2437BD465DF8047B46
:10372000704700BF003802400038014000000240EE
:103730000004024000080240000C02400010024059
:103740000014024000180240001C0240003C0140EE
:1037500080B483B000AF78600B467B8013467B70EB
:103760007B78002B03D07A887B689A6103E07B88A2
:103770001A047B689A6100BF0C37BD465DF8047B74
:103780007047000080B584B000AF78607B68002B84
:1037900001D101232BE17B6893F83D30DBB2002B94
:1037A00006D17B68002283F83C207868FEF73AF95E
:1037B0007B68242283F83D207B681B681A687B683D
:1037C0001B6822F001021A607B681B681A687B681C
:1037D0001B6842F400421A607B681B681A687B68A9
:1037E0001B6822F400421A6001F046FDF8607B6815
:1037F0005B68814A934207D8FB68804A934294BF32
:1038000001230023DBB206E0FB687D4A934294BFAC
:1038100001230023DBB2002B01D00123E7E0FB688A
:10382000784AA2FB03239B0CBB607B681B685B6828
:1038300023F03F017B681B68BA680A435A607B68C3
:103840001B681B6A23F03F017B685B686A4A9342EE
:1038500002D8BB68013309E0BB684FF4967202FBE3
:1038600003F3694AA2FB03239B0901337A681268B8
:103870000B4313627B681B68DB6923F44F4222F021
:10388000FF027B685B685C498B4219D8FB68591E54
:103890007B685B685B00B1FBF3F3591C40F6FC737B
:1038A0000B40002B0AD0FB68591E7B685B685B00ED
:1038B000B1FBF3F30133C3F30B0351E004234FE0F7
:1038C0007B689B68002B11D1FB68581E7B68596888
:1038D0000B465B000B44B0FBF3F30133C3F30B0364
:1038E000002B0CBF01230023DBB212E0FB68581E43
:1038F0007B6859680B469B000B4499000B44B0FB56
:10390000F3F30133C3F30B03002B0CBF012300239C
:10391000DBB2002B01D0012322E07B689B68002BE7
:103920000ED1FB68581E7B6859680B465B000B4440
:10393000B0FBF3F30133C3F30B0343F400430FE095
:10394000FB68581E7B6859680B469B000B44990026
:103950000B44B0FBF3F30133C3F30B0343F44043D5
:10396000796809681343CB617B681B681B6823F087
:10397000C0017B68DA697B681B6A1A437B681B6835
:103980000A431A607B681B689B6823F4034323F097
:10399000FF037A6811697A68D26811437A681268FD
:1039A0000B4393607B681B68DB6823F0FF017B6837
:1039B0005A697B689B691A437B681B680A43DA6013
:1039C0007B681B681A687B681B6842F001021A60FA
:1039D0007B6800221A647B68202283F83D207B6884
:1039E00000221A637B68002283F83E2000231846D9
:1039F0001037BD4680BD00BFA08601007F841E0039
:103A0000FF083D0083DE1B43D34D621080B588B0B4
:103A100002AFF8607A601A460B467B8113463B8101
:103A2000FFF718F87861FB6893F83D30DBB2202B84
:103A300040F0E0807B690093192301227049F86807
:103A400000F064FC0346002B01D00223D3E0FB68A6
:103A500093F83C30012B01D10223CCE0FB6801221A
:103A600083F83C20FB681B681B6803F00103012BF3
:103A700007D0FB681B681A68FB681B6842F00102EC
:103A80001A60FB681B681A68FB681B6822F40062F6
:103A90001A60FB68212283F83D20FB68102283F81E
:103AA0003E20FB6800221A64FB687A685A62FB6851
:103AB0003A895A85FB685B8D9AB2FB681A85FB6868
:103AC000504ADA6279897B693A6AF86800F0CEFA7E
:103AD0000346002B01D001238DE000233B61FB68EE
:103AE0001B685B693B61FB681B689B693B613B69C9
:103AF00066E07A69396AF86800F022FD0346002B17
:103B00000DD0FB681B6C042B07D1FB681B681A687F
:103B1000FB681B6842F400721A6001236BE0FB68CB
:103B20005B6A1A78FB681B681A61FB685B6A5A1C3F
:103B3000FB685A62FB685B8D9BB2013B9AB2FB68E3
:103B40005A85FB681B8D013B9AB2FB681A85FB689E
:103B50001B685B6903F00403042B1BD1FB681B8DFE
:103B6000002B17D0FB685B6A1A78FB681B681A6128
:103B7000FB685B6A5A1CFB685A62FB685B8D9BB2F0
:103B8000013B9AB2FB685A85FB681B8D013B9AB2D8
:103B9000FB681A857A69396AF86800F019FD0346EE
:103BA000002B0DD0FB681B6C042B07D1FB681B6836
:103BB0001A68FB681B6842F400721A6001231AE05D
:103BC000FB681B8D002B94D1FB681B681A68FB688F
:103BD0001B6842F400721A60FB68202283F83D20C3
:103BE000FB68002283F83E20FB68002283F83C201B
:103BF000002300E0022318461837BD4680BD00BFF1
:103C0000020010000000FFFF80B58CB002AFF8602A
:103C10007A601A460B467B8113463B81FEF71AFFFA
:103C20007862FB6893F83D30DBB2202B40F01782BE
:103C30007B6A0093192301227C49F86800F066FB37
:103C40000346002B01D002230AE2FB6893F83C30C4
:103C5000012B01D1022303E2FB68012283F83C20FF
:103C6000FB681B681B6803F00103012B07D0FB688E
:103C70001B681A68FB681B6842F001021A60FB6847
:103C80001B681A68FB681B6822F400621A60FB68F4
:103C9000222283F83D20FB68102283F83E20FB6837
:103CA00000221A64FB687A685A62FB683A895A856E
:103CB000FB685B8D9AB2FB681A85FB685C4ADA6226
:103CC00079897B6A3A6BF86800F052FA0346002B58
:103CD00001D00123C4E1FB681B8D002B13D100230D
:103CE0003B62FB681B685B693B62FB681B689B6906
:103CF0003B623B6AFB681B681A68FB681B6842F4FE
:103D000000721A6098E1FB681B8D012B1BD1FB68C8
:103D10001B681A68FB681B6822F480621A60002323
:103D2000FB61FB681B685B69FB61FB681B689B6947
:103D3000FB61FB69FB681B681A68FB681B6842F43F
:103D400000721A6078E1FB681B8D022B1BD1FB68A7
:103D50001B681A68FB681B6822F480621A60FB68A3
:103D60001B681A68FB681B6842F400621A60002333
:103D7000BB61FB681B685B69BB61FB681B689B6977
:103D8000BB61BB6958E1FB681B681A68FB681B686C
:103D900042F480621A6000237B61FB681B685B69E8
:103DA0007B61FB681B689B697B617B6944E1FB6805
:103DB0001B8D032B00F2F180FB681B8D012B23D19F
:103DC0007A6A396BF86800F04BFC0346002B01D08F
:103DD000012345E1FB681B681A69FB685B6AD2B284
:103DE0001A70FB685B6A5A1CFB685A62FB681B8D81
:103DF000013B9AB2FB681A85FB685B8D9BB2013B65
:103E00009AB2FB685A8517E1FB681B8D022B4ED1D5
:103E10007B6A00933B6B00220649F86800F076FA53
:103E20000346002B08D001231AE100BF0200100056
:103E30000000FFFF04000100FB681B681A68FB68B4
:103E40001B6842F400721A60FB681B681A69FB6801
:103E50005B6AD2B21A70FB685B6A5A1CFB685A62D2
:103E6000FB681B8D013B9AB2FB681A85FB685B8D72
:103E70009BB2013B9AB2FB685A85FB681B681A69C2
:103E8000FB685B6AD2B21A70FB685B6A5A1CFB68FB
:103E90005A62FB681B8D013B9AB2FB681A85FB686E
:103EA0005B8D9BB2013B9AB2FB685A85C4E07B6A8A
:103EB00000933B6B00226C49F86800F027FA034638
:103EC000002B01D00123CBE0FB681B681A68FB685C
:103ED0001B6822F480621A60FB681B681A69FB6821
:103EE0005B6AD2B21A70FB685B6A5A1CFB685A6242
:103EF000FB681B8D013B9AB2FB681A85FB685B8DE2
:103F00009BB2013B9AB2FB685A857B6A00933B6B7C
:103F100000225549F86800F0F9F90346002B01D05A
:103F200001239DE0FB681B681A68FB681B6842F46C
:103F300000721A60FB681B681A69FB685B6AD2B280
:103F40001A70FB685B6A5A1CFB685A62FB681B8D1F
:103F5000013B9AB2FB681A85FB685B8D9BB2013B03
:103F60009AB2FB685A85FB681B681A69FB685B6A32
:103F7000D2B21A70FB685B6A5A1CFB685A62FB6813
:103F80001B8D013B9AB2FB681A85FB685B8D9BB267
:103F9000013B9AB2FB685A854EE07A6A396BF86841
:103FA00000F05EFB0346002B01D0012358E0FB68C4
:103FB0001B681A69FB685B6AD2B21A70FB685B6A9D
:103FC0005A1CFB685A62FB681B8D013B9AB2FB6866
:103FD0001A85FB685B8D9BB2013B9AB2FB685A85E0
:103FE000FB681B685B6903F00403042B24D1FB68A6
:103FF0001B8D032B07D1FB681B681A68FB681B68C5
:1040000022F480621A60FB681B681A69FB685B6AAD
:10401000D2B21A70FB685B6A5A1CFB685A62FB6872
:104020001B8D013B9AB2FB681A85FB685B8D9BB2C6
:10403000013B9AB2FB685A85FB681B8D002B7FF40D
:10404000B6AEFB68202283F83D20FB68002283F88F
:104050003E20FB68002283F83C20002300E002237E
:1040600018462837BD4680BD0400010080B588B0E1
:1040700002AFF8607A603B600B467B81FB68DB6ACD
:104080007B617B69082B06D07B69012B03D07B69A0
:1040900013F5803F08D1FB681B681A68FB681B6832
:1040A00042F480721A600BE0FB681B6B122B07D185
:1040B000FB681B681A68FB681B6842F480721A6010
:1040C0003B6800937B6800224FF00111F86800F014
:1040D0001DF90346002B0DD0FB681B681B6803F419
:1040E0008073B3F5807F03D1FB684FF400721A64CC
:1040F000032335E0FB681B69B3F5804F08D17B894A
:10410000DBB21A46FB681B6802F0FE021A611BE074
:104110007B89DB11DBB203F00603DBB263F00F0334
:10412000DAB2FB681B681A613B687A680E49F86866
:1041300000F066F90346002B01D0012310E07B89D3
:10414000DAB2FB681B681A613B687A680749F8684D
:1041500000F056F90346002B01D0012300E00023B4
:1041600018461837BD4680BD080001000200010056
:1041700080B588B002AFF8607A603B600B467B8107
:10418000FB68DB6A7B61FB681B681A68FB681B685D
:1041900042F480621A607B69082B06D07B69012B90
:1041A00003D07B6913F5803F08D1FB681B681A6850
:1041B000FB681B6842F480721A600BE0FB681B6BA3
:1041C000112B07D1FB681B681A68FB681B6842F457
:1041D00080721A603B6800937B6800224FF00111E7
:1041E000F86800F093F80346002B0DD0FB681B68BD
:1041F0001B6803F48073B3F5807F03D1FB684FF431
:1042000000721A64032379E0FB681B69B3F5804FE1
:1042100008D17B89DBB243F00103DAB2FB681B688B
:104220001A615FE07B89DB11DBB203F00603DBB2CE
:1042300063F00F03DAB2FB681B681A613B687A68A7
:104240003049F86800F0DCF80346002B01D0012368
:1042500054E07B89DAB2FB681B681A613B687A68B4
:104260002949F86800F0CCF80346002B01D001235F
:1042700044E000233B61FB681B685B693B61FB68B2
:104280001B689B693B613B69FB681B681A68FB689C
:104290001B6842F480721A603B6800937B680022BE
:1042A0004FF00111F86800F031F80346002B0DD0F3
:1042B000FB681B681B6803F48073B3F5807F03D130
:1042C000FB684FF400721A64032317E07B89DB114B
:1042D000DBB203F00603DBB263F00E03DAB2FB6875
:1042E0001B681A613B687A680749F86800F088F82B
:1042F0000346002B01D0012300E0002318461837A5
:10430000BD4680BD080001000200010080B584B0F8
:1043100000AFF860B9603B601346FB7148E03B6852
:10432000B3F1FF3F44D0FEF795FB0246BB69D31AB9
:104330003A689A4202D33B68002B39D1BB681B0C08
:10434000DBB2012B0DD1FB681B685B69DA43BB68EC
:1043500013409BB2002B0CBF01230023DBB21A4693
:104360000CE0FB681B689B69DA43BB6813409BB297
:10437000002B0CBF01230023DBB21A46FB799A42C3
:1043800016D1FB6800221A63FB68202283F83D20C7
:10439000FB68002283F83E20FB681B6C43F0200280
:1043A000FB681A64FB68002283F83C20012323E0A9
:1043B000BB681B0CDBB2012B0DD1FB681B685B6972
:1043C000DA43BB6813409BB2002B0CBF01230023D0
:1043D000DBB21A460CE0FB681B689B69DA43BB68DA
:1043E00013409BB2002B0CBF01230023DBB21A4603
:1043F000FB799A4293D0002318461037BD4680BD02
:1044000080B584B000AFF860B9607A603B6071E05D
:10441000FB681B685B6903F48063B3F5806F23D18D
:10442000FB681B681A68FB681B6842F400721A601C
:10443000FB681B686FF480625A61FB6800221A6394
:10444000FB68202283F83D20FB68002283F83E2091
:10445000FB681B6C43F00402FB681A64FB680022D3
:1044600083F83C20012367E07B68B3F1FF3F41D034
:10447000FEF7F0FA02463B68D31A7A689A4202D3F2
:104480007B68002B36D1BB681B0CDBB2012B0CD137
:10449000FB681B685B69DA43BB6813409BB2002B67
:1044A00014BF01230023DBB20BE0FB681B689B6990
:1044B000DA43BB6813409BB2002B14BF01230023D7
:1044C000DBB2002B16D0FB6800221A63FB682022A7
:1044D00083F83D20FB68002283F83E20FB681B6CBC
:1044E00043F02002FB681A64FB68002283F83C203A
:1044F000012321E0BB681B0CDBB2012B0CD1FB6854
:104500001B685B69DA43BB6813409BB2002B14BF86
:1045100001230023DBB20BE0FB681B689B69DA43D5
:10452000BB6813409BB2002B14BF01230023DBB2F6
:10453000002B7FF46DAF002318461037BD4680BDB9
:1045400080B584B000AFF860B9607A6034E0F86894
:1045500000F0E3F80346002B01D0012334E0BB68F0
:10456000B3F1FF3F28D0FEF775FA02467B68D31AF5
:10457000BA689A4202D3BB68002B1DD1FB681B6846
:104580005B6903F08003802B16D0FB6800221A635E
:10459000FB68202283F83D20FB68002283F83E2040
:1045A000FB681B6C43F02002FB681A64FB68002266
:1045B00083F83C20012307E0FB681B685B6903F07C
:1045C0008003802BC3D1002318461037BD4680BD21
:1045D00080B584B000AFF860B9607A6034E0F86804
:1045E00000F09BF80346002B01D0012334E0BB68A8
:1045F000B3F1FF3F28D0FEF72DFA02467B68D31AAD
:10460000BA689A4202D3BB68002B1DD1FB681B68B5
:104610005B6903F00403042B16D0FB6800221A63C5
:10462000FB68202283F83D20FB68002283F83E20AF
:10463000FB681B6C43F02002FB681A64FB680022D5
:1046400083F83C20012307E0FB681B685B6903F0EB
:104650000403042BC3D1002318461037BD4680BD88
:1046600080B584B000AFF860B9607A6049E0FB685B
:104670001B685B6903F01003102B19D1FB681B68E2
:104680006FF010025A61FB6800221A63FB68202257
:1046900083F83D20FB68002283F83E20FB681A6CFB
:1046A000FB681A64FB68002283F83C20012330E099
:1046B000FEF7D0F902467B68D31ABA689A4202D351
:1046C000BB68002B1DD1FB681B685B6903F04003CE
:1046D000402B16D0FB6800221A63FB68202283F867
:1046E0003D20FB68002283F83E20FB681B6C43F0F2
:1046F0002002FB681A64FB68002283F83C20012337
:1047000007E0FB681B685B6903F04003402BAED1F8
:10471000002318461037BD4680BD80B483B000AF7B
:1047200078607B681B685B6903F48063B3F5806F16
:104730001BD17B681B686FF480625A617B68002222
:104740001A637B68202283F83D207B68002283F86F
:104750003E207B681B6C43F004027B681A647B6814
:10476000002283F83C20012300E0002318460C3788
:10477000BD465DF8047B704780B586B002AF7860B7
:104780007B68002B01D1012301E17B681B68BB60C2
:104790007B6893F89534DBB2002B06D17B6800224E
:1047A00083F894247868FEF779F87B68032283F80D
:1047B0009524BB68B3F1A04F02D17B6800229A71A7
:1047C0007B681B68184601F0C7FE7B6818687B6829
:1047D0001A7C8DF8002004330ECB01F059FE0346FD
:1047E000002B05D07B68022283F895240123CEE0BC
:1047F0007B681B680021184601F0BFFE0346002BB2
:1048000005D07B68022283F895240123BFE00023B2
:10481000FB734AE0FA7B79681346DB0013449B0084
:104820000B44153301221A70FA7B79681346DB00BA
:1048300013449B000B441433FA7B1A70FA7BFB7B06
:1048400098B279681346DB0013449B000B442E3367
:1048500002461A80FA7B79681346DB0013449B00FA
:104860000B44183300221A70FA7B79681346DB0078
:1048700013449B000B441C3300221A60FA7B7968B6
:104880001346DB0013449B000B44203300221A60C4
:10489000FA7B79681346DB0013449B000B442433F6
:1048A00000221A60FB7B0133FB737B681B79FA7B68
:1048B0009A42AFD30023FB7344E0FA7B7968134636
:1048C000DB0013449B000B4403F2552300221A70B3
:1048D000FA7B79681346DB0013449B000B4403F515
:1048E0001573FA7B1A70FA7B79681346DB00134460
:1048F0009B000B4403F5167300221A70FA7B79684B
:104900001346DB0013449B000B4403F5177300228E
:104910001A60FA7B79681346DB0013449B000B4452
:1049200003F5187300221A60FA7B79681346DB00DE
:1049300013449B000B4403F5197300221A60FB7BA0
:104940000133FB737B681B79FA7B9A42B5D37B6892
:1049500018687B681A7C8DF8002004330ECB01F0B8
:1049600059FE0346002B05D07B68022283F895246C
:1049700001230CE07B6800225A747B68012283F8D3
:1049800095247B681B68184602F021F8002318461E
:104990001037BD4680BD000080B586B000AF78609E
:1049A0007B68002B01D1012367E27B681B6803F061
:1049B0000103002B75D0884B9B6803F00C03042B7C
:1049C0000CD0854B9B6803F00C03082B12D1824B53
:1049D0005B6803F48003B3F5800F0BD17E4B1B683B
:1049E00003F40033002B5BD07B685B68002B57D14E
:1049F000012342E27B685B68B3F5803F06D1764BCA
:104A00001B68754A43F4803313601DE07B685B6864
:104A1000B3F5A02F0CD1704B1B686F4A43F4802371
:104A200013606D4B1B686C4A43F4803313600BE0DA
:104A3000694B1B68684A23F480331360664B1B681C
:104A4000654A23F4802313607B685B68002B13D0D6
:104A5000FEF700F8386108E0FDF7FCFF02463B690D
:104A6000D31A642B01D9032307E25B4B1B6803F4C1
:104A70000033002BF0D014E0FDF7ECFF386108E0C4
:104A8000FDF7E8FF02463B69D31A642B01D90323E3
:104A9000F3E1514B1B6803F40033002BF0D100E02D
:104AA00000BF7B681B6803F00203002B63D04A4BF6
:104AB0009B6803F00C03002B0BD0474B9B6803F063
:104AC0000C03082B1CD1444B5B6803F48003002BC0
:104AD00016D1414B1B6803F00203002B05D07B6805
:104AE000DB68012B01D00123C7E13B4B1B6823F09E
:104AF000F8027B681B69DB00374913430B603AE01F
:104B00007B68DB68002B20D0344B01221A60FDF754
:104B1000A1FF386108E0FDF79DFF02463B69D31A0B
:104B2000022B01D90323A8E12B4B1B6803F00203DE
:104B3000002BF0D0284B1B6823F0F8027B681B6920
:104B4000DB00254913430B6015E0244B00221A605B
:104B5000FDF780FF386108E0FDF77CFF02463B6906
:104B6000D31A022B01D9032387E11B4B1B6803F0E7
:104B70000203002BF0D17B681B6803F00803002BB5
:104B800036D07B685B69002B16D0154B01221A606A
:104B9000FDF760FF386108E0FDF75CFF02463B6906
:104BA000D31A022B01D9032367E10B4B5B6F03F090
:104BB0000203002BF0D01BE0094B00221A60FDF726
:104BC00049FF38610EE0FDF745FF02463B69D31A05
:104BD000022B07D9032350E100380240000047426E
:104BE000800E4742884B5B6F03F00203002BEAD133
:104BF0007B681B6803F00403002B00F09780002300
:104C0000FB75814B1B6C03F08053002B0FD10023ED
:104C1000BB607D4B1B6C7C4A43F0805313647A4B22
:104C20001B6C03F08053BB60BB680123FB75774BA3
:104C30001B6803F48073002B18D1744B1B68734AF4
:104C400043F480731360FDF705FF386108E0FDF75A
:104C500001FF02463B69D31A022B01D903230CE161
:104C60006A4B1B6803F48073002BF0D07B689B6851
:104C7000012B06D1644B1B6F634A43F0010313679A
:104C80001CE07B689B68052B0CD15F4B1B6F5E4A59
:104C900043F0040313675C4B1B6F5B4A43F0010353
:104CA00013670BE0584B1B6F574A23F00103136740
:104CB000554B1B6F544A23F0040313677B689B68B2
:104CC000002B15D0FDF7C6FE38610AE0FDF7C2FEE5
:104CD00002463B69D31A41F28832934201D9032339
:104CE000CBE0494B1B6F03F00203002BEED014E026
:104CF000FDF7B0FE38610AE0FDF7ACFE02463B6905
:104D0000D31A41F28832934201D90323B5E03E4BD6
:104D10001B6F03F00203002BEED1FB7D012B05D1AD
:104D2000394B1B6C384A23F0805313647B689B69B2
:104D3000002B00F0A180344B9B6803F00C03082B80
:104D40005CD07B689B69022B41D1314B00221A60F9
:104D5000FDF780FE386108E0FDF77CFE02463B6906
:104D6000D31A022B01D9032387E0274B1B6803F0DA
:104D70000073002BF0D17B68DA697B681B6A1A43E9
:104D80007B685B6A9B011A437B689B6A5B08013BFB
:104D90001B041A437B68DB6A1B061B4913434B60E9
:104DA0001B4B01221A60FDF755FE386108E0FDF744
:104DB00051FE02463B69D31A022B01D903235CE062
:104DC000114B1B6803F00073002BF0D054E0104B24
:104DD00000221A60FDF73EFE386108E0FDF73AFE5A
:104DE00002463B69D31A022B01D9032345E0064B47
:104DF0001B6803F00073002BF0D13DE07B689B69DA
:104E0000012B07D1012338E0003802400070004038
:104E1000600047421B4B5B68FB607B689B69012B12
:104E200028D0FB6803F480027B68DB699A4221D1B9
:104E3000FB6803F03F027B681B6A9A421AD1FA684A
:104E400047F6C07313407A68526A9201934211D1B7
:104E5000FB6803F440327B689B6A5B08013B1B04E0
:104E60009A4207D1FB6803F070627B68DB6A1B061D
:104E70009A4201D0012300E0002318461837BD46AE
:104E800080BD00BF0038024080B584B000AF7860BC
:104E900039607B68002B01D10123CCE0684B1B6893
:104EA00003F007033A689A420CD9654B3A68D2B2CC
:104EB0001A70634B1B6803F007033A689A4201D0EB
:104EC0000123B8E07B681B6803F00203002B20D0AD
:104ED0007B681B6803F00403002B05D0594B9B68CB
:104EE000584A43F4E05393607B681B6803F008035F
:104EF000002B05D0534B9B68524A43F460439360A8
:104F0000504B9B6823F0F0027B689B684D4913432C
:104F10008B607B681B6803F00103002B44D07B6827
:104F20005B68012B07D1474B1B6803F40033002B50
:104F300019D101237FE07B685B68022B03D07B687B
:104F40005B68032B07D13F4B1B6803F00073002BFA
:104F500009D101236FE03B4B1B6803F00203002BD8
:104F600001D1012367E0374B9B6823F003027B6884
:104F70005B68344913438B60FDF76CFDF8600AE011
:104F8000FDF768FD0246FB68D31A41F2883293426E
:104F900001D903234FE02B4B9B6803F00C027B6885
:104FA0005B689B009A42EBD1254B1B6803F007031B
:104FB0003A689A420CD2224B3A68D2B21A70204B0D
:104FC0001B6803F007033A689A4201D0012332E0DC
:104FD0007B681B6803F00403002B08D0194B9B6807
:104FE00023F4E0527B68DB68164913438B607B68CF
:104FF0001B6803F00803002B09D0124B9B6823F4B5
:1050000060427B681B69DB000E4913438B6000F034
:1050100021F802460B4B9B681B0903F00F030A495A
:10502000CB5C22FA03F3094A1360094B1B6818464C
:10503000FDF7CCFC002318461037BD4680BD00BFED
:10504000003C024000380240B898000800000020F0
:10505000040000202DE9B04F94B000AF00237B6422
:105060000023FB6400233B640023BB64794B9B68F3
:1050700003F00C03082B0DD0082B00F2E180002B6D
:1050800002D0042B03D0DBE0734BBB64DBE0734B3B
:10509000BB64D8E06F4B5B6803F03F037B646D4BF0
:1050A0005B6803F48003002B63D06A4B5B689B0949
:1050B0000022BB63FA63BB6BC3F308033B630023AB
:1050C0007B63D7E90C4522462B464FF000004FF09A
:1050D0000001590141EAD261500102460B462146C6
:1050E000511A3961294663EB01037B614FF00002DD
:1050F0004FF00003D7E904AB59468B01514643EA10
:10510000916351468A015146B2EB0108594663EB5F
:1051100001094FF000024FF000034FEAC90343EAD0
:1051200058734FEAC80290469946234618EB03038A
:10513000BB602B4649EB0303FB604FF000024FF0CE
:105140000003D7E9024529464B02214643EAD153E1
:1051500021464A02104619467B6C0022BB62FA6265
:10516000D7E90A23FBF740FD02460B461346FB64D2
:1051700058E0384B5B689B09002218461146C0F383
:1051800008033B6200237B62D7E9088942464B460D
:105190004FF000004FF00001590141EAD261500187
:1051A00002460B464146B2EB010A494663EB010B4E
:1051B0004FF000024FF000034FEA8B1343EA9A636B
:1051C0004FEA8A12B2EB0A0463EB0B054FF00002C0
:1051D0004FF00003EB0043EA5473E20014461D460F
:1051E0004346E3183B604B4645EB03037B604FF0BF
:1051F00000024FF00003D7E9004529468B02214603
:1052000043EA915321468A02104619467B6C0022DC
:10521000BB61FA61D7E90623FBF7E6FC02460B46C1
:105220001346FB640B4B5B681B0C03F00303013359
:105230005B003B64FA6C3B6CB2FBF3F3BB6402E0D3
:10524000054BBB6400BFBB6C18465037BD46BDE87C
:10525000B08F00BF003802400024F40000127A0032
:1052600080B400AF034B1B681846BD465DF8047B55
:10527000704700BF0000002080B500AFFFF7F0FFCF
:105280000246054B9B689B0A03F007030349CB5C6E
:1052900022FA03F3184680BD00380240C89800087F
:1052A00080B500AFFFF7DCFF0246054B9B685B0B48
:1052B00003F007030349CB5C22FA03F3184680BDD1
:1052C00000380240C898000880B582B000AF78600E
:1052D0007B68002B01D1012341E07B6893F83D30CE
:1052E000DBB2002B06D17B68002283F83C20786873
:1052F000FDF762F97B68022283F83D207B681A681B
:105300007B6804331946104600F0B8F97B68012227
:1053100083F846207B68012283F83E207B680122C7
:1053200083F83F207B68012283F840207B680122BC
:1053300083F841207B68012283F842207B680122A8
:1053400083F843207B68012283F844207B68012294
:1053500083F845207B68012283F83D20002318460E
:105360000837BD4680BD000080B584B000AF7860CE
:1053700039603B68002B09D17B6893F83E30DBB283
:10538000012B14BF01230023DBB222E03B68042B76
:1053900009D17B6893F83F30DBB2012B14BF0123A6
:1053A0000023DBB215E03B68082B09D17B6893F83A
:1053B0004030DBB2012B14BF01230023DBB208E035
:1053C0007B6893F84130DBB2012B14BF012300232B
:1053D000DBB2002B01D001237CE03B68002B04D121
:1053E0007B68022283F83E2013E03B68042B04D143
:1053F0007B68022283F83F200BE03B68082B04D136
:105400007B68022283F8402003E07B68022283F855
:1054100041207B681B6801223968184600F08AFB2E
:105420007B681B682D4A934204D07B681B682C4A1A
:10543000934201D1012300E00023002B07D07B68B9
:105440001B685A6C7B681B6842F400425A647B6894
:105450001B68224A934222D07B681B68B3F1804FBD
:105460001DD07B681B681F4A934218D07B681B685D
:105470001D4A934213D07B681B681C4A93420ED08E
:105480007B681B68164A934209D07B681B68184AE0
:10549000934204D07B681B68164A934211D17B6803
:1054A0001B689B6803F00703FB60FB68062B10D0AA
:1054B0007B681B681A687B681B6842F001021A60EF
:1054C00007E07B681B681A687B681B6842F0010272
:1054D0001A60002318461037BD4680BD0000014009
:1054E000000401400004004000080040000C00409F
:1054F000004001400018004080B586B000AFF86061
:10550000B9607A600023FB75FB6893F83C30012B8F
:1055100001D10223AEE0FB68012283F83C207B68C6
:105520000C2B00F29F8001A252F823F06155000875
:10553000655600086556000865560008A155000824
:10554000655600086556000865560008E3550008D2
:105550006556000865560008655600082356000881
:10556000FB681B68B968184600F034F9FB681B68D3
:105570009A69FB681B6842F008029A61FB681B6825
:105580009A69FB681B6822F004029A61FB681B6839
:105590009969BB681A69FB681B680A439A6164E0F1
:1055A000FB681B68B968184600F084F9FB681B6843
:1055B0009A69FB681B6842F400629A61FB681B6889
:1055C0009A69FB681B6822F480629A61FB681B6819
:1055D0009969BB681B691A02FB681B680A439A61D8
:1055E00043E0FB681B68B968184600F0D9F9FB680E
:1055F0001B68DA69FB681B6842F00802DA61FB6825
:105600001B68DA69FB681B6822F00402DA61FB6838
:105610001B68D969BB681A69FB681B680A43DA61B1
:1056200023E0FB681B68B968184600F02DFAFB6898
:105630001B68DA69FB681B6842F40062DA61FB6888
:105640001B68DA69FB681B6822F48062DA61FB6818
:105650001B68D969BB681B691A02FB681B680A438F
:10566000DA6102E00123FB7500BFFB68002283F8CA
:105670003C20FB7D18461837BD4680BD80B485B000
:1056800000AF786039607B681B68FB607B68464AC6
:10569000934213D07B68B3F1804F0FD07B68434AAD
:1056A00093420BD07B68424A934207D07B68414AC1
:1056B000934203D07B68404A934208D1FB6823F0B1
:1056C0007003FB603B685B68FA681343FB607B68B0
:1056D000354A93422BD07B68B3F1804F27D07B684B
:1056E000324A934223D07B68314A93421FD07B6871
:1056F000304A93421BD07B682F4A934217D07B6875
:105700002E4A934213D07B682D4A93420FD07B6878
:105710002C4A93420BD07B682B4A934207D07B687C
:105720002A4A934203D07B68294A934208D1FB68F6
:1057300023F44073FB603B68DB68FA681343FB604B
:10574000FB6823F080023B685B691343FB607B6866
:10575000FA681A603B689A687B68DA623B681A6884
:105760007B689A627B68104A934203D07B68124A36
:10577000934203D13B681A697B681A637B680122F4
:105780005A617B681B6903F00103012B05D17B681B
:105790001B6923F001027B681A6100BF1437BD4604
:1057A0005DF8047B704700BF00000140000400402A
:1057B00000080040000C004000040140004001408F
:1057C000004401400048014000180040001C004017
:1057D0000020004080B487B000AF786039607B68FB
:1057E0001B6A7B617B681B6A23F001027B681A627B
:1057F0007B685B683B617B689B69FB60FB6823F0AF
:105800007003FB60FB6823F00303FB603B681B68CD
:10581000FA681343FB607B6923F002037B613B68FA
:105820009B687A6913437B617B68204A934203D06B
:105830007B681F4A93420CD17B6923F008037B618C
:105840003B68DB687A6913437B617B6923F004035F
:105850007B617B68154A934203D07B68144A93426C
:1058600011D13B6923F480733B613B6923F40073DE
:105870003B613B685B693A6913433B613B689B69E9
:105880003A6913433B617B683A695A607B68FA68FE
:105890009A613B685A687B685A637B687A691A62C6
:1058A00000BF1C37BD465DF8047B70470000014017
:1058B0000004014080B487B000AF786039607B6835
:1058C0001B6A7B617B681B6A23F010027B681A628B
:1058D0007B685B683B617B689B69FB60FB6823F4CA
:1058E000E043FB60FB6823F44073FB603B681B688C
:1058F0001B02FA681343FB607B6923F020037B6182
:105900003B689B681B017A6913437B617B68224A71
:10591000934203D07B68214A93420DD17B6923F0E7
:1059200080037B613B68DB681B017A6913437B6101
:105930007B6923F040037B617B68174A934203D065
:105940007B68164A934213D13B6923F480633B6121
:105950003B6923F400633B613B685B699B003A69E8
:1059600013433B613B689B699B003A6913433B616E
:105970007B683A695A607B68FA689A613B685A6842
:105980007B689A637B687A691A6200BF1C37BD46E0
:105990005DF8047B704700BF000001400004014037
:1059A00080B487B000AF786039607B681B6A7B6128
:1059B0007B681B6A23F480727B681A627B685B6871
:1059C0003B617B68DB69FB60FB6823F07003FB6075
:1059D000FB6823F00303FB603B681B68FA68134312
:1059E000FB607B6923F400737B613B689B681B024F
:1059F0007A6913437B617B68214A934203D07B68B9
:105A0000204A93420DD17B6923F400637B613B689C
:105A1000DB681B027A6913437B617B6923F4806333
:105A20007B617B68164A934203D07B68154A934298
:105A300013D13B6923F480533B613B6923F400534A
:105A40003B613B685B691B013A6913433B613B68FF
:105A50009B691B013A6913433B617B683A695A6051
:105A60007B68FA68DA613B685A687B68DA637B684E
:105A70007A691A6200BF1C37BD465DF8047B704727
:105A8000000001400004014080B487B000AF78609E
:105A900039607B681B6A3B617B681B6A23F4805218
:105AA0007B681A627B685B687B617B68DB69FB6093
:105AB000FB6823F4E043FB60FB6823F44073FB6066
:105AC0003B681B681B02FA681343FB603B6923F4C5
:105AD00000533B613B689B681B033A6913433B617E
