:020000040800F2
:1000000000000220452D00088125000889250008F0
:100010009125000899250008A1250008000000008E
:10002000000000000000000000000000A9250008FA
:10003000B725000800000000C5250008D3250008EA
:10004000952D0008952D0008952D0008952D000888
:10005000952D0008952D0008952D0008952D000878
:10006000952D0008952D0008952D0008952D000868
:10007000952D0008952D0008952D0008952D000858
:10008000952D0008952D0008E1250008952D000804
:10009000952D0008952D0008952D0008952D000838
:1000A000952D0008952D0008952D0008952D000828
:1000B000952D0008952D0008952D0008952D000818
:1000C000952D0008952D0008952D0008952D000808
:1000D000952D0008952D0008952D0008952D0008F8
:1000E000952D0008952D0008952D0008952D0008E8
:1000F000952D0008952D0008952D0008952D0008D8
:10010000952D0008952D0008952D0008952D0008C7
:10011000952D0008952D0008952D0008952D0008B7
:10012000F5250008952D0008952D0008952D00084F
:10013000952D00080000000000000000952D00082B
:10014000952D0008952D0008952D0008952D000887
:10015000952D0008952D0008952D0008952D000877
:10016000952D0008952D0008952D0008952D000867
:10017000952D0008952D00080000000000000000EB
:08018000952D0008952D0008E3
:1001900010B5054C237833B9044B13B10448AFF3C1
:1001A00000800123237010BD140200200000000015
:1001B000B8A2000808B5034B1BB103490348AFF3CD
:1001C000008008BD0000000018020020B8A200084E
:1001D00001F0FF01102A2BDB10F0070F08D010F8F8
:1001E000013B013A8B422DD010F0070F42B3F6D1FC
:1001F000F0B441EA012141EA014122F007047FF015
:1002000000070023F0E80256083C85EA010586EA6B
:10021000010685FA47F5A3FA87F586FA47F6A5FAA7
:1002200087F68EB9EED1F0BC01F0FF0102F00702B3
:1002300032B110F8013B013A83EA010313B1F8D15E
:100240000020704701387047002D06BF354603383F
:10025000073815F0010F07D1013015F4807F02BF78
:10026000013015F4C03F0130F0BC0138704700BFC9
:10027000034613F8012B002AFBD1181A01387047E6
:1002800081F0004102E000BF83F0004330B54FEA47
:1002900041044FEA430594EA050F08BF90EA020FB4
:1002A0001FBF54EA000C55EA020C7FEA645C7FEA47
:1002B000655C00F0E2804FEA5454D4EB5555B8BF6A
:1002C0006D420CDD2C4480EA020281EA030382EADB
:1002D000000083EA010180EA020281EA0303362D6D
:1002E00088BF30BD11F0004F4FEA01314FF4801C40
:1002F0004CEA113102D0404261EB410113F0004F52
:100300004FEA03334CEA133302D0524263EB430308
:1003100094EA050F00F0A780A4F10104D5F1200EA6
:100320000DDB02FA0EFC22FA05F2801841F1000101
:1003300003FA0EF2801843FA05F359410EE0A5F1D5
:1003400020050EF1200E012A03FA0EFC28BF4CF006
:10035000020C43FA05F3C01851EBE37101F00045BC
:1003600007D54FF0000EDCF1000C7EEB00006EEBC9
:100370000101B1F5801F1BD3B1F5001F0CD3490853
:100380005FEA30004FEA3C0C04F101044FEA4452AA
:1003900012F5800F80F09A80BCF1004F08BF5FEA31
:1003A000500C50F1000041EB045141EA050130BD11
:1003B0005FEA4C0C404141EB0101013C28BFB1F523
:1003C000801FE9D291F0000F04BF01460020B1FA6E
:1003D00081F308BF2033A3F10B03B3F120020CDA41
:1003E0000C3208DD02F1140CC2F10C0201FA0CF01F
:1003F00021FA02F10CE002F11402D8BFC2F1200C84
:1004000001FA02F120FA0CFCDCBF41EA0C01904039
:10041000E41AA2BF01EB0451294330BD6FEA040482
:100420001F3C1CDA0C340EDC04F11404C4F120026D
:1004300020FA04F001FA02F340EA030021FA04F37F
:1004400045EA030130BDC4F10C04C4F1200220FAD6
:1004500002F001FA04F340EA0300294630BD21FA14
:1004600004F0294630BD94F0000F83F4801306BFDA
:1004700081F480110134013D4EE77FEA645C18BFCE
:100480007FEA655C29D094EA050F08BF90EA020F65
:1004900005D054EA000C04BF1946104630BD91EA5D
:1004A000030F1EBF0021002030BD5FEA545C05D160
:1004B0004000494128BF41F0004130BD14F580049F
:1004C0003CBF01F5801130BD01F0004545F0FE4113
:1004D00041F470014FF0000030BD7FEA645C1ABF48
:1004E000194610467FEA655C1CBF0B46024650EA7F
:1004F000013406BF52EA033591EA030F41F40021AB
:1005000030BD00BF90F0000F04BF0021704730B530
:100510004FF4806404F132044FF000054FF0000105
:1005200050E700BF90F0000F04BF0021704730B5C6
:100530004FF4806404F1320410F0004548BF40429B
:100540004FF000013EE700BF42004FEAE2014FEAF0
:1005500031014FEA02701FBF12F07F4393F07F4FCB
:1005600081F06051704732F07F4208BF704793F0CE
:100570007F4F04BF41F40021704730B54FF46074E1
:1005800001F0004521F000411CE700BF50EA0102E4
:1005900008BF704730B54FF000050AE050EA01028D
:1005A00008BF704730B511F0004502D5404261EBFD
:1005B00041014FF4806404F132045FEA915C3FF43E
:1005C000D8AE4FF003025FEADC0C18BF03325FEADB
:1005D000DC0C18BF033202EBDC02C2F1200300FA8C
:1005E00003FC20FA02F001FA03FE40EA0E0021FAB1
:1005F00002F11444BDE600BF70B54FF0FF0C4CF49F
:10060000E06C1CEA11541DBF1CEA135594EA0C0F50
:1006100095EA0C0F00F0DEF82C4481EA030621EA8B
:100620004C5123EA4C5350EA013518BF52EA0335C6
:1006300041F4801143F4801338D0A0FB02CE4FF078
:100640000005E1FB02E506F00042E0FB03E54FF0A8
:100650000006E1FB03569CF0000F18BF4EF0010EA0
:10066000A4F1FF04B6F5007F64F5407404D25FEA9C
:100670004E0E6D4146EB060642EAC62141EA55514F
:100680004FEAC52040EA5E504FEACE2EB4F1FD0C91
:1006900088BFBCF5E06F1ED8BEF1004F08BF5FEA0F
:1006A000500E50F1000041EB045170BD06F00046C1
:1006B00046EA010140EA020081EA0301B4EB5C046E
:1006C000C2BFD4EB0C0541EA045170BD41F4801166
:1006D0004FF0000E013C00F3AB8014F1360FDEBF8B
:1006E000002001F0004170BDC4F10004203C35DA67
:1006F0000C341BDC04F11404C4F1200500FA05F3EA
:1007000020FA04F001FA05F240EA020001F000428A
:1007100021F0004110EBD37021FA04F642EB060100
:100720005EEA430E08BF20EAD37070BDC4F10C042A
:10073000C4F1200500FA04F320FA05F001FA04F2EE
:1007400040EA020001F0004110EBD37041F10001DA
:100750005EEA430E08BF20EAD37070BDC4F12005E5
:1007600000FA05F24EEA020E20FA04F301FA05F24D
:1007700043EA020321FA04F001F0004121FA04F2F5
:1007800020EA020000EBD3705EEA430E08BF20EAC5
:10079000D37070BD94F0000F0FD101F000464000FF
:1007A00041EB010111F4801F08BF013CF7D041EA81
:1007B000060195F0000F18BF704703F00046520085
:1007C00043EB030313F4801F08BF013DF7D043EA56
:1007D0000603704794EA0C0F0CEA135518BF95EA0C
:1007E0000C0F0CD050EA410618BF52EA4306D1D193
:1007F00081EA030101F000414FF0000070BD50EAB2
:10080000410606BF1046194652EA430619D094EA3B
:100810000C0F02D150EA013613D195EA0C0F05D125
:1008200052EA03361CBF104619460AD181EA030179
:1008300001F0004141F0FE4141F470014FF0000031
:1008400070BD41F0FE4141F4780170BD70B54FF0CC
:10085000FF0C4CF4E06C1CEA11541DBF1CEA13554C
:1008600094EA0C0F95EA0C0F00F0A7F8A4EB05042E
:1008700081EA030E52EA03354FEA013100F0888025
:100880004FEA03334FF0805545EA131343EA1263EE
:100890004FEA022245EA111545EA10654FEA0026A3
:1008A0000EF000419D4208BF964244F1FD0404F55C
:1008B000407402D25B084FEA3202B61A65EB0305B8
:1008C0005B084FEA32024FF480104FF4002CB6EB75
:1008D000020E75EB030E22BFB61A754640EA0C00F5
:1008E0005B084FEA3202B6EB020E75EB030E22BF35
:1008F000B61A754640EA5C005B084FEA3202B6EB76
:10090000020E75EB030E22BFB61A754640EA9C0034
:100910005B084FEA3202B6EB020E75EB030E22BF04
:10092000B61A754640EADC0055EA060E18D04FEAC2
:10093000051545EA16754FEA06164FEAC30343EA62
:1009400052734FEAC2025FEA1C1CC0D111F4801F2F
:100950000BD141EA00014FF000004FF0004CB6E728
:1009600011F4801F04BF01430020B4F1FD0C88BFC7
:10097000BCF5E06F3FF6AFAEB5EB030C04BFB6EBD2
:10098000020C5FEA500C50F1000041EB045170BDC5
:100990000EF0004E4EEA113114EB5C04C2BFD4EBF2
:1009A0000C0541EA045170BD41F480114FF0000E76
:1009B000013C90E645EA060E8DE60CEA135594EAF2
:1009C0000C0F08BF95EA0C0F3FF43BAF94EA0C0FF5
:1009D0000AD150EA01347FF434AF95EA0C0F7FF46A
:1009E00025AF104619462CE795EA0C0F06D152EABE
:1009F00003353FF4FDAE1046194622E750EA4106A2
:100A000018BF52EA43067FF4C5AE50EA41047FF4B2
:100A10000DAF52EA43057FF4EBAE12E74FF0FF3C17
:100A200006E000BF4FF0010C02E000BF4FF0010CE8
:100A30004DF804CD4FEA410C7FEA6C5C4FEA430C61
:100A400018BF7FEA6C5C1BD001B050EA410C0CBFB0
:100A500052EA430C91EA030F02BF90EA020F002012
:100A6000704710F1000F91EA030F58BF994208BF79
:100A700090422CBFD8176FEAE37040F00100704736
:100A80004FEA410C7FEA6C5C02D150EA013C07D18D
:100A90004FEA430C7FEA6C5CD6D152EA033CD3D0D8
:100AA0005DF8040B704700BF8446104662468C46D2
:100AB0001946634600E000BF01B5FFF7B7FF002805
:100AC00048BF10F1000F01BD4DF808EDFFF7F4FF2E
:100AD0000CBF012000205DF808FB00BF4DF808EDB9
:100AE000FFF7EAFF34BF012000205DF808FB00BFDC
:100AF0004DF808EDFFF7E0FF94BF012000205DF8FE
:100B000008FB00BF4DF808EDFFF7CEFF94BF0120B2
:100B100000205DF808FB00BF4DF808EDFFF7C4FFAB
:100B200034BF012000205DF808FB00BF4FEA410CF4
:100B30007FEA6C5C02D150EA013C0AD14FEA430CD7
:100B40007FEA6C5C02D152EA033C02D14FF0000014
:100B500070474FF0010070474FEA410212F5001252
:100B600015D211D56FF47873B3EB625212D94FEAF4
:100B7000C12343F0004343EA505311F0004F23FADE
:100B800002F018BF404270474FF00000704750EA33
:100B9000013005D111F0004008BF6FF000407047F0
:100BA0004FF00000704700BF4A0011D212F500124A
:100BB00011D20DD56FF47873B3EB62520ED44FEAB5
:100BC000C12343F0004343EA505323FA02F0704735
:100BD0004FF00000704750EA013002D14FF0FF3073
:100BE00070474FF00000704753B94AB9002908BF59
:100BF00000281CBF4FF0FF314FF0FF3000F06AB902
:100C0000ADF1080C6DE904CE00F006F8DDF804E063
:100C1000DDE9022304B070472DE9F047089D0C463A
:100C2000002B4ED194468C458646B2FA82F262D9A8
:100C30004AB1C2F12003914020FA03F30CFA02FCFE
:100C4000194300FA02FE4FEA1C471FFA8CF6B1FB6B
:100C5000F7F44FEA1E4307FB141143EA014304FB78
:100C600006F199420AD91CEB030304F1FF3080F02E
:100C70001281994240F20F81023C6344591A1FFAD3
:100C80008EF3B1FBF7F007FB101143EA014300FBC1
:100C900006F69E420AD91CEB030300F1FF3180F0F7
:100CA000FC809E4240F2F980634402389B1B40EA7C
:100CB000044000211DB1D3400022C5E90032BDE847
:100CC000F0878B4205D90DB1C5E900010021084626
:100CD000F5E7B3FA83F1002946D1A34202D390424B
:100CE000C0F0F080861A64EB03030120002DE6D0EB
:100CF000C5E90063E3E7002A40F09080A1EB0C0413
:100D00004FEA1C481FFA8CF70121B4FBF8F64FEAB2
:100D10001E4308FB164443EA044307FB06F09842CF
:100D200008D91CEB030306F1FF3402D2984200F20B
:100D3000CD8026461C1A1FFA8EF3B4FBF8F008FB90
:100D4000104443EA044300FB07F79F4208D91CEB19
:100D5000030300F1FF3402D29F4200F2B08020462C
:100D6000DB1B40EA0640A5E7C1F120068B4022FAD2
:100D700006F71F4320FA06FC04FA01F343EA0C03CA
:100D8000F44000FA01F8380C4FEA1349B4FBF0FEC6
:100D90001FFA87FC00FB1E4449EA04440EFB0CF9D1
:100DA000A14502FA01F20AD93C190EF1FF3A80F08E
:100DB0008480A14540F28180AEF1020E3C44A4EB58
:100DC00009041FFA83F9B4FBF0F300FB134449EA6A
:100DD000044403FB0CFCA44507D93C1903F1FF3084
:100DE00067D2A44565D9023B3C4443EA0E40A0FBD0
:100DF0000293A4EB0C049C42CE469C4651D34ED0A9
:100E000055B1B8EB0E0364EB0C0404FA06F6CB40C4
:100E10001E43CC40C5E90064002150E7C2F1200325
:100E200020FA03F10CFA02FC24FA03F394400C4379
:100E30004FEA1C4800FA02FE1FFA8CF7B3FBF8F0E9
:100E400008FB1031230C43EA014300FB07F19942F0
:100E500008D91CEB030300F1FF362CD299422AD9A2
:100E6000023863445B1AA4B2B3FBF8F108FB1133F8
:100E700044EA034401FB07F3A34208D91CEB040432
:100E800001F1FF3613D2A34211D902396444E41AA6
:100E900041EA004139E70446F0E6084606E7C8455E
:100EA000AED2B9EB020E63EB070C0138A8E731466E
:100EB000EDE7034699E73046D4E7D6467FE763443B
:100EC00002384DE70646234608460FE7023E6344D4
:100ED00030E700BF704700BF80B584B000AF3B462D
:100EE00000221A605A609A60DA607C4B7C4A1A6071
:100EF0007A4B00225A60794B00229A60774B01228C
:100F00001A61764B01221A76744B002283F8202056
:100F1000724B0022DA62714B724A9A626F4B002266
:100F2000DA606E4B0E22DA616C4B012283F83020BE
:100F30006A4B01225A61694801F0C4FF0346002B45
:100F400001D001F07BFA01233B6001237B60072382
:100F5000BB603B461946614802F036FA0346002B57
:100F600001D001F06BFA02233B6002237B603B4619
:100F700019465A4802F028FA0346002B01D001F026
:100F80005DFA04233B6003237B603B4619465348CC
:100F900002F01AFA0346002B01D001F04FFA0523A4
:100FA0003B6004237B603B4619464C4802F00CFA38
:100FB0000346002B01D001F041FA06233B600523D4
:100FC0007B603B461946454802F0FEF90346002B7C
:100FD00001D001F033FA07233B6006237B603B46D8
:100FE00019463E4802F0F0F90346002B01D001F00B
:100FF00025FA08233B6007237B603B4619463748A8
:1010000002F0E2F90346002B01D001F017FA0923A0
:101010003B6008237B603B461946304802F0D4F918
:101020000346002B01D001F009FA0A233B60092393
:101030007B603B461946294802F0C6F90346002B5F
:1010400001D001F0FBF90B233B600A237B603B4698
:101050001946224802F0B8F90346002B01D001F0EE
:10106000EDF90C233B600B237B603B4619461B4884
:1010700002F0AAF90346002B01D001F0DFF90D239D
:101080003B600C237B603B461946144802F09CF9F8
:101090000346002B01D001F0D1F90E233B600D2354
:1010A0007B603B4619460D4802F08EF90346002B43
:1010B00001D001F0C3F90F233B600E237B603B4658
:1010C0001946064802F080F90346002B01D001F0D2
:1010D000B5F900BF1037BD4680BD00BF300200200B
:1010E000002001400100000F80B58CB000AF786097
:1010F00007F11C0300221A605A609A60DA601A61D4
:101100007B681B684D4A934240F094800023BB618A
:101110004B4B5B6C4A4A43F480735364484B5B6CA3
:1011200003F48073BB61BB6900237B61444B1B6B81
:10113000434A43F004031363414B1B6B03F0040366
:101140007B617B6900233B613D4B1B6B3C4A43F059
:10115000010313633A4B1B6B03F001033B613B69D3
:101160000023FB60364B1B6B354A43F002031363CD
:10117000334B1B6B03F00203FB60FB683F23FB61F7
:1011800003233B6200237B6207F11C0319462D48B1
:1011900003F046F8F623FB6103233B6200237B62E6
:1011A00007F11C031946284803F03AF80323FB61B2
:1011B00003233B6200237B6207F11C03194623488B
:1011C00003F02EF8224B234A1A60214B00225A606A
:1011D0001F4B00229A601E4B0022DA601C4B4FF41A
:1011E00080621A611A4B4FF400625A61184B4FF437
:1011F00000529A61164B4FF48072DA61144B002250
:101200001A62134B00225A62114802F099FC0346FD
:10121000002B01D001F012F97B680D4A9A630C4A49
:101220007B68936300220021122002F052FC1220FE
:1012300002F06BFC00BF3037BD4680BD002001408E
:101240000038024000080240000002400004024052
:10125000780200201064024080B586B002AF78604A
:101260000B467B803E233B737B88DBB27B737B88A2
:101270001B0A9BB2DBB2BB737B68186807F10C02D8
:101280004FF0FF3300930323102103F0C3FA03460A
:1012900018461037BD4680BD80B590B002AFF860EB
:1012A0007A601A460B467B8113467B723E233B7560
:1012B0007B89DBB27B757B891B0A9BB2DBB2BB757A
:1012C0007A7A07F1140303337968184606F021FF90
:1012D000FB6818687B7A9BB203339BB207F1140258
:1012E0004FF0FF310091102103F094FA034687F884
:1012F000373097F83730002B02D097F8373006E0B8
:101300007B7A79897A68F86800F005F80346184610
:101310003837BD4680BD80B588B002AFF8607A60CE
:101320001A460B467B8113467B727B89DAB27B8936
:101330001B0A9BB2DBB21344FB750023BB7509E0AB
:10134000BB7D7A6813441A78FB7D1344FB75BB7D23
:101350000133BB75BA7D7B7A9A42F1D3FB7DDB43C7
:101360007B757B7A04333B7560233B747B7D7B7498
:101370003B7DBB74FB68186807F110024FF0FF3328
:1013800000930323102103F045FA0346184618374B
:10139000BD4680BD80B588B002AFF8607A601A465D
:1013A0000B467B8113467B72FB68186807F10A02C3
:1013B0004FF0FF3300930123102103F02BFA034673
:1013C000FB75FB7D002B01D0FB7D0BE0FB681868F3
:1013D0007B7A9BB24FF0FF3200927A68102103F0C3
:1013E00017FB034618461837BD4680BD80B586B04A
:1013F00002AF786090217868FFF72EFF02233B73DD
:1014000007F10C02012349F21B017868FFF744FF42
:10141000E1233B7307F10C02012349F224017868B0
:10142000FFF73AFFB8233B730B237B7307F10C02E2
:10143000022349F22E017868FFF72EFF07F10C0214
:10144000012349F238017868FFF726FF32233B7306
:1014500007F10C02012349F236017868FFF71CFFFF
:101460004B233B7307F10C02012349F238017868E2
:10147000FFF712FF4B233B7307F10C02012349F2E4
:101480003A017868FFF708FF92217868FFF7E4FED9
:1014900068233B7303237B7307F10C0264230093DF
:1014A000022310210A4803F0B5F966233B73602339
:1014B0007B730023BB7307F10C02642300930323A7
:1014C0001021034803F0A6F900BF1037BD4680BDC8
:1014D000D802002080B584B000AF78600023FB7391
:1014E0001BE0FB7B0A339BB25B0099B207F1080259
:1014F00002237868FFF74EFF3B7A1AB27B7A1B0211
:101500001BB213431AB2FB7B91B27A685B0013449F
:101510000A469A80FB7B0133FB73FB7B042BE0D9EB
:1015200007F10802022326217868FFF733FF3B7A90
:101530001AB27B7A1B021BB213431BB29AB27B68AE
:10154000DA8107F10802022322217868FFF722FFDF
:101550003B7A1AB27B7A1B021BB213431BB29AB2BC
:101560007B681A8207F10802022324217868FFF7BA
:1015700011FF3B7A1AB27B7A1B021BB213431BB2D8
:101580009AB27B685A8207F1080202232821786800
:10159000FFF700FF3B7A1AB27B7A1B021BB21343A0
:1015A0001AB27B689A8207F1080202232A2178681E
:1015B000FFF7F0FE3B7A1AB27B7A1B021BB2134391
:1015C0001BB29AB27B68DA8207F108020423362143
:1015D0007868FFF7DFFE3B7A1A467B7A1B021A43D4
:1015E000BB7A1B041A43FB7A1B061A437B689A6179
:1015F00007F1080202233A217868FFF7CBFE3B7A15
:101600001AB27B7A1B021BB213431AB27B689A830D
:1016100007F1080202233C217868FFF7BBFE3B7A02
:101620001AB27B7A1B021BB213431AB27B68DA83AD
:1016300007F10802022312217868FFF7ABFE3B7A1C
:101640005AB27B7A1B025BB213435BB2DAB27B689D
:1016500083F820207B6803F121020123622178684E
:10166000FFF798FE7B6803F122020123642178686A
:10167000FFF790FE7B6803F12302012349F2240166
:101680007868FFF787FE07F10802022349F22E016E
:101690007868FFF77FFE3B7A1AB27B7A1B021BB297
:1016A00013431BB29AB27B689A8407F108020223A3
:1016B00049F232017868FFF76DFE3B7A1AB27B7A05
:1016C0001B021BB213431BB29AB27B68DA847B689D
:1016D00003F12802012349F236017868FFF75AFE28
:1016E0007B6803F12902012349F238017868FFF78A
:1016F00051FE7B6803F12A02012349F23A0178681E
:10170000FFF748FE7B6803F12B02012349F23C01FD
:101710007868FFF73FFE7B6803F12C02012349F252
:1017200040017868FFF736FE7B6803F12D02012344
:1017300049F243017868FFF72DFE7B6803F12E0222
:10174000012349F246017868FFF724FE7B6803F124
:101750002F02012349F249017868FFF71BFE7B68DD
:1017600003F13002012349F24C017868FFF712FEC1
:1017700000BF1037BD4680BD80B582B000AF0023EA
:101780007B600C4B1B6B0B4A43F480031363094BC8
:101790001B6B03F480037B607B68002200213820F0
:1017A00002F097F9382002F0B0F900BF0837BD46C3
:1017B00080BD00BF0038024080B58AB000AF07F19D
:1017C000140300221A605A609A60DA601A610023DA
:1017D0003B61594B1B6B584A43F004031363564B50
:1017E0001B6B03F004033B613B690023FB60524B1E
:1017F0001B6B514A43F0800313634F4B1B6B03F089
:101800008003FB60FB680023BB604B4B1B6B4A4AA9
:1018100043F001031363484B1B6B03F00103BB60F0
:10182000BB6800237B60444B1B6B434A43F00203BD
:101830001363414B1B6B03F002037B607B68002347
:101840003B603D4B1B6B3C4A43F0080313633A4B30
:101850001B6B03F008033B603B68002245F6044124
:10186000364802F079FE00224FF40071344802F04D
:1018700073FE4FF2C0137B610323BB610023FB6146
:1018800007F1140319462F4802F0CAFC45F6044339
:101890007B610123BB610123FB6100233B6207F1F4
:1018A00014031946254802F0BBFC4AF238037B6159
:1018B0000323BB610023FB6107F1140319461F4892
:1018C00002F0AEFC4FF400737B610123BB61012386
:1018D000FB6100233B6207F114031946184802F02C
:1018E0009FFC4FF404437B610323BB610023FB6136
:1018F00007F114031946124802F092FC04237B619D
:101900000323BB610023FB6107F1140319460E4852
:1019100002F086FC4FF480737B610023BB610123DE
:10192000FB6107F114031946044802F079FC00BF7B
:101930002837BD4680BD00BF003802400004024089
:101940000000024000080240000C024080B500AFD9
:10195000124B134A1A60114B124A5A600F4B002265
:101960009A600E4B0022DA600C4B4FF480421A61F1
:101970000A4B00225A61094B00229A61074B002250
:10198000DA61064B00221A62044802F0FFFD0346AA
:10199000002B01D000F052FD00BF80BDD802002016
:1019A00000540040801A060080B500AF124B134A65
:1019B0001A60114B124A5A600F4B00229A600E4B6C
:1019C0000022DA600C4B4FF480421A610A4B00226D
:1019D0005A61094B00229A61074B0022DA61064BDB
:1019E00000221A62044802F0D1FD0346002B01D008
:1019F00000F024FD00BF80BD2C030020005C0040EF
:101A0000A086010080B58CB000AF786007F11C03A0
:101A100000221A605A609A60DA601A617B681B685B
:101A2000424A93422CD10023BB61414B1B6B404A7D
:101A300043F0020313633E4B1B6B03F00203BB61D5
:101A4000BB69C023FB6112233B6200237B6203233B
:101A5000BB620423FB6207F11C031946354802F000
:101A6000DFFB00237B61324B1B6C314A43F40013D4
:101A700013642F4B1B6C03F400137B617B6950E0F4
:101A80007B681B682C4A93424BD100233B61284B57
:101A90001B6B274A43F004031363254B1B6B03F0B6
:101AA00004033B613B690023FB60214B1B6B204A15
:101AB00043F0010313631E4B1B6B03F00103FB6038
:101AC000FB684FF40073FB6112233B6201237B62CE
:101AD0000323BB620423FB6207F11C03194617486A
:101AE00002F09EFB4FF48073FB6112233B620123E3
:101AF0007B620323BB620423FB6207F11C031946CC
:101B00000F4802F08DFB0023BB60094B1B6C084A99
:101B100043F400031364064B1B6C03F40003BB6027
:101B2000BB6800BF3037BD4680BD00BF00540040D9
:101B30000038024000040240005C004000080240FF
:101B40000000024080B483B000AF7860044B0122F3
:101B50001A7000BF0C37BD465DF8047B704700BFAC
:101B600094040020B0B5A8B004AF01F015F900F05E
:101B7000FBFBFFF721FEFFF7FFFDFFF7ADF9FFF7D6
:101B800013FF00F019FE00F06FFE00F0C5FE00F03C
:101B9000EDFF01F05DF8FFF7D9FE974C38460C23B6
:101BA0000293964B01930A2300930B23944A954981
:101BB00000F04AFC25463C460FCC0FC50FCC0FC5A4
:101BC00023682B60904C3846002302938F4B01937F
:101BD0000C2300930D238A4A8D4900F035FC2546DD
:101BE0003C460FCC0FC50FCC0FC523682B60894C2A
:101BF000384600230293884B01930123009302236C
:101C00007F4A864900F020FC25463C460FCC0FC594
:101C10000FCC0FC523682B60814C384604230293F8
:101C2000804B01930F2300930E23754A7E4900F0E9
:101C300038FC25463C460FCC0FC594E8070085E8E4
:101C400007007A4C38464FF480530293754B01934A
:101C50000423009305236A4A754900F022FC2546B7
:101C60003C460FCC0FC594E8070085E80700714C8F
:101C700038464FF4006302936A4B019307230093A5
:101C800006235F4A6C4900F00CFC25463C460FCC0D
:101C90000FC594E8070085E80700684C38464FF404
:101CA000806302935F4B0193092300930823544AF6
:101CB000634900F0F6FB25463C460FCC0FC594E87F
:101CC000070085E807005F4C38464FF40073029325
:101CD0005D4B019300230093002300225B4900F039
:101CE000E0FB25463C460FCC0FC594E8070085E88D
:101CF0000700484BDB68474A12691146184604F052
:101D000037FA414BDB68404A12691146184604F025
:101D10002FFA394BDB68384A12691146184604F02D
:101D200027FA354B1B69002B06D1334B1A7F324BF8
:101D3000DB681B685A631EE02F4B1B69042B07D11D
:101D40002D4B197F2C4BDB681A680B46936312E00E
:101D5000294B1B69082B07D1274B197F264BDB68C2
:101D60001A680B46D36306E0234B197F224BDB68CE
:101D70001A680B461364244B1B69002B06D1224BB7
:101D80001A7F214BDB681B685A631EE01E4B1B69E0
:101D9000042B07D11C4B197F1B4BDB681A680B46C1
:101DA000936312E0184B1B69082B07D1164B197F60
:101DB000154BDB681A680B46D36306E0124B197F9C
:101DC000114BDB681A680B461364124B1B69002B1E
:101DD00006D1104B1A7F0F4BDB681B685A634CE02F
:101DE0000C4B1B69042B33D10A4B197F094BDB6861
:101DF0001A680B46936340E080030020E40400204F
:101E000030020020D0A20008A40300209C0400207F
:101E1000D8A20008C80300202C050020E0A200087A
:101E2000EC03002000040240E8A20008080400209F
:101E3000ECA2000824040020F4A2000840040020C2
:101E4000F8A200085C0400200000024000A3000883
:101E5000054B1B69082B09D1034B197F024BDB682B
:101E60001A680B46D36308E0C8030020B74B197FFC
:101E7000B64BDB681A680B461364B54800F048FBA4
:101E8000B44800F035FBB44800F032FBB34800F032
:101E90003FFBB34800F03CFBB248FFF7A7FA0E2225
:101EA000B149B24801F062F9002387F88F3000BFD2
:101EB000AF4B1B78002BFBD0AB4B1A88A34BDA82BD
:101EC000A94B5B885B001846FEF72CFBA94BD3E9B6
:101ED0000023FEF791FB02460B4610461946FEF71B
:101EE00063FE03469AB2994B9A829F4B9A889A4B0B
:101EF000DA819D4BDB885B001846FEF713FB9D4B98
:101F0000D3E90023FEF778FB02460B46104619463C
:101F1000FEF74AFE03469AB28F4B9A81924B1B8979
:101F20005B001846FEF7FEFA924BD3E90023FEF75A
:101F300063FB02460B4610461946FEF735FE034684
:101F40009AB2844B9A81884B5A89824BDA81864BAC
:101F50009B895B001846FEF7E5FA864BD3E9002320
:101F6000FEF74AFB02460B4610461946FEF71CFEDA
:101F700003469AB2764B9A817B4BDA89744BDA81AD
:101F8000794B1A8A7C4BDA82774B5B8A5B00184666
:101F9000FEF7C8FA774BD3E90023FEF72DFB024684
:101FA0000B4610461946FEF7FFFD03469AB2724BE8
:101FB0009A826D4B9A8A714BDA826B4BDB8A5B009B
:101FC0001846FEF7AFFA6B4BD3E90023FEF714FB7C
:101FD00002460B4610461946FEF7E6FD03469AB246
:101FE000664B9A82604B1B8B5B001846FEF79AFA91
:101FF000604BD3E90023FEF7FFFA02460B4610467A
:102000001946FEF7D1FD03469AB2544B9A81564BBE
:102010005A8B524BDA8197F88F30022B40F0628155
:1020200007F12803564A6421184605F043FF07F1DB
:1020300028031846FEF71CF903469BB207F1280255
:102040004FF0FF31009110214E4802F0E3FB424B6C
:10205000DB8907F128004C4A642105F02BFF07F1CA
:1020600028031846FEF704F903469BB207F128023D
:102070004FF0FF3100911021424802F0CBFB364B6C
:102080009B8907F12800414A642105F013FF07F1FD
:1020900028031846FEF7ECF803469BB207F1280226
:1020A0004FF0FF3100911021364802F0B3FB294B6D
:1020B000DB8907F12800364A642105F0FBFE07F1B1
:1020C00028031846FEF7D4F803469BB207F128020E
:1020D0004FF0FF31009110212A4802F09BFB1D4B6D
:1020E0009B8907F128002B4A642105F0E3FE07F1E4
:1020F00028031846FEF7BCF803469BB207F12802F6
:102100004FF0FF31009110211E4802F083FB1A4B63
:10211000DB8A07F12800204A642105F0CBFE07F195
:1021200028031846FEF7A4F803469BB207F12802DD
:102130004FF0FF3100911021124802F06BFB0E4B63
:102140009B8A07F12800154A642129E0C803002072
:10215000400400202404002008040020EC03002098
:102160005C040020000000207804002030020020E1
:10217000940400203800002080030020A4030020E5
:1021800008A300082C0300202CA3000840A300088B
:1021900054A3000868A3000874A3000888A30008DB
:1021A00005F088FE07F128031846FEF761F803469C
:1021B0009BB207F128024FF0FF31009110215C48DB
:1021C00002F028FB5B4BDB8A07F128005A4A6421A6
:1021D00005F070FE07F128031846FEF749F803469C
:1021E0009BB207F128024FF0FF31009110215048B7
:1021F00002F010FB4F4B9B8A07F128004F4A6421E5
:1022000005F058FE07F128031846FEF731F803469B
:102210009BB207F128024FF0FF3100911021444892
:1022200002F0F8FA464B9B8907F12800454A6421E1
:1022300005F040FE07F128031846FEF719F803469B
:102240009BB207F128024FF0FF310091102138486E
:1022500002F0E0FA3A4BDB8907F128003A4A6421A0
:1022600005F028FE07F128031846FEF701F803469B
:102270009BB207F128024FF0FF31009110212C484A
:1022800002F0C8FA314BDB8A07F12800304A64219A
:1022900005F010FE07F128031846FDF7E9FF034695
:1022A0009BB207F128024FF0FF3100911021204826
:1022B00002F0B0FA254B9B8A07F12800254A6421D9
:1022C00005F0F8FD07F128031846FDF7D1FF034696
:1022D0009BB207F128024FF0FF3100911021144802
:1022E00002F098FA97F88F30013387F88F3097F81B
:1022F0008F20194BA3FB021359080B465B000B44BC
:10230000D31A87F88F301548FFF7E4F80123144AF1
:1023100068211248FFF73EF800224FF4804111482F
:1023200002F01AF94FF4FA7000F0A8FDBFE500BF03
:102330002C030020A40300209CA30008B0A30008E5
:10234000EC030020C4A30008DCA30008C80300209D
:10235000F0A3000804A40008ABAAAAAA0000002069
:10236000310000200004024080B594B000AF07F1B6
:10237000200330220021184605F092FE07F10C03DD
:1023800000221A605A609A60DA601A610023BB600A
:10239000284B1B6C274A43F080531364254B1B6C5E
:1023A00003F08053BB60BB6800237B60224B1B683B
:1023B000214A43F4804313601F4B1B6803F480439E
:1023C0007B607B6801233B624FF480337B62022396
:1023D000BB634FF48003FB6304233B6460237B6493
:1023E0000623BB640423FB6407F12003184603F0B3
:1023F000D7F90346002B01D000F020F80F23FB6033
:1024000002233B6180237B614FF4A053BB614FF4F7
:102410008053FB6107F10C030021184603F038FCE0
:102420000346002B01D000F009F800BF5037BD462D
:1024300080BD00BF003802400070004080B400AF93
:1024400072B600BF00BFFDE7B0B48FB000AFF86058
:10245000B9607A603B607B687B613B68BB61BB6C49
:10246000FB61FB6C3B623B6D7B6200233B85002381
:102470007B850023BB850023FB85002387F8303054
:10248000BB687B63FB681D4607F114040FCC0FC5C6
:102490000FCC0FC523682B60F8683C37BD46B0BC35
:1024A0007047B0B48DB000AFF860B9607A603B603F
:1024B0007B687B613B68BB613B6CFB6100233B84B9
:1024C00000237B84BB687B627B6CBB62B7F84830BF
:1024D000BB85FB681D4607F114040FCC0FC594E8BB
:1024E000070085E80700F8683437BD46B0BC704780
:1024F00080B582B000AF78607B6858697B681B8BC1
:102500000122194602F028F800BF0837BD4680BDF9
:1025100080B582B000AF78607B6858697B681B8BA0
:102520000022194602F018F800BF0837BD4680BDEA
:1025300080B483B000AF00237B60104B5B6C0F4A0C
:1025400043F4804353640D4B5B6C03F480437B6026
:102550007B6800233B60094B1B6C084A43F08053A7
:102560001364064B1B6C03F080533B603B6800BF59
:102570000C37BD465DF8047B704700BF0038024051
:1025800080B400AF00BFFDE780B400AF00BFFDE73F
:1025900080B400AF00BFFDE780B400AF00BFFDE72F
:1025A00080B400AF00BFFDE780B400AF00BFBD4600
:1025B0005DF8047B704780B400AF00BFBD465DF896
:1025C000047B704780B400AF00BFBD465DF8047B5C
:1025D000704780B500AF00F031FC00BF80BD000047
:1025E00080B500AF024800F0B0FC00BF80BD00BF66
:1025F0003002002080B500AF024801F0A7FB00BF09
:1026000080BD00BF7802002080B400AF01231846CF
:10261000BD465DF8047B704780B582B000AF78603E
:10262000396005F049FD034616221A604FF0FF336A
:1026300018460837BD4680BD80B582B000AF7860CF
:102640004FF0FF317868FFF7E7FF00BFFDE780B587
:1026500086B000AFF860B9607A6000237B610AE061
:10266000AFF300800146BB685A1CBA60CAB21A7048
:102670007B6901337B617A697B689A42F0DB7B6816
:1026800018461837BD4680BD80B586B000AFF860EB
:10269000B9607A6000237B6109E0BB685A1CBA60AC
:1026A0001B781846AFF300807B6901337B617A6940
:1026B0007B689A42F1DB7B6818461837BD4680BDBF
:1026C00080B483B000AF78604FF0FF3318460C370A
:1026D000BD465DF8047B704780B483B000AF78607E
:1026E00039603B684FF400525A60002318460C379B
:1026F000BD465DF8047B704780B483B000AF78605E
:10270000012318460C37BD465DF8047B704780B442
:1027100085B000AFF860B9607A60002318461437BE
:10272000BD465DF8047B704780B586B000AF786029
:10273000144A154BD31A7B617B693B61134B1B68B1
:10274000002B02D1114B124A1A60104B1A687B6899
:1027500013443A699A4207D205F0AEFC03460C22B4
:102760001A604FF0FF3309E0084B1B68FB60074B12
:102770001A687B681344054A1360FB6818461837CB
:10278000BD4680BD00000220000400009804002027
:10279000F00B002080B400AF064BD3F88830054A18
:1027A00043F47003C2F8883000BFBD465DF8047B77
:1027B000704700BF00ED00E080B58AB000AF07F1C0
:1027C000200300221A605A603B1D00221A605A60E2
:1027D0009A60DA601A615A619A61224B4FF0804226
:1027E0001A60204B00225A601E4B00229A601D4B3B
:1027F000FF22DA601B4B00221A611A4B00229A61F9
:10280000184803F065FC0346002B01D0FFF716FEC5
:1028100000233B6200237B6207F120031946114825
:1028200004F0B2F80346002B01D0FFF707FE602347
:102830007B600023BB600023FB6004237B613B1DA6
:1028400000221946074803F05BFD0346002B01D028
:10285000FFF7F4FD034800F003F900BF2837BD4639
:1028600080BD00BF9C04002080B58AB000AF07F196
:10287000200300221A605A603B1D00221A605A6031
:102880009A60DA601A615A619A61214B214A1A6092
:102890001F4B01225A601E4B00229A601C4BFF22E4
:1028A000DA601B4B00221A61194B00229A6118480A
:1028B00003F00EFC0346002B01D0FFF7BFFD002301
:1028C0003B6200237B6207F120031946104804F0A5
:1028D0005BF80346002B01D0FFF7B0FD60237B605F
:1028E0000023BB600023FB6000237B613B1D0C22A7
:1028F0001946074803F004FD0346002B01D0FFF7FB
:102900009DFD034800F0ACF800BF2837BD4680BDF0
:10291000E40400200008004080B58AB000AF07F151
:10292000200300221A605A603B1D00221A605A6080
:102930009A60DA601A615A619A61214B214A1A60E1
:102940001F4B00225A601E4B00229A601C4BFF2234
:10295000DA601B4B00221A61194B00229A61184859
:1029600003F0B6FB0346002B01D0FFF767FD002301
:102970003B6200237B6207F120031946104804F0F4
:1029800003F80346002B01D0FFF758FD60237B605E
:102990000023BB600023FB6004237B613B1D0C22F2
:1029A0001946074803F0ACFC0346002B01D0FFF7A3
:1029B00045FD034800F054F800BF2837BD4680BDF0
:1029C0002C050020000C004080B487B000AF786078
:1029D0007B681B68B3F1804F0ED100237B611D4BD8
:1029E0001B6C1C4A43F0010313641A4B1B6C03F06D
:1029F00001037B617B6926E07B681B68164A934272
:102A00000ED100233B61134B1B6C124A43F00403AD
:102A10001364104B1B6C03F004033B613B6912E031
:102A20007B681B680D4A93420DD10023FB60094B64
:102A30001B6C084A43F008031364064B1B6C03F03D
:102A40000803FB60FB6800BF1C37BD465DF8047BD4
:102A5000704700BF0038024000080040000C0040F2
:102A600080B58AB000AF786007F1140300221A60C5
:102A70005A609A60DA601A617B681B68B3F1804F14
:102A80001ED100233B61344B1B6B334A43F00103DF
:102A90001363314B1B6B03F001033B613B69012363
:102AA0007B610223BB610023FB6100233B620123A6
:102AB0007B6207F114031946284801F0B1FB47E097
:102AC0007B681B68264A93421FD10023FB60224B80
:102AD0001B6B214A43F0020313631F4B1B6B03F074
:102AE0000203FB60FB684FF400737B610223BB6150
:102AF0000023FB6100233B6202237B6207F1140386
:102B00001946184801F08CFB22E07B681B68164AC6
:102B100093421DD10023BB600F4B1B6B0E4A43F049
:102B2000010313630C4B1B6B03F00103BB60BB6819
:102B300008237B610223BB610023FB6100233B620E
:102B400002237B6207F114031946044801F068FB75
:102B500000BF2837BD4680BD00380240000002405B
:102B60000008004000040240000C004080B500AFA7
:102B7000114B124A1A60104B4FF4E1325A600E4B5F
:102B800000229A600C4B0022DA600B4B00221A6183
:102B9000094B0C225A61084B00229A61064B002215
:102BA000DA61054803F06CFF0346002B01D0FFF704
:102BB00045FC00BF80BD00BF74050020004C0040F4
:102BC00080B58AB000AF786007F1140300221A6064
:102BD0005A609A60DA601A617B681B68194A9342EE
:102BE0002CD100233B61184B1B6C174A43F4002384
:102BF0001364154B1B6C03F400233B613B690023FA
:102C0000FB60114B1B6B104A43F0040313630E4B24
:102C10001B6B03F00403FB60FB684FF440637B61B4
:102C20000223BB610123FB6103233B6208237B6218
:102C300007F114031946054801F0F2FA00BF2837DE
:102C4000BD4680BD004C00400038024000080240F4
:102C500080B500AF144B4FF0A0421A60124B042213
:102C60001A71114B0222DA710F4B00229A710E4B2E
:102C700002225A720C4B00229A720B4B0022DA721B
:102C8000094B00221A73084B00229A73064B00224C
:102C9000DA73054802F074FC0346002B01D0FFF7FD
:102CA000CDFB00BF80BD00BFBC05002080B58AB051
:102CB00000AF786007F1140300221A605A609A602E
:102CC000DA601A617B681B68B3F1A04F32D1002330
:102CD0003B611A4B1B6B194A43F001031363174BFB
:102CE0001B6B03F001033B613B694FF4C0537B61F5
:102CF0000223BB610023FB6103233B620A237B6247
:102D000007F1140319460E4801F08AFA0B4B5B6B6E
:102D10000A4A43F0800353630023FB60074B5B6C5C
:102D2000064A43F480435364044B5B6C03F48043D2
:102D3000FB60FB6800BF2837BD4680BD00380240FD
:102D400000000240DFF834D0FFF724FD0C480D49A5
:102D50000D4A002302E0D458C4500433C4188C42F6
:102D6000F9D30A4A0A4C002301E013600432A2425C
:102D7000FBD305F0A7F9FEF7F5FE7047000002202F
:102D80000000002014020020B8A700081402002050
:102D9000F00B0020FEE7000080B500AF0E4B1B6873
:102DA0000D4A43F4007313600B4B1B680A4A43F44B
:102DB00080631360084B1B68074A43F480731360F9
:102DC000032000F07BFE0F2000F008F8FFF7B0FBB7
:102DD0000023184680BD00BF003C024080B582B091
:102DE00000AF7860124B1A68124B1B7819464FF4EB
:102DF0007A73B3FBF1F3B2FBF3F3184600F093FEE2
:102E00000346002B01D001230EE07B680F2B0AD86C
:102E1000002279684FF0FF3000F05BFE064A7B68C5
:102E20001360002300E0012318460837BD4680BD2B
:102E300040000020480000204400002080B400AF83
:102E4000064B1B781A46064B1B681344044A136052
:102E500000BFBD465DF8047B704700BF48000020FE
:102E6000A00A002080B400AF034B1B681846BD4683
:102E70005DF8047B704700BFA00A002080B584B0D5
:102E800000AF7860FFF7EEFFB8607B68FB60FB681F
:102E9000B3F1FF3F05D00A4B1B781A46FB68134479
:102EA000FB6000BFFFF7DEFF0246BB68D31AFA687B
:102EB0009A42F7D800BF00BF1037BD4680BD00BFA3
:102EC0004800002080B584B000AF78600023FB7319
:102ED0007B68002B01D1012333E07B681B6C002B46
:102EE00009D17868FEF700F97B6800225A647B6894
:102EF000002283F83C207B681B6C03F01003002B3E
:102F000018D17B681B6C23F4885323F0020343F031
:102F100002027B681A64786800F078FB7B68002204
:102F20005A647B681B6C23F0030343F001027B6847
:102F30001A6401E00123FB737B68002283F83C20C4
:102F4000FB7B18461037BD4680BD80B586B000AF0C
:102F5000786000237B6100233B617B681B681B68F2
:102F6000FB607B681B685B68BB60FB6803F0020367
:102F70007B61BB6803F020033B617B69002B49D078
:102F80003B69002B46D07B681B6C03F01003002BC1
:102F900005D17B681B6C43F400727B681A647B6804
:102FA0001B689B6803F04053002B2BD17B681B7E72
:102FB000002B27D17B681B68DB6A03F47003002BAE
:102FC00006D07B681B689B6803F48063002B19D1D3
:102FD0007B681B685A687B681B6822F020025A6075
:102FE0007B681B6C23F480727B681A647B681B6CA3
:102FF00003F48053002B05D17B681B6C43F0010266
:103000007B681A647868FEF79DFD7B681B686FF02B
:1030100012021A60FB6803F004037B61BB6803F0D3
:1030200080033B617B69002B57D03B69002B54D058
:103030007B681B6C03F01003002B05D17B681B6CB5
:1030400043F400527B681A647B681B689B6803F436
:103050004013002B39D17B681B689B6B03F4401332
:10306000002B06D07B681B689B6803F48063002BF1
:103070002BD17B681B685B6803F48063002B24D131
:103080007B681B689B6803F04053002B1DD17B6855
:103090001B7E002B19D17B681B685A687B681B68F4
:1030A00022F080025A607B681B6C23F480527B689C
:1030B0001A647B681B6C03F48073002B05D17B685A
:1030C0001B6C43F001027B681A64786800F01CFCFA
:1030D0007B681B686FF00C021A60FB6803F0010349
:1030E0007B61BB6803F040033B617B69002B17D019
:1030F0003B69002B14D07B681B681B6803F001033D
:10310000012B0DD17B681B6C43F480327B681A6401
:10311000786800F045F97B681B686FF001021A605F
:10312000FB6803F020037B61BB6803F080633B61B5
:103130007B69002B15D03B69002B12D07B685B6C40
:1031400043F002027B685A647B681B686FF02002C0
:103150001A60786800F02EF97B681B686FF0200217
:103160001A6000BF1837BD4680BD000080B586B02C
:1031700000AFF860B9607A6000233B61FB6893F8A8
:103180003C30012B01D10223E9E0FB68012283F8E6
:103190003C20FB681B689B6803F00103012B18D0DF
:1031A000FB681B689A68FB681B6842F001029A6022
:1031B0006D4B1B686D4AA2FB03239A0C13465B0000
:1031C00013443B6102E03B69013B3B613B69002BDF
:1031D000F9D1FB681B689B6803F48073B3F5807FAB
:1031E00007D1FB681B689A68FB681B6822F4807231
:1031F0009A60FB681B689B6803F00103012B40F099
:10320000A180FB681B6C23F4E06323F0010343F40B
:103210008072FB681A64FB681B685B6803F4806358
:10322000002B07D0FB681B6C23F4405343F48052FF
:10323000FB681A64FB681B6C03F48053B3F5805F72
:1032400006D1FB685B6C23F00602FB685A6402E05F
:10325000FB6800225A64FB68002283F83C20444B40
:103260007B61FB689B6B434ADA63FB689B6B424A5A
:103270001A64FB689B6B414ADA64FB681B686FF059
:1032800022021A60FB681B685A68FB681B6842F0E0
:1032900080625A60FB681B689A68FB681B6842F48E
:1032A00080729A60FB68986BFB681B684C33194608
:1032B000BA687B6800F0F2FC7B695B6803F01F036F
:1032C000002B2AD1FB681B682D4A934215D0FB685E
:1032D0001B682C4A934205D1254B5B6803F01F0302
:1032E000002B0AD0FB681B68274A934236D1204B3B
:1032F0005B6803F01003002B30D1FB681B689B68F0
:1033000003F04053002B29D1FB681B689A68FB68C7
:103310001B6842F080429A6020E0FB681B68184AF4
:1033200093421BD1FB681B689B6803F04053002B42
:1033300014D1FB681B689A68FB681B6842F08042E6
:103340009A600BE0FB681B6C43F01002FB681A6488
:10335000FB685B6C43F00102FB685A64002318466B
:103360001837BD4680BD00BF4000002083DE1B43F0
:103370000023014005380008BF380008DB3800088A
:1033800000200140002101400022014080B483B0B0
:1033900000AF786000BF0C37BD465DF8047B704716
:1033A00080B483B000AF786000BF0C37BD465DF8D5
:1033B000047B704780B483B000AF786000BF0C37E7
:1033C000BD465DF8047B704780B485B000AF78607F
:1033D00039600023BB607B6893F83C30012B01D13E
:1033E000022305E17B68012283F83C203B681B68CF
:1033F000092B25D97B681B68D9683B681B689BB281
:103400001A4613465B0013441E3B072202FA03F3DD
:10341000DA437B681B680A40DA607B681B68D968FE
:103420003B689A683B681B689BB2184603465B0082
:1034300003441E3B9A407B681B680A43DA6022E023
:103440007B681B6819693B681B689BB21A46134668
:103450005B001344072202FA03F3DA437B681B681C
:103460000A401A617B681B6819693B689A683B6867
:103470001B689BB2184603465B0003449A407B6876
:103480001B680A431A613B685B68062B24D87B687B
:103490001B68596B3B685A6813469B001344053BF5
:1034A0001F2202FA03F3DA437B681B680A405A635F
:1034B0007B681B68596B3B681B689BB218463B686E
:1034C0005A6813469B001344053B00FA03F27B68DD
:1034D0001B680A435A634CE03B685B680C2B24D89A
:1034E0007B681B68196B3B685A6813469B00134442
:1034F000233B1F2202FA03F3DA437B681B680A406E
:103500001A637B681B68196B3B681B689BB2184683
:103510003B685A6813469B001344233B00FA03F2AE
:103520007B681B680A431A6323E07B681B68D96ABF
:103530003B685A6813469B001344413B1F2202FA22
:1035400003F3DA437B681B680A40DA627B681B6816
:10355000D96A3B681B689BB218463B685A68134699
:103560009B001344413B00FA03F27B681B680A434B
:10357000DA62224BFB607B681B68214A934209D1C7
:103580003B681B68122B05D1FB685B6843F4800223
:10359000FB685A607B681B68194A934223D13B68D9
:1035A0001B68102B03D03B681B68112B1BD1FB68D9
:1035B0005B6843F40002FB685A603B681B68102B91
:1035C00011D1104B1B68104AA2FB03239A0C13461F
:1035D0009B0013445B00BB6002E0BB68013BBB6027
:1035E000BB68002BF9D17B68002283F83C200023C4
:1035F00018461437BD465DF8047B70470023014030
:10360000002001404000002083DE1B4380B485B0D1
:1036100000AF7860794BFB60FB685B6823F4403255
:10362000FB685A60FB685A687B685B681A43FB68F2
:103630005A607B681B685A687B681B6822F480723A
:103640005A607B681B6859687B681B691A027B6833
:103650001B680A435A607B681B685A687B681B6852
:1036600022F040725A607B681B6859687B689A68D0
:103670007B681B680A435A607B681B689A687B6892
:103680001B6822F400629A607B681B6899687B68FB
:10369000DA687B681B680A439A607B689B6A584AB1
:1036A000934222D07B681B689A687B681B6822F073
:1036B00070629A607B681B6899687B689A6A7B680D
:1036C0001B680A439A607B681B689A687B681B6862
:1036D00022F040529A607B681B6899687B68DA6ABE
:1036E0007B681B680A439A600FE07B681B689A68D6
:1036F0007B681B6822F070629A607B681B689A681E
:103700007B681B6822F040529A607B681B689A684D
:103710007B681B6822F002029A607B681B689968CC
:103720007B681B7E5A007B681B680A439A607B6833
:1037300093F82030002B1BD07B681B685A687B688D
:103740001B6842F400625A607B681B685A687B6899
:103750001B6822F460425A607B681B6859687B686A
:103760005B6A013B5A037B681B680A435A6007E0A7
:103770007B681B685A687B681B6822F400625A6089
:103780007B681B68DA6A7B681B6822F47002DA6265
:103790007B681B68D96A7B68DB69013B1A057B681B
:1037A0001B680A43DA627B681B689A687B681B683F
:1037B00022F400729A607B681B6899687B6893F8B2
:1037C00030305A027B681B680A439A607B681B682A
:1037D0009A687B681B6822F480629A607B681B6829
:1037E00099687B685B699A027B681B680A439A60E8
:1037F00000BF1437BD465DF8047B704700230140CD
:103800000100000F80B584B000AF78607B689B6BCF
:10381000FB60FB681B6C03F05003002B3CD1FB6882
:103820001B6C43F40072FB681A64FB681B689B689E
:1038300003F04053002B2BD1FB681B7E002B27D1BC
:10384000FB681B68DB6A03F47003002B06D0FB687F
:103850001B689B6803F48063002B19D1FB681B680D
:103860005A68FB681B6822F020025A60FB681B6CD8
:1038700023F48072FB681A64FB681B6C03F48053AA
:10388000002B05D1FB681B6C43F00102FB681A6436
:10389000F868FEF757F90EE0FB681B6C03F01003A5
:1038A000002B03D0F868FFF785FD04E0FB689B6BF5
:1038B000DB6C7868984700BF1037BD4680BD80B587
:1038C00084B000AF78607B689B6BFB60F868FFF7A3
:1038D0005DFD00BF1037BD4680BD80B584B000AF30
:1038E00078607B689B6BFB60FB6840221A64FB6816
:1038F0005B6C43F00402FB685A64F868FFF75AFDFA
:1039000000BF1037BD4680BD80B483B000AF786083
:1039100000BF0C37BD465DF8047B704780B485B0AE
:1039200000AF78607B6803F00703FB600C4BDB683B
:10393000BB60BA684FF6FF031340BB60FB681A0216
:10394000BB68134343F0BF6343F40033BB60044AD6
:10395000BB68D36000BF1437BD465DF8047B704779
:1039600000ED00E080B400AF044BDB681B0A03F0FD
:1039700007031846BD465DF8047B704700ED00E084
:1039800080B483B000AF0346FB7197F90730002B7A
:103990000BDBFB7903F01F02074997F907305B093E
:1039A000012000FA02F241F8232000BF0C37BD4687
:1039B0005DF8047B704700BF00E100E080B483B095
:1039C00000AF03463960FB7197F90730002B0ADB23
:1039D0003B68DAB20C4997F907301201D2B20B44B6
:1039E00083F800230AE03B68DAB20849FB7903F068
:1039F0000F03043B1201D2B20B441A7600BF0C37FE
:103A0000BD465DF8047B704700E100E000ED00E09A
:103A100080B489B000AFF860B9607A60FB6803F0E9
:103A20000703FB61FB69C3F10703042B28BF0423D1
:103A3000BB61FB690433062B02D9FB69033B00E041
:103A400000237B614FF0FF32BB6902FA03F3DA43D4
:103A5000BB681A407B699A404FF0FF317B6901FADD
:103A600003F3D9437B680B40134318462437BD4604
:103A70005DF8047B7047000080B582B000AF7860CD
:103A80007B68013BB3F1807F01D301230FE00A4A39
:103A90007B68013B53600F214FF0FF30FFF78EFF33
:103AA000054B00229A60044B07221A600023184637
:103AB0000837BD4680BD00BF10E000E080B582B091
:103AC00000AF78607868FFF729FF00BF0837BD4670
:103AD00080BD80B586B000AF0346B9607A60FB73E5
:103AE00000237B61FFF73EFF78617A68B9687869E7
:103AF000FFF78EFF024697F90F3011461846FFF781
:103B00005DFF00BF1837BD4680BD80B582B000AFF5
:103B10000346FB7197F907301846FFF731FF00BFE6
:103B20000837BD4680BD80B582B000AF7860786848
:103B3000FFF7A2FF034618460837BD4680BD0000C8
:103B400080B586B000AF786000237B61FFF78AF90B
:103B500038617B68002B01D1012399E07B68022248
:103B600083F835207B68002283F834207B681B684B
:103B70001A687B681B6822F001021A600FE0FFF7E9
:103B800071F902463B69D31A052B08D97B682022BC
:103B90005A657B68032283F83520032378E07B682D
:103BA0001B681B6803F00103002BE8D17B681B68CE
:103BB0001B687B617A69384B13407B617B685A686C
:103BC0007B689B681A437B68DB681A437B681B69C8
:103BD0001A437B685B691A437B689B691A437B685D
:103BE000DB691A437B681B6A13437A6913437B6161
:103BF0007B685B6A042B07D17B68DA6A7B681B6B86
:103C000013437A6913437B617B681B687A691A6086
:103C10007B681B685B697B617B6923F007037B61C1
:103C20007B685B6A7A6913437B617B685B6A042B00
:103C300017D17B689B6A7A6913437B617B68DB6A77
:103C4000002B0ED0786800F06FFA0346002B08D0E6
:103C50007B6840225A657B68012283F83520012366
:103C600016E07B681B687A695A61786800F026FA6A
:103C70000346FB607B68DB6D3F229A40FB689A60DD
:103C80007B6800225A657B68012283F83520002377
:103C900018461837BD4680BD3F8010F080B586B00D
:103CA00000AFF860B9607A603B600023FB75FB6889
:103CB0009B6D3B61FB6893F83430012B01D10223EB
:103CC00040E0FB68012283F83420FB6893F835302C
:103CD000DBB2012B2FD1FB68022283F83520FB6871
:103CE00000225A653B687A68B968F86800F0B8F94C
:103CF000FB68DB6D3F229A403B699A60FB681B685A
:103D00001A68FB681B6842F016021A60FB681B6C9D
:103D1000002B07D0FB681B681A68FB681B6842F021
:103D200008021A60FB681B681A68FB681B6842F08F
:103D300001021A6005E0FB68002283F834200223A8
:103D4000FB75FB7D18461837BD4680BD80B586B033
:103D500000AF78600023BB608E4B1B688E4AA2FBCD
:103D600003239B0A7B617B689B6D3B613B691B68FE
:103D7000FB607B68DB6D08229A40FB681340002BD8
:103D80001AD07B681B681B6803F00403002B13D058
:103D90007B681B681A687B681B6822F004021A6043
:103DA0007B68DB6D08229A403B699A607B685B6D9B
:103DB00043F001027B685A657B68DB6D01229A4003
:103DC000FB681340002B12D07B681B685B6903F013
:103DD0008003002B0BD07B68DB6D01229A403B698E
:103DE0009A607B685B6D43F002027B685A657B6872
:103DF000DB6D04229A40FB681340002B12D07B68D5
:103E00001B681B6803F00203002B0BD07B68DB6D83
:103E100004229A403B699A607B685B6D43F0040220
:103E20007B685A657B68DB6D10229A40FB68134003
:103E3000002B43D07B681B681B6803F00803002B32
:103E40003CD07B68DB6D10229A403B699A607B68AE
:103E50001B681B6803F48023002B18D07B681B6849
:103E60001B6803F40023002B08D17B681B6C002B1C
:103E700024D07B681B6C786898471FE07B689B6C3C
:103E8000002B1BD07B689B6C7868984716E07B689A
:103E90001B681B6803F48073002B07D17B681B68C9
:103EA0001A687B681B6822F008021A607B681B6C2A
:103EB000002B03D07B681B6C786898477B68DB6DB0
:103EC00020229A40FB681340002B00F08F807B6813
:103ED0001B681B6803F01003002B00F087807B68D1
:103EE000DB6D20229A403B699A607B6893F83530FD
:103EF000DBB2052B36D17B681B681A687B681B68B0
:103F000022F016021A607B681B685A697B681B687E
:103F100022F080025A617B681B6C002B03D17B6806
:103F20009B6C002B07D07B681B681A687B681B683A
:103F300022F008021A607B68DB6D3F229A403B69E1
:103F40009A607B68012283F835207B68002283F821
:103F500034207B681B6D002B7ED07B681B6D7868DE
:103F6000984779E07B681B681B6803F48023002B6B
:103F70001DD07B681B681B6803F40023002B0DD148
:103F80007B685B6C002B31D07B685B6C78689847F2
:103F90002CE000BF40000020B5814E1B7B68DB6B2E
:103FA000002B23D07B68DB6B786898471EE07B682A
:103FB0001B681B6803F48073002B0FD17B681B68A0
:103FC0001A687B681B6822F010021A607B68012265
:103FD00083F835207B68002283F834207B68DB6B14
:103FE000002B03D07B68DB6B786898477B685B6D40
:103FF000002B32D07B685B6D03F00103002B22D0D5
:104000007B68052283F835207B681B681A687B680B
:104010001B6822F001021A60BB680133BB607A6939
:104020009A4207D37B681B681B6803F00103002BCF
:10403000F2D100E000BF7B68012283F835207B6865
:10404000002283F834207B68DB6C002B05D07B6872
:10405000DB6C7868984700E000BF1837BD4680BD2C
:1040600080B485B000AFF860B9607A603B60FB68EF
:104070001B681A68FB681B6822F480221A60FB68C0
:104080001B683A685A60FB689B68402B08D1FB6844
:104090001B687A689A60FB681B68BA68DA6007E098
:1040A000FB681B68BA689A60FB681B687A68DA600C
:1040B00000BF1437BD465DF8047B704780B485B0FF
:1040C00000AF78607B681B68DBB2103B144AA2FB30
:1040D00003231B09FB60134AFB6813441B781A4631
:1040E0007B68DA65FB68032B09D97B681B6823F4BE
:1040F0007F7323F003031A1D7B689A6507E07B68D2
:104100001B6823F47F7323F003037A6893657B684D
:104110009B6D18461437BD465DF8047B704700BFA1
:10412000ABAAAAAA30A4000880B485B000AF78601A
:104130000023FB737B689B6ABB607B689B69002BD9
:104140001FD1BB68032B56D801A252F823F000BF41
:10415000614100087341000861410008F74100080F
:104160007B68DB6A03F08073002B46D00123FB736E
:1041700043E07B68DB6AB3F1C07F40D10123FB736E
:104180003DE07B689B69B3F5005F21D1BB68032BE1
:1041900037D801A252F823F0A9410008AF41000826
:1041A000A9410008C14100080123FB7330E07B688E
:1041B000DB6A03F08073002B25D00123FB7322E020
:1041C0007B68DB6AB3F1C07F1FD10123FB731CE066
:1041D000BB68022B03D9BB68032B03D018E0012373
:1041E000FB7315E07B68DB6A03F08073002B0ED055
:1041F0000123FB730BE000BF0AE000BF08E000BF33
:1042000006E000BF04E000BF02E000BF00E000BF26
:10421000FB7B18461437BD465DF8047B704700BF32
:1042200080B489B000AF7860396000237B610023DF
:104230003B610023BB610023FB616BE10122FB6951
:1042400002FA03F37B613B681B687A6913403B61A8
:104250003A697B699A4240F05A813B685B6803F097
:104260000303012B05D03B685B6803F00303022BBB
:1042700030D17B689B68BB61FB695B00032202FA5B
:1042800003F3DB43BA691340BB613B68DA68FB693F
:104290005B0002FA03F3BA691343BB617B68BA6936
:1042A0009A607B685B68BB610122FB6902FA03F3D9
:1042B000DB43BA691340BB613B685B681B0903F0D1
:1042C0000102FB6902FA03F3BA691343BB617B681D
:1042D000BA695A603B685B6803F00303032B17D08D
:1042E0007B68DB68BB61FB695B00032202FA03F3B6
:1042F000DB43BA691340BB613B689A68FB695B00AA
:1043000002FA03F3BA691343BB617B68BA69DA60E6
:104310003B685B6803F00303022B23D1FB69DA08D7
:104320007B68083253F82230BB61FB6903F0070356
:104330009B000F2202FA03F3DB43BA691340BB610F
:104340003B681A69FB6903F007039B0002FA03F359
:10435000BA691343BB61FB69DA087B680832B96943
:1043600043F822107B681B68BB61FB695B0003227A
:1043700002FA03F3DB43BA691340BB613B685B6835
:1043800003F00302FB695B0002FA03F3BA6913430B
:10439000BB617B68BA691A603B685B6803F44033B1
:1043A000002B00F0B4800023FB60604B5B6C5F4A25
:1043B00043F4804353645D4B5B6C03F48043FB60C8
:1043C000FB685B4AFB699B08023352F82330BB61F0
:1043D000FB6903F003039B000F2202FA03F3DB43A4
:1043E000BA691340BB617B68524A93422BD07B6809
:1043F000514A934225D07B68504A93421FD07B6834
:104400004F4A934219D07B684E4A934213D07B683F
:104410004D4A93420DD07B684C4A934207D07B684B
:104420004B4A934201D107230EE008230CE00623F8
:104430000AE0052308E0042306E0032304E0022346
:1044400002E0012300E00023FA6902F00302920077
:104450009340BA691343BB613549FB699B0802333A
:10446000BA6941F823203B4B9B68BB613B69DB4346
:10447000BA691340BB613B685B6803F48013002B8F
:1044800003D0BA693B691343BB61324ABB6993608D
:10449000304BDB68BB613B69DB43BA691340BB61EE
:1044A0003B685B6803F40013002B03D0BA693B69D7
:1044B0001343BB61274ABB69D360264B5B68BB6172
:1044C0003B69DB43BA691340BB613B685B6803F43B
:1044D0000033002B03D0BA693B691343BB611D4A0B
:1044E000BB6953601B4B1B68BB613B69DB43BA690B
:1044F0001340BB613B685B6803F48033002B03D03F
:10450000BA693B691343BB61124ABB691360FB691B
:104510000133FB61FB690F2B7FF690AE00BF00BF3C
:104520002437BD465DF8047B704700BF0038024069
:104530000038014000000240000402400008024030
:10454000000C02400010024000140240001802401B
:10455000001C0240003C014080B483B000AF786092
:104560000B467B8013467B707B78002B03D07A88C8
:104570007B689A6103E07B881A047B689A6100BFBC
:104580000C37BD465DF8047B7047000080B584B0F1
:1045900000AF78607B68002B01D101232BE17B68A1
:1045A00093F83D30DBB2002B06D17B68002283F804
:1045B0003C207868FDF726FA7B68242283F83D20AA
:1045C0007B681B681A687B681B6822F001021A600E
:1045D0007B681B681A687B681B6842F400421A609B
:1045E0007B681B681A687B681B6822F400421A60AB
:1045F00001F046FDF8607B685B68814A934207D80A
:10460000FB68804A934294BF01230023DBB206E09B
:10461000FB687D4A934294BF01230023DBB2002B49
:1046200001D00123E7E0FB68784AA2FB03239B0C3F
:10463000BB607B681B685B6823F03F017B681B687D
:10464000BA680A435A607B681B681B6A23F03F0103
:104650007B685B686A4A934202D8BB68013309E011
:10466000BB684FF4967202FB03F3694AA2FB032373
:104670009B0901337A6812680B4313627B681B68DD
:10468000DB6923F44F4222F0FF027B685B685C49E0
:104690008B4219D8FB68591E7B685B685B00B1FBD5
:1046A000F3F3591C40F6FC730B40002B0AD0FB6857
:1046B000591E7B685B685B00B1FBF3F30133C3F306
:1046C0000B0351E004234FE07B689B68002B11D162
:1046D000FB68581E7B6859680B465B000B44B0FBB7
:1046E000F3F30133C3F30B03002B0CBF01230023AF
:1046F000DBB212E0FB68581E7B6859680B469B00D2
:104700000B4499000B44B0FBF3F30133C3F30B03E9
:10471000002B0CBF01230023DBB2002B01D00123AF
:1047200022E07B689B68002B0ED1FB68581E7B68DB
:1047300059680B465B000B44B0FBF3F30133C3F342
:104740000B0343F400430FE0FB68581E7B68596875
:104750000B469B000B4499000B44B0FBF3F3013371
:10476000C3F30B0343F44043796809681343CB61F7
:104770007B681B681B6823F0C0017B68DA697B6873
:104780001B6A1A437B681B680A431A607B681B68B4
:104790009B6823F4034323F0FF037A6811697A6866
:1047A000D26811437A6812680B4393607B681B6878
:1047B000DB6823F0FF017B685A697B689B691A43B9
:1047C0007B681B680A43DA607B681B681A687B6831
:1047D0001B6842F001021A607B6800221A647B6841
:1047E000202283F83D207B6800221A637B68002228
:1047F00083F83E20002318461037BD4680BD00BF19
:10480000A08601007F841E00FF083D0083DE1B435D
:10481000D34D621080B588B002AFF8607A601A4656
:104820000B467B8113463B81FEF71CFB7861FB68DE
:1048300093F83D30DBB2202B40F0E0807B690093A1
:10484000192301227049F86800F064FC0346002B2C
:1048500001D00223D3E0FB6893F83C30012B01D157
:104860000223CCE0FB68012283F83C20FB681B6834
:104870001B6803F00103012B07D0FB681B681A6853
:10488000FB681B6842F001021A60FB681B681A682B
:10489000FB681B6822F400621A60FB68212283F81F
:1048A0003D20FB68102283F83E20FB6800221A643A
:1048B000FB687A685A62FB683A895A85FB685B8DA7
:1048C0009AB2FB681A85FB68504ADA6279897B697B
:1048D0003A6AF86800F0CEFA0346002B01D00123B3
:1048E0008DE000233B61FB681B685B693B61FB68F3
:1048F0001B689B693B613B6966E07A69396AF868C5
:1049000000F022FD0346002B0DD0FB681B6C042B2E
:1049100007D1FB681B681A68FB681B6842F40072C9
:104920001A6001236BE0FB685B6A1A78FB681B68FE
:104930001A61FB685B6A5A1CFB685A62FB685B8DF4
:104940009BB2013B9AB2FB685A85FB681B8D013B09
:104950009AB2FB681A85FB681B685B6903F0040365
:10496000042B1BD1FB681B8D002B17D0FB685B6AE7
:104970001A78FB681B681A61FB685B6A5A1CFB6843
:104980005A62FB685B8D9BB2013B9AB2FB685A8509
:10499000FB681B8D013B9AB2FB681A857A69396AFC
:1049A000F86800F019FD0346002B0DD0FB681B6C66
:1049B000042B07D1FB681B681A68FB681B6842F46C
:1049C00000721A6001231AE0FB681B8D002B94D142
:1049D000FB681B681A68FB681B6842F400721A6067
:1049E000FB68202283F83D20FB68002283F83E20EC
:1049F000FB68002283F83C20002300E002231846D5
:104A00001837BD4680BD00BF020010000000FFFF48
:104A100080B58CB002AFF8607A601A460B467B8195
:104A200013463B81FEF71EFA7862FB6893F83D302F
:104A3000DBB2202B40F017827B6A009319230122FE
:104A40007C49F86800F066FB0346002B01D0022386
:104A50000AE2FB6893F83C30012B01D1022303E208
:104A6000FB68012283F83C20FB681B681B6803F08D
:104A70000103012B07D0FB681B681A68FB681B68E1
:104A800042F001021A60FB681B681A68FB681B6829
:104A900022F400621A60FB68222283F83D20FB6842
:104AA000102283F83E20FB6800221A64FB687A68B3
:104AB0005A62FB683A895A85FB685B8D9AB2FB683B
:104AC0001A85FB685C4ADA6279897B6A3A6BF86816
:104AD00000F052FA0346002B01D00123C4E1FB6829
:104AE0001B8D002B13D100233B62FB681B685B69A5
:104AF0003B62FB681B689B693B623B6AFB681B6807
:104B00001A68FB681B6842F400721A6098E1FB683F
:104B10001B8D012B1BD1FB681B681A68FB681B6887
:104B200022F480621A600023FB61FB681B685B69EA
:104B3000FB61FB681B689B69FB61FB69FB681B6889
:104B40001A68FB681B6842F400721A6078E1FB681F
:104B50001B8D022B1BD1FB681B681A68FB681B6846
:104B600022F480621A60FB681B681A68FB681B6885
:104B700042F400621A600023BB61FB681B685B693A
:104B8000BB61FB681B689B69BB61BB6958E1FB6843
:104B90001B681A68FB681B6842F480621A60002375
:104BA0007B61FB681B685B697B61FB681B689B69B9
:104BB0007B617B6944E1FB681B8D032B00F2F18074
:104BC000FB681B8D012B23D17A6A396BF86800F0E2
:104BD0004BFC0346002B01D0012345E1FB681B6819
:104BE0001A69FB685B6AD2B21A70FB685B6A5A1C6E
:104BF000FB685A62FB681B8D013B9AB2FB681A8501
:104C0000FB685B8D9BB2013B9AB2FB685A8517E14A
:104C1000FB681B8D022B4ED17B6A00933B6B0022FD
:104C20000649F86800F076FA0346002B08D0012305
:104C30001AE100BF020010000000FFFF04000100A5
:104C4000FB681B681A68FB681B6842F400721A60F4
:104C5000FB681B681A69FB685B6AD2B21A70FB6852
:104C60005B6A5A1CFB685A62FB681B8D013B9AB257
:104C7000FB681A85FB685B8D9BB2013B9AB2FB68AF
:104C80005A85FB681B681A69FB685B6AD2B21A70A6
:104C9000FB685B6A5A1CFB685A62FB681B8D013B10
:104CA0009AB2FB681A85FB685B8D9BB2013B9AB296
:104CB000FB685A85C4E07B6A00933B6B00226C4919
:104CC000F86800F027FA0346002B01D00123CBE05F
:104CD000FB681B681A68FB681B6822F480621A6014
:104CE000FB681B681A69FB685B6AD2B21A70FB68C2
:104CF0005B6A5A1CFB685A62FB681B8D013B9AB2C7
:104D0000FB681A85FB685B8D9BB2013B9AB2FB681E
:104D10005A857B6A00933B6B00225549F86800F086
:104D2000F9F90346002B01D001239DE0FB681B68C5
:104D30001A68FB681B6842F400721A60FB681B6803
:104D40001A69FB685B6AD2B21A70FB685B6A5A1C0C
:104D5000FB685A62FB681B8D013B9AB2FB681A859F
:104D6000FB685B8D9BB2013B9AB2FB685A85FB687E
:104D70001B681A69FB685B6AD2B21A70FB685B6ACF
:104D80005A1CFB685A62FB681B8D013B9AB2FB6898
:104D90001A85FB685B8D9BB2013B9AB2FB685A8512
:104DA0004EE07A6A396BF86800F05EFB0346002B30
:104DB00001D0012358E0FB681B681A69FB685B6A35
:104DC000D2B21A70FB685B6A5A1CFB685A62FB68B5
:104DD0001B8D013B9AB2FB681A85FB685B8D9BB209
:104DE000013B9AB2FB685A85FB681B685B6903F05C
:104DF0000403042B24D1FB681B8D032B07D1FB6814
:104E00001B681A68FB681B6822F480621A60FB68E2
:104E10001B681A69FB685B6AD2B21A70FB685B6A2E
:104E20005A1CFB685A62FB681B8D013B9AB2FB68F7
:104E30001A85FB685B8D9BB2013B9AB2FB685A8571
:104E4000FB681B8D002B7FF4B6AEFB68202283F835
:104E50003D20FB68002283F83E20FB68002283F897
:104E60003C20002300E0022318462837BD4680BDC1
:104E70000400010080B588B002AFF8607A603B6042
:104E80000B467B81FB68DB6A7B617B69082B06D064
:104E90007B69012B03D07B6913F5803F08D1FB6848
:104EA0001B681A68FB681B6842F480721A600BE08A
:104EB000FB681B6B122B07D1FB681B681A68FB6829
:104EC0001B6842F480721A603B6800937B68002282
:104ED0004FF00111F86800F01DF90346002B0DD0CA
:104EE000FB681B681B6803F48073B3F5807F03D1F4
:104EF000FB684FF400721A64032335E0FB681B69FA
:104F0000B3F5804F08D17B89DBB21A46FB681B687A
:104F100002F0FE021A611BE07B89DB11DBB203F0B9
:104F20000603DBB263F00F03DAB2FB681B681A6199
:104F30003B687A680E49F86800F066F90346002B72
:104F400001D0012310E07B89DAB2FB681B681A618B
:104F50003B687A680749F86800F056F90346002B69
:104F600001D0012300E0002318461837BD4680BD5C
:104F7000080001000200010080B588B002AFF860AF
:104F80007A603B600B467B81FB68DB6A7B61FB6878
:104F90001B681A68FB681B6842F480621A607B69B0
:104FA000082B06D07B69012B03D07B6913F5803F6A
:104FB00008D1FB681B681A68FB681B6842F48072A2
:104FC0001A600BE0FB681B6B112B07D1FB681B6899
:104FD0001A68FB681B6842F480721A603B68009391
:104FE0007B6800224FF00111F86800F093F8034647
:104FF000002B0DD0FB681B681B6803F48073B3F5AE
:10500000807F03D1FB684FF400721A64032379E0B8
:10501000FB681B69B3F5804F08D17B89DBB243F095
:105020000103DAB2FB681B681A615FE07B89DB1160
:10503000DBB203F00603DBB263F00F03DAB2FB6806
:105040001B681A613B687A683049F86800F0DCF840
:105050000346002B01D0012354E07B89DAB2FB68C0
:105060001B681A613B687A682949F86800F0CCF837
:105070000346002B01D0012344E000233B61FB6881
:105080001B685B693B61FB681B689B693B613B6913
:10509000FB681B681A68FB681B6842F480721A6020
:1050A0003B6800937B6800224FF00111F86800F024
:1050B00031F80346002B0DD0FB681B681B6803F416
:1050C0008073B3F5807F03D1FB684FF400721A64DC
:1050D000032317E07B89DB11DBB203F00603DBB2AD
:1050E00063F00E03DAB2FB681B681A613B687A68EA
:1050F0000749F86800F088F80346002B01D0012327
:1051000000E0002318461837BD4680BD08000100A6
:105110000200010080B584B000AFF860B9603B6068
:105120001346FB7148E03B68B3F1FF3F44D0FDF705
:1051300099FE0246BB69D31A3A689A4202D33B6889
:10514000002B39D1BB681B0CDBB2012B0DD1FB68E6
:105150001B685B69DA43BB6813409BB2002B0CBF32
:1051600001230023DBB21A460CE0FB681B689B6935
:10517000DA43BB6813409BB2002B0CBF0123002312
:10518000DBB21A46FB799A4216D1FB6800221A63F9
:10519000FB68202283F83D20FB68002283F83E2034
:1051A000FB681B6C43F02002FB681A64FB6800225A
:1051B00083F83C20012323E0BB681B0CDBB2012BEE
:1051C0000DD1FB681B685B69DA43BB6813409BB277
:1051D000002B0CBF01230023DBB21A460CE0FB6856
:1051E0001B689B69DA43BB6813409BB2002B0CBF62
:1051F00001230023DBB21A46FB799A4293D00023A5
:1052000018461037BD4680BD80B584B000AFF86049
:10521000B9607A603B6071E0FB681B685B6903F40E
:105220008063B3F5806F23D1FB681B681A68FB6845
:105230001B6842F400721A60FB681B686FF480629E
:105240005A61FB6800221A63FB68202283F83D2024
:10525000FB68002283F83E20FB681B6C43F00402CD
:10526000FB681A64FB68002283F83C20012367E096
:105270007B68B3F1FF3F41D0FDF7F4FD02463B6888
:10528000D31A7A689A4202D37B68002B36D1BB6866
:105290001B0CDBB2012B0CD1FB681B685B69DA438A
:1052A000BB6813409BB2002B14BF01230023DBB269
:1052B0000BE0FB681B689B69DA43BB6813409BB239
:1052C000002B14BF01230023DBB2002B16D0FB6898
:1052D00000221A63FB68202283F83D20FB6800222D
:1052E00083F83E20FB681B6C43F02002FB681A64C5
:1052F000FB68002283F83C20012321E0BB681B0CE3
:10530000DBB2012B0CD1FB681B685B69DA43BB681D
:1053100013409BB2002B14BF01230023DBB20BE030
:10532000FB681B689B69DA43BB6813409BB2002B88
:1053300014BF01230023DBB2002B7FF46DAF0023E9
:1053400018461037BD4680BD80B584B000AFF86008
:10535000B9607A6034E0F86800F0E3F80346002BA7
:1053600001D0012334E0BB68B3F1FF3F28D0FDF743
:1053700079FD02467B68D31ABA689A4202D3BB68A9
:10538000002B1DD1FB681B685B6903F08003802B39
:1053900016D0FB6800221A63FB68202283F83D20A8
:1053A000FB68002283F83E20FB681B6C43F0200260
:1053B000FB681A64FB68002283F83C20012307E0A5
:1053C000FB681B685B6903F08003802BC3D100235B
:1053D00018461037BD4680BD80B584B000AFF86078
:1053E000B9607A6034E0F86800F09BF80346002B5F
:1053F00001D0012334E0BB68B3F1FF3F28D0FDF7B3
:1054000031FD02467B68D31ABA689A4202D3BB6860
:10541000002B1DD1FB681B685B6903F00403042BA0
:1054200016D0FB6800221A63FB68202283F83D2017
:10543000FB68002283F83E20FB681B6C43F02002CF
:10544000FB681A64FB68002283F83C20012307E014
:10545000FB681B685B6903F00403042BC3D10023C2
:1054600018461037BD4680BD80B584B000AFF860E7
:10547000B9607A6049E0FB681B685B6903F0100360
:10548000102B19D1FB681B686FF010025A61FB6882
:1054900000221A63FB68202283F83D20FB6800226B
:1054A00083F83E20FB681A6CFB681A64FB680022D4
:1054B00083F83C20012330E0FDF7D4FC02467B68F2
:1054C000D31ABA689A4202D3BB68002B1DD1FB687D
:1054D0001B685B6903F04003402B16D0FB68002279
:1054E0001A63FB68202283F83D20FB68002283F8C2
:1054F0003E20FB681B6C43F02002FB681A64FB68CB
:10550000002283F83C20012307E0FB681B685B69ED
:1055100003F04003402BAED1002318461037BD46A0
:1055200080BD80B483B000AF78607B681B685B6926
:1055300003F48063B3F5806F1BD17B681B686FF445
:1055400080625A617B6800221A637B68202283F89C
:105550003D207B68002283F83E207B681B6C43F073
:1055600004027B681A647B68002283F83C200123D4
:1055700000E0002318460C37BD465DF8047B7047F9
:1055800080B586B002AF78607B68002B01D1012323
:1055900001E17B681B68BB607B6893F89534DBB2E4
:1055A000002B06D17B68002283F894247868FDF7ED
:1055B0007DFB7B68032283F89524BB68B3F1A04F81
:1055C00002D17B6800229A717B681B68184601F043
:1055D0007FFD7B6818687B681A7C8DF80020043397
:1055E0000ECB01F011FD0346002B05D07B68022293
:1055F00083F895240123CEE07B681B6800211846C0
:1056000001F077FD0346002B05D07B68022283F86A
:1056100095240123BFE00023FB734AE0FA7B7968FD
:105620001346DB0013449B000B44153301221A7010
:10563000FA7B79681346DB0013449B000B44143358
:10564000FA7B1A70FA7BFB7B98B279681346DB0011
:1056500013449B000B442E3302461A80FA7B796870
:105660001346DB0013449B000B44183300221A70CE
:10567000FA7B79681346DB0013449B000B441C3310
:1056800000221A60FA7B79681346DB0013449B0002
:105690000B44203300221A60FA7B79681346DB0042
:1056A00013449B000B44243300221A60FB7B01331C
:1056B000FB737B681B79FA7B9A42AFD30023FB73A1
:1056C00044E0FA7B79681346DB0013449B000B44EB
:1056D00003F2552300221A70FA7B79681346DB0027
:1056E00013449B000B4403F51573FA7B1A70FA7B85
:1056F00079681346DB0013449B000B4403F51673D3
:1057000000221A70FA7B79681346DB0013449B0071
:105710000B4403F5177300221A60FA7B796813466D
:10572000DB0013449B000B4403F5187300221A603E
:10573000FA7B79681346DB0013449B000B4403F5A6
:10574000197300221A60FB7B0133FB737B681B79A2
:10575000FA7B9A42B5D37B6818687B681A7C8DF80F
:10576000002004330ECB01F011FD0346002B05D0C1
:105770007B68022283F8952401230CE07B680022D9
:105780005A747B68012283F895247B681B6818464D
:1057900001F0D9FE002318461037BD4680BD000039
:1057A00080B586B000AF78607B68002B01D1012303
:1057B00067E27B681B6803F00103002B75D0884B00
:1057C0009B6803F00C03042B0CD0854B9B6803F003
:1057D0000C03082B12D1824B5B6803F48003B3F5F2
:1057E000800F0BD17E4B1B6803F40033002B5BD082
:1057F0007B685B68002B57D1012342E27B685B68C2
:10580000B3F5803F06D1764B1B68754A43F480336D
:1058100013601DE07B685B68B3F5A02F0CD1704B63
:105820001B686F4A43F4802313606D4B1B686C4AFE
:1058300043F4803313600BE0694B1B68684A23F420
:1058400080331360664B1B68654A23F48023136022
:105850007B685B68002B13D0FDF704FB386108E020
:10586000FDF700FB02463B69D31A642B01D90323E1
:1058700007E25B4B1B6803F40033002BF0D014E00D
:10588000FDF7F0FA386108E0FDF7ECFA02463B69F3
:10589000D31A642B01D90323F3E1514B1B6803F4A2
:1058A0000033002BF0D100E000BF7B681B6803F0E1
:1058B0000203002B63D04A4B9B6803F00C03002BC0
:1058C0000BD0474B9B6803F00C03082B1CD1444BB7
:1058D0005B6803F48003002B16D1414B1B6803F077
:1058E0000203002B05D07B68DB68012B01D001236C
:1058F000C7E13B4B1B6823F0F8027B681B69DB00A8
:10590000374913430B603AE07B68DB68002B20D0FB
:10591000344B01221A60FDF7A5FA386108E0FDF763
:10592000A1FA02463B69D31A022B01D90323A8E14D
:105930002B4B1B6803F00203002BF0D0284B1B6895
:1059400023F0F8027B681B69DB00254913430B60D9
:1059500015E0244B00221A60FDF784FA386108E054
:10596000FDF780FA02463B69D31A022B01D90323C3
:1059700087E11B4B1B6803F00203002BF0D17B680F
:105980001B6803F00803002B36D07B685B69002B93
:1059900016D0154B01221A60FDF764FA386108E051
:1059A000FDF760FA02463B69D31A022B01D90323A3
:1059B00067E10B4B5B6F03F00203002BF0D01BE0A1
:1059C000094B00221A60FDF74DFA38610EE0FDF731
:1059D00049FA02463B69D31A022B07D9032350E147
:1059E0000038024000004742800E4742884B5B6F00
:1059F00003F00203002BEAD17B681B6803F0040369
:105A0000002B00F097800023FB75814B1B6C03F08B
:105A10008053002B0FD10023BB607D4B1B6C7C4A55
:105A200043F0805313647A4B1B6C03F08053BB60CC
:105A3000BB680123FB75774B1B6803F48073002B55
:105A400018D1744B1B68734A43F480731360FDF7DD
:105A500009FA386108E0FDF705FA02463B69D31AF6
:105A6000022B01D903230CE16A4B1B6803F48073FA
:105A7000002BF0D07B689B68012B06D1644B1B6F19
:105A8000634A43F0010313671CE07B689B68052BA6
:105A90000CD15F4B1B6F5E4A43F0040313675C4BF2
:105AA0001B6F5B4A43F0010313670BE0584B1B6FFE
:105AB000574A23F001031367554B1B6F544A23F0D9
:105AC000040313677B689B68002B15D0FDF7CAF9A8
:105AD00038610AE0FDF7C6F902463B69D31A41F284
